:020000041103E6
:1020000003B40148019001BDD1AEFF1F03B40148E4
:10201000019001BDED54FF1F03B40148019001BDC3
:102020008954FF1F03B40148019001BDE1BFFF1FA8
:1020300003B40148019001BDA9AEFF1F03B40148DC
:10204000019001BD25AEFF1F03B40148019001BD01
:10205000B9AEFF1F03B40148019001BDBB54FF1F7F
:1020600003B40148019001BDBB54FF1F03B40148F4
:10207000019001BD3164FF1F03B40148019001BD0F
:102080006D63FF1F03B40148019001BD2964FF1F68
:1020900003B40148019001BD8954FF1F03B40148F6
:1020A000019001BD918CFF1F03B40148019001BD57
:1020B0004108000003B40148019001BD0755FF1F0E
:1020C00003B40148019001BDE963FF1F03B4014857
:1020D000019001BDBDF3FF1F03B40148019001BD94
:1020E00071CAFF1F03B40148019001BD7181000056
:1020F00003B40148019001BDADC9FF1F03B40148FD
:10210000019001BD85CAFF1F03B40148019001BDC4
:1021100069CAFF1F03B40148019001BDC564FF1FD8
:1021200003B40148019001BD4964FF1F03B4014895
:10213000019001BD6902000003B40148019001BD96
:10214000C9F5FF1F03B40148019001BD0165FF1FE0
:1021500003B40148019001BD0BAEFF1F03B4014859
:10216000019001BD7DF5FF1F03B40148019001BD41
:1021700025F6FF1F03B40148019001BD4DF5FF1F77
:1021800003B40148019001BD9DF5FF1F03B4014850
:10219000019001BD4DF6FF1F03B40148019001BD40
:1021A00031C9FF1F03B40148019001BD51CAFF1F8F
:1021B00003B40148019001BD69C9FF1F03B4014880
:1021C000019001BD89BEFF1F03B40148019001BD0C
:1021D000AD54FF1F03B40148019001BD61CAFF1F48
:1021E00003B40148019001BDE9F8FF1F03B40148A1
:1021F000019001BDF9F8FF1F014988607047000098
:10220000381500200A4670B501463C20154B414365
:10221000C8180579124C002D02D15958002904D054
:102220003021095C012902D018E00D2416E00324B6
:102230000D4E0E4B002128254D43ED186D8CB542F7
:1022400009D0954207D13430FFF7DAFE002402208E
:1022500006F09CFB02E0491C0A29ECD3204670BD25
:1022600021240000087B0020FFFF000018820020CE
:10227000F7B50746274E0A2527488C4600242146F5
:10228000282251430A18528C244B9A4214D062459A
:1022900015D128225443025BBA4201D0042636E00D
:1022A00008181022801C0299FFF7B0FE002801D008
:1022B00006262CE000262AE00A2D00D12546641CC3
:1022C0000A2CDCD30A2D22D02C4628225443124853
:1022D000614626187184B01C10220299FFF79CFEFB
:1022E0000D4829460753782047430D483818703069
:1022F000FFF786FE324624321021029807F0EAF9F1
:1023000000202036B0710646102006F03FFB304614
:10231000FEBD00002024000018820020FFFF000006
:10232000587E0020F8B50F460C4D0146E888164649
:10233000052801D30A48F8BD14225043094A8418DD
:1023400010222046FFF768FE2782A674E888401C0A
:10235000E880082006F01AFB0020F8BD34140020A5
:1023600025240000A8830020FFB593B01C46154625
:102370000EA91C9F139800F095FB0D90002843D1E7
:10238000FFF750FE14980121C01C86B208A8017204
:102390008572290A41720473210AC1728773390A4E
:1023A00041731D990174090AC17301A800900923A2
:1023B0000AAA10210EA807F0EBF8684601797820E8
:1023C000134C464335194222515528462F4601A940
:1023D0003230223710220131FFF71EFE05A91022EC
:1023E00001313846FFF718FE01200003A05313986F
:1023F00078214843001974301499FFF701FE1398AF
:102400006867042006F0C2FA0D9817B0F0BD00000E
:10241000587E00207FB50C463C2148431749164E94
:1024200045183020405D012822D12078761E0128F1
:102430000AD06088694688806A46012101A806F0B2
:10244000B5FF002814D10AE06B4601AA0121201D26
:1024500006F0E2FF00280BD168468088608028469D
:10246000002638300099FFF7CBFD022006F08EFAE7
:10247000304604B070BD000021240000087B00201D
:10248000F8B5944606460B46032405202E4A2F4DE8
:10249000002178274F43EF5B974201D1032C11D0E5
:1024A000B74210D10C462A498B4215D178204443BB
:1024B000601910226146801CFFF7A8FD002800D09B
:1024C0000620F8BD0C46491C0329E2D32049491DCA
:1024D0008B4201D10420F8BD032CFCD01C48834260
:1024E0001BD1A0B200236246314606F023F8A0B209
:1024F000002106F035F878204443641920467030F6
:102500000A21FFF795FD204674300521FFF790FD65
:1025100010498888401C888013E0A0B27821484385
:1025200040196030407B002801D00B20F8BDA0B2DC
:1025300001236246314605F0FDFFA0B2012106F0FD
:102540000FF80020F8BD0000FFFF0000587E0020BB
:10255000408000003414002070B53C2148431149EC
:102560000F4D44183020005D012813D1002238346B
:1025700020460A21FFF762FD0546401C05D00121D7
:10258000284606F021FB6A1CF2E720460A21FFF7E5
:102590004FFD0025022006F0F9F9284670BD000025
:1025A00021240000087B002070B5CA1C154694B297
:1025B0007822074E504380197430FFF745FD78218B
:1025C0004C430448A1194867A8B200F03BF870BD1D
:1025D000587E0020FFFF0000F8B50C460021C943DB
:1025E00000913C2148431649144E45183020405D67
:1025F000012820D12078761E012807D06A460121C3
:10260000A01C06F0B5FE002815D106E06B46A21C02
:102610000121201D06F076FFF5E70121009806F064
:10262000D3FA060007D1284638300099FFF70CFD91
:10263000022006F0ABF93046F8BD0000212400006E
:10264000087B002070B5104B0C269A88012A19D9F6
:10265000782148430D490E4C0D5AA54212D0521E06
:102660000C5200269A8045183246703528460A21B9
:10267000FFF7E4FC0446401C04D0204606F0DCFAD8
:10268000621CF3E7304670BD34140020587E0020F1
:10269000FFFF000078235843034B0022C018406F0F
:1026A0000880104670470000587E002070B5044630
:1026B0000848094E094B0022782555435D5BB54219
:1026C00004D0A54202D10A80002070BD521C032A0A
:1026D000F2D370BD21240000FFFF0000587E0020CF
:1026E000F0B5002933D0002831D00288002A2ED03E
:1026F0000027184C3A463B469D00665B002E0AD0E8
:102700002D19ED78002D06D055004E53521C05882A
:1027100092B2954202D05B1C052BEDD30D4C0023E9
:10272000643C14255D432D192E8A002E09D0ED7CC2
:10273000002D06D055004E53521C058892B295428A
:1027400002D05B1C052BECD302803846F0BD02485A
:10275000F0BD0000447E00201124000030B5034687
:102760000B48002910D0002A0ED028246343094CBE
:10277000094D1B195C8CAC4205D0981C20330860B5
:1027800018791070002030BD01480F3830BD0000AE
:102790002224000018820020FFFF0000FFB59446AD
:1027A00002461348134F144D81B0002423462826B7
:1027B00073435E19768CBE4215D08E4213D1EB5A0C
:1027C000934210D128206043411910226046891C91
:1027D000FFF71CFC002802D0062005B0F0BD0498CD
:1027E00004800020F9E7641C0A2CDFD3F5E7000021
:1027F00021240000FFFF000018820020F0B596465B
:102800007822154B42438C469A5A144F11490024A2
:10281000BA421BD0002328221E46114D564372197E
:10282000528CBA420CD0AD5B854209D165462D88E9
:10283000A54208D9660015467246641C9553A4B299
:102840005B1C0A2BE7D3002C00D0002160460480DB
:102850000846F0BD21240000587E0020FFFF000044
:1028600018820020002804D0034909780170002054
:102870007047024870470000341400201324000001
:10288000052807D2002905D0074AD288904204D3F0
:10289000064870470548401E704714225043044ABA
:1028A00080180860002070473414002012240000B3
:1028B000A883002002498978017000207047000039
:1028C000C87D0020024A0146527800200A707047F5
:1028D0003414002001228A4005490346497800202B
:1028E0000A4201D0012100E0002119707047000068
:1028F00034140020024A0146927800200A70704782
:102900003414002010B500280AD0064A1479136840
:102910001B1B0360002901D010790870002010BD36
:10292000014810BDBC7D00201324000000290BD0FD
:10293000064AC0071268C00FD307DB0F834200D0DE
:10294000521E00200A60704701487047BC7D00207D
:102950001324000030B578235843074B074D1C5A09
:10296000044AAC4204D0C0186030407B087000229A
:10297000104630BD21240000587E0020FFFF0000DB
:10298000F7B50F463C2148431349124E45183020F5
:10299000405D0024012819D10022343528460A213F
:1029A000FFF74CFB411C0ED03988A1420BD92821DE
:1029B0000A4A414389184A8C63000299641CCA522E
:1029C000A4B2421CEAE7002C00D000263C8030462E
:1029D000FEBD000021240000087B0020188200209A
:1029E00070B50C4601463C225143154A13488E18D7
:1029F00035462035297C012907D1287A012805D0C0
:102A00001C212046FFF726FB002070BDA21C0021E0
:102A1000B06906F09DFAB08B282148430949401857
:102A2000408CA082B07FA075F07FE075287820767A
:102A3000A8786076E878A076E6E700002124000018
:102A4000087B002018820020F7B53C214843144938
:102A5000124F46183020805D002501281AD100222F
:102A6000383630460A21FFF7E9FA0446401C0ED0FA
:102A700001980088A8420AD9029869000A18012121
:102A8000204606F065FA6D1CADB2621CE9E7002D28
:102A900000D00027019805803846FEBD21240000A3
:102AA000087B002070B578225043094A0B46145A1F
:102AB000084D0649AC4206D0811810221846891CE0
:102AC000FFF7AAFA0021084670BD0000212400008B
:102AD000587E0020FFFF0000F0B504460C4800229D
:102AE0000C4D134678265E43AE5B0B4FBE4206D0BC
:102AF0002788974206D95700521CCE5392B25B1CCE
:102B0000032BEFD3002A00D000202280F0BD00006C
:102B100021240000587E0020FFFF000038B50C463D
:102B200000222270782250430C4A0D4D135A0A4954
:102B3000AB420ED080186030007B207001216846C7
:102B4000FFF7C8FE68460078012801D002202070F7
:102B50000021084638BD000021240000587E0020D6
:102B6000FFFF0000002804D00349098801800020ED
:102B70007047024870470000C87D00201324000001
:102B8000F0B500280AD0002908D00D4A0B88D28859
:102B9000934200D9134600220A4F0CE00A48F0BDC8
:102BA00014245443E419268A950046532D18A47C16
:102BB000521CAC7092B29A42F2D30B800020F0BD4E
:102BC00034140020A88300201324000010B50B4605
:102BD000082801D3084810BD002B0AD078214843AB
:102BE00006491022411818464431FFF715FA002013
:102BF00010BD01480F3810BD22240000587E00206F
:102C000010B50B46082801D3084810BD002B0AD088
:102C10007821484306491022411818463231FFF7FF
:102C2000FBF9002010BD01480F3810BD2224000020
:102C3000587E002010B50B46082801D30B4810BD64
:102C4000002B0ED07821484309490A4C0A5AA24267
:102C50000AD04118102218465C31FFF7DDF9002038
:102C600010BD02480F3810BD042010BD2224000002
:102C7000587E0020FFFF000010B50B46082801D346
:102C80000B4810BD002B0ED07821484309490A4C4F
:102C90000A5AA2420AD04118082218465431FFF7B6
:102CA000BBF9002010BD02480F3810BD042010BD34
:102CB00022240000587E0020FFFF000010B50828E5
:102CC00006D278225043094A094C135AA34201D133
:102CD000084810BD002905D0801840308078087061
:102CE000002010BD03480F3810BD0000587E0020A2
:102CF000FFFF00002224000010B50B46082801D376
:102D0000084810BD002B0AD07821484306491022FC
:102D1000411818462231FFF77FF9002010BD014805
:102D20000F3810BD22240000587E002010B5024646
:102D3000054B54001A5D0A70E3185B780020DB0035
:102D40001A430A7010BD00003C140020F8B5184C5E
:102D500015460B00064615D0002D13D018881549CE
:102D6000884221D100202821134A414389180A466C
:102D700020321779B74208D1002418801022284643
:102D8000891C0DE00A4C0E3C10E09779002F0AD008
:102D90005279B24207D118800024102228461231FD
:102DA000FFF73AF902E0401C0A28DCD32046F8BDC0
:102DB00021240000FFFF000018820020FFB593B01F
:102DC0000F461699002008701398374E002835D00A
:102DD000002F33D01598002830D03D8833488542E5
:102DE00027D10025782032496843441821465431C0
:102DF00008221398FFF70AF9002822D020466030F5
:102E00001190407B002813D02AA000682AA11090BE
:102E100003C90991089012340EAA1021204606F029
:102E200027FC08220EA91398FFF7F0F8002818D005
:102E30006D1C032DD6D3304617B0F0BD1A4E0E3E92
:102E4000F9E73D8021460026443110221598FFF70E
:102E5000E3F86034607B0228EDD3169901200870F6
:102E6000E9E71198407B022802D2169901200870E8
:102E70000020049005900690079004AA042110A851
:102E800006F056FC0AA906200191009008AB04AA9E
:102E90001021204606F062FB3D80002610220AA980
:102EA0001598FFF7B9F8C6E721240000FFFF0000DE
:102EB000587E00206E6B626B69643132380100000D
:102EC000FFB5694F8FB00E0024D01198002821D093
:102ED000129800281ED034886448844249D10024C6
:102EE00078202146414362480D18284640308278B8
:102EF0000F998A4214D15F48807802280DD00027AC
:102F000034802946223110221198FFF785F829468E
:102F1000323147E0544F0E3FA3E0534F7F1DEFE7A0
:102F20006D21495D002923D0C0780F9988421FD1B7
:102F300000200A90284601AD123001230AAA102170
:102F4000009506F025FB4B48807802280DD000271D
:102F500034801022691C1298FFF75EF805A9102230
:102F600001311198FFF758F87BE03F4F7F1DEFE7E5
:102F7000641C032CB4D372E078203D4960434518AB
:102F80004220425D0F9882420FD134807820444322
:102F9000084621180027102222311198FFF73CF82B
:102FA0002946323110221298DCE7304A686F90428D
:102FB00054D078225043401800906030407B002865
:102FC0004CD0E01E2B4D81B20DAAA87801F0BAFEBC
:102FD0000098012108AA11722549AA789039098818
:102FE0001230022A2FD06B46DA8E08AB9A72120A80
:102FF0005A721973090AD9726A46118F08AA917315
:10300000090A51736A46518F08AA1174090AD173CB
:1030100001A9009109230AAA102106F0B9FA6A460B
:1030200011790F98814219D101A91022013112980A
:10303000FEF7F2FF05A9102201311198FEF7ECFF0F
:10304000002734800DE008AA9172090A51726A467D
:10305000D18E08AA1173090AD172CDE7641C082C1D
:103060008AD3384613B0F0BD21240000FFFF0000D2
:10307000587E002034140020FEB50024234F26463D
:103080003C206043C519284618301421FEF7E8FF9C
:10309000641C6E63A4B2AE630A2CF1D31C4D0F21E5
:1030A0003446AE8089011B48FEF7DAFFEC806421CC
:1030B0001948FEF7CFFFFF2191311848FEF7CAFFEC
:1030C000144E1821903EB5783046FEF7C3FF3046C7
:1030D000B57064211830FEF7BDFF304614217C30F6
:1030E000FEF7B8FF30460C38046004718460009429
:1030F0006846019401F06CFB054808300480448068
:10310000074805F043FC2046FEBD0000087B002078
:1031100034140020587E0020A8830020188200204C
:10312000FF030000002802D0811E7D2903D8034A36
:103130000021107000E00249084670473414002056
:10314000FFFF000070B501228A400F49054648780C
:10315000134600240340012D0FD0002B00D0012383
:1031600090434870002B06D0D0B202F0ADF9012098
:10317000400205F00BFC204670BD002B02D000235E
:103180001043EEE70123FBE73414002070B500265E
:10319000064D0446022802D0A878022802D1082051
:1031A00002F092F9AC70304670BD0000341400207B
:1031B000F8B50646134C0D46C80918D12079124FB0
:1031C000002805D12068B0421AD22A30B04217D365
:1031D0006846FEF74BFFA068002806D00099081A41
:1031E0000A49884201DA012D0AD00098A0606806D9
:1031F000400E26602071042005F0C8FB0020F8BDB9
:103200003846F8BDBC7D0020FFFF00000070991417
:1032100070B50D4603467821484302460C490D48D7
:103220008E5A0A4C86420FD0511860314A7B0024D6
:103230002978002A04D0184605F092F9024602E0E7
:10324000032900D004462A70204670BD21240000C6
:10325000587E0020FFFF0000F3B50C46C97E504F9A
:1032600083B0012901D0A58A18E04E4B4E480025B5
:1032700028226A431218528C9A4202D0A68A964299
:1032800002D06D1C0A2DF3D30A2D02D0012905D1DD
:1032900002E0032005B0F0BD0A2D76D06846808993
:1032A0003C21424E484380192030007C01286CD1DB
:1032B0003B4F20787F1E012807D001AA0021A01CC7
:1032C00006F074F8002860D10AE001AB6A460021DC
:1032D000201D06F0A1F8002857D1684600886080BC
:1032E000684680893C21484380192821095C0129CE
:1032F00006D180690199884202D0002105F064FC62
:103300006A4690893C225043801901998161608806
:103310006A461080002803D11C212046FEF79AFE41
:10332000684680893C21484380198583A17D817747
:10333000E17DC1770146227E20310A70627E8A706B
:10334000A27ECA70406A0024002807D005F0ECFB7A
:10335000684680893C214843801944626846008859
:10336000002814D0684680893C22504383191846AF
:103370000121203001724178007803AA243305F03E
:103380008FFB0027022005F001FB384682E76846E4
:1033900080893C214843801920300472F1E7000005
:1033A00021240000FFFF000018820020087B00207D
:1033B00013B50F2901D912481CBD684600883C226C
:1033C0005043104C212200191154406A002808D0A3
:1033D00005F0AAFB684600883C22002150430019F2
:1033E0004162684600883C2148430019034620306A
:1033F0004178243300786A4605F052FB1CBD00007A
:1034000011240000087B0020F8B50D460446782101
:103410000D4E4C43315B0D4A0A48914211D00121B7
:103420006846FFF757FA68460078012801D0022065
:103430002870A019297860300173042005F0A6FADD
:103440000020F8BD21240000587E0020FFFF00006E
:10345000002805D0010403D4034A0021108000E0B5
:103460000121084670470000C87D00207CB5044655
:1034700005F018F804F0F2FF14211C48FEF7EAFDED
:103480001A4864216438FEF7E5FD194800210180DF
:10349000418004F04DFA208BFFF7DAFFA07C800713
:1034A000C10F80316069FFF783FE208A22461149EF
:1034B000FEF7E6FF0546A07CC00711D00D49208A23
:1034C0002246491DFEF7DCFF208A01A9FFF7EEF82E
:1034D000054602216846017001468088FFF798FE84
:1034E000054805F053FA28467CBD0000447E0020C4
:1034F0003C14002040800000FF03000010B54B0783
:10350000420006485B0F8354C9081018417001201F
:103510000024400205F03AFA204610BD3C14002079
:10352000FFB50B4603252A4E2A4981B017460024D1
:10353000282262435218528CB2420CD09A420AD1CD
:10354000282262438A5A824201D011253CE000259C
:103550000A2C06D138E0641C0A2CE9D334D0002DA3
:1035600032D1782358431C4B0122D203C61897420C
:1035700008D1204605F060FB304670302146FEF74A
:1035800063FD1BE028204443641827462037B879A0
:10359000002803D16036707B012801D00B250DE097
:1035A0002046123010220499FEF736FD22462532BD
:1035B0001021049806F08EF80120B871102005F053
:1035C000E5F9022005F0E2F9284605B0F0BD00005B
:1035D000FFFF000018820020587E002000210170AB
:1035E00008467047F1B584B00498002858D0808808
:1035F000002855D004980068002851D00A20009077
:103600002820FEF739FD06004DD004980B250468EC
:10361000002020704B48017861700188090AA17070
:103620008178E1704188090A21710179617181888D
:10363000090AA1718179E171C188090A2172017AAF
:1036400061720089000AA0720027384606214843AB
:103650003D490290401801900079002867D00A2067
:1036600000906A463146384604F0F4FF009800287E
:103670005DD035480299415C61550299405A611903
:10368000000A48700199AD1CA8B2897821540199AB
:10369000401C80B2C9782154401C85B2002016E03D
:1036A0002A4805B0F0BD29480E38FAE78100715864
:1036B0003C225143264A8B181B79002B06D1515AC4
:1036C0006155090A6219AD1C5170ADB2401C0099D8
:1036D0008842EBD3002027E0810072583C235A43F4
:1036E0001B4B9446D2181279012A1CD162469A5C6F
:1036F000625572583C235A43154B9A5A6319120A61
:103700005A709C4672583C235A43114B9A58634650
:10371000120C9A7071583C2251430D4A5158090EAF
:103720002D1DD970ADB2401C00998842D4D37F1CA6
:10373000022F8AD33046FEF7A5FC0498858000202E
:10374000AFE70000607D0020FC7A00201324000019
:10375000087B0020064B1A889B78904206D3D3182A
:10376000834203D9801A08700020704701207047F7
:10377000C87D0020FFB56A460646177A0020104A29
:103780009C4601463C230D465D43AC1830231B5D2F
:10379000012B0CD1237AB34209D12379BB4206D144
:1037A0005359019CA34202D16246118002E0491C98
:1037B0000A29E7D30A2900D1022004B0F0BD000095
:1037C000087B002030B50C4A904212D00B49551EA0
:1037D000931ED41E4978A84202D1C80709D109E036
:1037E000984201D1480702E0A04203D1880700288F
:1037F00000DA0022104630BDFFFF00003414002024
:1038000030B50D4B002814D0010412D40B4A00210E
:103810008D00545B002C08D0AD18AD78A04204D3C5
:103820006419844201D9002304E0491C0629EFD31E
:1038300000E00123184630BD21240000C87D00208F
:1038400001B581B06A46012101A805F091FD00286B
:1038500004D06A46012101A805F032FE0CBD00002B
:10386000FEB50E461C461546074602A904F00EFF9B
:10387000002808D101900094684602892B46314601
:10388000384605F0A9F8FEBD38B514460D46684621
:1038900004F084FC00280BD169462B8809780622A5
:1038A000044D4A43AB52217003498A78521C8A70F6
:1038B00038BD0000FC7A0020C87D0020F8B50C4619
:1038C00015466946204605F0B9F8010005D01648AE
:1038D000814200D100210846F8BD684602883C209C
:1038E000124E50438019E368C360A3694361A38A01
:1038F00003822369C362237A037248CC48C0083C20
:1039000023790B48002B237A07D0062463431B1826
:10391000D878401CD8702A80DDE7062463431B1842
:103920009878401C9870F6E723240000087B00205C
:10393000FC7A0020FFB587B0119C139F149E15469A
:10394000FF2C01D11148047805A9079804F09EFEC8
:1039500000280BD16846828AAA4207D00020019035
:103960003B4600961299079805F036F81298012107
:10397000019003960094049102972946109B0A9A9D
:10398000089800F005F80BB0F0BD000034140020DA
:10399000FFB5E7B01F46739E719C679800F0EAFE82
:1039A000012802D021486BB0F0BD2148210EFAD188
:1039B0007F2CF8D021020B0E2204120EE1B204ADCE
:1039C000002B0AD0E3431B029B0FECD1240C6B4667
:1039D0001C7499745A7403210CE023041B0E06D046
:1039E0002304E0D56B4659741A74022102E06A463A
:1039F000117401218C19FF23221D81339A42D2D8E0
:103A0000681832467299FEF707FB60A864958482B5
:103A10007099749864AA029203900097019167A824
:103A20000BC8002201F06AFBBDE70000242400005F
:103A300012240000F8B50B463C2148431649154FA7
:103A400045182E462036307C012821D1134A1448CF
:103A50000024282161430918498C0327914214D07E
:103A6000994212D1284634302146FEF7EDFA307AD9
:103A7000012805D1A88BA1B2884201D10020307263
:103A80000027022004F082FF02E0641C0A2CE0D32D
:103A90003846F8BD21240000087B0020FFFF00000D
:103AA00018820020F7B52B4A82B0074600294ED075
:103AB00029488860FF206B46187000262748354645
:103AC000012F02D0032F42D105E0406800283ED1EB
:103AD000224C18701AE00123A0245C432418646867
:103AE000002C04D05B1CDBB2022BF5D32FE0A0240A
:103AF0005C43241868460370086800680388204601
:103B0000803043830B681B689B780377002C1ED0A2
:103B100014222046FEF7BCFA2068002801D08588D0
:103B20000668BC000E482B460759324601216846FC
:103B3000B8470B482B462018446832460121684696
:103B4000A04769460A7804990A7005B0F0BD10468E
:103B5000FBE70000FFFF0000F9550311A05D002006
:103B6000E05E00201FB50B4A5468002C0FD00022E5
:103B70006B4600011A700843587001921A81102395
:103B800003926A462B210448A04704B010BD0348A5
:103B9000FBE70000A05D0020D013002014200000EF
:103BA000FFB5074621488FB040681D4616460028DD
:103BB00039D0791C1EA0FEF771FA26A0FEF76EFA26
:103BC00025480020C0466C4600212170601C102250
:103BD0001099FEF721FA68468674310A4174132061
:103BE000002D10D02B68002B0DD0A98800290AD0F9
:103BF0000AAA184605F09CFD04A804220AA903306D
:103C0000FEF70AFA1720102269460A764F760794C3
:103C10000884064809951346446806AA2B210F48D4
:103C2000A04713B0F0BD0E48FBE70000A05D0020E8
:103C30004265617265722074797065203D2025644B
:103C400028312D6164762C20322D47415454290DA2
:103C50000A0000000D0A0000C8110020D013002047
:103C60001420000070B50D46154988B04E68144602
:103C7000002E22D0102269460A7200014872039574
:103C80000C8200201346059002AA2B210D48B04754
:103C900001206946087068460695848306AA432178
:103CA00000F094F868460078401CC1B26846017084
:103CB0000229F0D3002008B070BD0348FBE70000E4
:103CC000A05D0020D01300201420000001480078DF
:103CD00070470000D11300201FB50B4A5468002C18
:103CE0000FD00A016946521C0A70487000200190EA
:103CF0000881102303906A462B210448A04704B092
:103D000010BD0348FBE70000A05D0020D013002099
:103D100014200000052806D2002904D0034A8000A0
:103D2000115000207047024870470000E05E0020FC
:103D300011200000002901D0012801D90348704753
:103D4000034A80001150002070470000112000003D
:103D5000F45E0020F8B50D00044608D02878174915
:103D6000022828D2032C04D0012C05D009E01448E5
:103D7000F8BD002802D004E0002802D00F48401C03
:103D8000F8BDA02250430F4A80184268002A12D082
:103D9000A021FEF765F9A4000B4F00233E591A46F7
:103DA00019462846B047E019002344681A461946C8
:103DB0002846A047F8BD0846F8BD000011200000C5
:103DC000FFFF0000A05D0020E05E0020F7B58CB092
:103DD0000C98002842D0002A40D0106803900C981C
:103DE00096880078A02250433A4A841865683A4879
:103DF000002D34D08A098906890E0192012930D01C
:103E0000022930D0032901D0042928D100200B90A9
:103E1000204640300A9016300790401E25468035D7
:103E20000590FEF741F9C01E82B26A83771C0B9899
:103E3000BA4227D200281CD00199802008430A9951
:103E40004875288B8018401E288381B20398521E23
:103E500009180798FEF7E0F86B8B26E01F480FB0B3
:103E6000F0BD2A2100E029213346039A0C98A84787
:103E7000F5E701200B900199402008430A99487505
:103E80000020E1E700281DD00199C02008430A99CD
:103E90004875288B8018401E2883298B039832464A
:103EA00009180798FEF7B8F8BBB2F01A401C86B2A2
:103EB0006768059A01990C98B8470028CFD1002E61
:103EC000AFD1CCE701200B900A9A019800215075E0
:103ED0002983E2E7A05D0020FFFF00001120000021
:103EE00008B5002069460870A021484304494018DD
:103EF000C168002901D068468847002008BD00003D
:103F0000A05D0020F0B5134F064678688BB01446CC
:103F1000002803D0022E04D0012203E00E480BB08B
:103F2000F0BD00226D462A70681C2246FEF774F828
:103F30001021684601753101491C4175641C0695C4
:103F400084830020089010237C6805AA2B21034855
:103F5000A047E4E7A05D002014200000D01300205B
:103F600008B5002269460A70A0214A430449511845
:103F70000A69002A02D0014668469047002008BD21
:103F8000A05D002010B588B004460A4AFF201070DA
:103F900000206B46009018711C72074A0392074A72
:103FA000069204902F229A820A466946FFF786FC01
:103FB00008B010BD381500206967031160D20311E5
:103FC00030B5154687B002460B480C4600900020DD
:103FD000694608710A7209490391094906910490DA
:103FE000012269468A822246FFF768FC05494D6036
:103FF00022880A8007B030BD011000000D6E031149
:104000005CD303116815002010B5124A00238218F2
:1040100001248AB0002A03D0012A03D0022A01D049
:1040200000220FE00B786A4613714B7853710A79BE
:104030000223002A05D08B786A469371C978D17122
:10404000042301AA014604480094FFF709FC0AB0C2
:1040500010BD0000FF7DFFFF68150020FFB5344F45
:10406000344D387889B00E4600280FD1B02128464B
:10407000FDF7F6FF0020FF2158224243521940323B
:10408000401C51710228F7D30120387000245820B9
:1040900060434019C06C002802D0641C022CF6D387
:1040A000022C1FD3244C5C2124A0FEF703F8002827
:1040B00005D05C2121A0FDF7FDFF401C00E01FA002
:1040C0002A49324D0346009129A229460120FDF7D5
:1040D000F7FF23462EA229460120FDF7F1FF2046D7
:1040E0000DB0F0BD02200190002069460872099AC7
:1040F0000A733649049136490591364907910B22D6
:1041000069460A83324601A9FFF7D8FB31887980D6
:1041100058214C4361190A463388403253820B9B25
:10412000D3800C9A8A64129ACA64139A4A65D7E7B4
:1041300044150020EC850020138000002E2E2F6DEA
:104140006573682F707269766174652F6D6F646531
:104150006C732F6865616C74682F6865616C746836
:104160005F7365727665722E630000003E02000088
:104170000A5B2A2A20455252202A2A5D3A5B25737F
:104180005D3A5B25645D3A200000000000080040B5
:104190005B4845414C54485D204E6F206672656512
:1041A000204865616C74682053657276657220657D
:1041B0006E746974792E2052657475726E696E67BB
:1041C0003A203078253034580A0000007D6E031103
:1041D000697203111CD30311F8B5274D2978002902
:1041E0002DD100282CD001460822A81CFDF714FF71
:1041F000FDF76CFF04F0C6FC05F072F805F060F8FE
:1042000005F0D0FB04F00EFB04F042FD05F086F84B
:1042100004F0C8FC194EB06A0402240AFDF75CFFE2
:10422000B06A0002000A011B15A0FDF737FF22A0AB
:10423000FDF734FF21480020C04601202870F8BD5A
:104240005C211FA0FDF736FF002805D05C211CA0D3
:10425000FDF730FF401C00E019A04F21294C034618
:10426000009121A221460120FDF72AFF26A2214626
:104270000120FDF725FFF8BDC413002000F0004029
:10428000636F6E73756D652074696D65206F662050
:1042900066756E6374696F6E206372795F656364BF
:1042A000685F696E69743A20256420525443207413
:1042B00069636B0D0A0000000D0A0000C8110020A0
:1042C0002E2E2F6D6573682F707269766174652F5D
:1042D000636F72652F636F6D6D6F6E2F4D535F63EC
:1042E0006F6D6D6F6E2E63000A5B2A2A2045525255
:1042F000202A2A5D3A5B25735D3A5B25645D3A208E
:10430000000000000100004044796E616D69632087
:10431000436F6E66696775726174696F6E20636161
:104320006E206E6F74206265204E554C4C2E2052CC
:10433000657475726E696E670A00000010B53B4ABD
:104340008AB0821800241300FDF7CCFE106E1D1DEC
:104350006E6E6E6E4B4B6E6E6E09093D3D6E0B7848
:104360006A4613710A88130A6A4653718B789371EF
:104370004A88130A6A46D3710B7913728988090A2D
:104380005172062446E00B786A4613710A880724A6
:10439000130A6A4653718B7893714A88130A6A46E6
:1043A000D3710B7913728A88130A6A4653728B7918
:1043B00093724A7A002A2DD0CB796A46D372097A51
:1043C0001173092426E00B786A4613710A88130AD0
:1043D0006A4653718B7893714988090AD171042414
:1043E00018E00B786A4613710A880524130A6A4696
:1043F00053718B7893714A88130A6A46D3710B798B
:104400001372CA79002A05D04B796A4653728979AA
:104410009172072401AA0121009101462346044814
:10442000FFF71EFA0AB010BD0022F4E7A37DFFFFDC
:104430008815002030B5154687B002460B480C465B
:1044400000900020694608710A72094903910949E0
:1044500006910490062269468A822246FFF72EFAC8
:1044600005494D6022880A8007B030BD091300005D
:104470000D740311A0D303119015002010B5404A0C
:104480008AB0821800241300FDF72CFE16777720DF
:104490002077772020774E4E777777777777770C6E
:1044A0000C3434770B786A4613710A88130A6A460B
:1044B00053718B7893714A88130A6A46D3710B79CA
:1044C00013728988090A517206244CE00B786A46F7
:1044D00013710A880324130A6A4653718B78937107
:1044E0004A79002A3FD0CB786A46D3710979117294
:1044F000052438E00B786A4613710A88130A6A4665
:1045000053718B7893714A88130A6A46D3710B7979
:1045100013728A88130A6A4653728B799372C98818
:10452000090AD17208241EE00B786A4613710A88C2
:104530000724130A6A4653718B7893714A88130AC9
:104540006A46D3710B7913728A88130A6A465372CA
:104550008B7993724A7A002A05D0CB796A46D37256
:10456000097A1173092401AA012100910146234609
:104570000448FFF775F90AB010BD0022F4E7000007
:10458000937DFFFF9015002070B5064D002430206C
:104590006043401903F0EEFB641C102CF7D300209D
:1045A00070BD00005C610020014908600020704778
:1045B000D4130020FFB591B007469C461BA82CC819
:1045C0000026079608961F9C6E46378471841A99B8
:1045D000F177E904C90C09950E9138486146002924
:1045E00047D001293FD13246B1770B2C3DD9610527
:1045F000090E0C911E990026097835460F912FE07F
:104600000F9980200143684601730E98C004410E43
:10461000684641730E988100E8080143684681733B
:104620000C98690101436846C173A01BC7B2082FEB
:1046300000D908271E983A46811904A8FDF7ECFC1A
:10464000F019C6B203A80A9068463F1D87850AAADA
:1046500007A8139900F0A4F8002804D16D1CEDB24E
:104660000C998D42CCD915B0F0BD1E980A90948556
:104670001EE00020B0772098012801D00C2C08D92A
:104680000E981E996D4613C507A8139903F0C6FC32
:10469000E9E790019906890E0843307303AD22467D
:1046A000681C1E99FDF7B8FC6946641C0A958C8548
:1046B0000AAA07A8139900F073F8D4E7FFFF0000D7
:1046C00010B50A4C2168016021686068814207D3F7
:1046D000FF30FF3002306060FF20013004F056F9F7
:1046E0002068401C2060002010BD00000414002041
:1046F00030B58FB0054601206946087404AC02A9A4
:104700000AA8FEF7FFF803A92846FEF723F9694631
:10471000087B02282BD000216A46107A400008430B
:104720005074A11C2846FEF7A7FA6A46117A0A9827
:1047300041180A915177080A1077080CD076080EB4
:1047400090760BA92846FEF741FA07A80821023007
:10475000019100900BAB0D22611C0020FDF7C8FCFD
:10476000162204A90120FFF77DFA0FB030BD012108
:10477000D2E70000002803D0800B022800D20120DD
:1047800070470000024A06CA06C0002070470000B9
:104790000414002001490860002070470014002024
:1047A0007FB514460D4607C801AB07C30021684614
:1047B000FEF7A8F800986946C007C00F08710023EB
:1047C0002246294601A805F0AFFB04B070BD0000E9
:1047D000024905C805C100207047000004140020EC
:1047E000FFB5434881B00F46002B11D0002F0FD0EA
:1047F0000199012901D002290AD13E48002500680B
:10480000B22807D0B12805D0B02803D03848401EC0
:1048100005B0F0BD184606F041F9040020D0364836
:104820002646FF3600786136307402281BD02046B9
:1048300010223249B030FDF7EFFB2246FF32002054
:10484000813290602A490198091D2D4B012811D011
:10485000022828D02B4D204606F0E4FA2846D7E758
:104860002348401CD4E78ECF2046B0308EC003983A
:104870003076E2E71878FF2837D002209360707412
:10488000307C0228EAD12046FF3004217530FDF744
:1048900035FC204606F0DEFD0500DCD1B320FF34F8
:1048A0000134E066DAE701201F5CFF2F02D01B18FD
:1048B000936003E0401CC0B20228F5D3022814D054
:1048C000042070740120FF21B0746D310851307CD8
:1048D0000228C3D100200346024600900121204651
:1048E00006F0B4FA0500B6D1B8E70D46B3E700000C
:1048F00012300000181500201C150020DC85002057
:104900001D150020FFFF0000002905D0034A10609C
:1049100003480160002070470248704710150020CE
:104920001415002012300000FFB5334E8BB0154631
:104930000F4600280FD0002D0DD006F06BF90400B3
:104940000BD0022F0CD0042F1FD0072F49D0354693
:1049500028460FB0F0BD3046FBE72748801CF8E73B
:104960000822294608A8FDF757FB0820009008AB4D
:1049700000220321204606F069FA0500E8D1002252
:104980000421204606F02EFEE2E7E01DF930C17A50
:10499000022902D0032904D006E0007B042819D0A4
:1049A00002E0007B032815D028686946C870020A17
:1049B0008A70020C4A70000E0870AC2000990151F8
:1049C00000200346024605210090204606F03EFAEC
:1049D0000546BDE720462946A0300E9AFDF71CFB90
:1049E000EEE71C22294601A8FDF752FB1C200022FD
:1049F00001AB08210090E8E71230000038B51546F9
:104A00000C4600280DD0002C0BD006F003F900282E
:104A100009D0C11DF931CA7A022A07D0032A09D068
:104A20000BE0104838BD0F48801C38BD097B0429B5
:104A300011D002E0097B03290DD021686A46D170AC
:104A40000B0A93700B0C090E53701170A030009973
:104A5000C160002038BD21462A46A030FDF7DCFAAF
:104A6000F7E7000012300000F8B507462B480E4665
:104A700001682B48154600291AD0022E07D0012EB6
:104A800017D128490968002912D0002D11D02748D4
:104A9000254C0670FDF720FB2548FDF735FB304619
:104AA000244E012808D0022824D01D4C641C204626
:104AB000F8BD1B48401CF8BD1F490020087010229B
:104AC00029461E48FDF7A8FAF80706D02A8A294683
:104AD00000206B69FFF764F80446B80706D52A8AF8
:104AE000294601206B69FFF75BF80446002CDED1F4
:104AF000B12010E0F80704D001210020FFF7ECF806
:104B00000446B80704D501210846FFF7E5F8044636
:104B1000002CCCD1B2203060C9E700001415002071
:104B20001130000010150020FFFF00001C150020B0
:104B30009C850020181500201F150020DC85002012
:104B400000280AD008498A68002A08D00978012973
:104B500007D00121017000207047044870470021F0
:104B6000F8E70221F6E7000018140020FFFF00001C
:104B7000014988600020704718140020F0B50746EE
:104B800000200226234C85B0054601291DD00229AC
:104B900019D1A078FF2801D0FDF7BCFA032F33D03C
:104BA000E57068468780808805F084FB00280AD17C
:104BB000184801AB184A1949801C0096FDF7B0FA55
:104BC00021793143217105B0F0BD6078144FFF2881
:104BD00007D169468D80284602A9FEF74DF80028C6
:104BE00001D03846EFE7082202A90220FFF78AF930
:104BF000084801AB0B4A0949401C0096FDF790FAA2
:104C0000217901221143DDE70120E07068468580AB
:104C1000C9E700001814002051A303112C010080E3
:104C2000FFFF000051A2031170B50D4C0025207943
:104C3000C00707D001210220FEF794FF2079400829
:104C4000400020712079800707D501210320FEF75D
:104C500089FF2079FD2108402071284670BD0000A1
:104C60001814002030B5154687B002460B480C4694
:104C700000900020694608710A72094903910949A8
:104C800006910490022269468A822246FEF716FEA9
:104C900005494D6022880A8007B030BD051200002A
:104CA00059B60311ECD30311B015002010B51D4CFB
:104CB0000023021B8AB0A04210D007DC1A4A8218D7
:104CC0000AD0012A12D0022A06D10FE0012A05D00B
:104CD000582A03D0592A01D000221BE00A786B46DB
:104CE0001A710988090A5971022312E00B786A4681
:104CF00013710A88130A6A4653718B7893714A7943
:104D00000323002A05D0CB786A46D3710979117242
:104D1000052301AA0121009101460448FEF7A0FDE8
:104D20000AB010BD46820000BF7DFFFFB015002015
:104D300010B50024A0B201F0FBFF641C052CF9D3D0
:104D4000002010BD10B5134602280AD0FF208000B5
:104D500041430548091808221846FDF75DF900206F
:104D600010BD08220149F7E75C6400204878002064
:104D700007490A8802808A788270CA78C2700A79E4
:104D80000271CA88C2800989018100207047000031
:104D9000607800200C490A88002A0FD04B88002B2D
:104DA0000CD002804A884280CA7942710A89C28046
:104DB0004A890281897901710020704700220280AE
:104DC00042804271C280F4E77478002070B50D46CD
:104DD0000B4C01F0E7FF052810D0FF218900484364
:104DE000084940180721C9014018C06E7D21C9003B
:104DF000401A6421FDF79AF900242860204670BD0E
:104E0000FFFF00005C640020F0B504460E4800225D
:104E10000E4D1F268C467601FF21890051434B1908
:104E20009F19397C01290AD15B88FF7D9C4206D3FA
:104E3000D919A14203D9614600200A70F0BD521C65
:104E4000052AE9D3F0BD0000212400005C640020A5
:104E5000F0B504460A781248052A01D1002202E082
:104E6000521C052A15D2FF239B000E4D53435D199A
:104E70001F235B01EB181B7C012BF1D100230F26B4
:104E8000B6015F00EF19BF19BF8BA74202D1002006
:104E90000A70F0BD5B1C082BF3D30028E0D1F0BDF5
:104EA000212400005C64002070B50546FF208000CE
:104EB00041430B48094C0E187288294609A0FDF79A
:104EC000EDF812A0FDF7EAF811480020C0467088FE
:104ED000A84200D10024204670BD0000212400001B
:104EE0005C6400205B46524E445D207361646472D2
:104EF0003A203078253032582C2075616464723A3B
:104F0000203078253032580A000000000D0A0000D9
:104F1000C81100207CB5144CE089002822D0207DE7
:104F20000025FF2806D0FDF7F5F80320FFF718F855
:104F30000E48057001A8FDF715FE0D4869468089E9
:104F4000C8800095E08901AB0522002107F020F917
:104F500018210548FDF784F8FF202075E581002021
:104F6000FEF714F900207CBD48780020FC130020D7
:104F700084780020F0B5184C0F460646E1891548A4
:104F800085B01546002922D014480078012802D1A6
:104F90000320FEF7E5FF207DFDF7BCF8FF2020751C
:104FA000684602978581617C0171491C6174002506
:104FB0000095E08901AB3246032107F0E9F8064885
:104FC0000023074A074914300095FDF7A9F805B0FA
:104FD000F0BD0000FFFF000048780020FC13002017
:104FE000E9C3031164000080F7B50546002086B0D0
:104FF00069460882144E1F27488204467F01FF201D
:10500000800060438019C119097C012915D10088ED
:10501000A84212D169460798087108980872020AD6
:10502000CA71020C8A71000E48710520009001AB14
:1050300003AA0021204606F041FF641CE4B2052CBF
:10504000DDD3002009B0F0BD5C640020F8B5194D37
:105050000646E889069F002801D01748F8BD174C7E
:10506000217062706360164920810888A081401C0D
:10507000088020460A30FDF71DFC12480024076016
:1050800011481249046007980860114F0B4B032226
:1050900031463846009407F07BF8EF810548AE8131
:1050A00000230C4A0C4914300094FDF739F8002015
:1050B000F8BD000048780020172300008478002005
:1050C000E4130020F0130020F4130020F813002054
:1050D000FDFF0000F9C40311B0040080012902D0D3
:1050E000002902D003E0034900E0034908600020E2
:1050F00070470000E8130020EC130020FFB5EBB070
:1051000074980F2802D31F486FB0F0BD04260A28F8
:105110000AD30A38C0B208A9FDF7B2FB0225002065
:1051200069460877044607E007AA08A9FDF716FBB9
:105130000028E9D101252C4609A8FFF7C1FA0898F3
:105140000AAF01A9E1C1099800906BA807C8769B36
:1051500006F0B8FF7698099A80887799001D80B28A
:1051600005900497039206916846017F7598029115
:105170000090002301946E9A6C996B98FFF71AFACD
:10518000C2E7000012230000FFB5C9B00026529A02
:10519000539835460A2A02D95C484DB0F0BD69469D
:1051A0000A77012402211300FCF79CFF0B87070CF0
:1051B000224657576767077E870000786946487719
:1051C00002247AE0027869464A77027908A94A708F
:1051D00081880A0A08A90A7041680A0C6946CA77D8
:1051E00041680A0E69468A77007A08A9887032E019
:1051F00003786A46537743789377037908AA537004
:105200008288130A08AA13704268130C6A46D3777F
:10521000037A08AAD3700289130A08AA9370837AC2
:105220001371037B93718089000A507138484A904A
:1052300038480B24017040E0027869464A7742788A
:105240008A778278CA77C27808A90A7002798A7048
:105250008088000A487007242FE0027869468A7720
:1052600001880A0A69464A77827808A90A70408844
:105270006946000AC87705241FE001786B46597714
:10528000022407AA00210BE043684F00DB191B88AA
:1052900017197B701B0A1355A41C491CE4B2C9B230
:1052A00003898B42F0D808E0027869464A77827811
:1052B000CA774088000A8877042447A8FFF700FAD5
:1052C0001548806A479A0702002107A806910490B2
:1052D0004C980594009003920196029549A807C83E
:1052E0003F0A0123FFF766F904460B48806A010272
:1052F000090AC91B09A0FCF7D1FE11A0FCF7CEFEDC
:1053000010480020C046204647E700001223000056
:10531000FDFF0000E013002000F00040636F6E739B
:10532000756D652074696D65204D535F6C74726E88
:105330005F73656E645F7064753A2025640D0A00C2
:105340000D0A0000C8110020F8B5044600260088A8
:10535000274D374600280DD02648688120892946E8
:1053600028810A31FDF7A2F906000BD0042607F0C8
:10537000C1FD13E014211E48FCF772FE2F80AF70B0
:10538000EF700BE020882880A078A870E078E870A3
:1053900020792871A0790007000FE88028882080F4
:1053A000A878A070E888E08028892081E878E070FB
:1053B00028792071002E17D1E978002914D0A87817
:1053C000002811D001242746491E8F40FF2803D012
:1053D000401E84402C6101E00648286107F08AFDE8
:1053E000384607F073FD00E02F613046F8BD00003D
:1053F00060780020FFFF0000F0B5044689B000206F
:105400000190208800262E4D002813D060880028A7
:1054100010D0617900290DD0FFF7ACF9074620883C
:10542000FFF7A8F9009002A8FDF79CFB009801285F
:1054300016D103E02E806E80EE7132E0012F0AD08B
:10544000032F0DD1684606736188C18103A900202E
:10545000FCF7E0FF08E0694660880989884203D0CC
:10546000EE71012001901CE020882880608868800F
:105470006079E8717F2129816E81AE710127401E1C
:10548000AE808740287BFF2803D0FCF743FEFF2037
:1054900028730B48394600230A4A0C300096FCF763
:1054A0003FFE2888208068886080A8792071E8798C
:1054B00060712889E08068892081019809B0F0BD79
:1054C000747800200DCF031110B5164C88B0E18818
:1054D000884302D0144808B010BD02A8FDF742FB73
:1054E0007F216846017405A8FDF7ECF906A8FDF7D1
:1054F00001FA6846007E022805D06846007D410713
:10550000490F684601756846017D41820A2004A959
:10551000009001916846037C628921880089FFF729
:1055200033FED8E760780020FFFF00007CB51C4602
:105530001B78069EDD0915D09D09022D14D0DD4390
:105540002D06AD0F0DD11D0263782B431D02A378EC
:105550002B4303256419751BADB20195009403F02C
:10556000ABF87CBD0125F5E71D0263782B430225CE
:10557000F0E7000010B51C4800214160182181604F
:1055800081611A49C16119491831C1623D2109017E
:105590000163174901646821416415496831416517
:1055A000FF2193318165134981661A21C166114932
:1055B0001A31C1676621803001600E490246803190
:1055C0000161162141610B49843A963141620421FF
:1055D000816208499A3181630721C163054900202E
:1055E000A131FCF7A9FD10BD441400205A020000AF
:1055F000420600003C080000FFB581B001980E464D
:10560000007802285CD2A021504C41430C196168FB
:10561000002955D0551E0028307826D081098006F3
:10562000800E009003284BD8AFB200294AD0012940
:1056300051D002295BD0032942D127468037F98A0D
:10564000204614300818711C521EFCF7E5FCF88A3D
:105650004019F8820098002864D0012854D002280C
:1056600070D003282CD104205DE0394C002B04D0ED
:105670001968002901D009782170292810D02A281A
:1056800010D02B281AD17078012817D88100314802
:105690004358002B12D0921E91B2B01C98470DE0D7
:1056A000022000E0012081002A4814384758002FCA
:1056B00004D0721CABB202210198B84700202070C0
:1056C00005B0F0BD2046711C1430521EFCF7A4FC3E
:1056D00096200753BEE7254600208035E882204605
:1056E000711C1430521EFCF797FCEF82E8E7274646
:1056F0008037F88A14340019711C521EFCF78CFC98
:10570000F88A4019F882DBE7207D81001148425871
:10571000002AD5D09620005B401E81B2204615306D
:105720009047CDE70320022182000A4814388558AB
:10573000002DC5D09620035B224614320198A8475D
:10574000BEE7FFE703200146EEE70000A05D002072
:10575000D1130020F45E0020FFB585B00127FF03C0
:105760000E9D0C460646132A06D0BE4201D1032ADE
:1057700002D02A4809B0F0BDA0786B4601026078DB
:105780000843010220780843E11C02910105090F3A
:105790000A02C1B20A430102090F00030902000E06
:1057A00001439A81198001A91046FCF77FFF002868
:1057B00003D00420BE4222D022E0002E0DD0684645
:1057C000018832468088029BFDF7AAFEBE4217D1AF
:1057D000042814D0032812D012E06846018803ABD5
:1057E0008088029AFCF7DAFF002809D0062807D043
:1057F000684601888088029AFCF73AFD00E00020A4
:105800000899074A0A602870681C03222146FCF7A1
:1058100003FC0F99042008800020ABE7FFFF000085
:1058200003800000F0B58DB0139F129C1E46022A23
:1058300002D01A480DB0F0BD48780D78000205433B
:105840000CA92846FCF732FF002809D0042020705C
:105850006570290AA1700122032100280DD018E0EB
:1058600068461421018502460AA9008EFCF7C6FF8E
:105870000B498842EBD10320E9E76846828501465F
:10588000E21C0BAB008D00F03FFF6846808DC01C12
:1058900081B20448306039800020CBE7FFFF000070
:1058A0002124000002800000F8B504461848069F35
:1058B000089E81421BD1107869460870022801D3E6
:1058C0000020F8BD0421FDF73DFC05466846007840
:1058D000012808D00F4C2078FF280DD0FCF71AFCC7
:1058E000FF20207008E0204601F0E0F904E00421E8
:1058F0006846FCF7EFFF05460548401C38606846DF
:10590000017807980170012030802846F8BD00001A
:105910000A80000038150020FEB51D4A089E099D2A
:105920001C46904225D1087869460870022801D3A8
:105930000020FEBD0121FDF705FC074601A8FFF789
:10594000FFF869460979012907D0002901D000280C
:1059500014D00E206946087010E0684600780128CF
:1059600002D0FFF761F9F2E701210320FFF706F902
:10597000EDE701216846FCF7ADFF07460448401CEF
:105980002060684600783070012028803846FEBDCF
:1059900013800000FEB5244A099E089C1D469042D3
:1059A00003D16846FFF7E4F91FE048780202684631
:1059B000028008780243684602808A788270CA783A
:1059C000C2700A790271887902026846C2804879F9
:1059D00002436846C280087A020268460281C8799A
:1059E000024368460281FFF7AFFC06212960207060
:1059F000684600886070000AA07068468078E07091
:105A00006846C07820716846007960716846C08831
:105A1000A071000AE071684600892072000A607275
:105A20000A2030800020FEBD38800000FEB51F4AED
:105A3000099D089C1E46904203D16846FFF7AAF9CB
:105A400013E048786A46000210800A7810436A46DC
:105A50001080C878000250808A7810436A465080CF
:105A6000087950716846FFF7C7FC00281CD10F4920
:105A7000891C316000212170694609886170090A1A
:105A8000A17069464988E170090A2171694649791E
:105A9000617169460979A1716946C988E1716946F0
:105AA0000989217209212980FEBD00003A80000089
:105AB000FEB5099F089C1E46022A01D01248FEBD71
:105AC00048780D780002054301A92846FCF7EEFD51
:105AD000002803D000206946087006E069468888DF
:105AE000FCF738FF0949884200D104200849316099
:105AF00020706570280AA07068460078E070042065
:105B000038800020FEBD0000FFFF000021240000BF
:105B100017800000FEB5194C089D1F46032A01D0CE
:105B20002046FEBD48780E78000206438878694614
:105B30000870022803D0032801D00020FEBD01A96F
:105B40003046FCF7B3FD002806D169468888FDF78A
:105B50005FFB0B49884201D1042001E0A042EDD057
:105B60000849396028706E70300AA870684600785D
:105B7000E870099904200880DFE70000FFFF0000BB
:105B80002124000017800000F8B5144E069C1F4623
:105B9000022A08D148780D78000205432846FEF70E
:105BA000E9FD012801D03046F8BD0020009069468B
:105BB0002846FFF70BF90A4939602570290A6170F8
:105BC0000099A170009900200A0AE270009A120C54
:105BD0002271079A05211180F8BD0000FFFF000027
:105BE0002E800000FFB587B0109E15460C46062A91
:105BF00004D0082D02D026480BB0F0BD6078A778FD
:105C00000102207801220843E17809020F43062DA2
:105C100012D0E179A3790902194363790902194382
:105C2000237909021943019169460A7204A9FDF713
:105C300091FD002809D01CE061790A022179114305
:105C4000019100216A461172F0E76B46187C029AB6
:105C50000199FDF78FFD00280BD10E490798884266
:105C600068460088394602D1FCF7CCFA01E0FDF71E
:105C7000E1FE084A0A99521C0A603070701C2A46DC
:105C80002146FCF7C9F911986D1C05800020B3E787
:105C9000FFFF00003D800000FFB593B01C9E17463B
:105CA0000D46042A04D0062F02D0314817B0F0BDAB
:105CB00068780122010228780843042F12D06979FC
:105CC0002B7909021943EB7809021943AB780902D1
:105CD0001943039169460A7401A9FDF73BFD0400CD
:105CE00009D01FE0E9780A02A97811430391002145
:105CF0006A461174F0E7684607AB0079049A039985
:105D0000FDF738FD04000DD114216846018309AA6E
:105D100006A9808BFCF734FE040003D015488442AA
:105D200000D1002414491398884201D1411C01E09C
:105D30001149C91C16983A4601603470701C2946F6
:105D4000FCF76AF97F1CBDB2002C0DD10420411B69
:105D500068468182721905AB09A9008B00F0D4FC5A
:105D60006846808A281885B21D98058000209DE726
:105D7000FFFF0000212400004B800000F0B58BB035
:105D8000119F109C1E46042A04D0062A02D03E48C9
:105D90000BB0F0BD48780D78000205430123042ABA
:105DA00054D048790A7900021043CA78000210439F
:105DB0008978000208430090684603711C2103A8FB
:105DC000FCF74EF902A92846FDF7C4FC002846D08E
:105DD00001202E49316020706570290AA170684643
:105DE000C089E0706846C089010A21716846008C4C
:105DF00060716846008C0005010FA17108A88078C9
:105E000000010143A17108A8C178E17101792172F3
:105E100040794107490F617208A88079C0000143A9
:105E200061726846017920460A30002926D000991F
:105E3000A1720099090AE1720099090C8170009918
:105E4000090EC1700E2038800020A1E7C87889783B
:105E5000000201430091002069460871AEE76846E0
:105E60000AAB007A019A0099FDF784FC0028B0D1B2
:105E7000684603A9008DFCF7B3FDAAE70098A0725D
:105E8000000AE0720C20DEE7FFFF0000198000002E
:105E9000FFB58BB00D46149C164601460B2A08D060
:105EA0000D2E06D0192E04D01B2E02D05F480FB045
:105EB000F0BD68782F780002074303297ED00120C7
:105EC00069460873A91C102204A8FCF7A5F8122043
:105ED000291849780A0269460A84295C801C0A4309
:105EE000D104CB0F08A98B701205120D69460A84E4
:105EF0002A5C08A9CA70401C2A5C0A71401C295CF3
:105F00004A07520F08A94A71295C401CCA0808A90F
:105F10008A71C0B2311A022966D02918CA788B78E2
:105F200012021A43497812020A43285C1102014303
:105F3000012000916946087102A93846FDF70AFC64
:105F4000002859D001251C2103A8FCF789F80E98D8
:105F50003749016025706770390AA1706846C089A9
:105F6000E0706846C089010A21716846008C607142
:105F70006846008C0005010FA17108A88078000117
:105F80000143A17108A8C178E171017921724079BA
:105F90004107490F617208A88079C000014361720E
:105FA0006846017920460A30002939D00099A1724B
:105FB0000099090AE1720099090C00E008E081707B
:105FC0000099090EC1700E201599088000206EE717
:105FD000002069460873E8780002C881A978084360
:105FE0006946C881042073E729184978285C0902AA
:105FF0000843009000209DE768460AAB007A019AAA
:106000000099FDF7B7FB05009DD1012008AAD071CA
:106010006A4603A9108DFDF71FF9050093D196E795
:106020000098A072000AE0720C20CDE7FFFF00008C
:1060300019800000FFB58DB00D46169C164601462E
:10604000062A08D0082E06D0142E04D0162E02D010
:10605000474811B0F0BD68782F78000207434548E3
:1060600081420BD1002069460873E8780002C8819C
:10607000A97808436946C88104200BE001206A46DC
:106080001073A91C102204A8FBF7C6FF12200021E0
:106090006A46D181311A022915D02918CA788B781D
:1060A00012021A43497812020A43285C1102014382
:1060B000012000916946087102A93846FDF74AFBA4
:1060C000050008D02AE029184978285C090208430D
:1060D00000900020EEE768460AAB007A019A00992A
:1060E000FDF748FB050019D1FBF79CFF2248806AA9
:1060F00003A906026846360A008DFCF78BF90546AF
:106100001D48806A0002000A811B1C48FBF7C6FF7D
:106110001BA0FBF7C3FF1B480020C0461549109881
:10612000091D016025706770390AA1706846C08931
:10613000E0706846C089010A217168460179601DD6
:1061400000290FD0009961710099090AA171009985
:10615000090C81700099090EC170092017990880F7
:10616000002076E700986071000AA0710720F5E72B
:10617000FFFF00001B80000000F00040BCD80311AE
:106180000D0A0000C8110020FFB585B00E9C042A3E
:1061900004D0062A02D02C4809B0F0BD48780D780A
:1061A0000002054300260127881C042A13D04A79DF
:1061B000837812021A43407812020243897810024F
:1061C000084300906846077103A92846FDF7C2FA04
:1061D000002808D014E0C8780202887810430090A4
:1061E00068460671F0E7684602AB007B019A0099A9
:1061F000FDF7C0FA002803D168460089FCF7ACF926
:106200000899124A0A60207065702A0AA270E67026
:10621000267169460A79611D002A0ED0009A6271C2
:10622000009A120AA271009A120C8A70009A120E39
:10623000CA7009210F9A1180AEE700996171090AAD
:10624000A1710721F6E70000FFFF00001F8000009A
:10625000FFB58DB00D46169C16460146062A08D09D
:10626000082E06D0142E04D0162E02D03D4811B0B0
:10627000F0BD68782F78000207433B4881420BD17C
:10628000002069460873E8780002C881A9780843AD
:106290006946C88104200BE001206A461073A91CDE
:1062A000102204A8FBF7B8FE122000216A46D18113
:1062B000311A022915D02918CA788B7812021A438C
:1062C000497812020A43285C11020143012000911F
:1062D0006946087102A93846FDF73CFA002808D043
:1062E00015E029184978285C09020843009000202D
:1062F000EEE768460AAB007A019A0099FDF73AFA90
:10630000002804D1684603A9008DFCF765F9164AF8
:106310001099D21C0A6020706770390AA170684613
:10632000C089E0706846C089010A21716846017918
:10633000601D00290FD0009961710099090AA171AF
:106340000099090C81700099090EC17009201799F4
:10635000088000208BE700986071000AA071072078
:10636000F5E70000FFFF00001C800000FFB58FB0C4
:106370001E4600236846189C0381042A04D0062A7E
:1063800002D03B4813B0F0BD48780D7800020543B9
:106390000127881C042A13D04A79837812021A43F1
:1063A0004078120202438978100208430090684640
:1063B000077104A92846FDF7CDF9002808D01EE092
:1063C000C878897800020143684600910371F0E7BC
:1063D000684603AB007C019A0099FDF7CBF90028D1
:1063E0000DD10A216846018105AA02A98089FCF71E
:1063F0002BFB002803D01F49884200D100201E4AF1
:106400000F99914201D1491C01E01B49C91C31601F
:1064100020706570290AA17068460179E01C002986
:106420000ED00099E1700099090A21710099090CB8
:1064300081700099090EC1700720002105AA0FE0A4
:106440000098E070000A20710520F6E74B00D55C4B
:106450002554D35A25181B0A801C6B70C0B2491CE6
:106460006B461B899942F1D319990880002089E76E
:10647000FFFF00002124000029800000FFB58DB03F
:106480000D46169C16460146062A08D0082E06D050
:10649000142E04D0162E02D0404811B0F0BD6878FA
:1064A0002F78000207433E4881420BD10020694605
:1064B0000873E8780002C881A97808436946C88152
:1064C00004200BE001206A461073A91C102204A8C6
:1064D000FBF7A2FD122000216A46D181311A022960
:1064E00015D02A18D17893780902194352780902F5
:1064F0001143285C0902014301200091694608719B
:1065000002A93846FDF726F9002808D01BE0291813
:106510004978285C0902084300900020EEE76846AD
:106520000AAB007A019A0099FDF724F900280AD1F4
:106530006846008DFCF710F8002804D1684603A9CE
:10654000008DFBF767FF164A1099521C0A602070F5
:106550006770390AA1706846C089E0706846C089D2
:10656000010A217168460179601D00290FD0009948
:1065700061710099090AA1710099090C8170009953
:10658000090EC170092017990880002085E700983E
:106590006071000AA0710720F5E70000FFFF00000E
:1065A0001E800000FEB5099F089C1E46022A01D0ED
:1065B0001248FEBD48780D780002054301A928461F
:1065C000FCF774F8002803D000206946087006E044
:1065D00069468888FCF7A2FA0949884200D104205C
:1065E0000849316020706570280AA07068460078FC
:1065F000E070042038800020FEBD0000FFFF000096
:106600002124000048800000FEB52448099F089C12
:106610001E46032A09D148780D7800020543887880
:1066200069460870022801D30020FEBD01A9284652
:10663000FCF73CF8002823D169468888FCF7E4FE83
:10664000174988421CD002A8FEF77AFA6946097AEF
:10665000012908D0002901D0002812D00E200021E5
:106660006A4611700DE068460078012802D0FEF7F6
:10667000DBFAF1E7684602218088FEF77FFAEBE754
:1066800004200849316020706570280AA0706846AF
:106690000078E07004203880C6E70000FFFF0000AB
:1066A0002124000048800000F0B59E4600250346E6
:1066B0002C46400816E06700CE5D56557E18B4465D
:1066C000B6786D1CADB236015655CF5B3F0A3E43DE
:1066D0005655664676886D1CADB2360956556D1C0A
:1066E000ADB2A41CA042E6D8D80709D06300C85CAC
:1066F0005055C95A6D1CA8B2090A1154401C85B2E4
:10670000704605800020F0BDF0B59E46002503468A
:106710002C46400816E06700CE5D56557E18B446FC
:10672000B6786D1CADB236015655CF5B3F0A3E437D
:106730005655664676886D1CADB2360956556D1CA9
:10674000ADB2A41CA042E6D8D80709D06300C85C4B
:106750005055C95A6D1CA8B2090A1154401C85B283
:10676000704605800020F0BDFFB595B0202010A92F
:106770001F9F209E088000243946EFA0FBF78EFC67
:10678000F8A0FBF78BFCF8480020C0461E980A28AA
:1067900002D2F64819B0F0BDF54908AD781A8F421B
:1067A0007ED02DDCF348391A87427AD01BDCF24ABE
:1067B000B91A97425ED00EDC032F46D004DC002FBE
:1067C00039D0012F4BD136E00120C003381A32D026
:1067D0000128F7D144E00B00FBF784FC08417A7AEA
:1067E000418686419841891E0B00FBF77BFC0FA771
:1067F000A738B1BB38C5382ECFD9E3FD38CF380024
:106800000300FBF76FFC2D2CF1FCFC2CEFEF2CEEC2
:106810002CEE2CED2C2C2C2C2C2C2C2C2C2CECECB5
:10682000EBEB2CEA2CE9E8E7E62C2CE8E5E42CE39A
:106830002CE22CE22C0010A8019011AB00953146FF
:106840003846219AFEF788FF08E010A8019011ABA6
:10685000009531463846219AFFF71AFB0446B4E109
:1068600010A8019011AB009531463846219AFEF7E9
:10687000D9FFF3E71598149016981390FF20013074
:106880006946179F189E1E9D0883FBF7F5FB059030
:10689000002807D005A8FCF7A5FE040004D013E0EB
:1068A0007EE033E0B54875E769460A8BFF2305991A
:1068B00001930220009502AC07C433463946139A6F
:1068C0001498FDF737F804460598FBF7DBFBE4E185
:1068D00010A811A900910290019532463946219BDA
:1068E0001898FEF7E1FFB9E7A248001F874203D1DD
:1068F0006846FBF7B7FF06E0307869460870FCF79A
:1069000011FC0028AAD19B49891E10E0874208D1BA
:10691000307869460870022870D20221FCF712FC18
:1069200003E002216846FBF7D5FF9249491C11910B
:1069300069460A7808A90A7001229CE010A8019013
:1069400011AB009531463846219AFEF7E5FF85E701
:1069500010A8019011AB009531463846219AFFF7F7
:10696000A7F87BE710A8019011AB00953146384697
:10697000219AFFF7CFF871E710A8019011AB0095AD
:1069800031463846219AFFF7F9F967E710A80190D8
:1069900011AB009531463846219AFFF74BFB5DE776
:1069A00010A8019011AB009531463846219AFFF7A7
:1069B0004FFC53E710A8019011AB009531463846C3
:1069C000219AFFF7E1FB49E70EE04CE12AE11FE1E4
:1069D00014E1DCE095E086E07BE077E06CE061E0EC
:1069E00056E04BE01DE00AE010A8019011AB0095C5
:1069F00031463846219AFFF741FD2FE725E05C48F4
:106A0000801C874204D169460020FCF78FF905E01D
:106A10003178684601700020FCF770FD5449091D6B
:106A200085E75348401D874208D1002101A8FBF7A4
:106A300051FF69460120FCF779F910E0307869468A
:106A4000087172780A70022801D3002006E700213D
:106A5000FCF778FB684601780120FCF74FFD69469A
:106A60000A7908A90A7069460A7808A94A70404953
:106A7000C91D0222119110A90A80EFE610A8019009
:106A800011AB009531463846219AFFF76FFCE5E6D9
:106A900010A8019011AB009531463846219AFFF7B6
:106AA00073F8DBE610A8019011AB0095314638462B
:106AB000219AFEF76FFFD1E610A8019011AB009567
:106AC00031463846219AFEF7B1FFC7E62C4901202E
:106AD000486010A8019011AB009531463846219AC4
:106AE000FFF780F8BAE621983946324612286BD172
:106AF0005078147800020443B21C2046FBF7C0FC17
:106B00000DE0219802285FD17078347800020443A8
:106B100002A92046FBF7CAFD002833D00020144903
:106B20002331119108A908704C70200A8870032045
:106B300010A90880002448E05B636F6E6669675F98
:106B40007365727665725F63625D2043616C6C622F
:106B500061636B2E204F70636F6465203078253041
:106B600034580A000D0A0000C8110020FFFF000081
:106B70002180000010800000088000000524000033
:106B80003815002068460089FBF75CFDC7E72198AF
:106B90000795002818D10A206946088002A968468E
:106BA000FBF79AFF040010D104216846818001ABF5
:106BB00002A90088079AFFF7A7FD39481190684697
:106BC000818810A8018000E0364C374880688446F0
:106BD000002810D010A800881199079005912198DD
:106BE00006951E990296039004940197009115A8AA
:106BF0000FC86646B047002C3FD04EE010A8019069
:106C000011AB009531463846219AFFF7CBFC25E6BB
:106C100010A8019011AB009531463846219AFFF734
:106C2000F3FC1BE61598129016980790179806909B
:106C3000189805901E9CFEF77BF8FEF76BF9FDF7A0
:106C4000A3FC17490020C91DFF2201920291039065
:106C500000940490059B079A06991298FCF76AFE27
:106C6000FCF70AFAB0E710A8019011AB0095314685
:106C70003846219AFFF710F8F0E510A80288FF20A7
:106C8000119901AB049223C31E980090189B169A89
:106C900017991598FCF74EFE044620467AE5000049
:106CA00043800000FFFF00003815002001B50748B1
:106CB00082B00078FF2807D10220009002AB044A7E
:106CC00004490248FBF72CFA0EBD000038150020DD
:106CD0009DBE03111027008070B5054600F062F8D4
:106CE00012490446052809D0FF2080006043461859
:106CF000204600F01DF87580204670BD00201F2240
:106D00005201FF239B0043435B189B181B7C002B05
:106D100005D0401CC0B20528F3D3052070BDFF226A
:106D20009200424351184D8070BD00005C64002009
:106D3000F8B50446FF2080001949604345181F201C
:106D400040012F18B87EFF2801D0FBF7E3F9287C1B
:106D5000FF2801D0FBF7DEF928882146FBF724FC49
:106D600000242646FF20E530604340190146FF31EC
:106D7000C131CE868E86FF21E1311430FBF770F9E8
:106D8000641CE4B2022CEDD30720C0012818C665AC
:106D90000666466686663E74FF20B8762874F8BD9F
:106DA0005C64002030B5024600201F2409496401BC
:106DB000FF239B0043435B181D192D7C002D02D03F
:106DC0005B88934204D0401CC0B20528F0D3052054
:106DD00030BD00005C640020F8B504460AA00068DD
:106DE000009060060F46800F6D461646285C0A210B
:106DF000FBF79CF93870E006800F285C0A21FBF74E
:106E000095F930700020F8BD0A0F141970B505AC63
:106E10000ECC044D00246D68002D00D0A8472046FC
:106E200070BD0000681500201CB500685821019055
:106E300048431049441820464030017900290DD0BC
:106E4000491E0906090E017109D004200090204650
:106E5000453001AB084A0121FBF762F91CBDFF2157
:106E60004171204600235230646D1A460321A04729
:106E70001CBD0000EC850020296E0311FFB5B7B0E2
:106E8000429C379800F042FA0646022820D3724C02
:106E90005C2172A0FBF70EF9002805D05C216FA0E1
:106EA000FBF708F9401C00E06CA0C32189007E4D6F
:106EB0000346009175A229460120FBF701F92346FC
:106EC0007AA229460120FBF7FBF820463BB0F0BD33
:106ED000002769468F83781E08905F4A41981D32CB
:106EE000811A09AD904218D00FDC804A811A904275
:106EF00077D005DC7E49401875D0012822D185E085
:106F0000292920D02A291DD115E001200B00FBF7EB
:106F1000E9F8068E2F234B5A538E607822780002B0
:106F20000243B3206946888308A907A8019100900D
:106F30002B46419934E060782178000201433046C5
:106F400000F0D8F873E0607824780002044321460A
:106F5000304600F0CFF818E021786A469083A07898
:106F6000627800020243304600F0AEF907465EE068
:106F700021786A469083A078647800020443224610
:106F8000304600F0A1F9070051D1B320694688834B
:106F900008A90191304907A809AB224600901D318C
:106FA000304600F0C3F842E008AA05A9304600F0D8
:106FB0004DF969460A7D1DE0217868460175304625
:106FC00000F012FA33E021786A461175304600F07D
:106FD0000BFA08AA05A9304600F038F96A46117D77
:106FE00021E00CE0FFE708AA06A9304600F090F87F
:106FF00069460A7E888B2A54401C888317E02178D2
:1070000068460176304600F097F910E021786A462C
:107010001176304600F090F908AA06A9304600F033
:1070200077F86A46117E908B2954401C908308980B
:10703000411C0FD06946898B04910290FF22409831
:107040000395019200903A9B389A39993798FCF74A
:1070500071FC0746384639E7148000002E2E2F6D4C
:107060006573682F707269766174652F6D6F6465E2
:107070006C732F6865616C74682F6865616C7468E7
:107080005F7365727665722E630000000A5B2A2AC0
:1070900020455252202A2A5D3A5B25735D3A5B25D2
:1070A000645D3A2000000000000800405B48454154
:1070B0004C54485D204E6F206D61746368696E6743
:1070C000204865616C74682053657276657220652E
:1070D0006E746974792E2052657475726E696E676C
:1070E0003A203078253034580A000000068000002D
:1070F000FC7FFFFF58214843044910B54018FF2189
:1071000001312030FAF794FF10BD0000EC8500201B
:1071100058235843034BC018403000790870024888
:1071200010607047EC85002007800000F8B55824F7
:107130006043244C1E46041920464030C588069FF3
:10714000079B95421DD05C211FA0FAF7B3FF0028D2
:1071500005D05C211CA0FAF7ADFF401C00E01AA08E
:10716000FF2191312B4C0346009123A2214601209F
:10717000FAF7A6FF28A221460120FAF7A1FF31481D
:10718000F8BD027C327082797270C0880325000AD3
:10719000B0702D48814203D105202034186001E0F1
:1071A000042018600022FF2101312046FAF746FF33
:1071B000411C04D070556D1CEDB2421CF3E73D80BC
:1071C0000020F8BDEC8500202E2E2F6D6573682FF2
:1071D000707269766174652F6D6F64656C732F686A
:1071E00065616C74682F6865616C74685F73657243
:1071F0007665722E630000000A5B2A2A20455252EF
:10720000202A2A5D3A5B25735D3A5B25645D3A204E
:1072100000000000000800405B4845414C54485DB8
:1072200020436F6D70616E79204944206D69736DE4
:10723000617463682E2052657475726E696E670A98
:1072400000000000FFFF0000318000005823584379
:10725000034BC01840300078087002481060704737
:10726000EC8500203780000030B5B1B0B32069460E
:10727000088130A902A801910090114C00252846F0
:10728000E28803AB0421FFF751FF60880121401C15
:1072900080B2608022789140884201DB658003E003
:1072A00068460089032809D068460095038903AA27
:1072B00004210448FCF7D4FA31B030BD0020FBE7CC
:1072C0002C86002046150020F8B5582568430B464B
:1072D0000D4D002140190B4CC56C0EE0866CCF00A3
:1072E000F65D9E4208D1846CC800001D24581146EA
:1072F0001846A047002402E0491C8D42EED82046E3
:10730000F8BD0000FFFF0000EC85002010B502462C
:1073100008490020582343435B18DC6C002C04D040
:10732000403314885B8A9C4202D0401C0228F1D36F
:1073300010BD0000EC85002073B582B06846027B6A
:1073400002985821264C48430019014640310A71E1
:10735000FF254979002A1ED00426FF292DD0084692
:10736000FAF7D8FE029858214843001945210D54D8
:1073700002AB1C4A012145300096FAF7D1FE029873
:107380005821484301190846523001234C6D03AA85
:107390000221A0477FBDFF29FCD00846FAF7BAFEBC
:1073A00002985821484301194520455408460023B6
:1073B00052304C6D1A460321EBE702AB094A01211A
:1073C00045300096FAF7ACFE02985821484301195F
:1073D0000846523001234C6D03AA1946D9E7000034
:1073E000EC850020296E031158225043054A10B540
:1073F0008018403001700022428003484088FBF72B
:10740000D7FF10BDEC8500204415002070B505ACF9
:107410000ECC044D00246D68002D00D0A8472046F6
:1074200070BD0000901500200246400B4003084349
:10743000904202D901214903884370477FB504680F
:10744000A07B00281BD026462036F07A800704D582
:10745000012503A8FBF786FB03E060886946002549
:107460008881FF207072206A7F210290019500912F
:107470006846E38AA2882188808900F087FD7FBD65
:10748000F0B5124D9C46AF882B465C881E2F14D059
:10749000E3199CB21E2C01D31E3CA4B20C235C4306
:1074A0000B4BE618B17018536046726030721E2F95
:1074B00001D07F1CAF800020F0BD661CB6B26E808C
:1074C0001E2EEBD100266E80E8E70000D8130020C6
:1074D000F45F002010B5F0210448FAF7C1FD03481D
:1074E000FF216931F030FAF7BBFD10BD045F0020C9
:1074F000F0B50F490978012912D00E4B85880E4A44
:107500000021CE00B418A788AF420BD10778A47928
:10751000A74207D196598468B44203D8002304E0F7
:107520000020F0BD491C1E29EBD31846F0BD000019
:10753000D8130020FFFF0000045F0020F0B50646CE
:10754000944600200C4C0A46034630211D464D430C
:107550002F19B97BB1420AD1615B914207D13D7CC1
:10756000654504D13020434318198673F0BD5B1C78
:107570009BB2102BE9D3F0BD5C610020FFB505463E
:1075800010788FB08007C00F0B9012981746427882
:10759000D0090990129893078078520681081B0E33
:1075A000D20E19431202114306911299C000C978F4
:1075B0004A090243D006C00ECE060290F60EE888B5
:1075C000FDF7D8F80D902A78A9880120FFF7B6FFBB
:1075D000040011D0E08A0699884202D9A44813B069
:1075E000F0BD884208D2217C20880123A269FFF7E0
:1075F00047FF204600F0BEFBA8680699FFF714FF7E
:1076000002462978A88804AB00F0BAF90C9000284B
:107610000BD0A87801281FD00C200A90387880075A
:107620001CD503A8FBF79EFA1BE06846007C0028E7
:107630007ED10120761CB0400D99401E012977D1E2
:10764000EA780B99019100920290A988E888069B3C
:10765000109A00F09BFC6BE00820DEE7E8886946A2
:107660008881701C0A990E9048430B99401C019028
:10767000009168468289A9880120069B00F0B0FB32
:10768000040003D0A07B002812D03DE00D9A794879
:107690000021012AA3D1E8780B9A0192009002916F
:1076A0006846A9888089069B109A00F06FFC96E7CF
:1076B000002001230C90A3731098A08028782074D8
:1076C000A878E073E8786077A8882080E8886080F0
:1076D00000206074A0740999E1740699E18228225F
:1076E000105526772062204623303A7802727A7845
:1076F00042721F2E0CD00E9A18469040401E6062B7
:10770000A868FFF791FEA0610D98012803D008E05A
:107710000020C043F3E7204600F0A0FB204600F025
:1077200043FB029A0120216A90400142009001D05F
:10773000002054E7964206D10A98314641431898F2
:10774000C01E0818A0810A990298A2684843101820
:107750001299189A401C091D121FFAF75DFC206A45
:107760000099084320621899626AC9B20891904250
:107770005ED1204600F088FB0D9801280BD1226ACB
:107780007F206B460B9907C36846E38AA9888089E6
:10779000109A00F0FBFB1298A16800784006400E9A
:1077A000087035480068002813D03878C10701D127
:1077B00040070ED5E18AA868FFF736FEA860A089C9
:1077C00000902D4EA36836682846099A1099B04754
:1077D00024E0002E00D003263878810708D50898C9
:1077E000009078782A463146129B04F067FB10E03F
:1077F00000070ED50898009078782A463146129BEB
:1078000004F05CFBE888791CFDF722FB0C90002853
:10781000F0D0E18AA868FFF707FEA8602978A88859
:107820000023AA68FFF72CFE204600F0A3FA1CE014
:107830003878810708D50898009078782A46012181
:10784000129B04F03BFB10E000070ED50898009057
:1078500078782A460121129B04F030FBE888791CD5
:10786000FDF7F6FA0C900028F0D00C98B7E600006F
:10787000FFFF000014220000D4130020FFB583B0E6
:107880000C9E04460D9D029201461F4600960195EE
:107890001C48049AFAF702FC1BA0FAF7FFFB1B48EE
:1078A0000020C04600200190334622460097022067
:1078B000049900F095FA04001DD0002D03D0606AF1
:1078C000A84203D1204600F055FA14E0207F1F287B
:1078D00014D00121401C8140491E226A29400A43DC
:1078E000226225462035687AFAF714FCFF20687278
:1078F000204600F01DFB002007B0F0BD206A2843A1
:107900002062EEE72CD603110D0A0000C8110020FA
:1079100010B50468A07B002808D0217C20880123B2
:10792000A269FFF7ADFD204600F024FA10BD00006B
:1079300010B50448002181804180F0210248FAF707
:107940008FFB10BDD8130020045F002010B5032466
:10795000240221460948FAF783FB21460748FAF733
:107960007FFB0020054BFF2130224243D2182032FA
:107970005172401C91721028F6D310BD5C6100203A
:10798000FFB5174A0646518897889C46134800243D
:10799000144A20E00C230D465D43535BB34213D1E0
:1079A000AB189E469B78019DAB420DD173465B6838
:1079B000029DAB4208D10C2041438818017A6046F1
:1079C0000170002004B0F0BD491C89B21E2900D10D
:1079D0000021641CA4B2BC42DCD3F3E7FFFF00002B
:1079E000D8130020F45F0020FEB504460F462A4D50
:1079F0002A4EC088FCF7BEFE0190A088FBF700FF6E
:107A000000281CD001980128E08826D0010AFF290F
:107A10002FD0FBF715FF002806D0E0886946FDF758
:107A200017FA002800D000252046FFF761FD002846
:107A300025D0204600F040FB30463D60FEBD18A03A
:107A4000FAF72CFB24A0FAF729FB24480020C046B3
:107A5000002038601148401EFEBDFBF7D1FE002813
:107A600005D0E0886946FDF7CFF90028DBD1002674
:107A7000DAE70949C91E8842D6D20120FEBD18A006
:107A8000FAF70CFB14A0FAF709FB14480020C046D3
:107A9000002038600048FEBDFFFF000018210000F4
:107AA0005B4C54524E2052785D20506B74206F72A4
:107AB0006967696E617465642066726F6D204C6FD2
:107AC00063616C205352432E2044726F7070696E54
:107AD000672E2E2E0A0000000D0A0000C81100209B
