:020000041FFFDC
:1008000000000000A5D4002054EF002078EF002065
:10081000D8F30020000000000000000000000000ED
:1008200000000000000000000000000000000000C8
:1008300000000000000000000000000000000000B8
:1008400000000000000000000000000000000000A8
:100850000000000000000000000000000000000098
:100860000000000000000000000000000000000088
:100870000000000000000000000000000000000078
:100880000000000000000000000000000000000068
:100890000000000000000000000000000000000058
:1008A0000000000000000000000000000000000048
:1008B0000000000000000000000000000000000038
:1008C0000000000000000000000000000000000028
:1008D0000000000000000000000000000000000018
:1008E0000000000000000000000000000000000008
:1008F00000000000000000000000000000000000F8
:1009000000000000000000000000000000000000E7
:1009100000000000000000000000000000000000D7
:1009200000000000000000000000000000000000C7
:1009300000000000000000000000000000000000B7
:1009400000000000000000000000000000000000A7
:100950000000000000000000000000000000000097
:100960000000000000000000000000000000000087
:100970000000000000000000000000000000000077
:100980000000000000000000000000000000000067
:1009900095BB002029BC00201DE6002000000000BF
:1009A0000000000000000000000000000000000047
:1009B0000000000000000000000000000000000037
:1009C0000000000000000000000000000000000027
:1009D0000000000000000000000000000000000017
:1009E0000000000000000000000000000000000007
:1009F00000000000000000000000000000000000F7
:100A000000000000000000000000000000000000E6
:100A100000000000000000000000000000000000D6
:100A200000000000000000000000000000000000C6
:100A300000000000000000000000000000000000B6
:100A400000000000000000000000000000000000A6
:100A50000000000000000000000000000000000096
:100A60000000000000000000000000000000000086
:100A70000000000000000000000000000000000076
:100A80000000000000000000000000000000000066
:100A90000000000000000000000000000000000056
:100AA0000000000000000000000000000000000046
:100AB0000000000000000000000000000000000036
:100AC0000000000000000000000000000000000026
:100AD0000000000000000000000000000000000016
:100AE0000000000000000000000000000000000006
:100AF00000000000000000000000000000000000F6
:100B000000000000000000000000000000000000E5
:100B100000000000000000000000000000000000D5
:100B200000000000000000000000000000000000C5
:100B300000000000000000000000000000000000B5
:100B400000000000000000000000000000000000A5
:100B50000000000000000000000000000000000095
:100B60000000000000000000000000000000000085
:100B7000A1BF0020000000000000000000000000F5
:100B80000000000000000000C9A2002000000000DA
:100B90000000000000000000000000000000000055
:100BA000000000000000000000000000DDB7002091
:100BB0000000000000000000000000000000000035
:100BC000C5B7002000000000000000000000000089
:100BD0000000000000000000000000000000000015
:100BE0000000000000000000000000000000000005
:100BF00000000000000000000000000000000000F5
:0C0C000001FF01FF01FF01FF41000000A7
:020000041FFFDC
:1040000001FF01FF01FF01FF01FF01FF01FF01FFB0
:1040100001FF01FF01FF01FF01FF01FF01FF01FFA0
:1040200001FF01FF01FF01FF01FF01FF01FF01FF90
:1040300001FF01FF01FF01FF01FF01FF01FF01FF80
:0442800001FF0141F8
:020000042000DA
:10800000A8090120D5800020DD800020DF8000202D
:108010000000000000000000000000000000000060
:10802000000000000000000000000000E1800020CF
:108030000000000000000000E3800020E580002038
:108040000000000000000000000000000000000030
:108050000000000000000000000000000000000020
:108060000000000000000000000000000000000010
:108070000000000000000000000000000000000000
:1080800000000000000000000000000000000000F0
:1080900000000000000000000000000000000000E0
:1080A00000000000000000000000000000000000D0
:1080B00000000000000000000000000000000000C0
:1080C0000348854600F042F80048004751D200209E
:1080D000A80901200448804704480047FEE7FEE75E
:1080E000FEE7FEE7FEE7FEE7B9A20020C180002020
:1080F00003460B439B0703D009E008C9121F08C0C1
:10810000042AFAD203E00B780370401C491C521E6B
:10811000F9D27047D2B201E00270401C491EFBD276
:1081200070470022F6E710B513460A460446194682
:10813000FFF7F0FF204610BD0321001D401E03780D
:1081400012021A43491EF9D510467047064C012504
:10815000064E05E0E36807CC2B430C3C98471034EF
:10816000B442F7D3FFF7B0FFACEF00201CF00020C3
:1081700070B58C180578401C6B075B0F01D1037834
:10818000401C2A1106D10278401C03E006780E70CC
:10819000401C491C5B1EF9D12B0705D40023521E3D
:1081A0000DD40B70491CFAE70378401CCB1A921CC3
:1081B00003E01D780D70491C5B1C521EF9D5A142CD
:1081C000D8D3002070BD000003B40148019001BD68
:1081D0000FF4000003B40148019001BD4D6600009A
:1081E00003B40148019001BD5113000003B40148DC
:1081F000019001BD3916000003B40148019001BD92
:1082000041F4000003B40148019001BD5DF6000097
:1082100003B40148019001BD75F4000003B40148A6
:10822000019001BD8913000003B40148019001BD14
:108230005D2F000003B40148019001BDCDF900009D
:1082400003B40148019001BDF1F9000003B40148F5
:10825000019001BDD111000003B40148019001BD9E
:1082600059F9000003B40148019001BD9D180000B8
:1082700003B40148019001BDF1F1000003B40148CD
:10828000019001BD6117000003B40148019001BDD8
:10829000F117000003B40148019001BD5114000022
:1082A00003B40148019001BD6916000003B4014800
:1082B000019001BD0915000003B40148019001BD02
:1082C000C960000003B40148019001BDB51F000062
:1082D00003B40148019001BDE9BF000003B40148A7
:1082E000019001BD1D1B000003B40148019001BDB8
:1082F000ED1B000003B40148019001BD65060000BC
:1083000003B40148019001BD21FA000003B4014803
:10831000019001BDC11F000003B40148019001BDDF
:1083200089F2000003B40148019001BD49F4000046
:1083300003B40148019001BDC9F6000003B401482F
:10834000019001BD45C0000003B40148019001BD8A
:10835000D541000003B40148019001BD2141000056
:1083600003B40148019001BDE9FB000003B40148DA
:10837000019001BD55DD000003B40148019001BD2D
:1083800089DF000003B40148019001BD75E00000E1
:1083900003B40148019001BDE1DE000003B40148CF
:1083A000019001BD35E1000003B40148019001BD19
:1083B00029E4000003B40148019001BD69E5000013
:1083C00003B40148019001BD91E0000003B40148ED
:1083D000019001BDE1E2000003B40148019001BD3C
:1083E000F1E2000003B40148019001BDCDE60000B8
:1083F00003B40148019001BD09E9000003B401483C
:10840000019001BDE1E7000003B40148019001BD06
:10841000B5DF000003B40148019001BD6102000016
:1084200003B40148019001BD6DDF000003B40148B1
:10843000019001BD85E0000003B40148019001BD39
:10844000D1E5000003B40148019001BDCDDF00007B
:1084500003B40148019001BD1DE0000003B40148D0
:10846000019001BDCDE0000003B40148019001BDC1
:1084700031E2000003B40148019001BD49E700006A
:1084800003B40148019001BD1DDB000003B40148A5
:10849000019001BD2DCF000003B40148019001BD42
:1084A000A90B010003B40148019001BD5D0B01005F
:1084B00003B40148019001BD690B010003B40148F8
:1084C000019001BD250E010003B40148019001BDDA
:1084D000F5E3000003B40148019001BD21E3000071
:1084E00003B40148019001BD15E3000003B4014845
:1084F000019001BDC1E0000003B40148019001BD3D
:108500006DDD000003B40148019001BDF1DE000003
:1085100003B40148019001BD7574000003B4014823
:10852000019001BD8574000003B40148019001BDB4
:108530000959000003B40148019001BDDD74000039
:1085400003B40148019001BD890D010003B4014845
:10855000019001BDD576000003B40148019001BD32
:108560000D34000003B40148019001BD91070000E3
:1085700003B40148019001BD691B000003B4014828
:10858000019001BDF1F3000003B40148019001BD69
:10859000BD07000003B40148019001BD6107000060
:1085A00003B40148019001BDF90D000003B4014876
:1085B000019001BD290D000003B40148019001BDE7
:1085C0003107000003B40148019001BD7919000092
:1085D00003B40148019001BD010D000003B401483E
:1085E000019001BD6F21000003B40148019001BD5D
:1085F0005D0D000003B40148019001BD990D00001C
:1086000003B40148019001BDD10D000003B401483D
:10861000019001BD410E000003B40148019001BD6D
:108620003975000003B40148019001BD8D7500004B
:1086300003B40148019001BD8572000003B40148F4
:10864000019001BDE52C010003B40148019001BD7A
:108650007D9E000003B40148019001BDF59E00001D
:1086600003B40148019001BDF94C000003B4014876
:10867000019001BDA53D000003B40148019001BD7A
:108680005D52000003B40148019001BD552B01006B
:1086900003B40148019001BDB1C2000003B4014818
:1086A000019001BDF1F0000003B40148019001BD4B
:1086B000C5C5000003B40148019001BD0DC700000D
:1086C00003B40148019001BD0BC5000003B401488B
:1086D000019001BD3942000003B40148019001BD81
:1086E000F140000003B40148019001BDC140000009
:1086F00003B40148019001BD5D41000003B401488D
:10870000019001BD95C3000003B40148019001BD73
:108710001DC3000003B40148019001BD6D45000078
:1087200003B40148019001BD753C000003B4014849
:10873000019001BD7DCE000003B40148019001BD50
:1087400071D7000003B40148019001BD99D7000022
:1087500003B40148019001BDB943000003B40148CE
:10876000019001BD3D44000003B40148019001BDEA
:10877000E1D5000003B40148019001BD7DD20000A5
:1087800003B40148019001BD7D4E000003B40148CF
:10879000019001BD95DA000003B40148019001BDCC
:1087A0004D4F000003B40148019001BDE9CF000026
:1087B00003B40148019001BD3DD8000003B4014855
:1087C000019001BD89D4000003B40148019001BDAE
:1087D0005DD6000003B40148019001BD3DC4000016
:1087E00003B40148019001BDB551000003B4014834
:1087F000019001BD3D0D010003B40148019001BD90
:1088000055E5000003B40148019001BDBD9E000084
:1088100003B40148019001BDF5C4000003B4014850
:10882000019001BD3D3F000003B40148019001BD2E
:1088300025C2000003B40148019001BD17C4000027
:1088400003B40148019001BDF7C2000003B4014820
:10885000019001BD01C4000003B40148019001BDB5
:10886000D938000003B40148019001BDDBC200000B
:1088700003B40148019001BDE1C1000003B4014807
:10888000019001BD41CF000003B40148019001BD3A
:10889000199F000003B40148019001BDC9C5000043
:1088A00003B40148019001BD8DC9000003B4014823
:1088B000019001BD39CD000003B40148019001BD14
:1088C00035D3000003B40148019001BD695900008F
:1088D00003B40148019001BD1500010003B4014833
:1088E000019001BD59C5000003B40148019001BDCC
:1088F00099C4000003B40148019001BDD54A0000AD
:1089000003B40148019001BD3D29000003B40148B2
:10891000019001BD9534000003B40148019001BDF0
:108920006913000003B40148019001BDE11D00007E
:1089300003B40148019001BDB55E000003B40148D5
:10894000019001BD65B7000003B40148019001BD6D
:10895000D5F6000003B40148019001BDDDFB000025
:1089600003B40148019001BD999E000003B4014881
:10897000019001BDED75000003B40148019001BDF7
:108980009D1E000003B40148019001BD15F20000D6
:1089900003B40148019001BDFDF6000003B4014895
:1089A000019001BDC5F9000003B40148019001BD6B
:1089B0003903000003B40148019001BD01E4000047
:1089C00003B40148019001BD7DE5000003B40148F6
:1089D000019001BDD100010003B40148019001BD27
:1089E000D1EB000003B40148019001BDF50D010079
:1089F00003B40148019001BD2D68000003B4014893
:108A0000019001BDB90D010003B40148019001BD01
:108A1000FDE2000003B40148019001BDE9E300005C
:108A200003B40148019001BD3DE4000010B5034AC4
:108A30001321034800F056FC10BD0000BCEE0020DE
:108A400030F0002010B500241346002802D0022484
:108A5000204610BD0A4619460148FFF7B5FBF7E767
:108A600027F000200020704770B50C460146032017
:108A700000020A1A002534481300FFF7ABFB1D1053
:108A800012151C1F2326282C303234383A3C3E4025
:108A9000424446484A4E50525A5456585A00C07999
:108AA00011E01022294902E0284910221031204605
:108AB000FFF78AFB45E0C06A206042E022490622B7
:108AC0003C31F4E7007820703BE0808936E01E49B5
:108AD00042784231EBE71D4982781F39E7E7007A97
:108AE000F1E7407AEFE7184906223031DFE7807A74
:108AF000E9E7C07AE7E7C08920E0808A1EE0C07815
:108B00001CE0C08A1AE0008B18E0408B16E0808BD6
:108B100014E00D4906223631C9E7C08B0EE0008C07
:108B20000CE0408C0AE08079CDE7008A06E0408ABC
:108B300004E0272904D20846FFF752FB208000E01A
:108B40000225284670BD000048F2002009F70020E9
:108B500070B50E4C00256071A571691EE181FFF7AB
:108B600045FB0420E071102200210948FFF744FB77
:108B70000748102200211030FFF73EFBE562257206
:108B800065720120A072E57270BD000048F20020FD
:108B900009F70020FEB53B4D0C4608040CD568795A
:108BA000FFF730FB050004D001F0BEFF2846FFF7B9
:108BB0002FFB0120C00360E0600403D50120800387
:108BC0004840FEBD2F48E1070126807900292AD0C0
:108BD0002978002920D0052821D0297A68460170FB
:108BE000697A4170274906223031801CFFF7ECFA80
:108BF000A97A68460172E97A417269466879FFF795
:108C00000DFB002808D00720A871696A002903D04D
:108C10000968002900D0884720467040FEBD032027
:108C200069460870E4E7A1070DD5052809D1E88950
:108C3000FFF7FAFAAA8A002A03D002216879FFF71F
:108C4000F9FA022019E0600704D5002001F0ACFF1A
:108C5000042012E0200712D52879012802D002282A
:108C60000AD107E00096AB8B6A8B298BE88A00F06B
:108C70000BF801E000F05AF908206040FEBD00202A
:108C8000FEBD000048F20020F8B5134C069EA57901
:108C9000052D01D01420F8BD104F851FBD4219D2FB
:108CA000062917D3BD1DA94214D2FF27F537BA42B2
:108CB00010D20A2B0ED3AB420CD2E0822183628306
:108CC000A383304601F070FF04216079FFF7B8FA02
:108CD0000020F8BD1820F8BD48F200207A0C0000F2
:108CE000F7B50D4680490098164642187F4F00247C
:108CF0007879B9791300FFF76DFA190E141BE92082
:108D000040455970777E888FE996A2A9B4BFC8E91B
:108D1000E9E9E9D3E900102D76D1102231467448F3
:108D20006FE0102D70D1724810223146103068E08B
:108D3000042D69D13068F862CEE0012D64D13B7812
:108D400032783A70002B0AD0002A07D1022903D0CA
:108D5000062901D0042901D1FFF778FABCE0002AE6
:108D60000AD0012905D0032903D0052901D00429FF
:108D700002D10121FFF770FAAEE0022D44D1308814
:108D8000B881A9E01F2D3FD858481F22002142304A
:108D9000FFF732FA55482A4631464230FFF714FAB7
:108DA000524B7D7042332A46012112E01F2D7CD8A0
:108DB0004F481F2200211F38FFF71EFA4C482A4651
:108DC00031461F38FFF700FA494B2A461F3BBD705A
:108DD00000217879FFF746FA83E0012D65D13078DC
:108DE000042862D8387277E0012D5ED130780328EC
:108DF0005BD8787270E0062D57D13C480622314688
:108E00003030FFF7E1F967E04FE0012D4DD13078C8
:108E100007284AD8B8725FE0012D46D13078032880
:108E200043D8F87258E0022D3FD13288BA82002A26
:108E300052D0052950D10221FFF7FCF94CE0012D59
:108E400033D13078012830D8F87045E03088022DD1
:108E50002BD1062829D31921C901884225D8F882A7
:108E60003AE03088022D20D106281ED31921C901ED
:108E700088421AD838832FE03088022D15D1FF217F
:108E8000F531884211D2788326E03088022D0CD14A
:108E90000A280AD31921C901884206D8B8831BE0E1
:108EA0003178012D01D1012901D0182414E00821C5
:108EB000FFF7DEF9002801D016240DE0002001F0B4
:108EC00073FE04217879FFF7BBF905E000982728A5
:108ED00001D2022D02D002242046FEBD3188FFF7C8
:108EE000CDF90446F8E70000FFFCFFFF48F2002040
:108EF00009F700201CB50B4CA179002901D01120E5
:108F00001CBD002800D06062064907482C3103468A
:108F100001910090103B0022E179607900F016F891
:108F200000201CBD48F2002019F7002010B50648AB
:108F30008179052901D0122010BDC1891322407901
:108F4000FFF7A2F910BD000048F20020F8B51D4659
:108F50000224069F079E0B00FFF73CF90511041140
:108F600011041100FFF796F9040008D13246394682
:108F70002846FFF795F9FFF799F9FFF79DF9204685
:108F8000F8BD0000014610B50020C90704D0034A0F
:108F90000421034800F0A6F910BD0000D0EE002027
:108FA00080F1002070B50F4D0F4CA870294610318C
:108FB000204600F01DF8002128460B460830CA0064
:108FC00084521218491C09065360090EF7D0142068
:108FD00002F0C4F9A878FFF775F90448FFF778F9AB
:108FE00070BD000068F10020FFFF000075AC00209C
:108FF00070B50A4C0025A04209D1002082008C5295
:109000005218401CC0B295700228F7D370BD01F011
:1090100000FE0028FAD00480857070BDFFFF0000BC
:10902000F8B50E460746069900240798002902D095
:109030000B242046F8BD022B01D00D24F9E711784E
:109040005278120289188DB22946814301D08024BA
:10905000EFE73846F16800F03DF9A842E9D02A462A
:109060003846F16800F0A8F90400E2D171892A4677
:10907000384600F065F9DCE770B50C46080412D5F7
:109080000A488078FFF7BEF8050008D02878B02895
:1090900002D1284601F0CEFE2846FFF7B9F801209C
:1090A000C003604070BD002070BD000068F100206A
:1090B000FFB587B0087A0025109E1C460F46C006F3
:1090C0000DD5099801F09EFD030006D00A2239460D
:1090D00007989847050035D101E00E2532E0387831
:1090E00002281DD1786829220178407812020002F6
:1090F000081880B2811A90427ED009DC7249401A69
:1091000023D0012821D0022851D0032808D125E0FE
:10911000012972D0022971D003296DD004296ED0A3
:10912000099801F097FD0028D7D00568002DD4D00C
:1091300012991198019100903346224639460798BA
:10914000A847054628460BB0F0BD1198002873D1FA
:10915000F868017831700278416897E0119800282A
:109160006AD101203070F868002100782070788979
:10917000401C80B2FFF7B2F800280FD03178027897
:109180008918891C3170817A61704189090AA1703E
:1091900002784168E01CFFF717F8D3E73078042223
:1091A000001D30700021601CFFF726F8CAE71198F7
:1091B000002872D1F86804A900880090042030705B
:1091C000009820700098000A60700098FFF786F8F9
:1091D000070028D0F86805906846028A03AB3B492F
:1091E0003846FFF781F800280FD13B780221384834
:1091F0007A68FFF77FF803E027E031E01DE049E0FF
:10920000002802D1314869468881059800780228F3
:109210000CD1059802224168201DFEF7D5FF307859
:10922000801C307002E06946009888816846808919
:10923000A070000AE07085E72FE0119800282CD17B
:10924000F968079800F046F804E01198002824D146
:10925000F8680088022131702070000A607071E7A0
:10926000F868FFF74DF81199C0B2814210D88142D9
:1092700001D1002206E0129A8918814202D3119985
:10928000401AC2B23270F96811980918204682E774
:10929000072557E71198002801D00B2552E7072131
:1092A000F868317001782170417861708178A1701F
:1092B0004188090AE1700179217181796171C08861
:1092C000000AA0713EE7000000280000FFFF000038
:1092D000DA2F010010B501F09CFC002800D0807846
:1092E00010BD00007CB51446050019D068460195F4
:1092F0000180FFF70BF803001DD1002C1BD06D89F6
:10930000002D0DD00C20FFF707F800280AD000230D
:1093100003608580094A84605168002904D006E012
:10932000022308E0132306E0506004E011460A68B7
:10933000002AFBD1086018467CBD000068F10020BF
:10934000F8B50C4C0746207815460E46FF280FD07E
:109350000A20FEF7E7FF01000AD0B12008700020C4
:10936000487008714F80CE800D812078FEF7E0FFB5
:10937000F8BD000068F10020FFB583B008461E4626
:1093800001A90C9FFEF7AAFF050012D0684680884D
:1093900001F060FC00280AD04468002C07D0009738
:1093A000F3B22946059A0398A04707B0F0BD0E20F6
:1093B000FBE70120F9E7000070B514460E460546AC
:1093C00001F027FC002806D13146054801F021FCB8
:1093D000002803D005808470002070BD112070BD6E
:1093E000FFFF0000014610B50020C90704D0034A62
:1093F00007210348FFF776FF10BD0000E4EE0020D0
:10940000D4F1002070B50D46164600241D49030016
:10941000FEF7E0FE08051234341934222934152DE4
:1094200023D8162200211848FEF7E6FE2A463146C8
:109430001548FEF7C9FE22E0022D16D11149108809
:10944000103908801BE0082D0FD10E480822314644
:109450000838FEF74DFE12E0012D06D1CA69094910
:109460003078283107E0012D01D0182407E0CA6BBD
:1094700004493078483102F03AF800E002242046EE
:1094800070BD0000D4F10020D4F6002010B50446D1
:10949000084884420DD0012907D0022909D10121B1
:1094A0002046FEF74BFF002803D103492046FFF773
:1094B0009FFD10BDFEFF0000B4F20020FFB5044682
:1094C0004E4F81B00020386020461D46BF30FEF769
:1094D0003BFF4B4826460078B23680340828A06E01
:1094E00032462CD00121FEF735FF444F3078F86327
:1094F000761C3046FEF720FE00BA000AF178000222
:109500000843B863361D3046FEF716FE00BA000A5F
:10951000F178000208437863361D3046FEF70CFEF2
:1095200000BA000AF1780002084338630398010288
:1095300002980143F960039F00263F1D0EE00021C1
:10954000D1E7A819401CFEF7F7FD0102A85D014311
:109550002C4830180160361DF6B23F1F042FF0DA98
:10956000032F04D0022F08D0012F0FD014E0A81928
:10957000FEF7E2FD0102090A09E0A9194878097815
:10958000000208431F497118086003E0A95D1D48E7
:1095900030180160361DF6B200211A4A02E0B018F8
:1095A0000160361DFF2EFADD1448174B43600F2370
:1095B0000361012303604369002BFCD04369016010
:1095C0000020039B11E0811809682954401CC0B297
:1095D0000E0A2E54401C0E0CC0B22E54401CC0B2B9
:1095E000090E2954401CC0B21B1F002BEBDCA06EDF
:1095F000401CA066012005B0F0BD00000000044042
:10960000E511FF1F00010440080F0000FFB50446EC
:109610004D4F81B00020386020461D46BF30FEF718
:1096200093FE4A4826460078B23680340828606E99
:1096300032462BD00021FEF78DFE434F3078F86381
:10964000761C3046FEF778FD00BA000AF178000279
:109650000843B863361D3046FEF76EFD00BA000AB7
:10966000F178000208437863361D3046FEF764FD4A
:1096700000BA000AF178000208433863039802999F
:1096800000020843F8600026039F0EE00121D2E7A4
:10969000A819401CFEF750FDA95D000208432C49A3
:1096A00071180860361DF6B23F1F042FF0DA032F41
:1096B00004D0022F08D0012F0FD014E0A819FEF714
:1096C0003BFD0102090A09E0A9194878097800025E
:1096D00008431F497118086003E0A95D1C48301851
:1096E0000160361DF6B20021194A02E0B01801608F
:1096F000361DFF2EFADD0F2313481B0243600F2394
:109700000361012303604369002BFCD001600398CF
:109710000023001D11E099180968E9545B1CDBB2B5
:109720000E0AEE545B1C0E0CDBB2EE545B1CDBB27B
:10973000090EE9545B1CDBB2001F0028EBDC606EF5
:10974000401C606605B0F0BD00000440E511FF1F3D
:1097500000010440F0B589B0FEF702FEFE49086042
:109760000420FEF703FEFEF707FE0446C00712D0F2
:10977000FA490020086072B6FEF704FEF849F94D78
:10978000F94E02280BD001287ED0F84F05287CD056
:1097900004287BD0ADE2FEF7FBFD09B0F0BD0878F0
:1097A0000F46012806D0032804D0022802D005283D
:1097B0006DD09EE20720FEF7D9FD08AB07AA06A9E7
:1097C000EB48FEF7EBFDEA493439898E0B07490671
:1097D000CA0FE7491B0F34390C46403420319446F8
:1097E000002801D0032B05D0052B6ED03878012836
:1097F0006CD081E23878012801D00328F9D1D9480A
:1098000043695B1C4361DB4B087FDD79A842F0D1E3
:10981000487F1D7AA842ECD1887F5D7AA842E8D1C2
:10982000C87F9D7AA842E4D12078DD7AA842E0D1B1
:1098300060781D7BA842DCD1F5680020AD8D2D0736
:109840002DD5DB7B012B01D0032B28D1C3001F1AA0
:10985000C94BDD5D95421DD1FB188D7D5F78BD4202
:1098600018D1CD7D9F78BD4214D10D7EDF78BD42E9
:1098700010D14D7E1F79BD420CD18D7E5F79BD42E6
:1098800008D1CD7E9B7903E0E5E0E6E02EE2E0E062
:109890009D4202D0401C0828D8DB082817D0B14DC3
:1098A000686D401C6865706C002802D080470028F5
:1098B0009FD0FEF779FD01277770FEF751FDA6498D
:1098C0000968884208D9401A09E02CE0AFE0A548B1
:1098D000016A491C01620FE2A84A511A0818F1688E
:1098E00076230A79181A801A4A6C096CD2B2C9B266
:1098F000C0B2FEF75FFDFEF763FD984807600020E9
:109900007070FEF763FDFEF767FDA08C010A9848B2
:10991000891C3030FEF766FD0E20FEF727FDA86992
:10992000401CA861E8E13F78012F01D0022FD2D17D
:10993000E869401CE8618F480B7FC0798342CAD137
:109940008C484B7F007A8342C5D18A488B7F407A0E
:109950008342C0D18748CB7F807A8342BBD1854880
:109960002378C07A8342B6D16078824C237B9842B8
:10997000B1D1F0680023808D000726D5E07B022856
:1099800001D0032821D1D800C61A7B48845D9442B7
:1099900018D130188C7D4678B44213D1CC7D8678AE
:1099A000B4420FD10C7EC678B4420BD14C7E0679FE
:1099B000B44207D18C7E4679B44203D1CC7E807903
:1099C000844202D05B1C082BDDDB6D48022F1AD1CC
:1099D0000478644527D18A7D4478A24223D1CA7D88
:1099E0008478A2421FD10A7EC478A2421BD14A7E4B
:1099F0000479A24217D18A7E4479A24213D1C97E4A
:109A0000827991420FD1082B0DD0696D0622491C35
:109A10006965614601705649401C891CFEF7D4FBFC
:109A2000FEF7E6FC68E1686A401C686264E151493F
:109A3000487BC20701D0252004E0800701D52620FD
:109A400000E02720097D8142ECD93220FEF7D6FCC8
:109A500052E107204EE106204CE10878072879D131
:109A60000B20FEF783FC4149FF2209782532514340
:109A7000444A00208B18587050544348006800280E
:109A800005D0FEF7C1FC40490978C84005E0FEF763
:109A9000BBFC3E490968FEF7BDFC0746E00535D52D
:109AA00039480068002805D0FEF7BAFC3649097825
:109AB000C84005E0FEF7B4FC34490968FEF7AAFC8B
:109AC0002A4B00901878FF21253148432D49401832
:109AD0000279002A01D000220271234A7130121D3E
:109AE000911D04F083FDF1680098C968381A411887
:109AF00027480160600526D51C49FF2209782532D8
:109B00005143204A0120891848701CE01748FF2261
:109B1000007825321B4B012150431954296DFF3F1A
:109B2000491C2965F1680F3F0969C018CA1918490D
:109B300020300A60407E410016480818FF3001308E
:109B4000018D491C01852046009903F0EDFAFEF7CE
:109B50006DFC21E0CDE000001C12FF1F1812FF1F5A
:109B6000E511FF1F0C31FF1F28F400201512FF1F05
:109B7000F82BFF1F442AFF1F892BFF1F40420F00B5
:109B80000C12FF1F5C2AFF1F2410FF1F2010FF1F55
:109B90002012FF1F80FB002061490746087000204B
:109BA000087248728872C8725E48044202D0E86C3B
:109BB000401CE8645C48FF220078253250435B4A31
:109BC00057498318D81DF930827C06928A1DFF33CD
:109BD000C07C491C1333FEF72FFC02465248FF217C
:109BE00000782531484351494018C11DF931CA74E4
:109BF0000279002A0CD10223069A897C1A40194066
:109C00008A4205D046494A78002A01D101224A7089
:109C1000474949688E220904090E0391125C002A03
:109C200002D0AA6ED219AA662030407E414D400073
:109C30004019C030C18BC919C183FEF703FC01462E
:109C40003948FF22007825325043384A80182030A6
:109C5000407E400040198030828A8918818207AA9C
:109C600005A904A8FEF7F4FB2F48FF210078253151
:109C700048432E4940182030407E694640002A5A09
:109C8000097D511829524019403069464289097CA2
:109C900051184181600705D50398874202D23846A2
:109CA000FEF7DCFBFEF7E0FB1D480021224B817034
:109CB0001A78012A0CD1002F0AD0204A1469002CEE
:109CC00003D0127DD243920702D001228270197014
:109CD0008079002801D0FEF7CDFBFEF7D1FBF078AC
:109CE000002809D03189FEF7B7FA05E0087808287E
:109CF00009D00520FEF73AFBFEF74AFB62B60320C7
:109D0000FEF734FB49E53878FF2125314843074900
:109D10000B4A4018911D713004F068FC0920E9E7F6
:109D20008031FF1F020800001512FF1F5C2AFF1F71
:109D30000010034080FB00201312FF1F442FFF1F61
:109D40002CF40020F8B58E4F079CBE1D9C460D4696
:109D5000002A1FD0012A05D0032A0ED0022A0CD0D7
:109D6000042A59D1002C57D00699002901D0012985
:109D700052D1032A01D0022A0AD10146814BA039CF
:109D8000994249D2A02D47D3012189038D4243D85E
:109D9000002A0BD17B4B01462039803399423BD2BC
:109DA000202D39D3012189038D4235D8854233D303
:109DB0006146002901D001292ED10999002905D039
:109DC000012903D0022901D0032925D10899490787
:109DD00022D06D4B9988012920D09A7308994907A0
:109DE000490F59731CD06849099BCB736346002BFC
:109DF0001BD001238B713378CB7173780B72B378DE
:109E00004B72F3788B723379CB7273790B73012AAF
:109E100019D0042A28D036E01220F8BD0C20F8BD55
:109E20005948072141733020F8BD00238B713B78DE
:109E3000CB717B780B72BB784B72FB788B723B7962
:109E4000CB727B79E2E75148069B0370237843701D
:109E500063788370A378C370E378037123794371C7
:109E60006379837102200EE0484B069E1E702678AF
:109E70005E7066789E70A678DE70E6781E71267930
:109E80005E7164799C7148801300FEF7A3F90504A4
:109E9000060A08060B00002504E0012502E0022561
:109EA00000E006253A4E8A79B0880C460009000188
:109EB00028434023910198430143D00180229143DC
:109EC0000843B0800622E11DB01DFEF77DF937463C
:109ED0004037B88CA179000900014022001D904351
:109EE00089010143B98430460622E11D6630FEF740
:109EF0006BF9A07C0321000249024118B2883F207F
:109F000000028243114389B2B180012D12D18143F5
:109F1000032080020818B0801C49BB8C087880227E
:109F20009343C0011843B884304606220C30491CC4
:109F3000FEF74AF91748017808291AD0072918D0DE
:109F4000A17B0B00FEF746F9050408100C0817006A
:109F5000012101701F200AE002210170202006E08B
:109F600004210170222002E0032101702120FEF76C
:109F7000FDF90020F8BD002101701E20F7E7000068
:109F8000F911FF1F613F0000442AFF1F0C12FF1F41
:109F9000C42BFF1FE511FF1F10B50E480E4B0278B2
:109FA000FF20253042430021D018FF24C170133414
:109FB0002154995401230246037160329371137442
:109FC0002023816119548E231954517405218181F4
:109FD00010BD00001512FF1F5C2AFF1FFEB572B6F0
:109FE0005548C068476D866D082F01D8002F00D1F5
:109FF0000427082E01D8002E00D104264F48504DCA
:10A00000816C504C491C81642878FF2125314843DC
:10A0100000192030407E41004B480818FF30413085
:10A02000418E491C4186FEF731FAFEF7CFF9FEF763
:10A03000D3F92878FF21253148430019806AFEF7BB
:10A040002BFA2878FF21253148430019406AFEF792
:10A0500029FA2878FF212531484300192030407E15
:10A06000FEF726FA2878FF212531484300192030D1
:10A07000407EFEF723FA2978FF2025304143081956
:10A080000279002A0BD02E21095C304A40695143E5
:10A09000400009182848C068C06F081815E0615CC6
:10A0A0000029254909D0CA684069096C136940181C
:10A0B0005B0040001818D16C06E0C9684069CA68A6
:10A0C00040005200C96C10184018FEF7FDF91A4DF7
:10A0D000E868806CFEF7FEF9E868416CCAB2016C72
:10A0E000808FC9B2C0B2FEF765F90420FEF7F8F917
:10A0F0000720FEF7FBF902A93846FEF7FDF969468D
:10A100000989C2B201250E48019100950078FF210E
:10A11000253148430019FF300130817CF3B23020F3
:10A12000FEF7F0F9FEF74CF90948056062B6142015
:10A13000FEF71CF9FEBD000028F400200C31FF1FC3
:10A140001512FF1F5C2AFF1F80FB00207102000018
:10A150001812FF1F002805DBC106C90E0120884028
:10A16000014908607047000000E100E08307FF221A
:10A17000DB0E9A408907090E9940002808DB830806
:10A1800009489B001B1818689043084318607047E3
:10A190000007000F0838830804489B001B18D86983
:10A1A00090430843D861704700E400E000ED00E010
:10A1B0008307FF22DB0E9A408907090E9940002889
:10A1C00008DB830809489B001B1818689043084364
:10A1D000186070470007000F0838830804489B0088
:10A1E0001B18D86990430843D861704700E400E029
:10A1F00000ED00E0BFF34F8F04490348C860BFF390
:10A200004F8F00BFFDE700000400FA0500ED00E0FD
:10A21000F8B50446002003460A5C8507ED0EAA4007
:10A220001343401C0428F7DB00F004F90028FBD19D
:10A2300000F048FA21022004090E0843FF273F02DC
:10A2400021463940084372B600211A4DA960194EC3
:10A250000002803E801C3060336062B600F0EAF895
:10A260000028FBD100F01EFA1120000620186946D4
:10A270002A695207FCD572B60422AA6004020204BD
:10A28000240E2243384002431002C01C306062B6E4
:10A2900028694007FCD530780870307848703078ED
:10A2A00088703078C8700098984201D00020F8BDBE
:10A2B0000120F8BD8000081102490148086070477C
:10A2C00040787D0120F4002010B572B61948C068AE
:10A2D000C00703D01748001FFEF71AF9154C403C81
:10A2E000A06BC00707D013481838FEF711F91248C1
:10A2F0000168491C0160606AC0070CD0E16A0F4820
:10A30000C162A16941630B482C38FEF701F90C4882
:10A310000168491C01602069C00707D02046FEF78C
:10A32000F7F82046FEF7FAF8FEF7FEF862B60020CE
:10A3300010BD0000401002402C10FF1F28F4002028
:10A340003010FF1FF8B50646002400F0D9F8054686
:10A350000648471B06E000F0D3F8A84201D3441B8F
:10A3600000E03C18B442F6D3F8BD0000FFFFFF0048
:10A3700008B500020091000A04226946FFF748FF71
:10A38000002800D0012008BD02E008C8121F08C143
:10A39000002AFAD170477047002001E001C1121F66
:10A3A000002AFBD17047000010B505231B221F2196
:10A3B0000D4804F0B5FA0C4C0C4B08340722102160
:10A3C000204604F0ADFA062201231146204604F08F
:10A3D000A7FA05481438416A012211434162C16954
:10A3E000034A1143C16110BD14F00040FB0300009B
:10A3F00004003E0010B50020054CFF212218401C2F
:10A4000051704028FADB03F073FF207010BD00008C
:10A4100064FD002010B50020054CFF212218401CCF
:10A4200051700628FADB03F081FF207010BD000098
:10A43000BBF40020084801694907FCD5012181606F
:10A440000549052280390A7002695207FCD508784F
:10A45000C007C00F7047000080000811F0B58646A5
:10A46000080CFF268446002388B237461C4619464E
:10A4700001228A4005461540CD402C19A4B2FF2F79
:10A4800002D1012C00D18FB265462A40CA40D218B1
:10A4900093B2FF2E02D1012B00D18EB2491C10299C
:10A4A000E6DB012C02D0102C08D009E0012B07D1EB
:10A4B0003001C019714608700220F0BD102B01D088
:10A4C0000320F0BD0120F0BD032806D30121890738
:10A4D0008A68012383401A438A60704701480068F4
:10A4E000704700001410FF1F012189070B6801222B
:10A4F000824093430B600868104308607047000077
:10A500000449886A0202886A120A0002000A90421C
:10A51000F7D1704700F0004010B504460120FFF766
:10A5200011FF0F48C16A0F48C26A511A0163FFF751
:10A53000E7FF0D490123C86201190A4608321B06CC
:10A540009A4203D309310902090A641A011907481A
:10A55000C162416A2922D2031143416210BD000049
:10A560000010024028F400200012FF1F00F00040FD
:10A57000F8B5496894460A784978069C090251184A
:10A580008EB2444A112100250798B71A091B96423A
:10A5900043D009DC404AB21813D0012A1CD0022A49
:10A5A00025D0032A08D12EE0012F40D0022F48D019
:10A5B000032F50D0292F5AD0002018700A25284682
:10A5C000F8BD082C55D20821091B814200D8084645
:10A5D000C2B21A70314857E00C2C4AD20C21091B28
:10A5E000814200D80846C2B21A702D484CE00D2CAA
:10A5F0003FD20D21091B814200D80846C2B228482B
:10A600001A700D3040E0112C33D2814200D8084638
:10A61000C2B223481A701B3036E0112C29D2814275
:10A6200000D80846C2B21E481A702D302CE0112CFA
:10A630001FD2814200D80846C2B219481A703F3072
:10A6400022E0112C15D2814200D80846C2B214482B
:10A650001A70513018E00E2C0BD20E21091B8142CA
:10A6600000D80846C2B20E481A7063300CE0072CBE
:10A6700001D30725A3E70721091B814200D808461B
:10A68000C2B206481A70C01F01196046FDF79CFD52
:10A6900095E70000272A0000DDD5FFFF27F0002006
:10A6A00048EE0020064801694907FCD50021816079
:10A6B000034A0421803A117001694907FCD57047AB
:10A6C00080000811064801694907FCD50021816016
:10A6D000034A0621803A117001694907FCD5704789
:10A6E00080000811F8B5414A0446D068808DC00743
:10A6F00064D03F48406A3F4D8104890CA94202D989
:10A700006842081800E0681AC82819D32B260123CC
:10A710003601DB02B04207D2C80041028601891B24
:10A72000C6008919081A09E0C80041028601891B80
:10A730004601891BC600891B40000818C018010B80
:10A740002C482D4BC430814200D9196819607D26F0
:10A75000906AF600B0420AD2284EFF278E198A3737
:10A76000BE4200D3116A401C1960906209E0106A71
:10A77000060A37188F4203D3861B8E4200D808463C
:10A780001860106AC100091A18680918C90811620E
:10A79000C108A8420AD9194AC43A80186043C008BF
:10A7A00001E0401A641E8842FBD807E0281A604383
:10A7B000C00801E0401A641C8842FBD80C480622FD
:10A7C00000231146243804F0ABF82046FDF7B2FE12
:10A7D00001F0E0F901F06EF90020FDF7C7FD01205E
:10A7E000FDF7AEFE0120FDF7B1FEF8BD28F4002014
:10A7F00040F00040420F00003412FF1F82F1FFFFC3
:10A8000070B50021040000D11E4C1F4D28681F4B5D
:10A8100080B20022984222D001281CD0830B460B24
:10A820007340DB07DB0F400018434004400C030A71
:10A8300043409B069B0E9A18521C92B293089B00B1
:10A840005B199B689607F60EF3406354491C0D296B
:10A85000E4DB012070BD03F04BFD022801D0002095
:10A8600070BD0A220A492046FDF7AEFC08480F38A1
:10A87000C17EA172007FE07205481130007820731C
:10A88000E7E70000E027012000230011FFFF0000A0
:10A8900093FD002003460002012100B5000A0904CF
:10A8A00088421BD3FFF7C6FD0028FBD1FFF70AFF44
:10A8B0000B490020886019021804090E0843FF2183
:10A8C00009020B401843064900028039D83008605D
:10A8D000FFF7B0FD0028FBD1FFF7E4FE00BD00004C
:10A8E0008000081103460002012100B5000A490357
:10A8F00088421BD3FFF79EFD0028FBD1FFF7E2FE45
:10A900000B490020886019021804090E0843FF2132
:10A9100009020B40184306490002803920300860C4
:10A92000FFF788FD0028FBD1FFF7BCFE00BD00004B
:10A9300080000811F8B57A4C877801460025072673
:10A940006079A2793B00FDF745FC0805361A3737D8
:10A950005F9ACD36487800285CD1714806223C3099
:10A96000C91CFDF731FC0120A0716D4B014642333B
:10A9700062786079FDF776FC00284BD1A8E00F469D
:10A980004978002946D1F978002906D0654BA2788C
:10A990000021FDF767FC78700AE0022A0BD0012144
:10A9A000FDF766FC002803D101216079FDF754FC16
:10A9B000787800282ED1F8BD497800292AD1032FB4
:10A9C00009D0A289002A0CD0217800290AD00121BF
:10A9D000FDF730FC06E0052A01D0022012E0062037
:10A9E00010E02570A079062802D0042802D008E0E3
:10A9F000052007E00120207001466079FDF72CFC5E
:10AA000066E00320A07163E048780F46002803D079
:10AA1000312832D0A6715BE041480622391D36301C
:10AA2000FDF7D2FB7889E081B8892082F8896082BD
:10AA30000520A071A28A002A03D002216079FDF7C7
:10AA4000F9FBB889E083F8892084388A6084E0784B
:10AA500001280AD11F20FDF7C3FB7D21C90048430F
:10AA6000024604216079FDF7E5FB7A89F878042332
:10AA7000391DFDF7F7FF25702AE02570C1E728484A
:10AA80000E46062200213630FDF7B6FBE58325840D
:10AA9000658404216079FDF7D3FB08216079FDF717
:10AAA000CFFBB079082808D00320A07120780028B7
:10AAB00005D06079FDF7CAFB07E00420F5E7012027
:10AAC000207001466079FDF7C7FB0020C043E0819C
:10AAD000606A002800D16EE701680029FBD0A079E8
:10AAE0008847F8BD0D460821FDF7AAFB687829467E
:10AAF0000028F6D1E888E08328892084488960848A
:10AB000004216079FDF7B4FB0028EAD1A06A00288F
:10AB1000E7D00368628C218CE08B9847F8BD000079
:10AB200048F20020EAF6002010B501781C4C91296B
:10AB300006D0A2291BD0D02901D1FFF7FBFE10BD02
:10AB400041780E29FBD18188164A9142F7D181685C
:10AB500003200856A1790529F1D17F28EFD0616A39
:10AB60000029ECD049680029E9D0884710BD417917
:10AB70001329FBD10089012802D12079022808D0AD
:10AB80000520FDF72DFB024608216079FDF752FBF9
:10AB900010BD08216079FDF753FBFEF7C7F910BD22
:10ABA00048F20020051400007CB5154C0546E08BEA
:10ABB000E18A88420AD3218B884207D8208C618B96
:10ABC000884203D1608CA18B884217D00520FDF705
:10ABD00007FB0646E18A68460180218B4180618B34
:10ABE0008180A18BC18062796946E089FDF7B4FC60
:10ABF0002571324608216079FDF71CFB7CBD000001
:10AC000048F2002010B500F025F8002800D0806838
:10AC100010BD00229300CB5A834202D1900040180D
:10AC20007047521CD2B2022AF4D3002070470000B1
:10AC3000074A0021CB00D35A834202D1C8008018B2
:10AC40007047491C0906090EF4D000207047000027
:10AC500070F100200649496805E08A88824201D1E6
:10AC60008868704709680029F7D100207047000004
:10AC700068F10020F8B50746012906D0022924D141
:10AC80000121FDF75BFB00281FD13846FFF7D0FFFD
:10AC9000050015D000240D4E0CE0182069686043B3
:10ACA00008180188002908D018220021FDF7A4FA0D
:10ACB000641CE4B270788442EFD30020C043288043
:10ACC000024938461031FEF793F9F8BD68F10020CB
:10ACD000F3B5064683B008300190002000907088DC
:10ACE000FFF7A6FF07002FD0002523E01820796882
:10ACF00068430C182188002920D001980078012889
:10AD00000FD16088009023797088621DFEF734FBB4
:10AD10000090002805D0019900200870049821882F
:10AD20000180182200212046FDF766FA00206D1CE4
:10AD30002080EDB2074840788542D7D30020C04339
:10AD400038800098002802D17088FDF70BFC00982D
:10AD500005B0F0BD68F10020F3B50546334C06465A
:10AD600085B00835162200212046FDF745FA03A8D4
:10AD700000902B79698828886A1DFDF7F9FB074642
:10AD800040E02B48102200216B4607C3274B694641
:10AD90008A897088163B3946FEF78AF9002812D155
:10ADA0002348E979C01EC27891420CD11F49284638
:10ADB00016390830FDF7E2FB002804D021787889A5
:10ADC00089000919488068468289698804AB384639
:10ADD000FDF78AFA07462078810009194A88002A77
:10ADE00010D0002F05D06A46128A401C20708A803D
:10ADF0000AE002060021920DC9431219401C20707E
:10AE0000918004E0002F02D020780528B9D3207863
:10AE1000002806D070882146FDF7B6FB002007B059
:10AE2000F0BD0698298801800A20F8E7BAF60020CC
:10AE30006BF10020F0B585B0044600276846878195
:10AE400020790E2860D00EDC082821D004DC0228EE
:10AE500012D006287FD116E0254608350A281CD0D6
:10AE60000C2878D133E0102853D0122856D0162859
:10AE700059D018286FD15BE03949172008806088C5
:10AE8000FDF788FB67E003A92046FFF765FF53E065
:10AE900003A9204600F056F94EE0288804A9FDF7E2
:10AEA0001DFA010011D02E4E162001970096029037
:10AEB0006A466088731C128AFEF7FAF800281AD1D5
:10AEC00060883146FDF76CFB45E0012013E02888DF
:10AED00004A9FDF703FA0100F7D06A88204E162076
:10AEE0000192009602906A466088128A731CFEF7EF
:10AEF000DFF8002803D029886A4691811CE0608829
:10AF00003146FDF753FB26E003A9204600F09AF9ED
:10AF100012E003A9204600F075F80DE003A92046D1
:10AF200000F0E4F908E003A9204600F01BF803E074
:10AF300003A92046FFF7CCFE00280CD06178142925
:10AF400009D0074922790A706A4692894A800871B5
:10AF50006088FDF731FB2046FDF734FB05B0F0BDFE
:10AF6000BAF60020F8B504460F46054608340089B5
:10AF70006946FDF7B3F906003AD0307A80060ED55F
:10AF800068460088FFF73EFE030006D0688812225C
:10AF900031469847060002D02BE00E2629E06E8845
:10AFA0003046FFF745FE010005D11448FFF740FE8B
:10AFB00001000ED00E80124A0020527807E01826B9
:10AFC0004B6846439B5B002B05D0401CC0B29042AF
:10AFD000F5D309260DE04968182250430818214688
:10AFE000FDF7F2F8002668882146FDF7F1FA02E045
:10AFF0000126208838803046F8BD0000FFFF0000A1
:10B0000068F10020F3B58BB000200B9E074603903B
:10B0100004A800903246337B71893089474C0D3249
:10B020000836FDF7A5FA05466DE00B98297A4088A9
:10B03000FDF7D4FA070003D00C986989018064E019
:10B040003F48112200216B4607C30B983B4B6946D2
:10B050000A8A4088163B2946FEF72AF80700EBD1FA
:10B06000039800282DD036486178C01EC078021D94
:10B0700091424DD103990818112849D80398A97A0B
:10B080002018817003986989401CC0B22218090AEF
:10B09000401C9170C0B203906846028A718807AB69
:10B0A0002846FDF721F9050011D06946888B0399E0
:10B0B0006118887003986946401C898BC0B2090AE0
:10B0C0000CE01F48C01EC078001D6070D6E70398D2
:10B0D000FF21201881700398401CC0B22218917083
:10B0E000401CC0B216490390C91ECA7813492018E3
:10B0F0001639801CFDF768F811490398C91EC978F4
:10B100004018C0B20390002D8FD1039800280CD0B6
:10B1100061780398FDF77EF920700B9821464088EE
:10B12000FDF762FA00200DB0F0BD002F00D10A2714
:10B130000C98318801803846F5E70000BAF6002007
:10B140006BF10020F3B585B0059E3B4D308900249E
:10B150000836039004A8009033797188721D039813
:10B16000FDF706FA070050D0788903900598397AE0
:10B170004088FDF733FA00280FD130481322002110
:10B180006B4607C305982C4B69460A8A4088163BD4
:10B190003946FDF78DFF00280ED0002C44D0697889
:10B1A0002046FDF737F92870059829464088FDF7B5
:10B1B00021FA002007B0F0BD002C29D01F48697883
:10B1C000C01EC078801C8142E9D11C49C91EC878C4
:10B1D0002018132819D82A19B87A9070641CE0B284
:10B1E0007A892B18120A9A70401C0C46CA78C7B28A
:10B1F0001149E8191639801CFCF7E6FFE078104980
:10B200003818C4B20398884208D1002CC7D10DE089
:10B210000A48C01EC078801C6870D6E7401C80B207
:10B220000390132C96D9BAE7002800D10A20069A79
:10B2300003991180BEE70000BAF600206BF10020F0
:10B24000FFFF0000F3B585B00027264C059E277050
:10B250003D46083638E06800305A03A9FDF73EF84D
:10B26000010013D02048162300226F460DC7059811
:10B270001C4B6A464088163B9289FDF719FF070070
:10B2800006D06800315A0698018028E00127F8E7C7
:10B29000154A2078D21ED1784118162902D91621D4
:10B2A000081AD0702178601C08180F49C91ECA7886
:10B2B0000C491639FCF788FF0B482178C01EC0786E
:10B2C00008186D1C2070EDB2B07DA84202D920781C
:10B2D0001628C0D3059821464088FDF791F93846D5
:10B2E00007B0F0BDBAF600206BF10020FEB50446B1
:10B2F0000F4606460834008901A9FCF7EFFF050058
:10B3000022D0287A80060ED568468088FFF77AFC1E
:10B31000030006D07088122229469847050002D003
:10B3200013E00E2511E000200090A378218870889A
:10B33000E21CFEF721F8050007D1207E002806D187
:10B340007088FDF763F902E0012520883880207EAF
:10B35000002801D00020FEBD2846FEBDF8B50446F9
:10B360000246182042431948002507464570083711
:10B370007868002807D00020C100C919401C0006C9
:10B380004D60000EF8D0124E00213046FCF734FF1D
:10B39000002001466143C9B2182251438B190B4961
:10B3A000C200083152180021536005E018274F43AE
:10B3B0005368491CDD53C9B2A142F7D3401C0006B3
:10B3C000000EE6D0014844700020F8BD68F100206E
:10B3D000C4F400207CB50C78069D022C0ED14C687C
:10B3E0002678647824023419054EA4B2F44205D1BB
:10B3F000022400950194FDF713FE7CBD01207CBD65
:10B40000FED6FFFF0848816C491C8164C16CC26C88
:10B410000902C90F5203D20F5140C26C5202120AE4
:10B420005118C164C06C704728F40020F8B5069824
:10B4300000271D4614460E46002801D00B20F8BDFB
:10B4400030780021022801D019704DE07068027830
:10B45000407800021018152280B25202801A0300B0
:10B46000FCF7B8FE0504121F1A254100F068FCF72E
:10B4700047FFC2B20798824200D902462A70F1689B
:10B480002046FCF7A1FE30E0F06802210088297018
:10B490002070000A607028E0062028700246F168DB
:10B4A000EEE701202870F068007820701DE0F06859
:10B4B000002816D008212970017821700188090A16
:10B4C00061708178A1704188090AE1700179217168
:10B4D0008188090A61718179A171C088000AE071CF
:10B4E00003E0297001E0297001273846F8BD10B546
:10B4F0000B78840702D50224234301E0FD24234076
:10B500000B7003070B7802D50824234301E0F724CE
:10B5100023400B7083060B7802D52024234301E0DF
:10B52000DF2423400B700A21084201D1810603D594
:10B5300010780C21084304E0002803D11078F3218F
:10B540000840107010BD0000FFB581B008780024DD
:10B550000A9E1F460D4602280FD168680178407880
:10B5600000020818152180B24902401A09D00128AA
:10B5700029D0022848D003283CD00124204605B019
:10B58000F0BDE868FCF7BCFEC0B2864205D8F019F1
:10B590000090152803D90D24F0E70724EEE7E868AA
:10B5A0003A4680190399FCF70FFE0098EA6880B2CA
:10B5B000002111541C4840680028DFD00168002990
:10B5C000DCD0002012E0002E12D1022BE3D103992F
:10B5D000E8680A78497809025118018012484068E1
:10B5E0000028CBD001680029C8D001208847C5E7D2
:10B5F0000B24C3E7002EFBD1062BCCD10622E86832
:10B600000399FCF7E1FDB9E7002EF1D1012BC2D17E
:10B6100003980078002803D0012801D08024ADE7EA
:10B62000E9680870AAE70000C4F1002010B51228EC
:10B6300001D3052010BD0C4B9C6B012282401046AB
:10B6400020439863586B90435863DC6B002907D004
:10B6500020469043D863186B02431A63002010BD44
:10B6600010462043F6E7000000800040084A042806
:10B6700007D2012307E0184300E0984350610020FF
:10B68000704701231238834050690029F5D0F2E752
:10B690000038004070B50F4D00242E197078022834
:10B6A00007D9E0B200F062F9E2B20146104600F0BC
:10B6B00079F9232C0ADA7078022807D9E0B200F071
:10B6C00055F90C216143491920314871641C232C20
:10B6D000E3DB70BDA8F8002070B502211020FEF752
:10B6E00067FD1020FEF736FD114E00240C2060434C
:10B6F000801920300079002813D0E0B200F07AF9E8
:10B70000E5B2284600F032F900280ED000210C22C4
:10B710006A43921920325279824202D0284600F0C0
:10B720003FF8641C232CE1DB70BD0121EFE7000032
:10B73000A8F80020F3B5194E002481B00746012572
:10B740002846A040384225D00299084201D1012064
:10B7500000E000200090E0B2009900F021F80C20F9
:10B76000604380194168806800290ED0002807D006
:10B770000098002802D00021E0B203E00121FBE79D
:10B78000E0B20021FFF752FF04E0002802D0E0B24F
:10B790000121F7E7641C122CD2DBFEBDCCF800209F
:10B7A000074A0C2343439B185A68002A01D00029FA
:10B7B00004D09A68002A02D0012900D110477047AE
:10B7C000CCF8002010B50448C16B034A4032106821
:10B7D000D060FFF7AFFF10BD0080004010B50E48ED
:10B7E00080680007000F062807D007DC02280BD06E
:10B7F000042802D1012000F0EBFC10BD072806D080
:10B800000C28FAD10220F6E700F008FD10BD02482E
:10B810004030C06B10BD00000040004003E00B78DA
:10B820000370401C491C521EF9D27047C306DB0E40
:10B8300001229A40064B40098000C0180029C168C7
:10B8400001D0114300E09143C16000207047000027
:10B850000038004030B50C4605460121FFF7E6FFF1
:10B86000A9080748890009188869AA07D20EFF238A
:10B8700093409843944020438861002030BD0000ED
:10B880000038004010B5114C2078002801D0072066
:10B8900010BDFF21C9310D48FCF743FC0120207089
:10B8A0000B490020086348630A4908624862022184
:10B8B0001020FEF77DFC1020FEF74CFC064A0749DD
:10B8C0000D2000F049F9002010BD0000A8F800206C
:10B8D0000080004080F00040D9B6002095B60020DE
:10B8E00030B50D460446042803D320461F380328EC
:10B8F00003D801212046FFF7B9FE00212046FFF7BB
:10B9000095FF01230B4A122C08D2A3405068002D4A
:10B9100001D0184300E09843506008E0123CA34077
:10B920001069002D01D0184300E0984310610020F9
:10B9300030BD00000080004070B50C460A21FCF7C5
:10B9400069FD4A00891801221346491C8B404D1C91
:10B95000AA40134382000448121890688C40984310
:10B9600004439460002070BD00F000400C4A0C4B72
:10B970000121403A122807D281405068084201D084
:10B98000106809E0186907E0123881401069084220
:10B9900001D0D06800E05869084000D0012070470D
:10B9A00040800040F8B50E4605460A21FCF732FDFE
:10B9B00048000918EA060124D20E204690406A0980
:10B9C00093000B4A9A18136A034313628C40084F82
:10B9D0002846803F0A21FCF71DFD8000C0198168C0
:10B9E000002E01D0214300E0A14381600020F8BD7A
:10B9F00080F0004070B5044618480C2262431518C8
:10BA000069680126002902D1A968002906D01349D6
:10BA100024390919122C03D3032302E0122070BD2C
:10BA200004234B700121815400212046FFF758FF69
:10BA30006868002810D0A86800280CD02046FFF7BE
:10BA400095FF002801D0012100E000212046FFF7EA
:10BA5000EDFD002070BD00263146F7E7CCF8002050
:10BA600010B50748007800F0ABF9012000F062F94A
:10BA7000FFF708FF02F08CF902A002F06BF910BD8D
:10BA800086F40020616C6C206472697665722069AE
:10BA90006E6974204F4B210A0000000010B500238E
:10BAA00011221521024802F03BFF002010BD0000CA
:10BAB0001CF0004010B504481122436815210348CA
:10BAC00002F02EFF002010BD18F400201CF00040F2
:10BAD00010B578210948FCF724FB094800780128B3
:10BAE00005D0022806D0032806D0042804D1FCF78C
:10BAF00093FD01E0FCF796FD002010BD08FB00203F
:10BB000018F4002010B512490346097812200129C3
:10BB100014D0042912D072B600210E4A0C244C43D2
:10BB2000145D002C11D09C420CD10C2359430120F0
:10BB300089184870FCF770FD002006E0FCF76CFDEA
:10BB4000002010BD491C0A29E8DB62B610BD0000C8
:10BB500018F4002008FB002030B50D4C00230C2504
:10BB60005D43655D854201D1072030BD002D04D0C5
:10BB70005B1C0A2BF3DB032030BD0C256B431B1928
:10BB8000F9D000245C7018709A602046596030BD6E
:10BB900008FB002070B5FFF78DFF0A4D00242046FA
:10BBA0000C214843295C002909D04019406800282D
:10BBB00000D08047641C0A2CF1DB002070BD1220ED
:10BBC00070BD000008FB002070B5154900230978FE
:10BBD00001290FD004290DD072B60021114A0D465B
:10BBE0000C244C43165D002E0FD0864205D1A418BC
:10BBF000657007E0FCF710FD0CE0A4186478002CD9
:10BC000000D05B1C491C0A29EADB002B04D0FCF79E
:10BC100003FD62B6002070BDFCF704FDF9E70000EB
:10BC200018F4002008FB002070B50A4D00242046BF
:10BC30000C214843295C002909D04019806800285C
:10BC400000D08047641C0A2CF1DB002070BD12205C
:10BC500070BD000008FB002010B5164908200968D7
:10BC60004865886514490A20087014490120087045
:10BC700013490020087000F02BF812480421C1611C
:10BC800011498160C16001611049416101210A20AF
:10BC9000FFF752FE0B480D230F221221143002F041
:10BCA0003FFE00210420FEF761FA01210220FEF789
:10BCB0005DFA10BD34F4002083F4002084F40020E9
:10BCC00085F4002000F00040B66DDB36B6EDC3B061
:10BCD00070B515480022C0680424866B10251348EF
:10BCE00013493300FCF776FA070808050C0E130811
:10BCF000050005600C600DE020220260052004E0D4
:10BD0000302305E0402202600620086002E0602344
:10BD100003600A60FCF78CFCFCF790FC02F07EFCF0
:10BD200002F048FB70BD000028F400202010FF1F27
:10BD30002410FF1FF8B51F4D1E4F08351E4C11264D
:10BD4000012820D000281DD100211020FFF7F4FD8C
:10BD500000211120FFF7F0FD0323082209212846C6
:10BD600002F0DEFD062200231146284602F0D8FD2F
:10BD700016231B221F21384602F0D2FD2068C16A1B
:10BD8000B143C162F8BD05231B221F21384602F0D2
:10BD9000C7FD0A4B07221021284602F0C1FD0622EA
:10BDA00001231146284602F0BBFD2068C16A3143D9
:10BDB000E7E7000014F0004034F40020FB0300002B
:10BDC000F8B5FF222D322A4E2A4C002832D001230A
:10BDD00029499B0402282FD08025012831D00E68E4
:10BDE0001E430E604B6806460B360127B7403B43A7
:10BDF0004B604B682B434B60032832D0042832D071
:10BE00001E492160521E1204120CFBD103461A482F
:10BE10000321001F02F084FD01208007C169184D35
:10BE2000890722D580690005010E491C2068FCF7AE
:10BE3000F1FA1BE02660E5E70D681D430D6011492E
:10BE4000DFE70F681F430F604B6801277F05BB4387
:10BE50004B604B683F123B434B604B682B434B603E
:10BE6000E8E70949CDE70949CBE720682860F8BD34
:10BE70000048E8011010FF1F40F0004000D8B8054E
:10BE80001410FF1F0024F400006CDC020090D003AB
:10BE90001FB5124C2078002802D0112004B010BD2C
:10BEA00020210E48FCF73DF96846407A002803D16E
:10BEB0006846C07A002801D00520EFE768460FC821
:10BEC00010340FC40120203C207002F0AFFD044A62
:10BED00000210820FFF740FE0020DFE7E8FA0020FD
:10BEE0002DEA002010B5054A927E002A02D002F009
:10BEF0005DFD10BD02F026FD10BD0000E8FA002037
:10BF000010B50446084884420DD0012907D0022903
:10BF100009D101212046FCF711FA002803D1034979
:10BF20002046FDF765F810BDFEFF000048F3002035
:10BF300010B502F02DFA0A488178002908D00121B5
:10BF400001700021C170FF3006490130816710BDCA
:10BF5000FF227D3200210248FCF74EF910BD00009F
:10BF60002CF700200040FF1F10B5642002F010FAEB
:10BF700009488178002908D0012101700021C17091
:10BF8000FF3006490130816710BDFF227D3200215C
:10BF90000148FCF731F910BD2CF700200040FF1FCD
:10BFA00070B50B4E6946306800280CD10D4609A0CB
:10BFB00001F0D0FE0024A00029580CA001F0CAFE18
:10BFC000641C102CF7DB3068401C306070BD000032
:10BFD000D4F3002048617264204661756C7420536C
:10BFE000502069732025780A0000000030782578F9
:10BFF0002C000000F8B55249504A534B5148CA60D2
:10C00000D861002003468400401C1351FF28FADD4C
:10C01000C8684E4A04468034A2600622C2620A22E0
:10C0200002654B4A157885634A4DC561157814261B
:10C03000022D03D01578032D03D003E010250562EF
:10C0400000E00662444D4561444D85613C25E56054
:10C050003625C5633427476408250564392767609A
:10C0600032272760AF24E40004601478022C03D048
:10C070001278032A02D003E0466001E00B224260FE
:10C08000C824FF22C4602D328260A4000461344CB5
:10C0900084647D26F6004662324CC464324E866269
:10C0A0000226466682660926C666304E06674567E2
:10C0B0008267B210C2674C618B70CB80CB700B81F2
:10C0C0002C482B491F4A81602B49803A294B11612A
:10C0D0002A49803399622A49C1622A490163254865
:10C0E0002949C0384163294901602249284A8039D9
:10C0F000CA62284A0A60284AC2601E4A274C403A4F
:10C100009463274C1463274C5463274C4C61274C91
:10C110008C61274C0C62274CDC61274C1C62274B3E
:10C12000D363274ACA61274981622749C1622749E7
:10C130008163FEF75FF9FEF76DF9F8BD000CFF1F94
:10C1400028F40020000CFF1F0010FF1FA809012089
:10C1500086F400207E04000060E31600DC05000089
:10C1600050C30000540B00006A180000204E00006D
:10C17000C1D100200009FF1F55970020B5E3002022
:10C180000D960020BD94002051C60020459D002042
:10C1900041C90020BDC20020999F002045EB00202E
:10C1A00009D50020E5A6002079D20020DD9F0020DF
:10C1B000B9CD0020EDEC0020A9A3002019A5002096
:10C1C000D5C800200DCF0020C9CB002029C40020F5
:10C1D00070B5104C8AB0227E0F496D46002A0BD0F4
:10C1E0000D4A80325268D3B2002202E00E78AE547B
:10C1F000521C9A42FADB03E00A7D01230978297078
:10C20000E169002904D0287506952B7705A8884791
:10C210000AB070BDE8FA0020004000403EB51C495D
:10C220000A78081D002A31D00A46097E00292DD03F
:10C23000917E00292AD00178022927D1818844885B
:10C240008368091B89B2102901D9102101E0002956
:10C250000BD0104D0A46491E89B2002A16D04288DA
:10C26000541C44809A5C2A70F4E70121017000217B
:10C2700041808180D169002905D0074A6C460DCAEA
:10C280000DC4684688470820FFF79EFC3EBD0000AD
:10C29000E8FA0020004000408CEF002010B519247F
:10C2A0002402428E01E0491E4184418C4B1C5343C1
:10C2B000A34201DD0029F6D110BD0000F0B585B024
:10C2C00054480290FCF7C0F9002856D00020019095
:10C2D000FCF7C0F9302148434F4945184F4828180A
:10C2E000FF35FF3502350090A88A060A8707BF0F81
:10C2F00044D048480446803060340390032F14D063
:10C30000002E02D0207C002838D04548816D491C81
:10C3100081650398807B002800D00420301A80B209
:10C32000FCF79EF90190002831D00398807B00280B
:10C3300009D0361FF6B232463946009B0298FCF708
:10C3400095F9002828D0032F2ED035483246816B2E
:10C35000491C816300990198FFF760FA112020566B
:10C3600000902C483B46C07832460199FCF784F98E
:10C3700000202861A882FCF785F93EE03D21029863
:10C38000FCF786F92648C16B491CC1633FE024488D
:10C39000016E491C01663AE00198FCF77FF93D21E6
:10C3A0000298FCF775F932E01D4E706B401C70630B
:10C3B000FCF768F91B48007808280DD00098007831
:10C3C000032813D0062811D002280FD00D280DD035
:10C3D000207C002805D009E000990298FCF764F958
:10C3E0000BE00298E030007B002809D00099029809
:10C3F000FCF760F900202861A882012005B0F0BD9B
:10C400003D210298FCF744F9F06B401CF0630020DA
:10C41000F4E700005C2AFF1FC42BFF1F1602000078
:10C420000C31FF1FE511FF1FF8B504460A78FF30F5
:10C430002646274625460130E03660378035491CC0
:10C440001300FBF7C7FE0D084BF865F5F5AE60BEAF
:10C4500060B1BBDBF50008782870204602228230EC
:10C46000491CFCF72DF90146204602228430FCF7D6
:10C4700027F90146204602228630FCF721F90146C1
:10C48000204602228830FCF71BF929780222490055
:10C490002970698849006980A9884900A98029898B
:10C4A00009012981014620467E30FCF709F97E20EA
:10C4B000005BE188401A81B26148814201D32821A2
:10C4C00022E0E888A988401C49004843298988421D
:10C4D00001D33B2118E00120387712E005225948AA
:10C4E000FCF7EEF80146204602228C30FCF7E8F813
:10C4F000A889E188401A81B251488142DFD20120E7
:10C50000A8720020E083F8BD2046FCF7C1F8F8BD12
:10C51000307D002809D14C4A25181318E035401CFD
:10C520005B78C0B26B750828F6D3707DC00734D035
:10C530000020B87138740120307420460822A830D9
:10C54000FCF7BEF8014620460222B030FCF7B8F8EE
:10C5500001462046A03008220646FCF7B1F8054601
:10C5600008213046FCF7B2F82046294694300422D0
:10C570000546FCF7A5F804212846FCF7A7F8204655
:10C580009830FCF7A9F820469030FCF7ABF80C2166
:10C590002E48FCF7ADF804212CE01A2070730D2111
:10C5A00028E00120B073F8BD0020B8713874DF2195
:10C5B00008550121317330700B211BE00120F0730D
:10C5C000F8BD214A002013182518E035401C5B787F
:10C5D000C0B26B750828F6D3002015180B786D785B
:10C5E000491C2B402518E035401CC0B26B7508284B
:10C5F000F3D309212046FCF781F8F8BD737F012BA6
:10C6000016D00A780270E01D0222FB30491CFCF7AC
:10C6100057F80146E01D0222FD30FCF751F80120D9
:10C620007077F07F0028E8D10C21E3E700E002E01A
:10C6300042720721DEE7097801720122C27163E7C5
:10C64000FF7F0000F411FF1F802BFF1F0032FF1F30
:10C65000F0B504468BB0C0300A902046F530029009
:10C660000B300790274625468038E0376035264650
:10C6700040360990A5E0E87C801E0300FBF7AAFD88
:10C680000C07A11B3265F3BCDCA18BF4A7A1A87C2D
:10C69000012803D0204600F057FB12E08C48807838
:10C6A000002801D01621D8E0708F401E0004000C35
:10C6B00070876FD009E1A87C012804D0204600F0E3
:10C6C00009FAA87401E18248C0780028ECD020461D
:10C6D000FCF71AF822462146E078B032A831FCF780
:10C6E00019F86EE0A87C012812D00A98C07F0128B2
:10C6F00022D03878002868D0224621462046BF3212
:10C700009831CF30FCF70CF80A990120C87758E02F
:10C710006F48C078002807D00999012088730998CC
:10C720000021416609988166B87B0128BCD10621A9
:10C730002046FBF7FBFF44E02046FBF7FDFF012806
:10C74000B8D10020B8730120BBE7A87C012803D032
:10C750002046FBF7F7FFB4E75D48C0780028A3D078
:10C76000608CE0832046FBF7CFFF0120A87128747E
:10C77000387B0128E07809D001220021FBF7E8FF8F
:10C78000002038733874F873B8731AE00021FBF78F
:10C79000E5FFF5E760E0A87C012805D02046FBF71F
:10C7A000E3FF012807D090E0F87B0128BED12046A6
:10C7B000FBF7AAFF05E00020F873099988730120B0
:10C7C000A874E87D002800D055E70BB0F0BDA87C28
:10C7D000012803D0204600F09BFA72E73C48C1785C
:10C7E000002905D0099A002191730121A9712974AA
:10C7F00080780028DBD157E7A87C012806D02046A6
:10C80000FBF7B8FFA874002038755EE0387D01287A
:10C8100006D0708F401E0004000C708706D054E0D4
:10C82000E1780020029AFBF7ABFFC0E7E178222015
:10C83000029AFBF7A5FF0FE0A87C012803D0204651
:10C8400000F08CF93DE72248C0780028D3D00120C1
:10C850003875608CE083AAE722212046FBF718FF99
:10C860000120B2E700E02BE0A87C012805D00120E0
:10C87000F8772046FBF78AFF23E7787F012806D068
:10C88000708F401E0004000C70870ED01DE0B87F32
:10C8900001288CD10798808800900798E178438818
:10C8A00002780020FBF778FF81E7079880880090E6
:10C8B0000798E178438802782220FBF76DFFCBE7E9
:10C8C000204600F0F5FA0128AFD000207DE70000F7
:10C8D0008031FF1F10B5FBF779FDFBF77DFD164C8E
:10C8E000A07B0300FBF776FC0507040D0A04180083
:10C8F000FBF758FF07E0FBF75BFF04E0FBF75EFF89
:10C9000001E0FBF761FF0D498878002811D0627BB8
:10C91000D30703D0252206E0122010BD920701D5CF
:10C92000262200E02722237D934202D1C988FBF70B
:10C9300093FC002010BD0000442AFF1F28F40020B3
:10C94000F8B5574C574EA17BF06801293BD0856A5A
:10C95000554F2A220021B81DFBF74EFCB888A1795B
:10C96000000900014022401C9043890101434F48C7
:10C97000802200789143C00108433F210902884387
:10C98000032189024018B8800622E11DB81DFBF77B
:10C990001BFC464938460622491C0C30FBF714FCA8
:10C9A000207D2538032803D30020FBF713FF2075D3
:10C9B000207D0746FBF70EFF2075A17B012904D0DF
:10C9C000B84219D916E0456AC2E73949F0680A68E1
:10C9D000C06D521980180860364988420AD336481B
:10C9E00000210170FBF7FCFE344802210078FBF7C0
:10C9F00033FCF8BD28460EE0607BC1078207C90FF3
:10CA0000D20F89184007C00F081861882C4A401EB1
:10CA100051436843081AFBF7F1FC274802210170D3
:10CA20002020FBF7A3FC2748FBF736FD2648FBF741
:10CA300039FD3846FBF73CFD3846FBF73FFDFF204C
:10CA4000FBF7D4FEF068416CCAB2016C808FC9B2AA
:10CA5000C0B2FBF7AFFCFBF7B9FCFBF7BDFCFBF783
:10CA6000CBFE0320FBF742FD0F488188001D090A19
:10CA7000891CFBF7B7FCFBF7A3FC144901200860F5
:10CA8000A17B1348012906D00169491C01611020CE
:10CA9000FBF76CFCF8BDC168491CC160F7E70000FA
:10CAA000442AFF1F28F40020C42BFF1F0C12FF1F75
:10CAB000F011FF1F00881300E511FF1FE411FF1F95
:10CAC0007102000055555500D6BE898E1812FF1F01
:10CAD0000C31FF1FF8B504461C481D4D861C6865C7
:10CAE000FBF790FE002801D00020F8BD0420307034
:10CAF000164821469831C01C08220F46FBF788FED5
:10CB00002146903104220E46FBF782FE082138466A
:10CB1000FBF7DCFD04213046FBF7D8FD002008219F
:10CB20000A1A12198032D37B2218A032401CC0B2DC
:10CB3000D3750828F4D3074901200870696D0648A9
:10CB400008804034208F60870120F8BD8C31FF1FA2
:10CB500028F400201412FF1F030D0000F8B504464E
:10CB6000164E1548164F70651649387809780843EF
:10CB700001D00020F8BD10480925801C0570214611
:10CB8000401C0822F531FBF743FE8E20005D002893
:10CB900007D0736D2A46032120469B1CFBF73EFEFF
:10CBA0000D250020E083012038702802716DC01C23
:10CBB00008800120F8BD00008C31FF1F28F4002000
:10CBC0001412FF1F1312FF1FF8B54E4CFBF71AFE8D
:10CBD00025462E4660368035002814D1A06E0028E8
:10CBE00011D14948006900280DD148480078002833
:10CBF00009D12078002806D1207F002803D0B17CFD
:10CC0000002902D00BE0002008E0317F002906D186
:10CC1000A97A002903D1012801D1608CE083E08842
:10CC2000E18B4018401C20812046FBF7FDFD0128C8
:10CC300004D10020E083E088401C20810096307FF2
:10CC4000304E2036012845D127464037FA8F2189BA
:10CC5000E088FBF7EFFD00283CD0F88F20812946C3
:10CC60002046FBF7EDFDE888608400202077E08314
:10CC7000012020712089E1894018A081E188F88F86
:10CC8000FBF7E4FD618E6A8848438718A8888842CC
:10CC900007D12989E28E914203D1E988A28E91427F
:10CCA00006D02989EA880B094108E078FBF7D4FD12
:10CCB0002878B073A8886086E888A0862889E086EE
:10CCC0002046FFF7EBFA2046FBF7CCFD0099002049
:10CCD000087700E0678EA069B84203D13078E18B15
:10CCE000884206D02346327BE18B14333846FBF76B
:10CCF000BFFDA761A07F30702046FBF7BFFD00207D
:10CD0000F8BD00005C2AFF1F442FFF1F0431FF1FE6
:10CD10000A4A094951658A1C0D231370ED231B5CD7
:10CD200053704030028F4287054A01201070054839
:10CD300008800120704700008C31FF1F28F400207C
:10CD40001412FF1F03020000F8B50446174E1648E0
:10CD5000174F7065174938780978084301D00020CB
:10CD6000F8BD114B02229B1CFF211A700931581C7F
:10CD7000095D254601708035A87B002804D0032179
:10CD80002046FBF74BFD062200207C210855A872A7
:10CD9000E083E08940346087012038701002716DB3
:10CDA000C01C08800120F8BD8C31FF1F28F4002032
:10CDB0001412FF1F1312FF1FF8B5344C207D2538C5
:10CDC000032803D30020FBF705FD2075257D2846A9
:10CDD000FBF700FD2E4E2075A8421AD8FBF754FD34
:10CDE0008305607B9B0DC1078207C90FD20F4007E7
:10CDF0008918C00F0F187F1EFEF704FBC10A608858
:10CE0000244A5043F26812687A43801A0818C018FE
:10CE100001E0F0680068FBF7F1FA1F480124047094
:10CE20001F20FBF7A3FA1D48FBF736FB1C48FBF756
:10CE300039FB2846FBF73CFB2846FBF73FFBFF206E
:10CE4000FBF7D4FCF0683C22006CC1B25A20FBF71F
:10CE5000B1FAFBF7BBFAFBF7BFFAFBF7CDFC0320F7
:10CE6000FBF744FB0F488188001D090A891CFBF76A
:10CE7000B9FAFBF7A5FA0C4804600C480168491C94
:10CE800001601020FBF772FAF8BD0000442AFF1F72
:10CE900028F4002071020000E511FF1F55555500D0
:10CEA000D6BE898EC42BFF1F1812FF1F0C31FF1F27
:10CEB00070B5134C1149134D6165134A29781278E6
:10CEC000114301D0002070BD0C4B07219B1C197031
:10CED000FF260A36591C365C0E708E21095C022230
:10CEE000002903D00321FBF799FC062201202870BA
:10CEF0001002616DC01C0880012070BD8C31FF1FC5
:10CF000028F400201412FF1F1312FF1FF8B5644805
:10CF1000FF21027825314A4362495418A278002A39
:10CF20003DD021896048E18082790025002A0BD11B
:10CF3000427A002A08D1827A002A05D1C27A002AD0
:10CF400002D16278002A09D0E2898918A18125716D
:10CF5000217F01292CD1618CE18329E021780029EE
:10CF600006D0E21DF932118A491C1182E58305E0E1
:10CF70002571217F012901D1618CE183A289E1889A
:10CF80008A4215D12079494D002801D0052907D0C2
:10CF900008212046FBF77CFBE86A401CE862F8BDEC
:10CFA0003E212046FBF774FB286B401C2863F8BD2C
:10CFB0004078002814D03E48C068808D800701D595
:10CFC0000120207720466030817C002908D1007F35
:10CFD000002805D18A20005D002801D1608CE08303
:10CFE0002079002800D0E583FBF72EFB060009D04E
:10CFF0002577002704E0FBF74DFC002802D07F1CBA
:10D00000B742F8DBA0780028D1D02046FBF748FCD7
:10D010000128CCD002212046FBF748FC20780028CC
:10D0200005D023486169026C8918016401E0204839
:10D030000564FBF741FC0128B9D0FBF791F91D49C4
:10D040000968884201D9451A02E01B4A511A0D1895
:10D05000134EFF2130782531124F4843C01984699F
:10D06000203000781549401C48434443204600F0D6
:10D0700029F83078FF21253148431149C01940690A
:10D080000968FF354018053540196E30844201D8D3
:10D09000002801DA201A00E0C820FBF7AFF9F8BD3C
:10D0A0001512FF1F5C2AFF1F8031FF1F0C31FF1F6D
:10D0B00028F400201C12FF1F40420F0071020000E4
:10D0C0002012FF1F70B5144A13781146C968002B4F
:10D0D00012D0CA6E0446CD6CD4402C190F4DCC64CE
:10D0E0002D78FF26253675430D4EAD19AD692D02FD
:10D0F000AC4204D8254603E05069C86470BDCD64D5
:10D100000C6FA54200D9CC64521C0649D0400A6875
:10D1100058438018086070BD28F400201512FF1FC6
:10D120005C2AFF1F2012FF1FF0B5214AC605D468F4
:10D130000023656F002E31DA460509D51D4EFF2705
:10D14000367825377E431C4FF6193679002E04D0E9
:10D150001361936146050ED40EE0D6698E4201D963
:10D16000761A00E08E1BA76FB74204D99669B542C4
:10D1700000D3761C9661D1619669B5420AD2A56E3C
:10D18000646E491B2141146909190C4C1161256811
:10D19000691A2160C00504D51370F0BD1361936155
:10D1A000EAE71078052800D8401C1070F0BD000098
:10D1B00028F400201512FF1F5C2AFF1F2012FF1FFA
:10D1C00010B51C481A4941610121C16001601A4A29
:10D1D000506B1A49C0B24978002917D11849002369
:10D1E000CB56002B174BCB5606DB1B0400240C57E9
:10D1F00021025918091808E0FF331B0400240C57BA
:10D2000021025918104B0918C9185163022801D27C
:10D21000022002E0502800D95020801E0B49401007
:10D220000B5C054800220721143001F079FB10BD8A
:10D23000FF3F0000001003408000034028F400205E
:10D2400085F4002000000000FFFE00003CFD0020EF
:10D2500010B5084902200870FEF7CCFEFEF738FC36
:10D26000FEF7FAFCFEF7FCFB00F0ACFA00F033FD31
:10D27000002010BD86F40020F8B57E4CFBF722FBA1
:10D28000FBF726FB7C48002606617C4821467C4C47
:10D2900086802078FF22253250437A4D4231401952
:10D2A00004222430FBF70CFA01462078FF222532B5
:10D2B0005043401903222830FBF702FA0146207838
:10D2C000FF2225325043401901222E30FBF7F8F996
:10D2D00001462078FF222532504340190222303087
:10D2E000FBF7EEF901462078FF2225325043401922
:10D2F00002223230FBF7E4F901462078FF22253282
:10D300005043401902223430FBF7DAF90146207805
:10D31000FF2225325043401902223630FBF7D0F964
:10D3200007462078FF212531484340190246203224
:10D33000917B49009173018E49000186418E49001D
:10D340004186C18E0901C18601462E31FBF778FA6C
:10D350002078FF21253148434019FBF783FA2078D4
:10D36000FF21253148434019828E418EC38E4A43A6
:10D3700052009A4259DA002957D0052239466030C6
:10D38000FBF79EF9014601226846FBF799F96846CA
:10D3900002782078FF2125314843D3064019014601
:10D3A000DB0E60314B7152092C273A54FBF796FA89
:10D3B0002078FF21253148434019C683818E41845E
:10D3C000FEF76CFF3049072008702520FAF7CEFFE2
:10D3D0002078FF2225325043421901219170D01D3F
:10D3E000F93086743121C1743920865410460121E8
:10D3F000FBF77AFA2178FF22253251434F1939463B
:10D40000203148763046214E3B463064388E0A7BC8
:10D410001433F98B801CFBF72BFAFAF7A1FF1C4998
:10D420000968884207D9401A08E01A484021007864
:10D43000FAF712FFF8BD184A511A0818F168FF22CE
:10D440008968253208182178144B514349190A8EEE
:10D4500049695A43101A401A59004018FAF7CEFF8A
:10D460000C4804210078FAF7F7FE0D48816A491C40
:10D470008162F8BDC42BFF1F442FFF1F442AFF1FEA
:10D480001512FF1F5C2AFF1FE511FF1F28F4002063
:10D490001C12FF1FE411FF1F40420F007102000029
:10D4A0000C31FF1F70B500241220FAF735FF154923
:10D4B000122208600021FAF79FFE20460124FBF7A4
:10D4C00019FA02252046FBF71BFA03242846FBF72E
:10D4D0001DFA04252046FBF71FFA05242846FBF712
:10D4E00021FA06252046FBF723FA07242846FBF7F6
:10D4F0002FFB08252046FBF755FD284600F0AAF82B
:10D5000070BD0000D8F30020F8B5494D4748E860E9
:10D5100072B6FBF713FA002873D0464EB079002894
:10D520006FD0454F3868002812D1E868434B808D92
:10D53000C00710D0FCF7E4FF696A884201D3401AA3
:10D5400001E0591A0818E9688031C968814202D996
:10D5500062B630BFF8BDFCF7D3FFE968181A898DB1
:10D56000C90711D0364A374B1168FF24CB188A34CB
:10D57000A34200D3296A1160020C80B24A43484397
:10D580005202C009141809E0C1018200891A420040
:10D59000891AC20010188908400A0C18FBF7D4F940
:10D5A0007D21C900484302D0A04200D80446FBF7C1
:10D5B000D1F92549086025480269D20734D180682D
:10D5C000234AC007C00F12784042104201D00868B9
:10D5D00002E0E86840690860844200D90446FBF72D
:10D5E000BFF900280BD03868002808D1E9688A699B
:10D5F000C8691218A24202D83288002A02D062B644
:10D6000030BF11E04969201A814200D20846420A1F
:10D61000C10A40098018401ACA0880188A09801A6D
:10D62000090A401AFBF7A2F962B6F8BD000CFF1F09
:10D6300028F40020B410FF1F1812FF1FFFFFFF0087
:10D640003412FF1F82F1FFFFB010FF1F00100240D5
:10D65000E511FF1F30B53E4D89B068700121684665
:10D6600001700722027100220281017314210182DC
:10D670001E2181820283FF21F5318183C320354C35
