:020000041FFFDC
:1008000000000000F9C9FF1F84000020A80000209C
:10081000E01C0020000000000000000000000000BC
:1008200000000000000000000000000000000000C8
:1008300000000000000000000000000000000000B8
:1008400000000000000000000000000000000000A8
:100850000000000000000000000000000000000098
:100860000000000000000000000000000000000088
:100870000000000000000000000000000000000078
:100880000000000000000000000000000000000068
:100890000000000000000000000000000000000058
:1008A0000000000000000000000000000000000048
:1008B0000000000000000000000000000000000038
:1008C0000000000000000000000000000000000028
:1008D0000000000000000000000000000000000018
:1008E0000000000000000000000000000000000008
:1008F00000000000000000000000000000000000F8
:1009000000000000000000000000000000000000E7
:1009100000000000000000000000000000000000D7
:1009200000000000000000000000000000000000C7
:1009300000000000000000000000000000000000B7
:1009400000000000000000000000000000000000A7
:100950000000000000000000000000000000000097
:100960000000000000000000000000000000000087
:100970000000000000000000000000000000000077
:100980000000000000000000000000000000000067
:10099000B9B8FF1F7DB9FF1FBDD5FF1F00000000C4
:1009A0000000000000000000000000000000000047
:1009B0000000000000000000000000000000000037
:1009C0000000000000000000000000000000000027
:1009D0000000000000000000000000000000000017
:1009E0000000000000000000000000000000000007
:1009F00000000000000000000000000000000000F7
:100A000000000000000000000000000000000000E6
:100A100000000000000000000000000000000000D6
:100A200000000000000000000000000000000000C6
:100A300000000000000000000000000000000000B6
:100A400000000000000000000000000000000000A6
:100A50000000000000000000000000000000000096
:100A60000000000000000000000000000000000086
:100A70000000000000000000000000000000000076
:100A80000000000000000000000000000000000066
:100A90000000000000000000000000000000000056
:100AA0000000000000000000000000000000000046
:100AB0000000000000000000000000000000000036
:100AC0000000000000000000000000000000000026
:100AD0000000000000000000000000000000000016
:100AE0000000000000000000000000000000000006
:100AF00000000000000000000000000000000000F6
:100B000000000000000000000000000000000000E5
:100B100000000000000000000000000000000000D5
:100B200000000000000000000000000000000000C5
:100B300000000000000000000000000000000000B5
:100B400000000000000000000000000000000000A5
:100B50000000000000000000000000000000000095
:100B60000000000000000000000000000000000085
:100B70004DBDFF1F0000000000000000000000004D
:100B80000000000000000000000000000000000065
:100B90000000000085A8FF1F00000000000000000A
:100BA000000000000000000000000000BDA9FF1FC1
:100BB00000000000000000002DA9FF1F75A9FF1F05
:100BC00069A8FF1F000000000000000000000000F6
:100BD0000000000000000000000000000000000015
:100BE0000000000000000000000000000000000005
:100BF00000000000A9A7FF1F000000000000000087
:0C0C000001FF01FF01FF01FF41000000A7
:020000041FFFDC
:10480000004F0020D548FF1FDD48FF1FDF48FF1F76
:104810000000000000000000000000000000000098
:10482000000000000000000000000000E148FF1F41
:104830000000000000000000E348FF1FE548FF1FE4
:104840000000000000000000000000000000000068
:104850000000000000000000000000000000000058
:104860000000000000000000000000000000000048
:104870000000000000000000000000000000000038
:104880000000000000000000000000000000000028
:104890000000000000000000000000000000000018
:1048A0000000000000000000000000000000000008
:1048B00000000000000000000000000000000000F8
:1048C0000348854600F084FD00480047E1C7FF1F0C
:1048D000004F00200448804704480047FEE7FEE7F9
:1048E000FEE7FEE7FEE7FEE7496DFF1FC148FF1F39
:1048F000F0B51FB40646002082B005464024019161
:1049000000901BE0019922460F46304600F04FFB15
:10491000049A059B801A994110D3104619462246E5
:1049200000F035FB361A8F41019722460120002105
:10493000009F00F02CFB38184D4100902046641E6B
:104940000028DFDC019B00982946324607B0F0BD05
:10495000F0B51FB486B00020009001900290069838
:10496000069980B204900798090C020400141143C0
:1049700007900027089D099806913E463C46039003
:104980000398A9B20204000C039004982D0C15435F
:1049900048430021224600F0FAFAC7197141103449
:1049A0000E46402CECDB3846029A00F0F0FA009AF2
:1049B000019B80180090594102980191103002909B
:1049C0004028CCDB00980BB0F0BD000038B50446A1
:1049D000C0681821401E4843A16840183C21484344
:1049E000616840183C2148432168451860690C21E2
:1049F0004843216940186921C900401A302100F05C
:104A00009FFD114A50434219084600921A2902DBC1
:104A10000E49511800910C2100F092FD0C4A5043B0
:104A2000009A801800900B4806E0491E425C074B34
:104A30005A43009BD21800920029F6DC21466846B2
:104A400000F0CEFA009838BD801F86078051010023
:104A50008033E1018C18002003460B439B0703D0F1
:104A600009E008C9121F08C0042AFAD203E00B7833
:104A70000370401C491C521EF9D27047D2B201E0AB
:104A80000270401C491EFBD270470022F6E710B5A9
:104A900013460A4604461946FFF7F0FF204610BDAC
:104AA00010B5002200E0521C835C8C5CA34201D153
:104AB000002BF8D1D8B2E1B2401A10BD70B5104D3C
:104AC000002800D12868002414E00A4602E09E4233
:104AD00003D0521C1378002BF9D1DAB2224307D04D
:104AE000002B06D0002C04D000210170401C04E0F3
:104AF0000446401C0678002EE7D12860204670BD91
:104B0000EC20002070B5064602F00EFA0468054657
:104B10000A220021304600F09DFA2C6070BDF8B5E5
:104B200002464A40D40F42004B0052085B089A42AA
:104B300002D20246084611464A0023D0C30D4A005D
:104B4000DDB2120EAD1A202D35DA49020126490ACE
:104B5000F6058A19002C00D0524220214F1B114625
:104B6000B9402A411018C20D9A4221D0002C17D00A
:104B7000012D08DCDA05801AD20F8019D207DBB2CA
:104B800000F0A8FAF8BDDA05801A012340001B06E0
:104B9000C01880185A428018CA0F1043490007E015
:104BA0004908C2071143DA05801A801940088018A5
:104BB00000F088FAF8BD61000122511A001BF7E7E6
:104BC0000122D2075140AAE70122D2075040A6E7AE
:104BD000024670B54A40D30FDB0740002DD04A0093
:104BE0002AD0010E140E000212020919400A520ABC
:104BF0008418E50104465443000A120A2E04504367
:104C0000A4194219200CC543AA18120C0125AD03A2
:104C1000521C521912047F39240400D0521C104334
:104C200001D44000491EC2B20C06C0092018401C25
:104C30004008802A02D003E0002070BD40084000F8
:104C4000002900DA0020184370BD70B502464A40C2
:104C5000D50F40004A00ED0740085208002814D044
:104C6000002A12D0C40DD30D41020120C00552020A
:104C7000490A520AE41A091812187D34914201D3E4
:104C8000641C00E04900002C01DA002070BD002304
:104C9000914201D3891A0343400849000028F7D103
:104CA00000290AD0914202D10121C90705E09142B1
:104CB00001D2012101E00121C943E005C0184019DA
:104CC00000F000FA70BD0000F0B51FB488B00B9979
:104CD0000998002448400999C00F490049080991E2
:104CE000C0070B990090490049080B910999089851
:104CF000A64608431CD00B990A98084318D0099877
:104D000001244000420D4800410D0998240500038C
:104D1000000B204309900B980003000B20430B90DD
:104D200050181C494018002201901446104605E016
:104D3000002001460DB0F0BD032801DA034600E073
:104D400003239C46C11A0AAE0AE05F0008ADED5B82
:104D50004F00F75B7D430027AA187C41491C5B1E6E
:104D60006145F2DD410004AB5A522104120C0A43A2
:104D7000240C401C0828DFDB019802900099704643
:104D800001910090059B049A0799069800F0E8F9B4
:104D9000D0E700000DFCFFFFF0B50C465C4085B08D
:104DA000E40FE40703944C0000266408590094467D
:104DB000490802460296224321D062460A431ED089
:104DC0006200570D4A000E032303550D01240246CD
:104DD0002C492405781B1B0B360B40182343264314
:104DE000614600901C46501AB44103D30098401C01
:104DF000009002E0921800985B41002803DA00203E
:104E0000014605B0F0BD0020012109050746864690
:104E100011E064461D46141BB54106D36546521B7E
:104E2000B341744607430C43A646CD0740084908E2
:104E3000284392185B4105460D43EAD110461843BA
:104E400013D06046194650407140084306D0604672
:104E5000101AB34106D20122002306E000220123EA
:104E6000DB0702E00122D24353100098744601058B
:104E7000381C6141029C039D0019694100F063F9EF
:104E8000BFE70000FD030000C217C10F504010B57E
:104E90004018CA079623002100F01CF910BD10B578
:104EA00000229623114600F015F910BD0EB5C21769
:104EB000C10F5040CA0740180021054B02930192D0
:104EC00000910A460B4600F04BF903B000BD00000C
:104ED00033040000C20F410040020123400ADB05F9
:104EE000D207090EC0187F2901DA002070479629E1
:104EF00003DC9623591AC84001E096398840002AFD
:104F0000F4D040427047410040020122400AD205DD
:104F1000090E80187F2901DA00207047962903DCEA
:104F20009622511AC8407047963988407047C20F80
:104F3000D207400040080BD0C10D0723DB01C91880
:104F400040020905400A1143C20840071143704757
:104F5000002001467047CB0FDB07490010B5490818
:104F600002460A4307D00A0D07240903E401090B8E
:104F7000121B002A01DC002010BDC900440F0C43A5
:104F8000C100E018D205801800F09CF810BD10B5E3
:104F9000202A04DB0146203A9140002010BD9140B8
:104FA00020239C1A0346E3401943904010BD10B5DE
:104FB000202A04DB0846203AD040002110BD0B46D1
:104FC000D340D0402024A21A91400843194610BD76
:104FD00010B5024900F004F810BD0000D0460020D2
:104FE00070B50C4600683C2100F0B0FA21603C210D
:104FF00000F0ACFA6160182100F0A8FA0546A16043
:105000000721001D00F0A2FAA1610F48A9000818AD
:105010000E4900F09BFA0246443288086261E06162
:105020003B2802D3910700D0401C0021084B0A46C0
:105030002161995C814203D8401A521C2261F8E731
:10504000401CE060204670BD6C0B0000B505000000
:1050500098180020F7B5009C0F4600262578641CA0
:10506000002D05D000F0DAF90068405DC007F5D1E9
:105070002B2D02D02D2D18D0641E39462046029AC1
:1050800000F0D0F9002F04D03968A14201D1009975
:1050900039607105022400290BDA4042002803DD43
:1050A00001F042FF0460A007FEBD0120800206431C
:1050B000E3E70028F8DA01F037FF04600048FEBD9E
:1050C000FFFFFF7F002904DA401C490001D140089E
:1050D0004000704770B40024050C05D11024000472
:1050E00002D1002921D01124050E01D1000208347B
:1050F000050F01D10001241D850F01D18000A41CE2
:10510000002801DB4000641C002908D020252E1B4C
:105110000D46F540A14000D0012129430843010676
:105120001B1B000ADB1D02D5002070BC7047DB058D
:10513000181880180029F8DA401C4900F5D170BC15
:1051400040084000704710B5002B08DA0024401CCE
:10515000614192185B411A4301D14008400010BDE3
:10516000F0B51FB482B005460C0003D0084601F02C
:10517000C3FE02E001F0C0FE20300246009021464E
:105180002846FFF704FF049B059A04460F46184380
:105190001143084314D0184610431BD000984021F7
:1051A0000A1A18460599FFF702FF05460E46009AAF
:1051B00005990498FFF7EBFE084305D0012004E0B1
:1051C0002046394607B0F0BD0020C11705430E4305
:1051D0002C43374300990E986305401A7905E40A79
:1051E00000220C43FD0A0A3002D500200146E9E7FF
:1051F0000105101969410C9C0D9D00196941FFF7CB
:10520000A2FFDFE7F0B507460846584087B0C00F59
:10521000049048000E46590040084908BC1A8841CD
:1052200005D2384631461E4617460B460246580000
:10523000400810434CD0300D039040055900400DFC
:10524000490D0590401A0290402872DA1803012196
:10525000000B09050843019004980092002805D02E
:105260000199524200208841009201900298402109
:105270000A1A01990098FFF78AFE05460C466B460C
:1052800007CB00F0B7F8C0197141039A0E0D002347
:10529000D71756401A467A40164344D0049A002A3B
:1052A0002DD0029A012A039A15DC1205C01A9141E9
:1052B00001263605001C7141D20F059ED2070093CE
:1052C000019202962A462346FFF74AFF07B0F0BD37
:1052D00038463146FAE71605224A0F46B218C01A78
:1052E000B74101210905001C4F4100187F411146BB
:1052F00018187941E20F10436D19644113E0E20779
:105300006D0815436408C2071443039A0126120569
:10531000C01A91413605001C7141CE074008304348
:105320004908C01851412A462346FFF70CFFCDE734
:10533000FFE7049801224000C117121A00238B4195
:1053400004983146C417381AA141EEE730B401245D
:10535000E407634030BC55E730B40124E407614002
:1053600030BC4FE70000E0FF4A0009030123090BAE
:105370001B0519430A4B10B5520D9A4202DA002060
:10538000014610BD064B34339A4203DC9A1AFFF7EC
:105390000EFE10BD034BD218FFF7F9FD10BD000043
:1053A000FF030000CDFBFFFF10B5002904DB012443
:1053B000E40740428C412146002B04DB1C460123BC
:1053C000DB075242A341994200D1904210BD000038
:1053D000064C0125064E05E0E36807CC2B430C3C48
:1053E00098471034B442F7D3FFF76EFA5C190020E7
:1053F000AC19002010B5202A06DBCB170846203A4E
:105400001041C1170B4306E00B461341D040202446
:10541000A21A91400843194610BD00000048704789
:1054200028190020F7B582B0029C00272078641C60
:1054300015460197302802D0002D15D015E02078B0
:105440000127641C782804D0582802D0002D09D0E8
:105450000BE0002D01D0102D07D10027102520785A
:10546000641C02E0082500E00A250026009610E0F2
:105470000099012769430818020C294680B271433C
:1054800000908E183804864201D3012001902078C4
:10549000641C294600F019F80028E9DA039800286E
:1054A00005D0002F01D0641E00E0029C046001982A
:1054B000002806D001F038FD02210160C81E05B0A9
:1054C000F0BD009930040843F9E73A2800D230389B
:1054D000202302469A43412A01D310463738884296
:1054E00001D30020C043704770B58C180578401C6C
:1054F0006B075B0F01D10378401C2A1106D102789B
:10550000401C03E006780E70401C491C5B1EF9D15C
:105510002B0705D40023521E0DD40B70491CFAE74B
:105520000378401CCB1A921C03E01D780D70491CB7
:105530005B1C521EF9D5A142D8D3002070BD0000DB
:1055400003B40148019001BD9502000003B4014875
:10555000019001BD6902000003B40148019001BD42
:10556000C13C010003B40148019001BDED3C0100C4
:1055700003B40148019001BDC93A010003B40148D8
:10558000019001BD5518000003B40148019001BD10
:105590003518000003B40148019001BD718100007D
:1055A00003B40148019001BD3914000003B401485F
:1055B000019001BD1117000003B40148019001BD25
:1055C000F13E010003B40148019001BD1B3D010003
:1055D00003B40148019001BD7114000003B40148F7
:1055E000019001BDC131000003B40148019001BD2B
:1055F000B142010003B40148019001BDD542010050
:1056000003B40148019001BDC912000003B4014870
:10561000019001BD3D42010003B40148019001BD6C
:105620005D19000003B40148019001BD593A010021
:1056300003B40148019001BDC118000003B4014842
:10564000019001BD3515000003B40148019001BD72
:105650004117000003B40148019001BDE9150000A5
:1056600003B40148019001BD897B000003B40148E7
:10567000019001BDD520000003B40148019001BD97
:10568000A5E5000003B40148019001BD3D1C0000E8
:1056900003B40148019001BD0D1D000003B4014891
:1056A000019001BD8306000003B40148019001BDD3
:1056B0000143010003B40148019001BDE120000055
:1056C00003B40148019001BDF53C010003B4014859
:1056D000019001BD5D3F010003B40148019001BD8F
:1056E000DD21000003B40148019001BD5590000088
:1056F00003B40148019001BD7D3A010003B40148A3
:10570000019001BD913F010003B40148019001BD2A
:10571000A942010003B40148019001BD410300000A
:1057200003B40148019001BD1910000003B4014801
:10573000019001BDA53C010003B40148019001BDE9
:105740003917000003B40148019001BD8117000022
:1057500003B40148019001BDD136000003B40148F3
:10576000019001BD01E6000003B40148019001BDB4
:105770006D07000003B40148019001BDBD070000A2
:1057800003B40148019001BD891C000003B4014825
:10579000019001BDE907000003B40148019001BD7B
:1057A0003D07000003B40148019001BD211A00002B
:1057B00003B40148019001BD050E000003B4014887
:1057C000019001BD2D0E000003B40148019001BD00
:1057D0008922000003B40148019001BD610E000060
:1057E00003B40148019001BD9D0E000003B40148BF
:1057F000019001BDD50E000003B40148019001BD28
:10580000FD0E000003B40148019001BD610F0000CE
:1058100003B40148019001BDED3A010003B4014811
:10582000019001BD4F03000003B40148019001BD88
:10583000E997000003B40148019001BD3D980000C4
:1058400003B40148019001BDE58D000003B4014897
:10585000019001BD4977010003B40148019001BDE9
:105860008D3C010003B40148019001BDE55B0000DF
:1058700003B40148019001BDE129000003B40148CF
:10588000019001BD9937000003B40148019001BDAA
:105890005114000003B40148019001BD091F00002C
:1058A00003B40148019001BDA579000003B401488B
:1058B000019001BDC91F000010B5034A1321034820
:1058C00000F01EFF10BD00000C000020C4190020D5
:1058D000F8B504460D4616460027002C05D12A4689
:1058E00031460448FFF738FE01E0022700BF00BF41
:1058F0003846F8BDAD190020FFB58DB000200B90E3
:105900000C900BAA0E990D9800F086F804460A2C0C
:105910005EDA204603F087FB05463448007802280B
:1059200001D1012000E0002000902A462146109B72
:105930000F9803F0FAFA1422002106A8FFF712FECE
:105940002146062251432431C8B206AA102107F08D
:1059500087F8002815D11022FF2106A8FFF708FEBE
:1059600000280ED12146062251432531C8B20AAA89
:10597000042107F075F8E907C90F06AA0F98FFF789
:10598000FDFD21467031C8B202AA102107F068F867
:10599000002813D102A803F05AFB00260CE0B00047
:1059A00002A947183888002804D0BA7839880F9897
:1059B00000F0F6FE701CC6B2042EF0DB0220284078
:1059C000002804D00A4801780F9800F0D3FE00BFE9
:1059D0001098042806D105480078022802D10F98B3
:1059E00003F06EFB002011B0F0BD0000591B002039
:1059F000581B002010B5044605480460054801788E
:105A00002620FFF7C1FD0348007800F073FE10BDAB
:105A10006C1B0020581B0020F8B506460F461446A4
:105A20000A25002E06D0012E05D0022E11D0032EFD
:105A300029D11BE000BF384603F0A6FA05460A2D1F
:105A400006DA002C04D0062239462046FFF784FDF2
:105A50001AE0384603F0B0FA05460A2D05DA002CA4
:105A600003D02146284603F0C1FA0DE0384603F082
:105A700002FB05460A2D05DA002C03D021462846F4
:105A800003F0B4FA00E000BF00BF2846F8BD0000F4
:105A900070B505460C46002603200002281A0300B4
:105AA000FFF778FD1D10141A20242A2E32394044A5
:105AB000484E52565A5E62666A6E72787C80908456
:105AC000888C900045480078207084E0102244497A
:105AD0002046FFF741FD7EE0102242492046FFF7B5
:105AE0003BFD78E040480068206074E006223F49B2
:105AF0002046FFF731FD6EE03D48007820706AE0F7
:105B00003C480088208066E03B4802783B492046BC
:105B1000FFF722FD5FE03A4802783A492046FFF756
:105B20001BFD58E038480078207054E03748007872
:105B3000207050E0062236492046FFF70DFD4AE06E
:105B400034480078207046E033480078207042E006
:105B50003248008820803EE03148008820803AE0CA
:105B600030480078208036E02F480088208032E0DE
:105B70002E48008820802EE02D48008820802AE0D2
:105B80002C480088208026E006222B492046FFF77B
:105B9000E3FC20E02948008820801CE02848008899
:105BA000208018E027480088208014E026480078EC
:105BB000207010E02548008820800CE024480088F0
:105BC000208008E0272D04DA2846FFF7E9FC208032
:105BD00000E0022600BF00BF304670BD061C00205A
:105BE000983C0020A83C0020081C00200C1C002031
:105BF000121C0020141C0020161C0020171C002062
:105C0000361C0020B83C0020371C0020381C002027
:105C1000391C00203F1C0020401C0020421C00209A
:105C2000481C0020501C0020521C0020541C002046
:105C3000561C0020581C00204A1C00205A1C002022
:105C40005C1C00205E1C0020051C0020441C002061
:105C5000461C002010B50446134804700020134968
:105C60000870401E124908800F480078FFF79EFC1C
:105C7000042010490870102200210F48FFF772FC21
:105C8000102200210D48FFF76DFC00200C49086030
:105C90000C4908700C49087001200C49087000205C
:105CA0000B49087010BD0000041C0020051C0020DA
:105CB000421C0020061C0020983C0020A83C00202C
:105CC000081C0020371C0020381C00203F1C00202E
:105CD000401C0020FEB506460C460120C0032040B3
:105CE000002810D047480078FFF766FC051E05D055
:105CF000284603F0B3FB2846FFF764FC2046012149
:105D0000C9034840FEBD012080032040002804D084
:105D10002046012189034840F4E7E007C00F00282E
:105D20003ED039480078002836D038480078052819
:105D300003D10320694608700CE0354801786846B5
:105D40000170344801786846417006223249801C4F
:105D5000FFF702FC3148017868460172304801784B
:105D600068464172694627480078FFF731FC0028F1
:105D700011D00720254908702A48006800280AD059
:105D8000284800680068002805D026480068016897
:105D90001E480078884700BF204601214840B1E7EF
:105DA00002202040002816D01848007805280ED17F
:105DB0001D480088FFF712FC1C480088002806D008
:105DC0001A48028802210F480078FFF70DFC204690
:105DD0000221484096E704202040002806D00020F9
:105DE00003F0D8FB2046042148408BE708202040E0
:105DF000002805D003F080F920460821484081E7BB
:105E000000207FE7041C0020121C0020051C00203D
:105E1000371C0020381C0020391C00203F1C0020AB
:105E2000401C0020641C0020421C0020481C002054
:105E3000F8B504460D4617461E4617480078052853
:105E400001D01420F8BD062C23DB1920C0018442A8
:105E50001FDA062D1DDB85421BDAFF20F530874255
:105E600017DA0A2E15DB1920C001864211DA0B4819
:105E700004800B4805800B4807800B480680069875
:105E800003F088FB042109480078FFF7B3FB0020EA
:105E9000D8E71820D6E70000051C0020521C00207F
:105EA000541C0020561C0020581C0020041C0020FC
:105EB000F8B506460C46154600200090BA48301842
:105EC0000300FFF767FB190E1924FD2D6A738DA7D8
:105ED000B3BFCAD6FDE2FCFBFAF9F8FDFDFDFDF704
:105EE000FD00102C05D110222946B048FFF734FBE5
:105EF00001E01820009054E1102C05D11022294611
:105F0000AB48FFF729FB01E01820009049E1042C81
:105F100003D1A8492868086001E01820009040E1FA
:105F2000012C37D1A44807782878A3490870002F9E
:105F300014D008460078002810D1A0480078022824
:105F400007D09E480078062803D09C480078042893
:105F50001FD19B480078FFF753FB1AE0002F18D1A0
:105F600095480078002814D09448007801280BD078
:105F700092480078032807D090480078052803D07D
:105F80008E480078042804D101218D480078FFF75D
:105F90003DFB01E01820009003E1022C03D128888A
:105FA0008849088001E018200090FAE01F2C14DCDA
:105FB0001F2200218448FFF7D5FA2246294682484D
:105FC000FFF7CAFA814804707F4B224601217C48C2
:105FD0000078FFF721FB009001E018200090E0E03E
:105FE0001F2C14DC1F2200217948FFF7BBFA224640
:105FF00029467748FFF7B0FA76480470744B027868
:1060000000216F480078FFF707FB009001E018209F
:106010000090C6E0012C06D12878042803DC2878FB
:106020006D49087001E018200090BAE0012C06D1FB
:106030002878032803DC28786849087001E01820D4
:106040000090AEE0062C05D1062229466448FFF7F1
:1060500083FA01E018200090A3E0012C06D12878F3
:10606000072803DC28785F49087001E018200090B9
:1060700097E0012C06D12878032803DC28785A49B8
:10608000087001E0182000908BE0022C19D12888BC
:106090005649088008460088002814D047480078F0
:1060A000052810D108460288022145480078FFF7EC
:1060B0009BFA08E04EE03EE030E020E010E003E034
:1060C00062E0182000906CE0012C06D128780128AD
:1060D00003DC28784649087001E01820009060E051
:1060E0002888022C08D1062806DB1921C90188421C
:1060F00002DC4049088001E01821009151E0288825
:10610000022C08D1062806DB1921C901884202DCCD
:106110003949088001E01821009142E02888022CCA
:1061200006D1FF21F531884202DA3449088001E0C6
:106130001821009135E02888022C08D10A2806DBB6
:106140001921C901884202DC2D49088001E018218B
:10615000009126E02F78012C13D1012F11D10821B5
:1061600017480078FFF75EFA002807D103F012FA0B
:10617000042113480078FFF73DFA04E01620009050
:1061800001E0182000900CE0272E07DA022C05D140
:1061900029883046FFF7F8F9009001E002200090CE
:1061A00000BF00BF0098F8BDFFFCFFFF983C002037
:1061B000A83C0020081C0020121C0020051C002008
:1061C000041C0020141C0020171C0020161C00209A
:1061D000B83C0020361C0020371C0020381C002052
:1061E000391C00203F1C0020401C0020481C0020BF
:1061F000501C0020521C0020541C0020561C002063
:10620000581C002010B5044606480078002807D125
:10621000002C01D00448046003F0A4F9002010BD54
:106220001120FCE7051C0020641C002010B5074865
:106230000078052807D11322054801880548007811
:10624000FFF7F6F910BD1220FCE70000051C002046
:10625000421C0020041C0020F8B507460C461E46D0
:1062600002252300FFF796F90A0F06080C090F0D07
:106270000F0B0E0F002508E007E0002505E004E005
:1062800003E002E001E0022500BF00BF002D0FD1B6
:1062900021463846FFF7D2F90546002D08D1304691
:1062A000079A0699FFF7D0F9FFF7D4F9FFF7D8F965
:1062B0002846F8BD70B504460025E007C00F002849
:1062C00005D0044A0421044800F01AFA054628467D
:1062D00070BD000020000020141B002010B50446F3
:1062E0000F4804700F49104800F024F800200AE01D
:1062F0000021C943C2000D4B99520021C200D2189F
:106300005160411CC8B20128F2DB012003F090FE6D
:1063100003480078FFF7AAF90548FFF7ADF910BD6B
:10632000F41A00200A1B0020FFFF0000F81A0020CA
:106330004D97FF1F70B506460C46104886420ED199
:10634000002009E00021C9438200A15200218200FF
:1063500012199170411CC8B20228F3DB0CE02146EF
:10636000304603F0A6F90546002D04D00020C043B6
:1063700028800020A87000BF70BD0000FFFF000053
:10638000FFB581B00C4615461F46002000900A98C4
:10639000002826D1022F21D12878697809024018D7
:1063A00086B231460B988143002914D1E1680198E7
:1063B00000F092F9B04210D03246E168019800F046
:1063C00025FA00900098002807D16189324601988B
:1063D00000F0B0F901E08020009004E00D20009072
:1063E00001E00B200090009805B0F0BD70B50646A6
:1063F0000C460120C0032040002816D00C4800782D
:10640000FFF7DAF8051E0BD02878B02803D128460C
:1064100003F0B0FA00E000BF00BF2846FFF7D2F853
:1064200020460121C903484070BD0020FCE7000060
:10643000F41A0020FFB587B00D461C46109E0020C0
:1064400006900590287A10210840002814D0099859
:1064500003F024F90746002F05D00A2229460798A1
:10646000B847059001E00E2005900598002802D05D
:1064700005980BB0F0BD00BF287802287ED168686F
:106480000078696849780902401880B2049029228E
:1064900012020498811A904271D009DC8B49401A8B
:1064A0000FD001280ED0022848D0032868D118E068
:1064B000012966D002297DD003297CD00429F5D199
:1064C000C9E000BF1198002808D1EF683878307013
:1064D0003A7820467968FFF73FF801E00B200590F5
:1064E000D6E01198002826D101203070E8680078A5
:1064F00020706989491C88B20021FFF7C3F807465C
:10650000002F0FD031783878801C08183070B87A96
:10651000607078890012A0703A78E01C7968FFF703
:106520001BF807E03078001D307004220021601C49
:10653000FFF718F801E00B200590A9E0119800285A
:1065400044D1E868008801900420307001982070E0
:1065500001980012607003A90198FFF793F80746AD
:10656000002F29D0F868009002AB6846828958490C
:106570003846FFF78DF800280ED103E08AE039E0B5
:1065800083E046E03B78022152487A68FFF786F8BC
:10659000002801D1401E029000980078022808D1FE
:1065A000009802224168201DFEF7D6FF3078801C3B
:1065B000307003E00DE01EE001980290684600890B
:1065C000A070684600890012E07001E00B20059081
:1065D0005EE0119800280AD1E968079800F07CF87D
:1065E00007460220307027703812607001E00B20DF
:1065F00005904DE000BF1198002807D1E968088890
:106600000221317020700112617001E00B200590B1
:106610003EE0E868FFF748F8C7B21198B84217DCC7
:106620001198B84201D1002709E012991198401839
:10663000B84201DA129F02E01198381AC7B23770D7
:10664000EA68119811183A462046FEF785FF01E0E6
:10665000072005901CE01198002813D1E868072155
:10666000317001782170417861708178A170418822
:106670000912E1700179217181796171C188091272
:10668000A17101E00B20059002E00120069000BFFF
:1066900000BF01E0012006900698012813D1099857
:1066A00003F02CF80746002F0AD0129911983346B0
:1066B00022460191009029460798B847059001E0CD
:1066C0000E20059000BF0598D3E6000000280000CA
:1066D000FFFF00001E7C010070B505460E463146E6
:1066E000284602F0E6FF0446002C01D0A07870BDD9
:1066F0000020FCE70149087070470000F51A0020EF
:10670000FEB504460F461646002C0FD0019468468D
:106710000780FEF7CFFF0546002D06D1002E04D0DE
:106720006089314603F05CFC054600E002252846FE
:10673000FEBD0000F8B505460E4617460C48007829
:10674000FF2813D00A20FEF7BBFF0446002C0CD014
:10675000B12020700020607020716580E680278164
:10676000214603480078FEF7B1FF00BFF8BD0000E6
:10677000F51A002070B504460D4608492046FFF77B
:10678000ABFF064602203040002804D029462046B0
:10679000FEF7A2FF70BD0120FCE700000A1B0020ED
:1067A0007CB505460E461446684604712004010E69
:1067B000684641710020022301AA31460090284614
:1067C00000F001F87CBDFFB583B00D461E4602A95E
:1067D0002846FEF757FF01900198002811D068461F
:1067E000008902F0A7FF0746002F08D00C98F3B2EB
:1067F0000090059A01990398B847044600E00E24DA
:1068000000E00124204607B0F0BD0000F8B50546C1
:106810000F4616463946284602F04BFF0446002C28
:1068200009D13946054802F044FF0446002C01D145
:106830001120F8BD2580A6700020FAE7FFFF0000B8
:10684000F0B5044615460846CA17520F1218D21062
:106850006A4312199E5C0A46C817400F8018C01080
:10686000C000081A37460741F807C00FF0BDF8B559
:1068700004460D462146E617760F7618F610D01D11
:10688000C7177F0F3F18FF106F43F6199E5D0096E4
:106890002146E017400F4018C010C000201A0726FC
:1068A000361A00983041C007C00FF8BD70B50446D5
:1068B0000025E007C00F002805D0044A072104483E
:1068C000FFF71EFF0546284670BD0000340000207B
:1068D000941B0020F8B506460C46154600273300E9
:1068E000FEF758FE0805143C3C1C3C26313C152C98
:1068F0000ADC162200211C48FEF734FE22462946F7
:106900001948FEF729FE00E0182729E0022C03D1E0
:1069100028881649088000E0182721E0082C05D1B6
:10692000082229461248FEF797F800E0182717E0DA
:10693000012C06D10F492878CA69283103F006FDD9
:1069400000E018270CE0012C06D10A492878CA6B10
:10695000483103F0FBFC00E0182701E0022700BFEC
:1069600000BF3846F8BD0000823C0020861B002096
:106970008A1B0020941B002070B50446204604F0BA
:10698000A3FB054600211C2004F02CFA00211D2049
:1069900004F028FA284670BD10B5222221210120DA
:1069A00004F058FC0121084604F0ACFB10BDF8B51A
:1069B00006460C4615466846047045703C21304634
:1069C00004F06CFB72B6304604F088FC0222694683
:1069D000304604F065FC62B6304604F091FCF8BD28
:1069E000002805DBC206D20E01219140014A116048
:1069F0007047000000E100E010B5002819DB1A4ADA
:106A000003231B02D21883089B00D2588307DC0E95
:106A1000FF23A3409A438B071B0E8407E40EA34079
:106A20001A43114B032424021B198408A4001A5191
:106A300018E00E4A03071B0F083B9B089B00D25827
:106A40008307DC0EFF23A3409A438B071B0E8407AA
:106A5000E40EA3401A43054B0407240F083CA40886
:106A6000A4001A5110BD000000E100E01CED00E0A0
:106A700010B5002819DB1A4A03231B02D218830819
:106A80009B00D2588307DC0EFF23A3409A438B0759
:106A90001B0E8407E40EA3401A43114B0324240267
:106AA0001B198408A4001A5118E00E4A03071B0F93
:106AB000083B9B089B00D2588307DC0EFF23A340B2
:106AC0009A438B071B0E8407E40EA3401A43054B21
:106AD0000407240F083CA408A4001A5110BD0000AC
:106AE00000E100E01CED00E010B5002819DB1A4AB7
:106AF00003231B02D21883089B00D2588307DC0EA5
:106B0000FF23A3409A438B071B0E8407E40EA34088
:106B10001A43114B032424021B198408A4001A51A0
:106B200018E00E4A03071B0F083B9B089B00D25836
:106B30008307DC0EFF23A3409A438B071B0E8407B9
:106B4000E40EA3401A43054B0407240F083CA40895
:106B5000A4001A5110BD000000E100E01CED00E0AF
:106B600010B5002819DB1A4A03231B02D218830828
:106B70009B00D2588307DC0EFF23A3409A438B0768
:106B80001B0E8407E40EA3401A43114B0324240276
:106B90001B198408A4001A5118E00E4A03071B0FA2
:106BA000083B9B089B00D2588307DC0EFF23A340C1
:106BB0009A438B071B0E8407E40EA3401A43054B30
:106BC0000407240F083CA408A4001A5110BD0000BB
:106BD00000E100E01CED00E010B5002819DB1A4AC6
:106BE00003231B02D21883089B00D2588307DC0EB4
:106BF000FF23A3409A438B071B0E8407E40EA34098
:106C00001A43114B032424021B198408A4001A51AF
:106C100018E00E4A03071B0F083B9B089B00D25845
:106C20008307DC0EFF23A3409A438B071B0E8407C8
:106C3000E40EA3401A43054B0407240F083CA408A4
:106C4000A4001A5110BD000000E100E01CED00E0BE
:106C500000BF00BF00BFBFF34F8F00BF00BF00BF2A
:106C600006480749C86000BF00BF00BFBFF34F8F91
:106C700000BF00BF00BF00BF00BFFDE70400FA0572
:106C800000ED00E0F8B515460C46CE17760F361924
:106C9000F610F601361836B20096802805DA40293B
:106CA00003DA002801DB002900DAF8BD0B4C009E56
:106CB000A2190C46CE17760F3619F610F6008F1B68
:106CC0000126BE40F3B2012D02D114781C4301E02D
:106CD00014789C43147000BFE7E700007641002061
:106CE000F7B581B00B464026019D751B28B20546BD
:106CF000C617760F7619F610F601F61836B200961A
:106D0000802B05DA402803DA002B01DB002800DAAB
:106D1000FFBD0C4D009EAA190546C617760F7619C1
:106D2000F610F600871B0126BE40F4B2039D012D2C
:106D300002D11578254301E01578A543157000BFF1
:106D4000E6E70000764100200148024908607047EC
:106D500040787D01DC200020F8B506460027FEF7CC
:106D6000C1FC05460AE0FEF7BDFC0446AC4201D377
:106D7000601B02E00348401B00190746B742F2D3EC
:106D8000F8BD0000FFFFFF001CB5044621463DA0F2
:106D900005F05AFF052C04D13F494048FEF778FE24
:106DA0006DE03F48007805282AD1052C28D0012025
:106DB000019001213848008808F0F0FF042C0CD124
:106DC00020210820FEF7E0FB20210920FEF7DCFB54
:106DD00034490020FEF7D8FB0BE020210820FEF705
:106DE000D3FB20210920FEF7CFFB00210846FEF748
:106DF000CBFB01AA012129480938FFF759F83EE0E9
:106E000027480078022823D1032C21D12648007876
:106E1000002803D000202449087030E00820FEF745
:106E2000BFFB20282BD10120019020210820FEF754
:106E3000ABFB20210920FEF7A7FB00210846FEF747
:106E4000A3FB01AA012115480938FFF731F816E024
:106E5000012C14D16946C1208000FEF719FE684656
:106E60004179C17101798171C1784171002101714C
:106E7000C1706A4608210020FEF72AFD00BF0848BD
:106E800004701CBD577269737447617053746174E8
:106E90006543423A202564000E1D00200E030000C9
:106EA000E51C002030750000101D002070B505465F
:106EB0000C46224600212846FFF779FD70BD70B5CB
:106EC00005460C46224640212846FFF770FD70BD5E
:106ED0000FB410B504A9074B02AA039800F0F6F806
:106EE000044602A9002000F08DFC204610BC08BC1E
:106EF00004B018470578FF1F2021020C01D0102193
:106F00001046020A01D010460839020901D0104685
:106F1000091F820801D01046891E420801D0881E30
:106F20007047081A7047000000487047F0200020A2
:106F300002E008C8121F08C1002AFAD17047704742
:106F4000002001E001C1121F002AFBD170470000A0
:106F5000F0B51FB486B00998089A030D00210243CA
:106F600014D05148514A181850430514119801285B
:106F700010981AD0281A401C00264D4F4D490096F3
:106F800001910490002812DA444211E01198012482
:106F900049A3012801D11098C1430698119A846031
:106FA0000360C26041600BB0F0BD4042E4E70446BC
:106FB000210500203F4A001C51410391029012E03C
:106FC000E00707D032463B4601990098FDF77CFE6A
:106FD0000191009032463B4610461946FDF774FE7B
:106FE00006460F466410002CEAD10498039B002843
:106FF000029A0999089806DAFDF766FE019B009A45
:10700000FDF762FE05E0FDF7C7FE019B009AFDF764
:10701000C3FE04460E460022284BFEF7C5F903D8EE
:107020000020C043014607E00022254B20463146A0
:10703000FEF7E8F8FEF798F9102409E0002C0ADBC7
:107040000A220023FDF754FC079B30321A55641EB8
:1070500002460A43F2D11122641C079B121B1C1921
:10706000119B012B03D0012308430ED10AE00843F2
:1070700004D0112010900020119077E71098151A75
:107080006D1E0BE01098824202DD00236D1C03E0B0
:10709000824201DA00236D1E002BEED00698119972
:1070A0008260C16030C07EE701FCFFFF104D000030
:1070B000000014400000F03F300000000000F043EA
:1070C0000000E03F0246116170470000FFB597B035
:1070D0000646002518E2252877D100242746FD49D9
:1070E000049400E00443761C32780120203A90405A
:1070F0000842F7D130782A280ED002223078014693
:107100003039092916D804990A23594330394018CF
:107110001443761C0490F1E7189802C80491189063
:10712000002904DA0120400304434842049002206D
:107130000443761C30782E2814D104200443707840
:10714000761C2A2809D11898761C80C8189009E066
:107150000A214F43303FC719761C30780146303939
:107160000929F5D930786C2810D006DC4C281AD0C3
:1071700068280ED06A2817D104E0742813D07A2822
:1071800012D110E00120400504430CE00121090563
:1071900001E0032109050C437178814203D10120EC
:1071A00000052418761C761C3078119066280BD0C8
:1071B00013DC58287DD009DC00287BD04528F6D088
:1071C0004628F4D047281AD1A5E118E0632835D025
:1071D000642870D0652812D19DE170286CD008DC3D
:1071E0006728F1D069287BD06E280DD06F2806D192
:1071F000BAE073282ED0752871D0782859D01A9A01
:10720000199990476D1C7EE16002400F022809D059
:1072100003280DD00428189801680DD00D60001DBA
:10722000189070E11898EA1701680D604A60F6E757
:10723000189801680D80F2E70D70F0E718986A461B
:1072400001781172001D18900020507202A8009061
:10725000012005E0189802C8189000200091C04352
:1072600061070DD5002101E00199491C0191B94246
:1072700012DA8142F8DB009A515C0029F4D10BE06C
:10728000002101E00199491C01918142FADB019A38
:107290000099895C0029F5D1019904981A9B471A35
:1072A00021463846199A00F097FA01994019451875
:1072B0000BE04FE02CE113E04EE0009800990078DD
:1072C000491C00911A9A199990470198401E019003
:1072D000401CF2D1214638461A9B199A10E137E03A
:1072E0000A200021009001916002410F022907D07D
:1072F000189A01CA1892C2179446032908D00AE0C6
:107300001898C01DC108C90005C91891944607E026
:1073100000B2C2179446042902D140B2C1178C466C
:1073200000226146944506DA0A4600214042914116
:107330008C462D2102E0210504D52B216A461173CC
:10734000012103E0E10701D02021F7E7029155E098
:107350000A200AE0102008E01020009000210420FC
:1073600004430191082703E00820002101910090C7
:107370006002410F022907D0189A01CA1892002210
:107380009446032908D008E01898C01DC108C90018
:1073900005C91891944603E080B2042900D1C0B217
:1073A00000210291210729D51199702906D0009A50
:1073B0001021019B4A401A4305D00EE040216A4645
:1073C0001173012108E06146014306D030216A466D
:1073D00011731199517302210291009A0821019BA6
:1073E0004A401A430AD16146014301D1610705D5DC
:1073F00030216A46117301217F1E0291119958298B
:1074000004D035A10E910DA90D910DE037A1F9E73A
:107410006146019B009AFDF76BFA0E9B8C469B5CC4
:107420000D9A521E0D92137061460143F0D10D98D2
:1074300005A9081A20300190600703D50120000437
:10744000844300E001270198874201DD381A00E0FB
:107450000020019900904118029809180498401AD8
:107460000490E00306D421461A9B199A049800F070
:10747000B3F94519002706E003A81A9AC05D1999C7
:1074800090476D1C7F1C02988742F5DBE0030CD50A
:1074900021461A9B199A049800F09EF9451904E0B8
:1074A0001A9A3020199990476D1C0099481E009037
:1074B0000029F5DC08E00D980D990078491C0D9124
:1074C0001A9A199990476D1C0199481E019000293C
:1074D000F1DC63E1092801003031323334353637CD
:1074E0003839616263646566000000003031323310
:1074F00034353637383941424344454600000000B0
:1075000000F05AF94519761C3078002800D0E2E5E1
:1075100028461BB0F0BD600700D406271898C01D90
:10752000C108C90048680A680831C30FDB07189111
:10753000190001D09CA108E0210501D59BA104E020
:10754000E10701D09AA100E09AA1430011985B08DD
:10755000109165280CD006DC452809D046281DD09E
:10756000472841D141E0662818D067283CD13CE04B
:107570000021112F01DB112000E0781C0191009007
:1075800008A911A8FFF7E4FC139905910021119AAD
:1075900015927F1C12980197009150E00120C007BE
:1075A00003900120019008A9009711A8FFF7D0FCD3
:1075B000139A149905920022119B00921298159328
:1075C000059A0192002901D0104602E0791C40186A
:1075D0000190381A01D5019804E04042401E009005
:1075E000781C0190C01B029043E0012F00DA0127B4
:1075F0000021112F01DD112000E03846019100909B
:1076000008A911A8FFF7A4FC13990591119A00216C
:10761000129815920091019721070CD40599B9424F
:1076200001DB019900E00191012904DD159A491E51
:10763000515C302906D0B84201DA011D05DA01217A
:10764000029115E00199491EEDE7002805DC00993B
:10765000411800910199091A03E0019A411C9142D5
:1076600000DD01910099401A401C02900120C007E2
:107670000390200706D402990198814202DB002082
:10768000C043029000206946C87707AF01210398E4
:107690000337C907884224D0022011902B20129072
:1076A000039800280CDA404203902D20129007E046
:1076B0000A210398FDF74AFF30317F1E039039708D
:1076C0001199481E11900029F2DC03980028EFD18F
:1076D000791E129808703078202108404530BF1E6E
:1076E000387006A8C01BC01D0390109800780028B1
:1076F00000D00120019941180298C0170918039879
:1077000009180498401A401E0490E00306D421464C
:107710001A9B199A049800F05FF8451910980078A0
:10772000002803D01A9A199990476D1CE00324D5BC
:1077300021461A9B199A049800F04EF845191CE04E
:107740000098002807DB00990598884203DD15980A
:10775000405C199901E0199930201A9A90470098D5
:107760006D1C401C00900298401E0290002804D11D
:107770001A9A2E20199990476D1C0199481E019064
:107780000029DDDC05E038781A9A7F1C19999047AA
:107790006D1C0399481E03900029F4DC21461A9BB6
:1077A000199A0498ACE600002D0000002B000000A0
:1077B0002000000000000000F8B5044600251E4629
:1077C0001746880404D405E039462020B0476D1CD4
:1077D000641EF9D52846F8BDFFB50446002581B0E2
:1077E0001E46C80301D5302700E02027880404D5B1
:1077F00005E038460399B0476D1C641EF9D528464C
:1078000005B0F0BD0A68531C0B601070704710B5CE
:1078100002211D20FFF7A4F910BD000030B58BB088
:1078200004464B48047001210A9107210991002167
:10783000089101210791142106911E210591002133
:107840000491FF21F531039142A103C902910190F6
:1078500001AA06214148FEF72BFB09AA0121C320FA
:107860008000FEF725FB0AAA01213C48801FFEF795
:107870001FFB08AA02213948401FFEF719FB384AAE
:107880000C216120C000FEF713FB364A0721334864
:10789000001FFEF70DFB07AA012131200001FEF7B2
:1078A00007FB06AA02212D48801DFEF701FB05AA51
:1078B00002212A48C01DFEF7FBFA04AA022127482C
:1078C0000830FEF7F5FA03AA0221C5208000FEF772
:1078D000EFFA254A15210020FEF7FCFFFF25913520
:1078E00029460620FDF750FE29460720FDF74CFEED
:1078F00029460820FDF748FE29460920FDF744FEE9
:107900000020C043FEF7D2FF0020C043FEF7D2FCA8
:10791000FDF7D2FF154808F01FFA05F043F900F013
:107920007FF901210A480078FDF770FE04F080FD20
:107930000F4801F0F3FA0F4806F0F8F906F02EFDB3
:1079400000F0CAFA002004F061FC0BB030BD00006A
:10795000E41C002001020304050600000B030000E4
:10796000E61C0020F21C0020F91C002045FDFF1F32
:10797000B9C8FF1FE5C9FF1F70B506460C460120B8
:10798000C0032040002810D042480078FDF714FEC4
:10799000051E05D0284600F08BF82846FDF712FE9C
:1079A00020460121C903484070BDE007C00F0028F0
:1079B00009D03948FEF726FC3848FEF71BF8204668
:1079C00001214840F0E704202040002805D000F0C5
:1079D00089F9204604214840E6E70220204000289B
:1079E00006D0002007F0EAFB204602214840DBE7F2
:1079F00008202040002806D0002006F0D7FC2046B2
:107A000008214840D0E720202040002805D000F081
:107A10007DFA204620214840C6E7802020400028EB
:107A200012D000F00BFA002801D0012000E0022063
:107A3000054629461AA005F007F9284606F086FAF9
:107A4000204680214840AFE740202040002806D053
:107A5000032006F07BFA204640214840A4E701209D
:107A600040022040002806D004F0C8FD2046012135
:107A70004902484098E7012080022040002806D0B3
:107A800003F010FD20460121890248408CE70020C8
:107A90008AE70000E41C0020141D0020F0000020F4
:107AA000626174745F6576745F742025640A0000F7
:107AB00070B504462078B12810D109A005F0C4F8AB
:107AC00025462889022808D10BA005F0BDF81148E9
:107AD000017811480088FEF74DFE00BF70BD000020
:107AE000474154545F534552565F4D53475F455687
:107AF000454E540A00000000496E64696361746574
:107B00002073657276696365206368616E67650AD4
:107B100000000000E41C00200E1D0020FEB50446FD
:107B2000002718480122D20300230568416828462F
:107B3000FCF7DEFE009001A806F0F2F8114880681C
:107B40000199884204D90098FF30FF30023000903C
:107B50000198C00B0099401800906846FDF738FA6C
:107B60000746387C401C2071B88A07494018E080DD
:107B7000387BE070387AA07038796070387820707F
:107B80000020FEBDE84500206C070000F1B584B080
:107B900001A806F0C5F80498FCF718FF0026054672
:107BA000294614A005F050F80121C90300202C46F5
:107BB00037460391029020463946029B039AFCF710
:107BC000C7FE05460E46314600220198281A91410B
:107BD000094A03C208490198886008A005F034F8F2
:107BE0001021054805F064F90CA005F02DF805B04A
:107BF000F0BD000025780000E84500206170705F4E
:107C00006461746574696D655F61646A7573745FDE
:107C1000626173656C696E653A0A00000A000000D3
:107C200010B500F0C5F9024801F06CF910BD000074
:107C30003075000003B58FB02C2104A8FCF725FF98
:107C400010A80078401E089010A840881649401AD5
:107C5000099008A8C07F079008A8807F069008A810
:107C6000407F059008A8007F049010A004F0ECFF6E
:107C700008A8017F427F807F01920291009008A8AE
:107C8000C37F10A8027841880DA004F0DDFF04A88E
:107C9000FFF77CFF1021114805F00AF910A004F04D
:107CA000D3FF002011B000BD6C0700000A617070A6
:107CB0005F6461746574696D655F7365743A0A0029
:107CC00054696D652069732025642D25642D256414
:107CD0002C2025643A25643A25640A00E8450020F2
:107CE0000A00000008B500200090684606F018F869
:107CF0000C488068009988420AD90A48016840689F
:107D000001231B060022C9185041064A1160506029
:107D1000044900988860044801F0F4F800F0CEFBB4
:107D200008BD0000E84500203075000010B5FDF7E3
:107D3000DFFC0120FDF7E2FCFDF7E6FC002010BDB2
:107D4000F0B500248E464A1E12E0714600230D1B3A
:107D50006D1E0AE09E0031188C46875949688F4293
:107D600002D9815161464F605B1C9D42F2D8641C70
:107D70009442EAD3F0BD0000FEB50746194C3868BE
:107D800001282ED1397B00230122B86802F042FF7E
:107D90000546FDF779F8A060A068FDF7C8F805462C
:107DA000114A124BFCF790FF01910090FDF7D3F8B8
:107DB000A060A068FDF78EF87D21C900484360608F
:107DC0000B49A068FCF704FF0646FDF783F805465B
:107DD000294608A004F038FF40210C480078FDF740
:107DE00015FCFEBD9C3D0020CDCCCCCCCCCC1240B3
:107DF00000007A44626174745F6D656173757265C9
:107E00005F6576742025640A00000000E41C0020F1
:107E100038B5084800680090074A0320009902F02E
:107E2000F3FD0446002C01D0204638BD02F080FE50
:107E30000020FAE714010020797DFF1F0148007837
:107E4000704700009C3D002070B505460C46214659
:107E50000FA004F0F9FE002C0CD113480078002884
:107E600014D1012010490870802110480078FDF7D6
:107E7000CDFB0BE00C480078002807D000200A4911
:107E80000870802109480078FDF7C0FB70BD000034
:107E9000626174745F6368617267655F6576745F61
:107EA00068646C2025640A009C3D0020E41C0020CE
:107EB00010B500210B2002F0CDFF064A11460C2020
:107EC00003F0CEF80446002C01D0204610BD00205F
:107ED000FCE70000497EFF1F10B508A004F0B4FEC7
:107EE00009480021016041608160FFF7E1FFFF2048
:107EF000F53000F025F8002010BD000062617474B8
:107F00005F696E69740A00009C3D002010B500F0A6
:107F100007F8024800F014F810BD000030750000AA
:107F200010B503A004F090FEFFF772FF10BD000033
:107F3000626174745F6D6561737572650A0000003B
:107F400010B504462246202102480078FDF74CFB7C
:107F5000002010BDE41C002001488068704700002C
:107F60009C3D002001484068704700009C3D002077
:107F700010B50020054CFF212218401C51704028EC
:107F8000FADB05F081F9207010BD0000F8450020F3
:107F900010B50020054CFF212218401C5170062806
:107FA000FADB05F08FF9207010BD0000E5200020FD
:107FB00010B58EB003A802F0B5F8049A039905989D
:107FC0000192029100900798421C064C08980119F2
:107FD00005A0069B04F038FE03A8FFF7D7FD0EB0FE
:107FE00010BD00006C070000636865636B5F64652B
:107FF0006661756C745F6461746574696D650A545B
:10800000696D652069732025642D25642D25642CF8
:108010002025643A25643A256400000010B5024624
:108020000B460021002000BF03E0545C60404C1C64
:10803000E1B29942F9DB10BDF0B58646080CFF2687
:108040008446002388B237461C46194601228A40DE
:1080500005461540CD402C19A4B2FF2F02D1012CAA
:1080600000D18FB265462A40CA40D21893B2FF2E83
:1080700002D1012B00D18EB2491C1029E6DB012C64
:1080800002D0102C08D009E0012B07D13001C01913
:10809000714608700220F0BD102B01D00320F0BD06
:1080A0000120F0BD10B528210148FCF7EEFC10BD01
:1080B00060400020032800DA7047012189078968A1
:1080C00001228240914301229207916000BFF3E7B1
:1080D000032800DA7047012189078968012282405C
:1080E000114301229207916000BFF3E70148006845
:1080F000704700001010FF1F012189070968012245
:1081000082409143012292071160114609680122C1
:1081100082401143012292071160704770B50446F6
:108120000D4600222946204600F056F970BD70B574
:1081300004460D4600F0F5FE0F222946204600F0C9
:108140004BF970BD70B504460D4600F0ECFE002200
:108150002946204600F040F970BD000070B5044685
:108160000D4601200349087000222946204600F0F0
:1081700033F970BDC81D002070B504460D460020BF
:108180000349087000222946204600F025F970BDF9
:10819000C81D002030B585B004460D4603A8FFF782
:1081A000BDFC21786846017061784170408A7D216C
:1081B0000901401AC1B268468170017CC170C17B5F
:1081C0000171817B4171417B8171017BC17108210A
:1081D000FFF724FF694608720921684600F0E4F8B9
:1081E00005B030BDF8B504460F462646B178F078A4
:1081F00004F00CF90546002D00D100E00A200546E8
:10820000EAB23946204600F0E7F8F8BD70B50446FA
:108210000D4600222946204600F0DEF870BD000021
:10822000F3B585B005462E46324C6068049006983A
:10823000001FC0B20390B0788006800E0290B07824
:108240008709607A0190002F01D0012F22D180216F
:108250000498FCF71AFCF11C039A0498FCF7FCFB49
:10826000029820700398607000206072002F09D17E
:10827000607204F0CDFA00222846069900F0ACF8AE
:1082800007B0F0BD0120607201222846069900F077
:10829000A3F8F5E7019800282AD0217802988142B6
:1082A00007D0002020700A222846069900F094F892
:1082B000E6E7627804995018F11C039AFCF7CCFBAE
:1082C0006178039808186070022F09D1002060724D
:1082D00004F09EFA00222846069900F07DF8CFE7C8
:1082E0000120607201222846069900F075F8C7E760
:1082F0000020C5E7103D002010B586B00446217867
:10830000684601716178417101218171002101A8E4
:10831000C17002210171012168464172002101A84A
:10832000817101216846C172002101A8017203A96F
:108330000131C1208000FDF7ABFB132101A8FFF73D
:108340006DFE6946C875142101A800F02DF806B02D
:1083500010BD00007CB504460E46FFF703FE85B253
:1083600029460BA004F070FC217868460170617802
:108370004170857028126946C87004216846FFF76D
:108380004DFE694608710521684600F00DF87CBD78
:10839000636D645F726561645F626174745F766F60
:1083A0006C743A2025780A0070B5BEB006460D46BA
:1083B000F8216846FCF769FB69468D70002404E0EB
:1083C000315D00A803300155641CAC42F8DB6846FF
:1083D00007F0FEFC3EB070BD70B5C0B004460D465F
:1083E0001646207869460871012D01DD607800E0AD
:1083F00000206946487168468671032101A8FFF78D
:108400000DFE01466846C171F82102A8FCF73DFB4C
:108410000421684681720179C172417902A8017113
:108420006846817902A841716846C17902A88171C4
:1084300007F0CEFC40B070BDF0B587B004460F46E3
:108440000026254605A8FFF769FBA8787D210901CC
:10845000411868464182E97801742979C1736979C4
:108460008173A9794173E9790173017B427B807B38
:108470000192029100906846C37B027C418A07A06A
:1084800004F0E2FB04990398FFF7D4FB0646F2B22E
:1084900039462046FFF7A0FF07B0F0BD636D645F6B
:1084A0007365745F74696D653A2025642C25642CAE
:1084B00025642C25642C252C25640A0000B585B084
:1084C00003A8FFF72BFB6846017B427B807B019270
:1084D000029100906846C37B027C418A02A004F0AE
:1084E000B3FB05B000BD000054696D6520697320C1
:1084F00025642D25642D25642C2025643A25643AB5
:1085000025640A00FFB583B00F461D460D9E0C9CE6
:10851000002002907868007879684978090240184C
:1085200080B20190714A0198811A904268D00ADCA9
:108530006F49401800280FD0012822D0022835D0DA
:10854000032872D147E0012973D002296FD0032993
:108550006ED02929F5D1ABE0082C02D30720029078
:108560000EE00820001BB04201D9304601E008208F
:10857000001B28702A785F4801190598FCF7ECFF6A
:10858000B0E00C2C02D3072002900EE00C20001B60
:10859000B04201D9304601E00C20001B28702A7837
:1085A000554801190598FCF7D7FF9BE00D2C02D325
:1085B000072002900EE00D20001BB04201D930468A
:1085C00001E00D20001B28702A784C4801190598FD
:1085D000FCF7C2FF86E0112C02D3072002900EE0C8
:1085E0001120001BB04201D9304601E01120001BD0
:1085F00028702A78424801190598FCF7ADFF71E010
:10860000112C02D3072002900EE01120001BB04273
:1086100001D9304601E01120001B28702A78394822
:1086200001190598FCF798FF5CE056E001E015E0C1
:1086300029E0112C02D3072002900EE01120001B2C
:10864000B04201D9304601E01120001B28702A7881
:108650002D4801190598FCF77FFF43E0112C02D348
:10866000072002900EE01120001BB04201D93046D5
:1086700001E01120001B28702A7824480119059870
:10868000FCF76AFF2EE00E2C02D3072002900EE0CA
:108690000E20001BB04201D9304601E00E20001B25
:1086A00028702A781A4801190598FCF755FF19E037
:1086B000072C02D3072002900EE00720001BB042D7
:1086C00001D9304601E00720001B28702A781148A4
:1086D00001190598FCF740FF04E0002028700A20EB
:1086E000029000BF00BF029807B0F0BD272A00002B
:1086F000DDD5FFFFAD19002098FFFF1FA5FFFF1F6D
:10870000B3FFFF1FC5FFFF1FD7FFFF1FE9FFFF1FBD
:10871000FBFFFF1FBD19002070B50446264609481F
:10872000855DFF2D00D170BD0021284602F0C6FAFC
:108730000021284602F056FB0021284602F08AFB61
:1087400000BFF0E734010020F7B584B03A4F684627
:10875000808A80B203906846C08A85B22946EA17AB
:10876000520F5218D210D200AA1A2ED16A461A20DD
:10877000105EC217520F1218D210D200821A24D1E2
:10878000002418E000260FE000212846EA17520FC7
:108790001218D2101219D2019319039A9A183B4653
:1087A00012339954701C86B269461820085EB04294
:1087B000EADC601C84B26A461A20105EC117490FB9
:1087C0000918C910A142DDDC25E06846008B80B2A3
:1087D00002906846408B80B201906846808A80B2E1
:1087E00003906846C08A85B2002410E0002609E0A4
:1087F000621911B2039AB21810B20022FEF742FABF
:10880000701C86B202988642F2DB601C84B201982A
:108810008442EBDB00BF3889401C3881082205A95F
:1088200038460A30FCF718F9082205A90498FCF725
:1088300013F907B0F0BD000064410020FFB589B016
:108840001E460A98049000273046FCF763FF80B26A
:1088500003900B98002806D0012806D0022806D0E5
:10886000032808D105E09B2407E07C2405E0872449
:1088700003E0912401E07C2400BF00BF0021684692
:108880008183C183018441848182C18201834183C8
:10889000002722E0F55D302D01DB392D06DD68462D
:1088A000008A083001B26846018214E02846303858
:1088B000001982B201A8049900F078F80299019891
:1088C000069105906846018A008B401C081801B289
:1088D0006846018200BF781C87B203988742D9DBC3
:1088E0006846018D8183418DC183018A491C008DB9
:1088F000081A01B268460184418BC08A091868468B
:10890000C08B081A01B268464184082207A9099859
:10891000FCF7A2F80DB0F0BDF7B582B06846008A4A
:1089200080B201906846408A80B2009068460C266A
:10893000865F0E27C75F00250FE0002408E0EA19D4
:1089400011B2A21910B20122FEF79CF9601C04B208
:1089500001988442F3DB681C05B200988542ECDB89
:10896000082203A90298FCF777F805B0F0BD0000D3
:1089700037B582B005461446002168460180418023
:108980008180C180B22C06DD082269462846FCF7AA
:1089900063F805B030BDA00003490A582846039982
:1089A00000F022F800BFF4E7EC1D002037B582B0DC
:1089B0000546144600216846018041808180C180BF
:1089C000B22C06DD082269462846FCF745F805B0BA
:1089D00030BDA00003490A582846039900F0B6F8B4
:1089E00000BFF4E7EC1D0020F7B588B017465648E5
:1089F0000790387804907E7868462421415E039180
:108A00002621415E029100218182C182018341833E
:108A10006A462621515ECA17520F5218D210D20050
:108A20008A1A50D13046F217520F1218D210D200C3
:108A3000B21A48D100243FE0002538E06B462621D9
:108A4000595ECA17520F5218D2101219002A2CDB85
:108A500024229A5E5219002A27DB24229A5E521998
:108A6000802A22DC6A462620105EC217520F121896
:108A7000D2101219102A18DC204604994843001D10
:108A80004019395C68462622825ED0170192420F57
:108A900001981018C0100019C0014219684624231B
:108AA000C35ED218079812308154681C05B204982E
:108AB0008542C3DB601C04B2F117490F8919C91044
:108AC000A142B9DC1CE0002418E0002511E03B1DA8
:108AD00021462846049AFDF7B3FE0190029AA21897
:108AE00011B2039AAA1810B2019AFEF7CBF8681CCB
:108AF00005B204988542EADB601C04B2B442E4DBB0
:108B00006946888C88822620085EC117490F09189B
:108B1000C910C900421A6946C98C891A0AB2694645
:108B2000CA82049800B20883F01DC117490F0918C2
:108B3000C910C9000AB269464A83082205A90898E3
:108B4000FBF78AFF0BB0F0BD64410020F7B586B09B
:108B5000144627786078039068461C21415E029194
:108B60001E21415E01910021018241828182C182E8
:108B7000002617E0002511E0231D3A46314628461D
:108B8000FDF75EFE0090019AB21811B2029AAA187F
:108B900010B2009AFEF7A4F8681C05B2BD42EBDBE8
:108BA000701C06B203988642E4DB6946888B088213
:108BB0001E20085EC117490F0918C910C900421AC2
:108BC0006946C98B891A0AB269464A8238B28882D4
:108BD0000399C81DC117490F0918C910C9000AB265
:108BE0006946CA82082204A90698FBF735FF09B036
:108BF000F0BDF7B588B014462078059060780490F1
:108C0000E77868462421415E03912621415E029166
:108C1000002F00D1059F0021684601834183818395
:108C2000C183002517E0002611E0231D29463046A8
:108C3000059AFDF71CFE0190029AAA1811B2039A38
:108C4000B21810B2019AFEF74BF8701C06B2BE4281
:108C5000EBDB681C05B204988542E4DB6946888C2E
:108C600008832620085EC117490F0918C910C900DA
:108C7000421A6946C98C891A0AB269464A8338B2CF
:108C800088830499C81DC117490F0918C910C90064
:108C90000AB26946CA83082206A90898FBF7DCFED7
:108CA0000BB0F0BD1FB50E4C03F0ECFA0D49204699
:108CB000FBF7EBFE0020208020810B4805F092F9A5
:108CC00060600021684601814181802181814021CD
:108CD000C181039A0299FFF737FD00F03FF81FBDED
:108CE00064410020140400000020031110B5034C5F
:108CF00003F040FB0020208010BD000064410020F4
:108D000010B5034C03F04AFB0120208010BD000089
:108D1000644100201CB5104C002168460180418050
:108D2000802181804021C1802089012805D108222D
:108D300021460A316846FBF78FFE2246123201991E
:108D4000009803F03FFB0020208160810021A18179
:108D5000E18121821CBD0000644100201CB50B4C48
:108D60000021684601804180802181804021C180AE
:108D7000224612320199009803F024FB0020208142
:108D800060810021A181E18121821CBD644100201C
:108D9000F7B592B0164637462B48079013980690C1
:108DA00000216846018241828182C1820181418124
:108DB0008181C18125E011A9384606F00CFF85B2FA
:108DC000002D00D11EE07F19079908AA486810A954
:108DD000898805F00DFA0446002C00D011E008AA9D
:108DE00068460699FFF705FF0199009803910290E4
:108DF0006846018B8089401C081801B268460183CF
:108E000000BFD8E700BF10A881896846018210A87A
:108E1000C18968464182018B491C10A88089081AC3
:108E200001B268468182C189408909186846408A32
:108E3000081A01B26846C182082204A91298FBF7F9
:108E40000BFE15B0F0BD000064410020F7B590B0F6
:108E5000154600242A4F1198069000216846018289
:108E600041828182C182018141818181C18100BFB2
:108E700022E06000285A002800D11FE06200A95AB1
:108E800007AA786805F0B4F90646002E00D011E074
:108E900007AA68460699FFF7ACFE0199009803916E
:108EA00002906846018B8089401C081801B2684610
:108EB000018300BF601C84B2142CDADB00BF10A851
:108EC00081886846018210A8C18868464182018B6A
:108ED000491C10A88088081A01B268468182C1899D
:108EE000408909186846408A081A01B26846C1825A
:108EF000082204A91098FBF7AFFD13B0F0BD0000E5
:108F00006441002010B5044622460421024800783E
:108F1000FCF76AFB10BD0000E41C002001460020A5
:108F200070470020704700207047FFB587B00C469F
:108F300016461F46082F05D12046062148432230F9
:108F4000C5B204E02046062148432130C5B21C22A8
:108F500000216846FCF706FB6A461C21284603F000
:108F60007FFD00280ED16846807E07280ADB684610
:108F7000807E102806DCF107C90F6A46109B07980F
:108F8000FCF7CEFB0BB0F0BD70B5054600240DE03C
:108F90000E216143074A881806222946FCF7C6FBC2
:108FA000002801D0204670BD601CC4B20A2CEFDB43
:108FB0000A20F8E7EC3B002070B5054600240EE0DF
:108FC0000E216143084A8918881D06222946FCF7AC
:108FD000ADFB002801D0204670BD601CC4B20A2C35
:108FE000EEDB0A20F8E70000EC3B00207FB50446EA
:108FF0000D460A2C01DA002D02D1022004B070BD0A
:109000002146062251432031C8B26A460E2103F0A0
:1090100027FD0646002E04D1062269462846FCF7A5
:109020009BFA3046EAE71FB5044621460622514323
:109030002031C8B26A460E2103F012FD002804D187
:1090400068468089C0B204B010BD0020FBE701462D
:1090500000200DE082008A5AD2438300CA52820067
:1090600052189278D24383005B189A70421CD0B297
:109070000428EFDB70477FB5054600241CE021463D
:10908000062251432331C8B26A46102103F0E8FC9E
:1090900000280FD11022FF216846FCF769FA00284A
:1090A00008D129466846FCF747FB002802D1204634
:1090B00004B070BD601CC4B20A2CE0DB0A20F7E7E4
:1090C00070B5054600240A480078002801D0012028
:1090D00000E00020044307480078002801D0042065
:1090E00000E00020044321462846FCF72BFB70BD1E
:1090F0005F1B00205C1B002008B50E48007800288C
:1091000015D0012802D0022810D10CE001200090D7
:1091100009480388094802880948018809480088E5
:10912000FCF786FE04E0FDF781F801E000BF00BF18
:1091300000BF08BD601C0020581C0020561C0020E9
:10914000541C0020521C0020F8B504460026A078CC
:109150000300FCF71FFA0805FE214A4B8FE3FDFED2
:1091600025466F78002F10D10622E91CA748FCF78E
:10917000F3F90120A6490870A64BA74802780121FF
:10918000A6480078FCF748FA0746002F02D00720CF
:109190009F490870012625E12546687800281CD1E2
:1091A000E878002809D09E4B9E48027800219B4811
:1091B0000078FCF731FA68700FE0954800780228D3
:1091C0000BD0012195480078FCF72CFA002804D137
:1091D000012192480078FCF719FA6878002803D03A
:1091E00007208B4908700126FCE000BF25466878FF
:1091F00000283AD1A07803280BD1854800780528AB
:1092000003D106208249087032E0022080490870AC
:109210002EE08548008800280BD08448007800287C
:109220000AD08148028801217C480078FCF7DCF9EB
:1092300002E000207D49087075480078062803D1B7
:1092400005207349087013E071480078042808D19C
:10925000012076490870012170480078FCF7D6F9A2
:1092600006E003206A49087002E007206849087098
:109270000126B7E025466878002840D10622291D3E
:109280006B48FCF769F968896A490880A8896A49C6
:109290000880E8896949088005205D4908706848A8
:1092A0000088002806D06648028802215B480078C2
:1092B000FCF79AF9A88963490880E889624908801F
:1092C000288A624908806248007801280DD11F2051
:1092D000FCF766F907467D20C0007843024604216A
:1092E0004E480078FCF780F900BF6A89E8780423CB
:1092F000291DFCF701FB00204C4908700CE0687840
:10930000312806D1002049490870032040490870DF
:1093100002E007203E490870012663E02546062248
:1093200000214348FCF71EF90020464908804649C1
:10933000088046490880042138480078FCF75AF92B
:10934000082136480078FCF755F9A879082801E08B
:109350001FE046E003D104202D49087002E00320FD
:109360002B490870012631480078002804D02B488A
:109370000078FCF745F907E001202C49087001212D
:1093800026480078FCF742F90020C04329490880AC
:1093900028E02546082121480078FCF72BF9687859
:1093A00000281DD1E8882749088028892649088097
:1093B000688926490880042118480078FCF732F9AA
:1093C00000280DD123480068002809D021480068F2
:1093D00003681E4802881C4801881A48008898477C
:1093E00000E000BF00BF012E0ED11B48006800281E
:1093F0000AD0194800680068002805D0164800689F
:109400000168034800788847F8BD00000C1C002064
:10941000051C0020171C0020161C0020041C002026
:10942000B83C0020361C0020141C0020121C002018
:109430004A1C0020421C0020441C0020461C002026
:10944000481C00205A1C00205C1C00205E1C0020D0
:10945000501C0020681C0020641C0020F8B5044645
:109460002078912804D0A22841D0D02861D13AE0B8
:1094700060780E2828D12546A8882F49884217D120
:10948000A868C07846B22D48007805280FD17F2EF5
:109490000DD02B480068002809D029480068406892
:1094A000002804D0264800684168304688470AE012
:1094B000A8882449884206D1A86883784278017830
:1094C00021A003F0C1FB0DE060780F2801D12046F8
:1094D00008E060783E2805D120468178072900D031
:1094E00000BF00BF26E02046FFF72EFE22E0254603
:1094F000687913281CD12E460836308801280BD1F4
:1095000016480078022807D1082115480078FCF792
:1095100071F8FCF78BFE0AE00520FCF741F80746DE
:109520003A4608210E480078FCF75EF800BF00BFFD
:1095300000E000BF00BFF8BD05140000051C0020BE
:10954000641C0020222000005B48434920444C4515
:109550005D25642025642025640A0000601C00202D
:10956000041C00201CB506480649074B0022009148
:1095700001900648017806480078FCF76DFE1CBD96
:10958000081C0020A83C0020983C0020061C00205D
:10959000041C00207CB504461E4800881E4909882A
:1095A000884211DB1B4800881C49098888420BDC73
:1095B0001B4800881B490988884205D11A48008841
:1095C0001A490988884223D00520FBF7E9FF0546A0
:1095D000114801886846018010480188684641802A
:1095E0001048018868468180104801886846C1801B
:1095F0000F48027869460F480088FCF7A9F80E4822
:1096000004702A4608210A480078FBF7EDFF00BFE6
:109610007CBD00005A1C0020521C0020541C00205D
:109620005C1C0020561C00205E1C0020581C0020E2
:10963000041C0020421C0020601C0020F8B50646D7
:109640000F46304600F046F80446002C06D111487B
:1096500000F040F80446002C00D02680002C17D0E3
:10966000002511E0F82068436168085A002809D1F4
:10967000F821694362685018F8223946FBF76CFFFD
:109680000020F8BD681CC5B2034800788542E9DBBC
:109690000920F6E7FFFF0000001B002070B505461B
:1096A000284600F037F80446002C00D170BDA068B1
:1096B000FCE703460A46002108E08800105A984259
:1096C00002D1880080187047481CC1B20229F4DB1F
:1096D0000020F8E70246002109E0C800064B185AAE
:1096E000904202D1C800C0187047481CC1B201297D
:1096F000F3DB0020F8E70000F81A002070B50546FB
:10970000284600F007F80446002C00D170BD206800
:10971000FCE7000002460648016805E088889042A0
:1097200001D18868704709680029F7D10020F9E75E
:10973000041B002070B505462846FFF7EBFF0446E2
:10974000002C00D170BD6068FCE70000F3B581B06B
:109750000C46012C07D0022C29D101210198FBF7DE
:10976000FDFF002823D10198FFF7B4FF0546002D27
:1097700018D000260EE0F820704369680F1838886A
:10978000002800D10AE0F82200213846FBF7EAFE63
:10979000701CC6B2064800788642ECDB00BF002091
:1097A000C043288003490198FCF7C4FD00BFFEBDFB
:1097B000001B00200A1B002070B50446044D05481C
:1097C0000088288060882946FBF7CEFF002070BD06
:1097D000E23A0020EE10FF1FF3B585B0054628469B
:1097E0000830049000276888FFF774FF0646002EB3
:1097F00035D00020039029E07168F8220398504387
:109800000C182088002800D125E004980078012851
:1098100011D160880090237921886888621D0290A8
:10982000FCF7D1FF0746002F05D0002104980170F6
:10983000218806980180F82200212046FBF792FE3D
:10984000002020800398401CC0B20390084909788A
:1098500003988842D0DB00BF0020C0433080002F37
:1098600002D16888FBF786FF384607B0F0BD0000DC
:10987000001B0020F3B585B007463D460835384C3F
:10988000162200212046FBF76DFE04A800902B79DC
:10989000698828886A1D0390FBF772FF064648E036
:1098A00030480078C01FC0B200212F4A00920191B9
:1098B000029078882D4B69460A8A3146FCF7BAFD3A
:1098C000002812D1E8792849097888420DD1264824
:1098D0000278264928460830FBF728FF002804D0E4
:1098E000718920788200A01C8152698803AB684688
:1098F000028A3046FBF7CCFE064620788100A01C89
:10990000405A002814D0002E09D068468189227858
:10991000501C20709200A01C1018418008E000210B
:10992000C9432278501C20709200A01C101841805E
:1099300000BF002E04D020780D4909888842AFDB93
:109940002078002806DD78882146FBF71FFF0020DD
:1099500007B0F0BD2988069801800A20F8E70000CA
:10996000E23A0020EC10FF1F081B0020EC39002019
:10997000F410FF1FF8B505460020009028790E2846
:1099800033D00CDC08281ED004DC022810D00628B6
:1099900049D112E00A281CD00C2844D11FE010281D
:1099A00029D012282DD0162831D018283BD134E0E8
:1099B0002846FFF701FF044637E069462846FFF7CF
:1099C00059FF044631E06946284600F077F904461D
:1099D0002BE06946284600F081FA044625E06946F6
:1099E000284600F07FF804461FE06946284600F04C
:1099F00003FA044619E06946284600F0A7F8044631
:109A000013E06946284600F0A1FA04460DE06946D5
:109A1000284600F02DF8044607E069462846FFF77F
:109A2000DBFE044601E0002400BF00BF002C0ED086
:109A3000687814280BD00C4E28793070684600885E
:109A40007080347168883146FBF7A6FE00BF284657
:109A5000FBF7A8FE05480068002803D02846034904
:109A600009688847F8BD0000E23A0020541B002036
:109A7000F3B583B00446264608360025308802A98F
:109A8000FBF700FE0746002F23D0387A202108403C
:109A9000002810D068460089FFF700FE0190019869
:109AA000002806D0608812223946019B9847054657
:109AB00000E00E2500BF002D0CD160883146FFF775
:109AC000BDFD0546002D05D160883146FBF770FECF
:109AD00000E00125002D02D031880498018028463D
:109AE00005B0F0BDF3B587B005462E460836308880
:109AF00005A9FBF7C7FD06900698002819D0114F5D
:109B000011480078401EC0B2718800970191029000
:109B100068887B1C04906846828A06990498FCF742
:109B200089FC0446002C03D168883946FBF746FEC1
:109B300000E00124002C02D03188089801802046E2
:109B400009B0F0BDE23A0020EC10FF1FF3B587B07A
:109B5000079807460837554C00250020059006A8B1
:109B600000903B79798838887A1D0490FBF708FECD
:109B700006467DE0317A079A5088FBF725FE05906E
:109B80000598002803D071890898018073E048483F
:109B90000078801FC0B20021464A009201910290D5
:109BA00007984088444B03906846028B31460398DF
:109BB000FCF740FC05900598002803D071890898AF
:109BC000018058E0002D04D13A480078001D6070F3
:109BD0000FE0617837480078001D814200D04AE0EC
:109BE00034480078291832480088801F814200DDFF
:109BF00041E0B17A28466A1CD5B2A21C1154708982
:109C0000001229466A1CD5B2A21C5054798804ABB4
:109C10006846028B3046FBF73BFD0646002E10D00F
:109C20006846008AC1B228466A1CD5B2A21C1154EB
:109C30006846008A001229466A1CD5B2A21C5054FC
:109C40000AE0FF2128466A1CD5B2A21C11542846FE
:109C50006A1CD5B2A21C1154A11C481915490A78D6
:109C60001549FBF779FC134800782818C5B200BFE6
:109C7000002E00D07EE700BF002D0CDD6178284665
:109C8000FBF75EFC2070079948882146FBF7A2FD90
:109C9000002009B0F0BD0598002801D10A200590E8
:109CA0003988089801800598F3E70000E23A00201F
:109CB000EC10FF1F081B0020EC390020F3B589B021
:109CC0000746384608300890464D089800880790A7
:109CD00000240020069067E005A80090089803790A
:109CE0004188421D0798FBF74BFD0646002E00D128
:109CF0005FE070890790317A7888FBF765FD069000
:109D00000698002800D054E037480078001FC0B201
:109D10000021364A0092019102907888344B0490D9
:109D20006846828A31460498FCF784FB06900698C0
:109D3000002800D03DE0002C04D12C480078801C85
:109D4000687006E0697829480078801C814200D05C
:109D50002FE026480078211823480088001F814200
:109D600000DD26E0B17A2046621CD4B2AA1C115450
:109D7000708900122146621CD4B2AA1C5054A91C3E
:109D800008191A490A781A49FBF7E6FB17480078C0
:109D90002018C4B217490798884200D109E00798F3
:109DA000401C80B2079000BF0F480088001FA042EF
:109DB00092DA00BF002C0BDD69782046FBF7C0FB70
:109DC000287078882946FBF70BFD00200BB0F0BD0A
:109DD0000698002801D10A2006900A990798088061
:109DE0000698F3E7E23A0020EC10FF1F081B002062
:109DF000EC390020FFFF0000F3B587B00646374678
:109E00000837324C002006902070002549E0690098
:109E1000785A04A9FBF736FC05900598002806D16E
:109E2000012006906800395A0898018042E02848CD
:109E30000078401EC0B20021264A00920191029093
:109E40007088254B03906846028A05990398FCF7B1
:109E5000F1FA06900698002804D06800395A08984C
:109E6000018027E020781B490978411818480088AC
:109E7000401E814206DD16480078401E2178401AB7
:109E8000144908702278611C501812490A78124946
:109E9000FBF762FB20780F49097840182070681C96
:109EA000C5B2B87DA84205DD217809480088401E6A
:109EB0008142ACDB00BF0698002803D170882146A0
:109EC000FBF794FC069809B0F0BD0000E23A0020D0
