:020000041101E8
:1020000003B40148019001BD8954FF1F03B4014886
:10201000019001BD19BCFF1F03B40148019001BD2F
:10202000D5A9FF1F03B40148019001BDED54FF1F66
:1020300003B40148019001BDADA9FF1F03B40148DD
:10204000019001BDBDA9FF1F03B40148019001BD6E
:1020500029A9FF1F03B40148019001BD7964FF1F46
:1020600003B40148019001BDBB54FF1F03B40148F4
:10207000019001BD8954FF1F03B40148019001BDC7
:10208000C16FFF1F03B40148019001BDBB54FF1F86
:1020900003B40148019001BD4108000003B40148A8
:1020A000019001BD4965FF1F03B40148019001BDC6
:1020B0006902000003B40148019001BD0755FF1FEC
:1020C00003B40148019001BD3164FF1F03B401480E
:1020D000019001BD9164FF1F03B40148019001BD4F
:1020E00051FBFF1F03B40148019001BD31D4FF1F14
:1020F00003B40148019001BD7181000003B401489F
:10210000019001BD6DD3FF1F03B40148019001BDD3
:1021100045D4FF1F03B40148019001BD29D4FF1F1E
:1021200003B40148019001BDB9FEFF1F03B401488B
:10213000019001BD0D65FF1F03B40148019001BD71
:10214000B563FF1F03B40148019001BD7164FF1F17
:1021500003B40148019001BD0FA9FF1F03B401485A
:10216000019001BD6DFEFF1F03B40148019001BD48
:1021700015FFFF1F03B40148019001BD3DFEFF1F85
:1021800003B40148019001BD8DFEFF1F03B4014857
:10219000019001BD3DFFFF1F03B40148019001BD47
:1021A000F1D2FF1F03B40148019001BD11D4FF1FFC
:1021B00003B40148019001BD29D3FF1F03B40148B6
:1021C000019001BDC1BAFF1F03B40148019001BDD8
:1021D000AD54FF1F03B40148019001BD21D4FF1F7E
:1021E00003B40148019001BDD501002003B40148AA
:1021F000019001BDE5010020F8B50F460C4D0146E8
:10220000E8881646052801D30A48F8BD1422504331
:10221000094A841810222046FFF7F2FE2782A6748E
:10222000E888401CE880082004F0B2F90020F8BDDE
:10223000602100202524000094950020FFB593B074
:102240001C4615460EA91C9F139800F0BFF90D906F
:10225000002843D1FFF7DAFE14980121C01C86B292
:1022600008A801728572290A41720473210AC17299
:102270008773390A41731D990174090AC17301A852
:10228000009009230AAA10210EA804F02DFE68462A
:1022900001797820134C464335194222515528467E
:1022A0002F4601A93230223710220131FFF7A8FE54
:1022B00005A9102201313846FFF7A2FE01200003D4
:1022C000A053139878214843001974301499FFF7EC
:1022D000A3FE13986867042004F05AF90D9817B00C
:1022E000F0BD000044900020F8B5944606460B4629
:1022F000032405202E4A2F4D002178274F43EF5B02
:10230000974201D1032C11D0B74210D10C462A4973
:102310008B4215D178204443601910226146801CFD
:10232000FFF780FE002800D00620F8BD0C46491CAF
:102330000329E2D32049491D8B4201D10420F8BD75
:10234000032CFCD01C4883421BD1A0B20023624660
:10235000314603F031FFA0B2002103F043FF7820A3
:1023600044436419204670300A21FFF761FE20467D
:1023700074300521FFF75CFE10498888401C888076
:1023800013E0A0B27821484340196030407B002818
:1023900001D00B20F8BDA0B201236246314603F004
:1023A0000BFFA0B2012103F01DFF0020F8BD0000CB
:1023B000FFFF0000449000204080000060210020CA
:1023C00070B5CA1C154694B27822074E5043801946
:1023D0007430FFF733FE78214C430448A119486755
:1023E000A8B200F005F870BD44900020FFFF000087
:1023F00070B5104B0C269A88012A19D978214843C8
:102400000D490E4C0D5AA54212D0521E0C520026F8
:102410009A8045183246703528460A21FFF714FE87
:102420000446401C04D0204604F02CF9621CF3E75B
:10243000304670BD6021002044900020FFFF000066
:1024400078235843034B0022C018406F0880104681
:10245000704700004490002070B504460848094EBB
:10246000094B0022782555435D5BB54204D0A54257
:1024700002D10A80002070BD521C032AF2D370BD25
:1024800021240000FFFF00004490002030B50346E7
:102490000B48002910D0002A0ED028246343094C91
:1024A000094D1B195C8CAC4205D0981C2033086088
:1024B00018791070002030BD01480F3830BD000081
:1024C0002224000004940020FFFF0000052807D20A
:1024D000002905D0074AD288904204D306487047A5
:1024E0000548401E704714225043044A8018086073
:1024F00000207047602100201224000094950020E5
:10250000024989780170002070470000B48F0020D4
:10251000024A0146527800200A707047602100206C
:1025200001228A4005490346497800200A4201D029
:10253000012100E000211970704700006021002097
:10254000024A0146927800200A70704760210020FC
:1025500010B500280AD0064A147913681B1B0360C3
:10256000002901D010790870002010BD014810BD6D
:10257000A88F00201324000000290BD0064AC007B2
:102580001268C00FD307DB0F834200D0521E002019
:102590000A60704701487047A88F0020132400008C
:1025A00030B578235843074B074D1C5A044AAC42B8
:1025B00004D0C0186030407B08700022104630BD47
:1025C0002124000044900020FFFF000070B5782215
:1025D0005043094A0B46145A084D0649AC4206D0EE
:1025E000811810221846891CFFF70AFD00210846B1
:1025F00070BD00002124000044900020FFFF000077
:10260000002804D00349098801800020704702484F
:1026100070470000B48F002013240000F0B500289C
:102620000AD0002908D00D4A0B88D288934200D9DD
:10263000134600220A4F0CE00A48F0BD142454430C
:10264000E419268A950046532D18A47C521CAC70C0
:1026500092B29A42F2D30B800020F0BD602100209C
:10266000949500201324000010B50B46082801D3D0
:10267000084810BD002B0AD0782148430649102293
:10268000411818464431FFF7BBFC002010BD01483B
:102690000F3810BD222400004490002010B50B46D6
:1026A000082801D3084810BD002B0AD078214843E0
:1026B00006491022411818463231FFF7A1FC0020CC
:1026C00010BD01480F3810BD2224000044900020A6
:1026D00010B50B46082801D30B4810BD002B0ED0B7
:1026E0007821484309490A4C0A5AA2420AD04118A3
:1026F000082218465431FFF783FC002010BD024821
:102700000F3810BD042010BD22240000449000208A
:10271000FFFF000010B5082806D278225043094A6E
:10272000094C135AA34201D1084810BD002905D015
:102730008018403080780870002010BD03480F38A2
:1027400010BD000044900020FFFF00002224000084
:1027500010B50B46082801D3084810BD002B0AD03D
:102760007821484306491022411818462231FFF7C4
:1027700047FC002010BD01480F3810BD2224000086
:102780004490002010B50246054B54001A5D0A70B3
:10279000E3185B780020DB001A430A7010BD0000CC
:1027A00068210020F8B5184C15460B00064615D0D8
:1027B000002D13D018881549884221D100202821E6
:1027C000134A414389180A4620321779B74208D183
:1027D0000024188010222846891C0DE00A4C0E3C6B
:1027E00010E09779002F0AD05279B24207D11880B1
:1027F0000024102228461231FFF702FC02E0401CA0
:102800000A28DCD32046F8BD21240000FFFF000089
:1028100004940020FFB593B00F461699002008706D
:102820001398374E002835D0002F33D01598002844
:1028300030D03D883348854227D100257820324961
:10284000684344182146543108221398FFF7EAFBE5
:10285000002822D0204660301190407B002813D001
:102860002AA000682AA1109003C909910890123487
:102870000EAA1021204604F0A7FB08220EA91398E7
:10288000FFF7D0FB002818D06D1C032DD6D330469F
:1028900017B0F0BD1A4E0E3EF9E73D8021460026E6
:1028A000443110221598FFF7ABFB6034607B02289F
:1028B000EDD3169901200870E9E71198407B0228B2
:1028C00002D216990120087000200490059006900D
:1028D000079004AA042110A804F0A8FB0AA9062066
:1028E0000191009008AB04AA1021204604F0E2FAFE
:1028F0003D80002610220AA91598FFF781FBC6E744
:1029000021240000FFFF0000449000206E6B626BEA
:102910006964313238010000FFB5694F8FB00E0095
:1029200024D01198002821D0129800281ED0348875
:102930006448844249D100247820214641436248BA
:102940000D182846403082780F998A4214D15F488A
:10295000807802280DD000273480294622311022A9
:102960001198FFF74DFB2946323147E0544F0E3F97
:10297000A3E0534F7F1DEFE76D21495D002923D070
:10298000C0780F9988421FD100200A90284601ADD7
:10299000123001230AAA1021009504F0A5FA4B4831
:1029A000807802280DD0002734801022691C1298EC
:1029B000FFF726FB05A9102201311198FFF720FB34
:1029C0007BE03F4F7F1DEFE7641C032CB4D372E024
:1029D00078203D49604345184220425D0F9882426D
:1029E0000FD1348078204443084621180027102254
:1029F00022311198FFF704FB294632311022129838
:102A0000DCE7304A686F904254D078225043401837
:102A100000906030407B00284CD0E01E2B4D81B2EE
:102A20000DAAA87801F0A6FF0098012108AA11724A
:102A30002549AA78903909881230022A2FD06B468E
:102A4000DA8E08AB9A72120A5A721973090AD9728D
:102A50006A46118F08AA9173090A51736A46518F09
:102A600008AA1174090AD17301A9009109230AAABD
:102A7000102104F039FA6A4611790F98814219D170
:102A800001A9102201311298FFF7BAFA05A9102204
:102A900001311198FFF7B4FA002734800DE008AA3D
:102AA0009172090A51726A46D18E08AA1173090AF5
:102AB000D172CDE7641C082C8AD3384613B0F0BD20
:102AC00021240000FFFF000044900020602100202E
:102AD00070B501228A400F49054648781346002404
:102AE0000340012D0FD0002B00D0012390434870EC
:102AF000002B06D0D0B202F041F90120400203F0D1
:102B000047FD204670BD002B02D000231043EEE7A6
:102B10000123FBE76021002070B50026064D044626
:102B2000022802D0A878022802D1082002F026F953
:102B3000AC70304670BD000060210020F8B506463C
:102B4000134C0D46C80918D12079124F002805D121
:102B50002068B0421AD22A30B04217D36846FFF735
:102B600079FAA068002806D00099081A0A49884214
:102B700001DA012D0AD00098A0606806400E266098
:102B80002071042003F004FD0020F8BD3846F8BD94
:102B9000A88F0020FFFF00000070991470B50D464B
:102BA00003467821484302460C490D488E5A0A4C88
:102BB00086420FD0511860314A7B00242978002AC0
:102BC00004D0184603F00EFB024602E0032900D0B1
:102BD00004462A70204670BD212400004490002045
:102BE000FFFF0000002805D0010403D4034A0021A0
:102BF000108000E00121084670470000B48F0020DB
:102C00007CB5044603F090FA03F06AFA14211C48DC
:102C1000FFF726FA1A4864216438FFF721FA1948A9
:102C200000210180418002F00FFD208BFFF7DAFFC9
:102C3000A07C8007C10F80316069FFF77FFF208A89
:102C400022461149FFF750FB0546A07CC00711D072
:102C50000D49208A2246491DFFF746FB208A01A91B
:102C6000FFF7FAFB0546022168460170014680889D
:102C7000FFF794FF054803F08BFC28467CBD00005D
:102C8000309000206821002040800000FF030000F9
:102C90000021017008467047FFB56A460646177A5C
:102CA0000020104A9C4601463C230D465D43AC186B
:102CB00030231B5D012B0CD1237AB34209D1237938
:102CC000BB4206D15359019CA34202D162461180F6
:102CD00002E0491C0A29E7D30A2900D1022004B0E6
:102CE000F0BD0000F48C002030B50C4A904212D0A8
:102CF0000B49551E931ED41E4978A84202D1C8071D
:102D000009D109E0984201D1480702E0A04203D16D
:102D10008807002800DA0022104630BDFFFF0000BF
:102D20006021002030B50D4B002814D0010412D4CE
:102D30000B4A00218D00545B002C08D0AD18AD78F3
:102D4000A04204D36419844201D9002304E0491C41
:102D50000629EFD300E00123184630BD21240000EE
:102D6000B48F002001B581B06A46012101A804F0AA
:102D700061F8002804D06A46012101A804F078F81F
:102D80000CBD000038B514460D46684603F048F8FF
:102D900000280BD169462B8809780622044D4A4346
:102DA000AB52217003498A78521C8A7038BD0000EA
:102DB000E88C0020B48F0020FFB587B0119C139FD2
:102DC000149E1546FF2C01D11148047805A90798D7
:102DD00003F082FA00280BD16846828AAA4207D003
:102DE000002001903B4600961299079803F0F6FBED
:102DF00012980121019003960094049102972946AC
:102E0000109B0A9A089800F005F80BB0F0BD00007E
:102E100060210020FFB5E7B01F46739E719C679844
:102E200001F0A4FB012802D021486BB0F0BD21487D
:102E3000210EFAD17F2CF8D021020B0E2204120EA3
:102E4000E1B204AD002B0AD0E3431B029B0FECD18F
:102E5000240C6B461C7499745A7403210CE02304EF
:102E60001B0E06D02304E0D56B4659741A74022158
:102E700002E06A46117401218C19FF23221D81335F
:102E80009A42D2D8681832467299FFF7B9F860A80A
:102E9000649584827099749864AA02920390009752
:102EA000019167A80BC8002201F042FEBDE70000B7
:102EB0002424000012240000F7B52B4A82B00746F4
:102EC00000294ED029488860FF206B4618700026E4
:102ED00027483546012F02D0032F42D105E0406834
:102EE00000283ED1224C18701AE00123A0245C4334
:102EF00024186468002C04D05B1CDBB2022BF5D3D1
:102F00002FE0A0245C43241868460370086800681A
:102F100003882046803043830B681B689B780377C7
:102F2000002C1ED014222046FFF7A0F820680028AD
:102F300001D085880668BC000E482B4607593246EA
:102F400001216846B8470B482B4620184468324692
:102F500001216846A04769460A7804990A7005B0BD
:102F6000F0BD1046FBE70000FFFF0000AD4E011171
:102F70008C6F0020CC7000201FB50B4A5468002CC9
:102F80000FD000226B4600011A700843587001925E
:102F90001A81102303926A462B210448A04704B0EB
:102FA00010BD0348FBE700008C6F0020FC200020D0
:102FB00014200000FFB5074621488FB040681D4629
:102FC0001646002839D0791C1EA0FFF755F826A018
:102FD000FFF752F825480020C0466C4600212170BA
:102FE000601C10221099FFF70BF868468674310AAE
:102FF00041741320002D10D02B68002B0DD0A98810
:1030000000290AD00AAA184604F010F804A80422DD
:103010000AA90330FEF7F4FF1720102269460A764A
:103020004F7607940884064809951346446806AA13
:103030002B210F48A04713B0F0BD0E48FBE700005E
:103040008C6F002042656172657220747970652012
:103050003D20256428312D6164762C20322D474196
:103060005454290D0A0000000D0A0000641E0020BF
:10307000FC2000201420000070B50D46154988B0D2
:103080004E681446002E22D0102269460A720001B2
:10309000487203950C8200201346059002AA2B214A
:1030A0000D48B0470120694608706846069584833C
:1030B00006AA432100F094F868460078401CC1B28B
:1030C000684601700229F0D3002008B070BD0348A3
:1030D000FBE700008C6F0020FC2000201420000083
:1030E0000148007870470000FD2000201FB50B4A02
:1030F0005468002C0FD00A016946521C0A704870AF
:10310000002001900881102303906A462B21044877
:10311000A04704B010BD0348FBE700008C6F0020FF
:10312000FC20002014200000052806D2002904D02D
:10313000034A800011500020704702487047000089
:10314000CC70002011200000002901D0012801D9F5
:1031500003487047034A8000115000207047000068
:1031600011200000E0700020F8B50D00044608D0E2
:1031700028781749022828D2032C04D0012C05D026
:1031800009E01448F8BD002802D004E0002802D06D
:103190000F48401CF8BDA02250430F4A80184268D7
:1031A000002A12D0A021FEF76DFFA4000B4F0023D0
:1031B0003E591A4619462846B047E019002344688C
:1031C0001A4619462846A047F8BD0846F8BD000033
:1031D00011200000FFFF00008C6F0020CC70002049
:1031E000F7B58CB00C98002842D0002A40D0106867
:1031F00003900C9896880078A02250433A4A84188D
:1032000065683A48002D34D08A098906890E0192F2
:10321000012930D0022930D0032901D0042928D136
:1032200000200B90204640300A9016300790401E38
:10323000254680350590FEF72BFFC01E82B26A83BB
:10324000771C0B98BA4227D200281CD00199802005
:1032500008430A994875288B8018401E288381B23C
:103260000398521E09180798FEF7CAFE6B8B26E0DA
:103270001F480FB0F0BD2A2100E029213346039AF0
:103280000C98A847F5E701200B90019940200843CE
:103290000A9948750020E1E700281DD00199C02057
:1032A00008430A994875288B8018401E2883298B6B
:1032B0000398324609180798FEF7A2FEBBB2F01A2F
:1032C000401C86B26768059A01990C98B847002897
:1032D000CFD1002EAFD1CCE701200B900A9A0198F4
:1032E000002150752983E2E78C6F0020FFFF00006A
:1032F0001120000008B5002069460870A02148434D
:1033000004494018C168002901D068468847002058
:1033100008BD00008C6F002008B5002269460A70C5
:10332000A0214A43044951180A69002A02D00146E3
:1033300068469047002008BD8C6F002038B50024F7
:103340000D4605280BD207490001085C6946FEF7C7
:10335000A5FE040003D12946009800F005F8204698
:1033600038BD00003C6F002038B5044625480D46A6
:10337000844206D864212046FEF796FE8006800E21
:103380001FE02148844208D87D21C9002046FEF76D
:103390008BFE8006800E403013E01C48844207D824
:1033A0001B492046FEF780FE8006800E803008E034
:1033B0001848844208D818492046FEF775FEC021F7
:1033C00008432870002038BD5C2114A0FEF772FE6F
:1033D000002805D05C2111A0FEF76CFE401C00E027
:1033E0000EA07E211E4D0346009116A22946012003
:1033F000FEF766FE23461BA229460120FEF760FE6B
:103400001F4838BD3818000030F20000E075090090
:103410001027000080A03702C02709002E2E2F6D34
:103420006573682F707269766174652F636F72655A
:103430002F636F6D6D6F6E2F4D535F7574696C7375
:103440002E6300000A5B2A2A20455252202A2A5D58
:103450003A5B25735D3A5B25645D3A20000000000D
:103460000100004056616C75652030782530385871
:103470003A206F7574206F662072616E67650A006E
:10348000FFFF00007CB5024600241B480194019B0D
:103490001D012D186D78002D24D05B1C0193052B88
:1034A000F5D3019905291FD009010123081843709C
:1034B00091788170D378C370536843609368836058
:1034C000D368C3609278002A10D0042200928A0048
:1034D00089180122D207891801AB084AFEF7F6FDC8
:1034E000044607E00B80DCE705487CBD042101A809
:1034F00003F01CFC20467CBD3C6F00202D6D0111AB
:10350000FFFF000070B504460878264E8EB00D46C9
:1035100001280BD05C2124A0FEF7CCFD00282DD083
:103520005C2121A0FEF7C6FD401C28E048686A46E1
:10353000017811750188090A5175C27A0221002AA1
:1035400009D0827B69468A75C1890A0A6946CA75AB
:10355000C07A08760521224A002921D005A8FF2338
:10356000019302920491039020890090E38862887D
:10357000A1882046FFF720FC0EB070BD0AA0B5213F
:103580001F4C0346009117A221460120FEF798FD2B
:103590002B781CA221460120FEF792FD3046EBE776
:1035A0000020DCE7FFFF00002E2E2F6D6573682FD3
:1035B000707269766174652F6D6F64656C732F67C7
:1035C000656E657269632F67656E657269635F6CAE
:1035D0006576656C5F7365727665722E63000000B8
:1035E000088200000A5B2A2A20455252202A2A5DBE
:1035F0003A5B25735D3A5B25645D3A20000000006C
:1036000000080040496E76616C69642053746174EF
:103610006520547970653A203078253032580A0098
:1036200070B50C460978224D8EB000290BD05C2174
:1036300020A0FEF73FFD002825D05C211DA0FEF74D
:1036400039FD401C20E061686B460A781A750B79D9
:103650000122002B05D04B786A4653750979917584
:103660000322224B002A20D005A9FF2401940293B3
:103670000492039101890091C38842888188FFF7F1
:103680009BFB0EB070BD0BA0BA21204E03460091EB
:1036900017A231460120FEF713FD23781CA2314604
:1036A0000120FEF70DFD2846EBE70021DDE70000D5
:1036B000FFFF00002E2E2F6D6573682F70726976E4
:1036C0006174652F6D6F64656C732F67656E6572CD
:1036D00069632F67656E657269635F6F6E6F66669B
:1036E0005F7365727665722E6300000004820000CD
:1036F0000A5B2A2A20455252202A2A5D3A5B25730A
:103700005D3A5B25645D3A2000000000000800403F
:10371000496E76616C6964205374617465205479D4
:1037200070653A203078253032580A0070B5054669
:1037300008783E4E8EB00C4604281BD0052833D0A6
:1037400006280DD007283AD05C2139A0FEF7B2FC3C
:10375000002856D05C2136A0FEF7ACFC401C51E09E
:1037600048686A46017811750088000A5075022180
:103770003E4836E048686A46017811750188090AB2
:10378000517582790221002A09D0027969468A7529
:1037900081880A0A6946CA75807908760521334806
:1037A000001F00293FD01CE048686A460178117567
:1037B00000880221000A50752C48801E11E04868DC
:1037C000694602790A7502784A7501880A0A6946CB
:1037D0008A758278CA754088000A087623480521D0
:1037E000801C05AAFF23019303920491029028896B
:1037F0000090EB886A88A9882846FFF7DDFA0EB0AA
:1038000070BD0BA0ED21214D0346009118A2294661
:103810000120FEF755FC23781DA229460120FEF762
:103820004FFC3046EBE70022DCE70000FFFF000022
:103830002E2E2F6D6573682F707269766174652FF7
:103840006D6F64656C732F67656E657269632F6752
:10385000656E657269635F706F7765725F6C6576C0
:10386000656C5F7365727665722E63001C82000062
:103870000A5B2A2A20455252202A2A5D3A5B257388
:103880005D3A5B25645D3A200000000000080040BE
:10389000496E76616C696420537461746520547953
:1038A00070653A203078253032580A00F8B5274D37
:1038B000297800292DD100282CD001460822A81CE7
:1038C000FEF79EFBFEF708FC02F0BAFE03F06AFA70
:1038D00003F01CFA03F0BEFC02F0CAFD02F0FEFE8B
:1038E00003F07EFA02F0BCFE194EB06A0402240A0C
:1038F000FEF7F8FBB06A0002000A011B15A0FEF7F4
:10390000BBFB22A0FEF7B8FB21480020C0460120E7
:103910002870F8BD5C211FA0FEF7CCFB002805D065
:103920005C211CA0FEF7C6FB401C00E019A04F2143
:10393000294C0346009121A221460120FEF7C0FB3D
:1039400026A221460120FEF7BBFBF8BDF020002097
:1039500000F00040636F6E73756D652074696D656E
:10396000206F662066756E6374696F6E206372796E
:103970005F656364685F696E69743A2025642052EC
:103980005443207469636B0D0A0000000D0A0000A7
:10399000641E00202E2E2F6D6573682F707269765D
:1039A0006174652F636F72652F636F6D6D6F6E2F1E
:1039B0004D535F636F6D6D6F6E2E63000A5B2A2A35
:1039C00020455252202A2A5D3A5B25735D3A5B25D9
:1039D000645D3A20000000000100004044796E61FF
:1039E0006D696320436F6E66696775726174696F94
:1039F0006E2063616E206E6F74206265204E554CA0
:103A00004C2E2052657475726E696E670A00000054
:103A100070B505460878444E8EB00C4629280FD064
:103A20002A2846D02C2831D05C2140A0FEF742FB4A
:103A3000002864D05C213DA0FEF73CFB401C5FE009
:103A40004868694602780A7501880A0A69464A7513
:103A500002798A7581880A0A6946CA75C27A042180
:103A6000002A0FD0827869460A7641880A0A694698
:103A70004A7682798A76C1880A0A6946CA76C07A05
:103A800008770921354800294CD028E04868694664
:103A900002790A7502784A7501880A0A69468A75A8
:103AA0008278CA754088000A08762C480521C01C17
:103AB00015E04868694602780A7501880A0A69466D
:103AC0004A7582788A7541880A0A6946CA750279F8
:103AD0000A768088000A487620480621083005AA20
:103AE000FF23019303920491029028890090EB88B0
:103AF0006A88A9882846FFF75FF90EB070BD0BA051
:103B0000FF210B311D4D0346009115A229460120CE
:103B1000FEF7D6FA23781AA229460120FEF7D0FA3A
:103B20003046EAE70022DBE7FFFF00002E2E2F6D74
:103B30006573682F707269766174652F6D6F646547
:103B40006C732F6C696768742F6C696768745F6346
:103B5000746C5F7365727665722E6300608200001C
:103B60000A5B2A2A20455252202A2A5D3A5B257395
:103B70005D3A5B25645D3A200000000000080040CB
:103B8000496E76616C696420537461746520547960
:103B900070653A203078253032580A0070B50446F6
:103BA00008782D4E8EB00D462B280BD05C212BA013
:103BB000FEF780FA00283AD05C2128A0FEF77AFAB6
:103BC000401C35E04868694602780A7501880A0A8F
:103BD00069464A7502798A7581880A0A6946CA75F2
:103BE000427A0421002A0FD0827869460A764188F9
:103BF0000A0A69464A7682798A76C1880A0A69463B
:103C0000CA76407A08770921234A002921D005A8DD
:103C1000FF23019302920491039020890090E3888E
:103C20006288A1882046FFF7C7F80EB070BD0BA0D0
:103C3000B721214C0346009118A221460120FEF72E
:103C40003FFA2B781DA221460120FEF739FA3046B3
:103C5000EBE70020DCE70000FFFF00002E2E2F6DB9
:103C60006573682F707269766174652F6D6F646516
:103C70006C732F6C696768742F6C696768745F6315
:103C8000746C5F74656D70657261747572655F7375
:103C900065727665722E6300668200000A5B2A2ACE
:103CA00020455252202A2A5D3A5B25735D3A5B25F6
:103CB000645D3A200000000000080040496E766113
:103CC0006C696420537461746520547970653A207E
:103CD0003078253032580A0070B504460878584EBE
:103CE0008EB00D462D284DD02E282DD02F2869D0EE
:103CF00032280BD05C2153A0FEF7DCF900287DD0E0
:103D00005C2150A0FEF7D6F9401C84E04868694663
:103D1000027A0A7502784A7501880A0A69468A7524
:103D20008278CA7541880A0A69460A7602794A7613
:103D300081880A0A69468A768279CA76C088000A2A
:103D4000087709214B4853E04868694682780A752C
:103D500041880A0A69464A7582798A75C1880A0AC1
:103D60006946CA75827A0A7641890A0A69464A769C
:103D7000407B0621002802D06946887607213D480D
:103D8000001F1CE04868694602780A7501880A0A23
:103D900069464A7502798A7581880A0A6946CA7530
:103DA000027A0A7601890A0A69464A76407B062128
:103DB000002802D06946887607212E48801F0029F6
:103DC0003BD015E04868694602780A7501880A0AFE
:103DD00069464A7582788A7541880A0A6946CA75B1
:103DE00002790A768088000A487622480621801ED9
:103DF00005AAFF2301930392049100E00AE00290D8
:103E000020890090E3886288A1882046FEF7D4FFCD
:103E10000EB070BD0BA0FF212E311E4C0346009149
:103E200015A221460120FEF74BF92B781AA2214654
:103E30000120FEF745F93046EAE70022D9E7000005
:103E4000FFFF00002E2E2F6D6573682F707269764C
:103E50006174652F6D6F64656C732F6C696768742E
:103E60002F6C696768745F68736C5F7365727665E1
:103E7000722E63007E8200000A5B2A2A204552527D
:103E8000202A2A5D3A5B25735D3A5B25645D3A2002
:103E90000000000000080040496E76616C696420F3
:103EA000537461746520547970653A2030782530F8
:103EB00032580A0070B50C4605463C4809788EB069
:103EC000064605AB372929D038291FD039290DD00E
:103ED0003B292BD05C2136A0FEF7ECF800284FD010
:103EE0005C2133A0FEF7E6F8401C4AE061686A46B0
:103EF00008781075CA780120002A05D04A786846EB
:103F00004275C97881750320354927E060686946A4
:103F10000078087532490120091F21E06068694670
:103F2000007808752E490120083919E06468218954
:103F3000002923D02078694608752088000A487532
:103F400022890220002A08D06168002905D0981C27
:103F5000FEF756F82089801C80B26421002822D008
:103F600005AAFF23019303920291049028890090EF
:103F7000EB886A88A9882846FEF71EFF0EB070BD40
:103F80000BA0FF2118311E4D0346009115A22946B2
:103F90000120FEF795F823781AA229460120FEF7A2
:103FA0008FF83046EAE70022DBE70000FFFF000061
:103FB0002E2E2F6D6573682F707269766174652F70
:103FC0006D6F64656C732F6C696768742F6C6967BB
:103FD00068745F6C635F7365727665722E63000050
:103FE0009C8200000A5B2A2A20455252202A2A5D20
:103FF0003A5B25735D3A5B25645D3A200000000062
:1040000000080040496E76616C69642053746174E5
:104010006520547970653A203078253032580A008E
:1040200070B506460C46486809788EB02339464D6F
:104030000B00FEF75DF805041A4F333D6800017868
:104040006A4611750188090A517542790221002AD0
:1040500009D0827869468A7541880A0A6946CA7514
:10406000407908760521394815E0017A6A461175CC
:104070000189090A5175427B0221002A09D0827AFE
:1040800069468A7541890A0A6946CA75407B08767D
:1040900005212E48001F002953D024E0017D6A46E7
:1040A0001175808A0221000A50752848001D1AE007
:1040B000827E69460A75827D4A75C18A0A0A694606
:1040C0008A75027ECA75008B000A08761F48052192
:1040D000801D08E0817C6A461175408A0221000A31
:1040E00050751A48801C05AAFF230193039204917E
:1040F000029030890090F3887288B1883046FEF7CC
:104100005BFE0EB070BD5C2111A0FDF7D3FF00284F
:1041100005D05C210EA0FDF7CDFF401C00E00CA0F7
:10412000F921204E0346009117A231460120FDF7E8
:10413000C7FF23781CA231460120FDF7C1FF2846A6
:10414000DFE70022D0E70000FFFF000052820000FE
:104150002E2E2F6D6573682F707269766174652FCE
:104160006D6F64656C732F6C696768742F6C696719
:1041700068745F6C696768746E6573735F7365728A
:104180007665722E630000000A5B2A2A204552528F
:10419000202A2A5D3A5B25735D3A5B25645D3A20EF
:1041A0000000000000080040496E76616C696420E0
:1041B000537461746520547970653A2030782530E5
:1041C00032580A0070B504460878584E8EB00D4635
:1041D000332864D034282DD0352849D036280BD048
:1041E0005C2153A0FDF766FF00287DD05C2150A024
:1041F000FDF760FF401C84E048686946027A0A7552
:1042000002784A7501880A0A69468A758278CA75F1
:1042100041880A0A69460A7602794A7681880A0A3A
:1042200069468A768279CA76C088000A08770921A9
:104230004B4853E04868694682780A7541880A0A03
:1042400069464A7582798A75C1880A0A6946CA75BB
:10425000827A0A7641890A0A69464A76407B0621B3
:10426000002802D06946887607213D48001F33E0C8
:104270004868694602780A7501880A0A69464A75DB
:1042800082788A7541880A0A6946CA7502790A766F
:104290008088000A487632480621801E1EE0486861
:1042A000694602780A7501880A0A69464A750279E0
:1042B0008A7581880A0A6946CA75027A0A7601896E
:1042C0000A0A69464A76407B0621002802D06946E0
:1042D000887607212248801F002924D005AAFF23C1
:1042E00001930392049100E00AE00290208900907B
:1042F000E3886288A1882046FEF75EFD0EB070BD9F
:104300000BA0FF212D311E4C0346009115A2214622
:104310000120FDF7D5FE2B781AA221460120FDF7DA
:10432000CFFE3046EAE70022D9E70000FFFF000099
:104330002E2E2F6D6573682F707269766174652FEC
:104340006D6F64656C732F6C696768742F6C696737
:1043500068745F78796C5F7365727665722E63003E
:104360008C8200000A5B2A2A20455252202A2A5DAC
:104370003A5B25735D3A5B25645D3A2000000000DE
:1043800000080040496E76616C6964205374617462
:104390006520547970653A203078253032580A000B
:1043A000014908600020704700210020FFB591B04E
:1043B00007469C461BA82CC80026079608961F9CFB
:1043C0006E46378471841A99F177E904C90C09950E
:1043D0000E9138486146002947D001293FD1324625
:1043E000B1770B2C3DD96105090E0C911E99002661
:1043F000097835460F912FE00F99802001436846D8
:1044000001730E98C004410E684641730E988100F6
:10441000E8080143684681730C98690101436846C6
:10442000C173A01BC7B2082F00D908271E983A46AF
:10443000811904A8FDF7E4FDF019C6B203A80A909B
:1044400068463F1D87850AAA07A8139900F0A4F8BB
:10445000002804D16D1CEDB20C998D42CCD915B059
:10446000F0BD1E980A9094851EE00020B077209839
:10447000012801D00C2C08D90E981E996D4613C541
:1044800007A8139901F056FCE9E790019906890EF7
:104490000843307303AD2246681C1E99FDF7B0FD3A
:1044A0006946641C0A958C850AAA07A8139900F02E
:1044B00073F8D4E7FFFF000010B50A4C21680160D3
:1044C00021686068814207D3FF30FF3002306060AE
:1044D000FF20013002F05CF82068401C20600020C2
:1044E00010BD00003021002030B58FB005460120FE
:1044F0006946087404AC02A90AA8FEF729F803A9C2
:104500002846FEF74DF86946087B02282BD000218B
:104510006A46107A400008435074A11C2846FEF7F2
:10452000D7F86A46117A0A9841180A915177080A11
:104530001077080CD076080E90760BA92846FEF767
:1045400093F807A808210230019100900BAB0D22CF
:10455000611C0020FDF7D2FD162204A90120FEF700
:104560008BFD0FB030BD0121D2E70000002803D041
:10457000800B022800D2012070470000024A06CAC0
:1045800006C000207047000030210020014908606B
:10459000002070472C2100207FB514460D4607C827
:1045A00001AB07C300216846FDF7D2FF00986946BA
:1045B000C007C00F087100232246294601A803F056
:1045C0000BF904B070BD0000024905C805C1002008
:1045D0007047000030210020FFB5434881B00F46EE
:1045E000002B11D0002F0FD00199012901D00229F1
:1045F0000AD13E4800250068B22807D0B12805D06E
:10460000B02803D03848401E05B0F0BD184603F06E
:10461000F5FD040020D036482646FF360078613686
:10462000307402281BD0204610223249B030FDF7EA
:10463000E7FC2246FF320020813290602A4901982F
:10464000091D2D4B012811D0022828D02B4D2046C2
:1046500003F098FF2846D7E72348401CD4E78ECFC5
:104660002046B0308EC003983076E2E71878FF28F5
:1046700037D0022093607074307C0228EAD1204643
:10468000FF3004217530FDF73FFD204604F092FA1B
:104690000500DCD1B320FF340134E066DAE7012005
:1046A0001F5CFF2F02D01B18936003E0401CC0B2B8
:1046B0000228F5D3022814D0042070740120FF21B1
:1046C000B0746D310851307C0228C3D100200346FC
:1046D000024600900121204603F068FF0500B6D194
:1046E000B8E70D46B3E70000123000004422002076
:1046F00048220020C897002049220020FFFF000028
:10470000002905D0034A106003480160002070476B
:10471000024870473C220020402200201230000056
:10472000FFB5334E8BB015460F4600280FD0002D35
:104730000DD003F01FFE04000BD0022F0CD0042F6D
:104740001FD0072F49D0354628460FB0F0BD304660
:10475000FBE72748801CF8E70822294608A8FDF750
:104760004FFC0820009008AB00220321204603F0F4
:104770001DFF0500E8D100220421204604F0E2FAE2
:10478000E2E7E01DF930C17A022902D0032904D002
:1047900006E0007B042819D002E0007B032815D036
:1047A00028686946C870020A8A70020C4A70000EB6
:1047B0000870AC20009901510020034602460521F3
:1047C0000090204603F0F2FE0546BDE7204629464C
:1047D000A0300E9AFDF714FCEEE71C22294601A832
:1047E000FDF744FC1C20002201AB08210090E8E703
:1047F0001230000038B515460C4600280DD0002CAC
:104800000BD003F0B7FD002809D0C11DF931CA7AD9
:10481000022A07D0032A09D00BE0104838BD0F4800
:10482000801C38BD097B042911D002E0097B0329D3
:104830000DD021686A46D1700B0A93700B0C090EDB
:1048400053701170A0300099C160002038BD21461E
:104850002A46A030FDF7D4FBF7E700001230000035
:10486000F8B507462B480E4601682B481546002927
:104870001AD0022E07D0012E17D128490968002925
:1048800012D0002D11D02748254C0670FDF72AFCC8
:104890002548FDF73FFC3046244E012808D0022869
:1048A00024D01D4C641C2046F8BD1B48401CF8BD9C
:1048B0001F4900200870102229461E48FDF7A0FB62
:1048C000F80706D02A8A294600206B69FEF772FB9A
:1048D0000446B80706D52A8A294601206B69FEF7E7
:1048E00069FB0446002CDED1B12010E0F80704D0AB
:1048F00001210020FEF7FAFB0446B80704D5012188
:104900000846FEF7F3FB0446002CCCD1B220306001
:10491000C9E7000040220020113000003C220020A6
:10492000FFFF00004822002088970020442200203A
:104930004B220020C897002070B50D4C002520792F
:10494000C00707D001210220FEF716FB207940089E
:10495000400020712079800707D501210320FEF750
:104960000BFB2079FD2108402071284670BD000016
:104970004421002010B5134602280AD0FF208000F1
:1049800041430548091808221846FDF739FB002065
:1049900010BD08220149F7E748760020348A00203C
:1049A000F0B504460E4800220E4D1F268C467601B7
:1049B000FF21890051434B199F19397C01290AD1E4
:1049C0005B88FF7D9C4206D3D919A14203D9614679
:1049D00000200A70F0BD521C052AE9D3F0BD00008A
:1049E0002124000048760020F0B504460A781248D9
:1049F000052A01D1002202E0521C052A15D2FF230C
:104A00009B000E4D53435D191F235B01EB181B7C6C
:104A1000012BF1D100230F26B6015F00EF19BF195A
:104A2000BF8BA74202D100200A70F0BD5B1C082B8F
:104A3000F3D30028E0D1F0BD212400004876002007
:104A400070B50546FF20800041430B48094C0E1805
:104A50007288294609A0FDF70FFB12A0FDF70CFB99
:104A600011480020C0467088A84200D1002420468A
:104A700070BD000021240000487600205B46524EA5
:104A8000445D2073616464723A2030782530325876
:104A90002C2075616464723A203078253032580ACF
:104AA000000000000D0A0000641E0020F7B5054656
:104AB000002086B069460882144E1F2748820446AB
:104AC0007F01FF20800060438019C119097C012902
:104AD00015D10088A84212D1694607980871089834
:104AE0000872020ACA71020C8A71000E4871052010
:104AF000009001AB03AA0021204604F071FD641C64
:104B0000E4B2052CDDD3002009B0F0BD48760020CA
:104B1000012902D0002902D003E0034900E0034943
:104B20000860002070470000142100201821002098
:104B3000FFB5EBB074980F2802D31F486FB0F0BDDB
:104B400004260A280AD30A38C0B208A9FDF7BEFC19
:104B50000225002069460877044607E007AA08A94D
:104B6000FDF794FC0028E9D101252C4609A8FFF7A0
:104B7000A3FC08980AAF01A9E1C1099800906BA8AD
:104B800007C8769B04F030FE7698099A808877995A
:104B9000001D80B205900497039206916846017F3C
:104BA000759802910090002301946E9A6C996B980D
:104BB000FFF7FCFBC2E7000012230000FFB5C9B0FD
:104BC0000026529A539835460A2A02D95C484DB0BD
:104BD000F0BD69460A77012402211300FDF788FA27
:104BE0000B87070C224657576767077E87000078B8
:104BF0006946487702247AE0027869464A77027962
:104C000008A94A7081880A0A08A90A7041680A0C32
:104C10006946CA7741680A0E69468A77007A08A908
:104C2000887032E003786A46537743789377037944
:104C300008AA53708288130A08AA13704268130CDA
:104C40006A46D377037A08AAD3700289130A08AA9E
:104C50009370837A1371037B93718089000A50717A
:104C600038484A9038480B24017040E00278694681
:104C70004A7742788A778278CA77C27808A90A7018
:104C800002798A708088000A487007242FE0027831
:104C900069468A7701880A0A69464A77827808A9AC
:104CA0000A7040886946000AC87705241FE0017829
:104CB0006B465977022407AA00210BE043684F0096
:104CC000DB191B8817197B701B0A1355A41C491C80
:104CD000E4B2C9B203898B42F0D808E00278694691
:104CE0004A778278CA774088000A8877042447A8E0
:104CF000FFF7E2FB1548806A479A0702002107A8E0
:104D0000069104904C9805940090039201960295A8
:104D100049A807C83F0A0123FFF748FB04460B4890
:104D2000806A0102090AC91B09A0FDF7A5F911A0B3
:104D3000FDF7A2F910480020C046204647E70000D2
:104D400012230000FDFF00000C21002000F00040B5
:104D5000636F6E73756D652074696D65204D535F6B
:104D60006C74726E5F73656E645F7064753A202553
:104D7000640D0A000D0A0000641E002010B5164CD8
:104D800088B0E188884302D0144808B010BD02A85A
:104D9000FDF736FC7F216846017405A8FDF7B8FBD6
:104DA00006A8FDF7CDFB6846007E022805D06846C0
:104DB000007D4107490F684601756846017D4182C3
:104DC0000A2004A9009001916846037C6289218829
:104DD0000089FFF7F3FED8E74C8A0020FFFF0000B0
:104DE0007CB51C461B78069EDD0915D09D09022D59
:104DF00014D0DD432D06AD0F0DD11D0263782B437A
:104E00001D02A3782B4303256419751BADB20195D0
:104E1000009401F077FA7CBD0125F5E71D02637867
:104E20002B430225F0E7000010B51C48002141602B
:104E30001821816081611A49C16119491831C16223
:104E40003D21090101631749016468214164154945
:104E500068314165FF2193318165134981661A21CB
:104E6000C16611491A31C1676621803001600E495F
:104E7000024680310161162141610B49843A963125
:104E800041620421816208499A3181630721C1632B
:104E900005490020A131FDF743F910BD7021002024
:104EA0005A020000420600003C080000FFB581B035
:104EB00001980E46007802285CD2A021504C414354
:104EC0000C196168002955D0551E0028307826D06D
:104ED00081098006800E009003284BD8AFB20029CC
:104EE0004AD0012951D002295BD0032942D127465B
:104EF0008037F98A204614300818711C521EFDF7BD
:104F00007FF8F88A4019F8820098002864D00128B8
:104F100054D0022870D003282CD104205DE0394CF5
:104F2000002B04D01968002901D0097821702928A4
:104F300010D02A2810D02B281AD17078012817D821
:104F4000810031484358002B12D0921E91B2B01C00
:104F500098470DE0022000E0012081002A48143823
:104F60004758002F04D0721CABB202210198B847F9
:104F70000020207005B0F0BD2046711C1430521E78
:104F8000FDF73EF896200753BEE725460020803502
:104F9000E8822046711C1430521EFDF731F8EF8272
:104FA000E8E727468037F88A14340019711C521E2E
:104FB000FDF726F8F88A4019F882DBE7207D8100AA
:104FC00011484258002AD5D09620005B401E81B27D
:104FD000204615309047CDE70320022182000A4881
:104FE00014388558002DC5D09620035B2246143214
:104FF0000198A847BEE7FFE703200146EEE700005F
:105000008C6F0020FD200020E070002070B5054668
:1050100000F062F812490446052809D0FF208000FC
:1050200060434618204600F01DF87580204670BD8C
:1050300000201F225201FF239B0043435B189B1853
:105040001B7C002B05D0401CC0B20528F3D30520E3
:1050500070BDFF229200424351184D8070BD000088
:1050600048760020F8B50446FF20800019496043C7
:1050700045181F2040012F18B87EFF2801D0FDF7EA
:1050800055F8287CFF2801D0FDF750F828882146E4
:10509000FDF796F900242646FF20E53060434019CD
:1050A0000146FF31C131CE868E86FF21E1311430B9
:1050B000FCF7E8FF641CE4B2022CEDD30720C0012A
:1050C0002818C6650666466686663E74FF20B87672
:1050D0002874F8BD4876002030B5024600201F2411
:1050E00009496401FF239B0043435B181D192D7C74
:1050F000002D02D05B88934204D0401CC0B205282A
:10510000F0D3052030BD000048760020F8B50446F5
:105110000AA00068009060060F46800F6D46164694
:10512000285C0A21FCF7C0FF3870E006800F285C7D
:105130000A21FCF7B9FF30700020F8BD0A0F1419DE
:105140000246400B40030843904202D90121490323
:10515000884370477FB50468A07B00281BD0264693
:105160002036F07A800704D5012503A8FDF748FA18
:1051700003E06088694600258881FF207072206AFC
:105180007F210290019500916846E38AA2882188D8
:10519000808900F087FD7FBDF0B5124D9C46AF8839
:1051A0002B465C881E2F14D0E3199CB21E2C01D311
:1051B0001E3CA4B20C235C430B4BE618B170185391
:1051C0006046726030721E2F01D07F1CAF800020BD
:1051D000F0BD661CB6B26E801E2EEBD100266E802E
:1051E000E8E7000004210020E071002010B5F02164
:1051F0000448FCF747FF0348FF216931F030FCF712
:1052000041FF10BDF0700020F0B50F490978012969
:1052100012D00E4B85880E4A0021CE00B418A78804
:10522000AF420BD10778A479A74207D19659846879
:10523000B44203D8002304E00020F0BD491C1E291D
:10524000EBD31846F0BD000004210020FFFF000052
:10525000F0700020F0B50646944600200C4C0A463B
:10526000034630211D464D432F19B97BB1420AD167
:10527000615B914207D13D7C654504D130204343B9
:1052800018198673F0BD5B1C9BB2102BE9D3F0BDDF
:1052900048730020FFB5054610788FB08007C00F17
:1052A0000B90129817464278D009099012989307EC
:1052B0008078520681081B0ED20E19431202114348
:1052C00006911299C000C9784A090243D006C00E5F
:1052D000CE060290F60EE888FFF748F90D902A787E
:1052E000A9880120FFF7B6FF040011D0E08A0699D3
:1052F000884202D9A44813B0F0BD884208D2217C6C
:1053000020880123A269FFF747FF204600F0BEFB7B
:10531000A8680699FFF714FF02462978A88804AB0D
:1053200000F0BAF90C9000280BD0A87801281FD003
:105330000C200A90387880071CD503A8FDF760F987
:105340001BE06846007C00287ED10120761CB0401E
:105350000D99401E012977D1EA780B9901910092AD
:105360000290A988E888069B109A00F09BFC6BE0ED
:105370000820DEE7E88869468881701C0A990E904B
:1053800048430B99401C0190009168468289A98886
:105390000120069B00F0B0FB040003D0A07B002896
:1053A00012D03DE00D9A79480021012AA3D1E87876
:1053B0000B9A0192009002916846A9888089069B09
:1053C000109A00F06FFC96E7002001230C90A37365
:1053D0001098A08028782074A878E073E878607727
:1053E000A8882080E888608000206074A0740999F3
:1053F000E1740699E1822822105526772062204622
:1054000023303A7802727A7842721F2E0CD00E9AAC
:1054100018469040401E6062A868FFF791FEA061A8
:105420000D98012803D008E00020C043F3E7204690
:1054300000F0A0FB204600F043FB029A0120216A05
:1054400090400142009001D0002054E7964206D1DE
:105450000A98314641431898C01E0818A0810A993D
:105460000298A268484310181299189A401C091D06
:10547000121FFCF7C5FD206A0099084320621899A5
:10548000626AC9B2089190425ED1204600F088FB62
:105490000D9801280BD1226A7F206B460B9907C318
:1054A0006846E38AA9888089109A00F0FBFB12986D
:1054B000A16800784006400E087035480068002852
:1054C00013D03878C10701D140070ED5E18AA8680A
:1054D000FFF736FEA860A08900902D4EA3683668BD
:1054E0002846099A1099B04724E0002E00D00326E0
:1054F0003878810708D50898009078782A46314690
:10550000129B04F06DF810E000070ED5089800908B
:1055100078782A463146129B04F062F8E888791CB4
:10552000FFF762FA0C900028F0D0E18AA868FFF734
:1055300007FEA8602978A8880023AA68FFF72CFE38
:10554000204600F0A3FA1CE03878810708D50898B7
:10555000009078782A460121129B04F041F810E06F
:1055600000070ED50898009078782A460121129BF2
:1055700004F036F8E888791CFFF736FA0C9000281A
:10558000F0D00C98B7E60000FFFF000014220000E6
:1055900000210020FFB583B00C9E04460D9D0292B1
:1055A00001461F46009601951C48049AFCF764FDCD
:1055B0001BA0FCF761FD1B480020C04600200190A5
:1055C0003346224600970220049900F095FA040021
:1055D0001DD0002D03D0606AA84203D1204600F000
:1055E00055FA14E0207F1F2814D00121401C81406F
:1055F000491E226A29400A43226225462035687ADC
:10560000FCF794FDFF206872204600F01DFB00208F
:1056100007B0F0BD206A28432062EEE7BCA9011163
:105620000D0A0000641E002010B50468A07B00284D
:1056300008D0217C20880123A269FFF7ADFD204618
:1056400000F024FA10BD000010B50448002181804C
:105650004180F0210248FCF715FD10BD0421002017
:10566000F070002010B50324240221460948FCF7FD
:1056700009FD21460748FCF705FD0020054BFF21E9
:1056800030224243D21820325172401C91721028AD
:10569000F6D310BD48730020FFB5174A064651885F
:1056A00097889C4613480024144A20E00C230D469A
:1056B0005D43535BB34213D1AB189E469B78019D6B
:1056C000AB420DD173465B68029DAB4208D10C2002
:1056D00041438818017A60460170002004B0F0BD93
:1056E000491C89B21E2900D10021641CA4B2BC420D
:1056F000DCD3F3E7FFFF000004210020E07100206D
:10570000FEB504460F462A4D2A4EC088FEF72EFFEE
:105710000190A088FDF706FB00281CD00198012805
:10572000E08826D0010AFF292FD0FDF71BFB0028B7
:1057300006D0E0886946FFF757F9002800D0002519
:105740002046FFF761FD002825D0204600F040FBF1
:1057500030463D60FEBD18A0FCF78EFC24A0FCF78F
:105760008BFC24480020C046002038601148401EB1
:10577000FEBDFDF7D7FA002805D0E0886946FFF79F
:105780000FF90028DBD10026DAE70949C91E884253
:10579000D6D20120FEBD18A0FCF76EFC14A0FCF7C9
:1057A0006BFC14480020C046002038600048FEBD55
:1057B000FFFF0000182100005B4C54524E2052782D
:1057C0005D20506B74206F726967696E61746564E7
:1057D0002066726F6D204C6F63616C205352432EB4
:1057E0002044726F7070696E672E2E2E0A000000C2
:1057F0000D0A0000641E00205B4C54524E2052786B
:105800005D205265706C6179656420506B742E2048
:1058100044726F7070696E672E2E2E0A00000000B1
:10582000FFB5044689B0E1780A980290019300918F
:105830001F461646A378E288A1887648FCF71CFC30
:1058400075A0FCF719FC75480020C046E088FEF7FB
:105850008DFE0546A078012801D1022D18D0002028
:10586000014602906846017305214173A088FDF747
:1058700059FA00280FD06A480590E088012D0DD014
:10588000010AFF291ED0FDF76DFA002824D026E07A
:1058900064480DB0F0BD6348401CFAE7FDF742FADA
:1058A000050007D003A9E0880131FFF779F805006A
:1058B00004D021E001206946087321E002216846F6
:1058C00001731DE05649C91E884203D3FDF70CFA47
:1058D0000546EFE70120DCE704206946087303A9C9
:1058E000E0880131FFF780F8050005D16946087BA3
:1058F00008210843694608736846007B00280DD0DC
:105900003178C8090DD0002807D00097334603AA84
:1059100020460A99FFF7BEFC054678E04148801C06
:10592000B7E7A278F8B2012A02D14906490E0DD094
:1059300069460196097B8A072FD500906846407B0F
:1059400033462246002103F04BFE3FE06946097BC7
:10595000890708D500906846407B334622460421DB
:1059600003F03EFE43E070780102B0780843C30BB9
:105970004004C10CF07802023079104302027079C1
:1059800010430202B079009110430190E188A08891
:105990000A9AFFF7FFFD002028E0080716D5FEB29F
:1059A0006846417BA088FFF74BF8002807D068467F
:1059B0000096407B22460021019B03F011FE03A9C3
:1059C000E0880131FFF710F80500E9D016480668B5
:1059D000002E0CD06846007BC10701D1400706D5D8
:1059E00000972046019B029A0A99B04705900598B6
:1059F00000280CD10A98032809D16846FCF7A0FDBD
:105A000068460078022802D10A9803F031FF284640
:105A10003FE7000058A901110D0A0000641E002094
:105A2000FFFF0000162100000021002010B50068D3
:105A3000817B002904D0FF2229210A5400F004F9B7
:105A400010BD000070B50D46014600240E4A2046E8
:105A5000302343439B189B7B002B03D0401C102812
:105A6000F6D30BE0302358438418A17306D02846A0
:105A7000FCF762FBA060002802D0A581204670BD23
:105A80000020A0730446F9E748730020F8B50446E7
:105A9000806825460026FF272035002807D0FCF720
:105AA00051FBA660A681687AFCF740FB6F72A87A6A
:105AB000FF2802D0FCF73AFBAF72A673F8BD0000D6
:105AC00001B582B002982030807AFF2805D0FCF71B
:105AD0002DFB0298FF212030817204200090029853
:105AE00002AB034A03492A30FCF7F0FA0EBD00006E
:105AF00029560111204E0080FFB5844600251C4820
:105B000081B08E462C462A46302116464E43331825
:105B1000997B614512D1875B77450FD1DF8A049E5F
:105B2000B7420BD10A9F012F03D05F88039EB74273
:105B300004D130214A43151815D107E0002902D1BC
:105B4000002C00D11C46521C102ADDD30B980028D3
:105B500009D0002C07D02546FCF7EEFAA8600028F3
:105B600004D00B98A881284605B0F0BD0025FAE7BF
:105B70004873002011B581B0019C2921095D0020E6
:105B8000FF2908D104200090204601AB024A0349B6
:105B90002930FCF79BFA1CBD5551011132000080E1
:105BA00010B504462034617A0020FF2904D008464D
:105BB000FCF7BCFAFF21617210BD000070B504460D
:105BC0000C200A464243207F8AB0884203D1A08934
:105BD000801A85B200E00C25607C03AE8301A07CB6
:105BE0008006800E03438020034368460373E08AE7
:105BF000C004430E68464373A07D8300C808034376
:105C000068468373207F490101436846C173A068D9
:105C100081182A4604A8FCF7F3F968462D1D07965B
:105C20000584218881806188C180617FC170E17BAA
:105C3000817002A8FEF740FCA18807AA6846FEF71B
:105C4000ABFC0AB070BD000071B581B0019828218D
:105C5000095C057F00291ED0002401260AE0019876
:105C60003246016AA240114202D12146FFF7A6FF47
:105C7000641CE4B2AC42F2D9019C01AB2046203452
:105C8000217A064A491E21720421009104492930D3
:105C9000FCF71CFA7CBDFFF7F9FE7CBD2D5A011103
:105CA000F4010080FFB58BB00D98149F169C1E4622
:105CB000032806D16846FCF743FC684600780228B2
:105CC00007D00C98FEF752FC012807D018480FB0F7
:105CD000F0BD0D9803F0CCFD0020F8E700256846E4
:105CE00005771598C101F004400E014368464177DD
:105CF000B1008177210EC177210C08A80170210A1B
:105D000041708470002F00D07F2709A8FEF7D4FBD4
:105D1000099A072007A90695009701950BAC0295F3
:105D200003920491059007CC0123FEF73FFBCEE7D9
:105D3000FFFF0000FFB581B00C9D074629460220F9
:105D4000FFF780FE040038D000262A46A0680B9991
:105D5000FCF756F90298A080B878E073F87860777D
:105D6000B8882080F8886080039860740498A074D4
:105D70000A98E082F888FEF7F9FB01281FD002217B
:105D8000282001550C212846FCF78EF9C0B20C21C1
:105D90004143A94201D1401EC0B2002120772162B7
:105DA0001F280ED00121401C8140491E61622046FF
:105DB000FFF74AFF304605B0F0BD044EFAE7032175
:105DC000DEE70020C0436062F1E70000142200001B
:105DD000F0B51E228388114D0021CC006619B488CD
:105DE0009C4206D1B6790778BE4202D100240A4609
:105DF0000BE0002C02D11E2A00D10A46491C1E29A4
:105E0000EBD31E2A00D100220024D1004A1993802E
:105E100083686B50007890712046F0BDF0700020D0
:105E200030B5034600200B4A014606244C43A41813
:105E30002479002C06D0491C0229F6D3022900D16E
:105E4000054830BD062401254C43A2181571197070
:105E5000F4E70000E88C0020FFFF0000F0B50F46DB
:105E600028211E4A41438C1825462035A97989B03E
:105E7000012902D002292DD128E0282148431749C1
:105E800046181236022F02D0032F17D022E02879AD
:105E90000190A11C102203A8FCF7B2F868792871C0
:105EA000A01C10223146FCF7ABF80198687130460F
:105EB000102203A9FCF7A4F8AF710BE068792871F0
:105EC0003146A01C1022FCF79BF801E0032F01D102
:105ED0000020A871A87909B0F0BD0000049400204A
:105EE000F0B595B000252EA11295096813912DA14A
:105EF00009682DA2149106CA1091782148432C49B3
:105F000011924418A01C2246543210210B9001F02B
:105F10005BF802A80090012312AA10210B9800F050
:105F2000E3FF6846067A2046274602A93230223728
:105F300010220131FCF764F806A91022013138461D
:105F4000FCF75EF822370C950D950E950CAA0421EE
:105F500014A80F9501F06AF806200197009010AB85
:105F60000CAA10210B9800F0A5FF18370C950D9581
:105F70000E950CAA042113A80F9501F057F80620DE
:105F80000197009010AB0CAA10210B9800F092FF23
:105F90004034A670042000F0FBFA15B0F0BD0000FC
:105FA0006E6B696B6E6B626B696431323801000035
:105FB0004490002070B505460E46C01E294C94B092
:105FC00081B20DAAA078FEF7D5FC0FA93046FCF7E8
:105FD000FDFA00283CD1012008A908722248A178C6
:105FE0000088022936D06946CA8E08A98A72120A28
:105FF0004A720873000AC8726946088F08A9887334
:10600000000A48736946488F08A90874000AC873D3
:1060100001AC09230AAA10210FA8009400F064FF24
:1060200078204543104869469030281803460546B5
:10603000097940308170323322351022611C1846B4
:10604000FBF7DEFF05A9102201312846FBF7D8FF38
:1060500014B070BD08A98872000A48726946C88EDB
:1060600008A9C6E760210020B48F002010B51848A9
:1060700005210170002444700F2189011548FCF7A7
:1060800001F800F051F8FF2191311348FBF7E8FFC8
:1060900000F026F864211148FBF7E2FF00F030F829
:1060A0000C4818219038FBF7DBFF0A4814211438FC
:1060B000FBF7D6FF074864217838FBF7D1FF044887
:1060C000083004804480FEF7AFFE002010BD0000C1
:1060D000602100204490002004940020949500202A
:1060E000054A06490020282343435B18401C5A8474
:1060F0000A28F8D370470000FFFF00000494002036
:1061000070B5074D00241420604340191421FBF79B
:10611000A7FF641C052CF6D302490020C88070BD7F
:106120009495002060210020064A0749002078232A
:106130004343401CCA520828F9D3044900208880F0
:1061400070470000FFFF0000449000206021002005
:1061500070B50E467821484308490022451870352D
:1061600028460A21FBF770FF0446401C05D0A0B268
:106170003146FFF773FE621CF2E770BD44900020C9
:10618000F8B50F460646782148430A4900224518CB
:10619000743528460321FBF757FF0446401C07D0FF
:1061A000E01C80B23A463146FFF704FF621CF0E77C
:1061B000F8BD00004490002070B51646084D7822C6
:1061C00050434419002B03D1295200216C20015562
:1061D0001801201810223146801CFBF711FF70BDFA
:1061E00044900020F3B58FB00E460F987821394ABD
:1061F000484381180D4660350990002E0FD00F9A44
:1062000078235A43334B687BD7183C4612344037C7
:10621000002808D0012816D0022858D14FE00F9846
:10622000FFF75EFE35E0012E51D10020029005A857
:1062300000902046012302AA102100F055FE684676
:10624000007DF87025E0022E02D0032E23D03EE020
:10625000B8780390102205A8891CFBF7D1FE1D49D0
:1062600009982246095A00230F98FFF7A5FF0F98B7
:10627000FFF736FE0398F8702046102205A9FBF7B9
:10628000BFFE31460F98FFF763FF31460F98FFF7C7
:1062900077FF6E731BE00F4809992246415A00238D
:1062A0000F98FFF789FF0F98FFF71AFE31460F98F6
:1062B000FFF74EFF31460F98FFF762FF05E0032E10
:1062C00005D131460F98FFF743FF00206873687BC4
:1062D00011B0F0BD4490002010B500883C2250431E
:1062E000064A80182822125C012A01D0044810BDF9
:1062F0000A468069002100F051FB10BDF48C00209B
:1063000027240000FFB58BB015460446134645A070
:106310000C9A0E99FBF7B0FE51A0FBF7ADFE514869
:106320000020C046002069464F4E8883888B3C2160
:10633000484380193021095C00296AD00A2D05D212
:1063400029463430FBF704FF002862D06846818B71
:106350000E9800F0DDF800285BD108A8FCF750F992
:106360006A46908B3C2148438019017AE088128C60
:10637000821A91420BD03D4A904201D3002906D0A7
:10638000FEF7F4F8022818D003281CD041E0694633
:10639000898B3C2251438919CE68002E0BD0149A68
:1063A000159902920E9B0193009503910246A188D4
:1063B00007A80C9BB0470FB0F0BD04AA0121A01D97
:1063C00000F056FD04E004AA0121A01D00F032FDFA
:1063D00000281ED16846808B3C2148438019383004
:1063E0000499FBF7B5FE002813D06846808B3C214A
:1063F00048438019C768002F0BD0149915980E9A3E
:106400000291039000950192E288A18807A80C9B55
:10641000B8476946888B401C80B288830A2885D398
:10642000C9E700005B4143434553535D3A2048614F
:106430006E646C65205278204F70636F64653A30EB
:1064400078253038582C20534E483A30782530344F
:10645000582C20414B483A3078253034582E0A00C9
:106460000D0A0000641E0020F48C0020FCFF0000D8
:1064700010B50C211448FBF7F3FD13484B21C9005C
:106480000C30FBF7FFFD1248104901801149418093
:10649000002484801E21C18000F034F8FFF7E6FD5F
:1064A00000F01EF800210C48FEF732FB0B4800F00C
:1064B00049F8054900200C313C2242435218401C47
:1064C00054620A28F8D310BDE88C002004050000AF
:1064D0004C8F002012620000E14D0111FF0300000B
:1064E00010B550210548FBF7CDFD00210448FF22DF
:1064F000416002708160084610BD0000588F002086
:106500005421002001480F21018170474C8F002049
:106510003C22514330B50A4A034689180C8A4A691D
:106520000648002106E08D0055599D4201D100200A
:1065300030BD491CA142F6D330BD0000FFFF000072
:10654000F48C0020F8B5114D064601222978002070
:10655000FBF704FE002818DB00240120A040304295
:106560000CD01420214641430848001D0F182978FB
:1065700000207A68FBF7F8FD38698047641C0A2C14
:10658000EBD329780020FBF7F5FDF8BD6C21002046
:10659000F8B5114D0646002229781046FBF7DEFDBE
:1065A000002818DB00240120A04030420CD0142029
:1065B000214641430848001D0F18297800207A68B9
:1065C000FBF7D2FDF8688047641C0A2CEBD32978CE
:1065D0000020FBF7CFFDF8BD6C210020F0B59446FC
:1065E000134A1C46138802883C204243114885B058
:1065F0001218107A0A9E1818938B927F0B9D80B206
:10660000012A03D00A2B03D3002206E0032204E070
:106610001A4628277A43084FBA5A084F3F780097FE
:1066200001AF52C704956146FCF7F4FB05B0F0BD1D
:10663000B48F0020F48C00200494002060210020FE
:1066400010B500F0CDF9044900200870FF21413158
:106650000248FBF717FD10BDFD2000208C6F0020C5
:1066600010B550210648FBF70DFD00200449FF221C
:106670000301401CCA540528FAD3002010BD0000B5
:106680003C6F0020F8B507462820124A00217843C5
:10669000C94380184184B8B2002500903C202946A7
:1066A00041430D480C1826462036307C01280DD178
:1066B000204634303946FBF7C1FC307A012805D139
:1066C000A18B0098814201D1002030726D1C0A2DEF
:1066D000E4D3F8BD04940020F48C00200020044989
:1066E00002468300401CC0B2CA500228F9D370474A
:1066F0004C220020F7B582B00024029A3F49960050
:106700008A5925462046137C10E00C27D168474360
:10671000CF5D03998F4208D10C2141430C460834C8
:10672000D568091D2C596D5802E0401C8342ECD8F5
:1067300083421ED15C2132A0FBF7BCFC002805D0AF
:106740005C212FA0FBF7B6FC401C00E02CA08B21A5
:106750003C4C0346009134A221460120FBF7B0FCDB
:1067600039A221460120039BFBF7AAFC444805B04F
:10677000F0BD126801A90498904707461F49019A85
:1067800038E08859E3008068C058104231D08859F9
:106790000D468168E000001D095800290AD00498C0
:1067A00088470746A8594268002A25D039460498E8
:1067B000904721E05C2112A0FBF77CFC002805D06B
:1067C0005C210FA0FBF776FC401C00E00CA0BE2172
:1067D0001C4C0346009114A221460120FBF770FCDB
:1067E0000398009027A221460120029BFBF768FC3A
:1067F00002E0641CAC42C4D93846B8E74C22002001
:106800002E2E2F6D6573682F707269766174652FF7
:10681000636F72652F66736D2F66736D5F656E674C
:10682000696E652E630000000A5B2A2A20455252D9
:10683000202A2A5D3A5B25735D3A5B25645D3A2028
:1068400000000000000200405B46534D5D3A2055B9
:106850006E6B6E6F776E204576656E74203078258E
:10686000303258205265636569766564202D206456
:10687000726F7070696E67206576656E740A0000CD
:10688000FFFF00005B46534D5D3A5B253032585D9B
:1068900020526563656976656420556E6B6E6F770F
:1068A0006E204576656E7420253032580A0000004F
:1068B00038B50024174B224695005D59002D07D0AE
:1068C000521CD2B2022AF7D30A70022A03D01EE069
:1068D00095005851F8E75C210FA0FBF7EBFB00286F
:1068E00005D05C210CA0FBF7E5FB401C00E00AA0F2
:1068F00044211A4C0346009111A221460120FBF7C6
:10690000DFFB17A221460120FBF7DAFB224C2046D1
:1069100038BD00004C2200202E2E2F6D6573682F8D
:10692000707269766174652F636F72652F66736D1F
:106930002F66736D5F656E67696E652E630000007C
:106940000A5B2A2A20455252202A2A5D3A5B257387
:106950005D3A5B25645D3A200000000000020040C3
:106960005B46534D5D3A2046534D2052656769732F
:10697000746572204661696C65642E204E6F2066D6
:1069800072656520696E64657820617661696C6105
:10699000626C65210A000000FFFF000030B50E4B5D
:1069A000052808D284000D4825186918897800291F
:1069B00010D0005B0CE00A280CD21424401F604366
:1069C000064C643C00194118897C002902D0008AD9
:1069D00010800023184630BD222400003090002093
:1069E00010B51348806981061248890E006801D1EC
:1069F000401C1BD010A0FBF73FFB18A0FBF73CFB93
:106A000017480020C04617A0FBF736FB13A0FBF782
:106A100033FB13480020C04607A0FBF72DFB0FA057
:106A2000FBF72AFB0E480020C046FEE710BD000021
:106A300040F00040000A00113D3D3D3D3D3D3D3DE3
:106A40003D3D3D3D3D3D3D3D3D3D3D3D3D3D3D3D76
:106A50003D3D3D3D3D3D3D3D3D0A00000D0A0000F0
:106A6000641E00203D3D3D3D20205B444F204E4FA5
:106A70005420535550504F5254204D4553485D209B
:106A8000203D3D3D3D0A000038B5002168460180AB
:106A9000094C02236A4621780020FBF771FB684607
:106AA00000880A2806D1FF239133044A2178002068
:106AB000FBF766FB38BD00006C2100200494002029
:106AC00038B50021684601800B4C02236A462178C4
:106AD0000020FBF755FB6846008805280BD10223F0
:106AE000064A21780020FBF74BFB6423044A2178F7
:106AF0000020FBF745FB38BD6C21002066210020FB
:106B00009495002038B5002468460480094D02237E
:106B10006A4629782046FBF733FB6846008806283A
:106B200007D11823044A29780020FBF729FB0248E3
:106B3000847038BD6C210020B48F002038B500244B
:106B400068460480114D02236A4629782046FBF7E7
:106B500017FB68460088022816D10C230C4A2978B6
:106B60000020FBF70DFB0A230A4A29780020FBF7D7
:106B700007FB074A00200621414389180C718C70DD
:106B8000401CCC700228F6D338BD00006C210020D8
:106B9000E88C00204C8F002038B500246846048023
:106BA0000E4D02236A4629782046FBF7E9FA68462B
:106BB00000880A2810D14B23DB00094A29780020DD
:106BC000FBF7DEFA064900203C22424352182032ED
:106BD000401C14740A28F7D338BD00006C21002033
:106BE000F48C002038B5002168460180084C02234F
:106BF0006A4621780020FBF7C3FA6846008805281A
:106C000005D11423034A21780020FBF7B9FA38BDD7
:106C10006C210020309000201CB507480423017827
:106C2000002001AAFBF7ACFA401C04D001980090A8
:106C30006846FDF7C9FC1CBD6C21002038B5002159
:106C4000684601800F4C02236A4621780020FBF73A
:106C500097FA68460088082812D10C230A4A21783E
:106C60000020FBF78DFA0223084A21780020FBF769
:106C700087FA0F239B01064A21780020FBF780FA50
:106C800038BD00006C210020A88F00206421002066
:106C90004490002038B50021684601800B4C022347
:106CA0006A4621780020FBF76BFA684600880228C4
:106CB0000BD10423064A21780020FBF761FA012357
:106CC000044A21780020FBF75BFA38BD6C210020D4
:106CD000682100206121002038B50021684601802C
:106CE000084C02236A4621780020FBF749FA6846DF
:106CF0000088052805D16423034A21780020FBF78A
:106D00003FFA38BD6C210020CC8F002010B5FFF772
:106D100067FEFEF76BFAFEF797FCFEF7A3FC02484E
:106D2000FDF734FC10BD00002158011170B500883A
:106D300086B080B269468880174D00014419FF2053
:106D4000207060780128E06808D0A168884700209A
:106D5000E07060706060A06006B070BD61688847D8
:106D60000E4EE0784ECE059602AE0EC68106800924
:106D7000800002AA1058890E4143022060700090E2
:106D8000800701436846808801AB00014019044A2E
:106D9000FBF79CF9E0E700003C6F0020E0A5011143
:106DA0002D6D011110B5FFF71BFE0A48002101608F
:106DB0004160F0210848FBF765F900F0EBFB01F0BA
:106DC000C3F800F081FE01F09DF904490120FCF7B1
:106DD000BBF910BD30210020808A0020E974011128
:106DE00010B5FFF7FDFD0E490220FCF79DF90D4996
:106DF0000420FCF799F90C490020FCF7A5F901F0F3
:106E0000E5FB0A4801F0BEFB094900200870487004
:106E1000FF220A54401CC0B20228FAD310BD000061
:106E2000B1810111E1850111658A0111F8950020F8
:106E300049220020F0B505460B480C4C00239E006B
:106E4000A65B002E0BD02F88B74208D19D002C19CD
:106E500061188978002901D000201360F0BD5B1C07
:106E6000052BECD3F0BD0000212400003090002061
:106E7000F0B505460D480E4C002314265E43361926
:106E8000368A002E0DD02F88B7420AD114255D43D3
:106E90002C196118897C002902D05B1D0020136029
:106EA000F0BD5B1C052BE8D3F0BD000021240000E1
:106EB000CC8F0020F0B587B01F4602AB009313467D
:106EC0000A46102601460C9D0D9C01960020FBF7FA
:106ED00015F902AB2A463946002001960094FBF7CB
:106EE0000DF907B0F0BD0000FFB5B9B035A01F46E1
:106EF000429D006811371C462C90802F5FD831AA24
:106F000004212CA800F092F82DA81026009031AB97
:106F1000019600203A9A3999FBF7F0F822460BA81F
:106F20003B99FBF76DF801210BA8015502A80090D1
:106F3000601C82B201962DAB0BA90020FBF7DEF896
:106F400002A80FC80E930BAB07C30FA822463B99AC
:106F50002B90FBF755F80BA8001902210A90017439
:106F600006A80090BAB22DAB0BA901960020FBF742
:106F7000C5F806A80FC80E930BAB07C322463B9972
:106F80002B98FBF73DF80A980321017435A800906F
:106F9000BAB22DAB0BA901960020FBF7AFF86846FB
:106FA000C07D10224006400E287006A9681CFBF721
:106FB00027F82846102235A91130FBF721F83DB0FB
:106FC000F0BD0000736D6B32F0B5064691B014A0B1
:106FD0000D46006813A1109003C917460F910E903B
:106FE00002AA042110A800F021F806A8102400909D
:106FF00002AB2A46314601940020FBF77FF80AA82D
:10700000009006AB05220EA901940020FBF776F84C
:1070100008220CA93846FAF7F3FF11B0F0BD0000C2
:10702000736D6B33696436340100000000B587B0BE
:1070300000230593029303930493009210230A46BE
:107040000193014602AB0020FBF758F807B000BDE2
:1070500038B50A2069460880074C02236A46217821
:107060000020FBF793F8FF239133044A2178002096
:10707000FBF78CF838BD00006C2100200494002040
:1070800038B5052069460880094C02236A462178F4
:107090000020FBF77BF80223064A21780020FBF74B
:1070A00075F86423044A21780020FBF76FF838BD97
:1070B0006C210020662100209495002038B5062020
:1070C00069460880064C02236A4621780020FBF7B7
:1070D0005DF81823034A21780020FBF757F838BDE4
:1070E0006C210020B48F002038B50220694608804A
:1070F000094C03466A4621780020FBF747F80C2329
:10710000064A21780020FBF741F80A23044A217837
:107110000020FBF73BF838BD6C210020E88C0020F4
:107120004C8F002038B50A2069460880074C02239E
:107130006A4621780020FBF729F84B23DB00044A3C
:1071400021780020FBF722F838BD00006C210020D8
:10715000F48C002038B5052069460880064C0223CF
:107160006A4621780020FBF711F81423034A21789E
:107170000020FBF70BF838BD6C2100203090002078
:107180001CB56846FDF7FAF903480423017800208E
:1071900001AAFAF7FBFF1CBD6C21002038B50820BE
:1071A000694608800D4C02236A4621780020FAF7D0
:1071B000EDFF0C230A4A21780020FAF7E7FF0223AB
:1071C000084A21780020FAF7E1FF0F239B01064AC5
:1071D00021780020FAF7DAFF38BD00006C2100208A
:1071E000A88F0020642100204490002038B50220A0
:1071F00069460880094C03466A4621780020FAF760
:10720000C5FF0423064A21780020FAF7BFFF0123B7
:10721000044A21780020FAF7B9FF38BD6C2100201C
:10722000682100206121002038B5052069460880CA
:10723000064C02236A4621780020FAF7A7FF642350
:10724000034A21780020FAF7A1FF38BD6C21002005
:10725000CC8F0020F8B52D48FDF7A2F82C4800256A
:1072600005702C492C48FAF70DFF0026FF27E1375F
:10727000FF2080003146414327480C18FF21890038
:107280002046FAF7FFFE0720C0012018C5650566F5
:1072900045668566204614303946FAF7F3FE2046E7
:1072A000FF30F9303946FAF7EDFE2046FF30C130A5
:1072B000C58685860F208001201845831F21058300
:1072C0004901FF2061188876761C2074052ECFD3E3
:1072D0000F481421458085801048FAF7D3FE0F48E7
:1072E000FF2404730E211430FAF7BAFE0B4818215C
:1072F000143004732C38FAF7C5FE08480E211838EC
:1073000004752C30FAF7ACFEF8BD000001A20111A3
:107310000C210020EC130000487600204C8A00204D
:1073200030B5124C124B227819781E2A15D08918C4
:107330001E2901D31E3989B20E4B0578C9005D5450
:10734000C91845784D7083884B80806848601E2A34
:1073500001D0521C2270002030BD4D1CEDB21D70BA
:107360001E2DE9D100251D70E6E700003A2100201E
:1073700038210020808A002070B50E46054614464C
:1073800005211046FAF76CFE2572280AE071280CD8
:10739000A071280E607120460722F11D0930FAF70E
:1073A0002FFE70BDFFB5A7B00878309CC0090D4610
:1073B000207009784906490E617017A9FBF7DCF8BF
:1073C00019AA29461798FFF7D7FF46482A997CE063
:1073D00012AB19AA1DA9284600F01CF910A8007AC2
:1073E000C009A07010A8007A4006400EE07010A8F6
:1073F000407A010210A8807A0843010210A8C27ADC
:10740000007B0A430102A18010A8407B0143A180B8
:107410002046A26000F0C8F800284CD00EA8062232
:1074200012A90130FAF7ECFD2798002845D0032077
:1074300008A9087600204876002010AA1070C877A6
:1074400017981071010AD170010C9170000E5070E4
:10745000A17804208840C6B2299832462818811B9A
:1074600025A8FAF7CDFD002125AA06A803AB0291B5
:1074700045C3084629990190891BC91F89B200910B
:10748000EB1D0D220EA921A8FAF786FE002818DBB5
:107490006946087E0002E080497E0843E080299822
:1074A00006A9801B093882B23298023102803198D5
:1074B000FAF7A6FD13E00B4F11E0002008A90876AB
:1074C000BAE72A982A990088401C0880607821AB86
:1074D0001DAA2A99FBF720FA070000D178E7384661
:1074E0002BB0F0BDFFFF0000F0B5044606788FB06A
:1074F000401C0D90607A27460202A07A0D37104397
:107500000202E07A0D4610430202207B10430290F3
:107510001F486A461082083D06AB07AA04A90D98C9
:10752000FBF778F900282CD108200190AAB207AB0C
:10753000214600970120FAF7E1FD002823DB684689
:10754000008A00281DD1F10701D0022200E00322A9
:1075500069460A75097E012904D105A9FBF71EFBBE
:1075600000280ED1B007C10F684601750298FBF7DD
:10757000E5FA002805D168463146008A029AFDF7EF
:1075800095FA0FB0F0BD6946088A401C0882C3E72F
:10759000FFFF000002490020087002490870704790
:1075A0003A21002038210020F0B51749184D154C1C
:1075B00009780023154A2D781FE0CE00B446B6188E
:1075C000B64676784778BE4210D16646965D077813
:1075D000BE420BD1764676888788BE4206D1764673
:1075E00076688768BE4201D1002408E0491C89B250
:1075F0001E2900D100215B1C9BB2AB42DDD320468B
:10760000F0BD0000FFFF000038210020808A00202C
:107610003A21002070B51C461346054622461846FE
:10762000FAF7C0FD002029184978225C5140215406
:10763000401C0628F7D370BDFFB593B01D46144615
:107640000E460D2B77D307A804A90AAF009102902C
:1076500008AB2A46019721461398FFF7A3FE00289E
:1076600069D16846C47C417C807C069A0190029472
:10767000009203916846037CC28A818A4248FAF7E5
:10768000FBFC42A0FAF7F8FC41480020C0466846DF
:10769000828B29463FA0FAF7EFFC3CA0FAF7ECFCFE
:1076A0003B480020C0466846808AFCF75FFF0128FF
:1076B00041D10125002E05D06846818A002530463B
:1076C00000F01EFA6846C08A00281FD004A8FFF701
:1076D00027FE10A904A8FEF713F83C4980B288429F
:1076E00042D16846C07C01283ED900216846FAF79D
:1076F00017FF012109A8FAF713FF6846007801284F
:107700001BD008A80079012817D02DE01398022873
:1077100011D16846807C01280DD16846C07C0028C4
:1077200009D16846808B00906846028C0AAB3146CE
:1077300004A800F003FA17B0F0BD6846C17C491EEA
:10774000C1740197818B0181008C032803D303A9A5
:10775000FAF776FE01E069468881684681892B4602
:1077600001AA04A800F038F819480568002DE2D0F5
:10777000184910988842DED16846C474838B018C06
:107780000AAA04A8A847D6E7ECAA01110D0A00002E
:10779000641E00205B4E45542052785D6E65745F18
:1077A00070646174615F6C656E203D2030782530B7
:1077B00034582C2074726E5F7064755F6C656E2037
:1077C0003D203078253034580D0A00001821000083
:1077D0002C210020FFFF0000FFB504007048B3B06B
:1077E000154605D0002D03D0A988102902D9401EC6
:1077F00037B0F0BDA0780422E3788240D7B2369A41
:107800000293049203910190A06800902378E2888B
:10781000A1886448FAF730FC63A0FAF72DFC6348AE
:107820000020C0461EA93498FAF774FF06000CD059
:1078300002465FA03499FAF71FFC5BA0FAF71CFC24
:107840005A480020C0463046D2E728A93498FAF7B3
:107850007FFF2CA93498FAF721FF20780FAEC101E1
:1078600018A8007E4006400E014308A80177A078C2
:10787000C101E0784006400E014308A84177217A13
:1078800010A801702089010A08A8C177A068010C1E
:1078900008A88177217910A88170A088010A10A812
:1078A0004170A1790171E088010A10A8C1703046C9
:1078B000AA8809302968FAF7A3FBA888093085B29D
:1078C00008A8017F684601761FA8FAF799FE16A856
:1078D0000622711C0130FAF793FB10A8A188808F53
:1078E000814202D1E08800284BD0002010A9087600
:1078F000369801284CD00026002118A8017010A845
:10790000C1771DA8FAF724FE1D9918A801710A0A6B
:10791000C2700A0C8270090E4170002130AA4138F1
:1079200003AB029185C30846E91F89B2009101901B
:107930002B330D2216A92CA8FAF73AFC06A84019F9
:107940003A4630A9FAF75CFB24AA06A91D98FFF76E
:1079500013FD20AB24AA28A90FA8FFF75BFE002087
:1079600006A920AA125C0B18401CC0B25A70062847
:10797000F7D3E81983B2E18806AA304600F05AFA34
:1079800036E7032010A90876002048760226B3E7E0
:107990000126FAF713FC16498842ADD1002027E7EB
:1079A0001321000050AB01110D0A0000641E0020DD
:1079B0005B4E45542054785D20496E76616C696455
:1079C000205375626E65742048616E646C653A3050
:1079D00078253034582E2052657475726E696E6742
:1079E00020537461747573203078253034580A0040
:1079F000FFFF000030B500780E21484310490F4CBE
:107A000041180B46203BD87F002814D0002A13D001
:107A1000002045004D19403D6D8E954202D0401C1E
:107A20000528F6D3997F002902D0052802D303E068
:107A3000052801D3204630BD002030BDFFFF0000E7
:107A4000D88C002030B403780E2253430F4A002113
:107A50009B18403B998703780E2463439B18203B77
:107A6000997703780E256B439A18FF24203AD47730
:107A7000074A9468002C06D011700023A44630BC3D
:107A80001A460121604730BC70470000D88C0020A6
:107A90004421002013B569460A7901780E23594321
:107AA000074BC9182039CA7706498C68002C05D0C5
:107AB00001220A70134601AA0021A0471CBD000044
:107AC000D88C00204421002070B50E210A48FAF716
:107AD000C7FA094D002428460A21FAF7C1FAFF2007
