:020000041101E8
:1020000003B40148019001BDE59FFF1F03B40148DF
:10201000019001BDED54FF1F03B40148019001BDC3
:102020008954FF1F03B40148019001BD55B0FF1F43
:1020300003B40148019001BDBD9FFF1F03B40148D7
:10204000019001BD399FFF1F03B40148019001BDFC
:10205000CD9FFF1F03B40148019001BDBB54FF1F7A
:1020600003B40148019001BDBB54FF1F03B40148F4
:10207000019001BD4563FF1F03B40148019001BDFC
:102080008162FF1F03B40148019001BD3D63FF1F42
:1020900003B40148019001BD8954FF1F03B40148F6
:1020A000019001BD097EFF1F03B40148019001BDED
:1020B0004108000003B40148019001BD0755FF1F0E
:1020C00003B40148019001BDFD62FF1F03B4014844
:1020D000019001BD65DDFF1F03B40148019001BD02
:1020E00049B7FF1F03B40148019001BD85B6FF1F2A
:1020F00003B40148019001BD5DB7FF1F03B401485F
:10210000019001BD41B7FF1F03B40148019001BD1B
:10211000D963FF1F03B40148019001BD5D63FF1F38
:1021200003B40148019001BD6902000003B40148F5
:10213000019001BD7181000003B40148019001BD0F
:1021400071DFFF1F03B40148019001BD1564FF1F3B
:1021500003B40148019001BD1F9FFF1F03B4014854
:10216000019001BD25DFFF1F03B40148019001BDAF
:10217000CDDFFF1F03B40148019001BDF5DEFF1F55
:1021800003B40148019001BD45DFFF1F03B40148BE
:10219000019001BDF5DFFF1F03B40148019001BDAF
:1021A00009B6FF1F03B40148019001BD29B7FF1F05
:1021B00003B40148019001BD41B6FF1F03B40148BB
:1021C000019001BDFDAEFF1F03B40148019001BDA8
:1021D000AD54FF1F03B40148019001BD39B7FF1F83
:1021E00003B40148019001BD8DE2FF1F03B4014813
:1021F000019001BD9DE2FF1F0A4670B501463C20DB
:10220000154B4143C8180579124C002D02D159587D
:10221000002904D03021095C012902D018E00D24E6
:1022200016E003240D4E0E4B002128254D43ED18DA
:102230006D8CB54209D0954207D13430FFF7E0FEEE
:102240000024022006F04CFA02E0491C0A29ECD3D3
:10225000204670BD2124000068600020FFFF0000C0
:1022600078670020F7B50746274E0A2527488C4691
:1022700000242146282251430A18528C244B9A42AA
:1022800014D0624515D128225443025BBA4201D0D2
:10229000042636E008181022801C0299FFF7B6FECB
:1022A000002801D006262CE000262AE00A2D00D1C5
:1022B0002546641C0A2CDCD30A2D22D02C46282269
:1022C00054431248614626187184B01C10220299AA
:1022D000FFF7A2FE0D4829460753782047430D48D3
:1022E00038187030FFF78CFE3246243210210298E5
:1022F00007F09AF800202036B0710646102006F04C
:10230000EFF93046FEBD0000202400007867002071
:10231000FFFF0000B8630020F8B50F460C4D0146E2
:10232000E8881646052801D30A48F8BD1422504310
:10233000094A841810222046FFF76EFE2782A674F1
:10234000E888401CE880082006F0CAF90020F8BDA3
:10235000A4F9FF1F2524000008690020FFB593B0F1
:102360001C4615460EA91C9F139800F057FB0D90B4
:10237000002843D1FFF756FE14980121C01C86B2F5
:1023800008A801728572290A41720473210AC17278
:102390008773390A41731D990174090AC17301A831
:1023A000009009230AAA10210EA806F09BFF684698
:1023B00001797820134C464335194222515528465D
:1023C0002F4601A93230223710220131FFF724FEB7
:1023D00005A9102201313846FFF71EFE0120000337
:1023E000A053139878214843001974301499FFF7CB
:1023F00007FE13986867042006F072F90D9817B06D
:10240000F0BD0000B86300207FB50C463C21484376
:102410001749164E45183020405D012822D12078FA
:10242000761E01280AD06088694688806A460121A4
:1024300001A806F065FE002814D10AE06B4601AA47
:102440000121201D06F092FE00280BD168468088ED
:1024500060802846002638300099FFF7D1FD022021
:1024600006F03EF9304604B070BD000021240000A3
:1024700068600020F8B5944606460B460324052004
:102480002E4A2F4D002178274F43EF5B974201D111
:10249000032C11D0B74210D10C462A498B4215D1DA
:1024A00078204443601910226146801CFFF7AEFD7E
:1024B000002800D00620F8BD0C46491C0329E2D3B1
:1024C0002049491D8B4201D10420F8BD032CFCD0CA
:1024D0001C4883421BD1A0B200236246314605F05E
:1024E000D3FEA0B2002105F0E5FE78204443641934
:1024F000204670300A21FFF79BFD204674300521ED
:10250000FFF796FD10498888401C888013E0A0B230
:102510007821484340196030407B002801D00B20CF
:10252000F8BDA0B201236246314605F0ADFEA0B26F
:10253000012105F0BFFE0020F8BD0000FFFF0000F4
:10254000B863002040800000A4F9FF1F70B53C2153
:10255000484311490F4D44183020005D012813D124
:102560000022383420460A21FFF768FD0546401C4A
:1025700005D00121284606F0D1F96A1CF2E7204671
:102580000A21FFF755FD0025022006F0A9F828468C
:1025900070BD0000212400006860002070B5CA1CD6
:1025A000154694B27822074E504380197430FFF7D5
:1025B0004BFD78214C430448A1194867A8B200F0AC
:1025C0003BF870BDB8630020FFFF0000F8B50C4673
:1025D0000021C94300913C2148431649144E451837
:1025E0003020405D012820D12078761E012807D0B8
:1025F0006A460121A01C06F065FD002815D106E001
:102600006B46A21C0121201D06F026FEF5E70121E4
:10261000009806F083F9060007D128463830009963
:10262000FFF712FD022006F05BF83046F8BD00000F
:10263000212400006860002070B5104B0C269A8899
:10264000012A19D9782148430D490E4C0D5AA5424B
:1026500012D0521E0C5200269A8045183246703510
:1026600028460A21FFF7EAFC0446401C04D0204615
:1026700006F08CF9621CF3E7304670BDA4F9FF1F29
:10268000B8630020FFFF000078235843034B00226B
:10269000C018406F0880104670470000B8630020E3
:1026A00070B504460848094E094B00227825554369
:1026B0005D5BB54204D0A54202D10A80002070BD06
:1026C000521C032AF2D370BD21240000FFFF00003A
:1026D000B863002030B503460B48002910D0002A0B
:1026E0000ED028246343094C094D1B195C8CAC4265
:1026F00005D0981C2033086018791070002030BD78
:1027000001480F3830BD0000222400007867002007
:10271000FFFF0000FFB5944602461348134F144DC7
:1027200081B000242346282673435E19768CBE426E
:1027300015D08E4213D1EB5A934210D1282060431A
:10274000411910226046891CFFF760FC002802D066
:10275000062005B0F0BD049804800020F9E7641C51
:102760000A2CDFD3F5E7000021240000FFFF000062
:1027700078670020F0B596467822154B42438C4688
:102780009A5A144F11490024BA421BD00023282220
:102790001E46114D56437219528CBA420CD0AD5B95
:1027A000854209D165462D88A54208D9660015469F
:1027B0007246641C9553A4B25B1C0A2BE7D3002C11
:1027C00000D00021604604800846F0BD21240000AE
:1027D000B8630020FFFF000078670020002804D0C5
:1027E00003490978017000207047024870470000D3
:1027F000A4F9FF1F13240000052807D2002905D0E3
:10280000074AD288904204D3064870470548401EC4
:10281000704714225043044A801808600020704713
:10282000A4F9FF1F122400000869002002498978DA
:10283000017000207047000028630020024A014612
:10284000527800200A707047A4F9FF1F01228A40C5
:1028500005490346497800200A4201D0012100E0E1
:102860000021197070470000A4F9FF1F024A0146B9
:10287000927800200A707047A4F9FF1F10B5002855
:102880000AD0064A147913681B1B0360002901D083
:1028900010790870002010BD014810BD1C63002095
:1028A0001324000000290BD0064AC0071268C00F8D
:1028B000D307DB0F834200D0521E00200A6070470E
:1028C000014870471C6300201324000030B57823B2
:1028D0005843074B074D1C5A044AAC4204D0C01859
:1028E0006030407B08700022104630BD212400007B
:1028F000B8630020FFFF0000F7B50F463C214843B6
:102900001349124E45183020405D0024012819D18A
:102910000022343528460A21FFF790FB411C0ED0D7
:102920003988A1420BD928210A4A414389184A8C87
:1029300063000299641CCA52A4B2421CEAE7002C4C
:1029400000D000263C803046FEBD0000212400005F
:10295000686000207867002070B50C4601463C2274
:102960005143154A13488E1835462035297C0129D4
:1029700007D1287A012805D01C212046FFF76AFBE1
:10298000002070BDA21C0021B06906F08BF9B08B4D
:102990002821484309494018408CA082B07FA07587
:1029A000F07FE07528782076A8786076E878A076C1
:1029B000E6E700002124000068600020786700201E
:1029C000F7B53C2148431449124F46183020805D2A
:1029D000002501281AD10022383630460A21FFF797
:1029E0002DFB0446401C0ED001980088A8420AD94D
:1029F000029869000A180121204606F053F96D1C5F
:102A0000ADB2621CE9E7002D00D0002701980580D7
:102A10003846FEBD212400006860002070B5782291
:102A20005043094A0B46145A084D0649AC4206D099
:102A3000811810221846891CFFF7EEFA002108467B
:102A400070BD000021240000B8630020FFFF0000DB
:102A5000F0B504460C4800220C4D134678265E4320
:102A6000AE5B0B4FBE4206D02788974206D957006F
:102A7000521CCE5392B25B1C032BEFD3002A00D022
:102A800000202280F0BD000021240000B863002057
:102A9000FFFF000038B50C46002222707822504318
:102AA0000C4A0D4D135A0A49AB420ED080186030C3
:102AB000007B207001216846FFF7C8FE6846007859
:102AC000012801D0022020700021084638BD0000F6
:102AD00021240000B8630020FFFF0000002804D07C
:102AE00003490988018000207047024870470000B0
:102AF0002863002013240000F0B500280AD0002924
:102B000008D00D4A0B88D288934200D91346002280
:102B10000A4F0CE00A48F0BD14245443E419268AF5
:102B2000950046532D18A47C521CAC7092B29A4268
:102B3000F2D30B800020F0BDA4F9FF1F086900202C
:102B40001324000010B50B46082801D3084810BD17
:102B5000002B0AD078214843064910224118184614
:102B60004431FFF759FA002010BD01480F3810BD5D
:102B700022240000B863002010B50B46082801D3BA
:102B8000084810BD002B0AD078214843064910227E
:102B9000411818463231FFF73FFA002010BD0148B6
:102BA0000F3810BD22240000B863002010B50B467A
:102BB000082801D30B4810BD002B0ED078214843C4
:102BC00009490A4C0A5AA2420AD041181022184652
:102BD0005C31FFF721FA002010BD02480F3810BD0C
:102BE000042010BD22240000B8630020FFFF000075
:102BF00010B50B46082801D30B4810BD002B0ED092
:102C00007821484309490A4C0A5AA2420AD041187D
:102C1000082218465431FFF7FFF9002010BD024882
:102C20000F3810BD042010BD22240000B86300201E
:102C3000FFFF000010B5082806D278225043094A49
:102C4000094C135AA34201D1084810BD002905D0F0
:102C50008018403080780870002010BD03480F387D
:102C600010BD0000B8630020FFFF00002224000018
:102C700010B50B46082801D3084810BD002B0AD018
:102C80007821484306491022411818462231FFF79F
:102C9000C3F9002010BD01480F3810BD22240000E8
:102CA000B863002010B50246054B54001A5D0A7047
:102CB000E3185B780020DB001A430A7010BD0000A7
:102CC000ACF9FF1FF8B5184C15460B00064615D099
:102CD000002D13D018881549884221D100202821C1
:102CE000134A414389180A4620321779B74208D15E
:102CF0000024188010222846891C0DE00A4C0E3C46
:102D000010E09779002F0AD05279B24207D118808B
:102D10000024102228461231FFF77EF902E0401C01
:102D20000A28DCD32046F8BD21240000FFFF000064
:102D300078670020FFB593B00F4616990020087001
:102D40001398374E002835D0002F33D0159800281F
:102D500030D03D883348854227D10025782032493C
:102D6000684344182146543108221398FFF74EF95E
:102D7000002822D0204660301190407B002813D0DC
:102D80002AA000682AA1109003C909910890123462
:102D90000EAA1021204606F015FB08220EA9139852
:102DA000FFF734F9002818D06D1C032DD6D3304618
:102DB00017B0F0BD1A4E0E3EF9E73D8021460026C1
:102DC000443110221598FFF727F96034607B022800
:102DD000EDD3169901200870E9E71198407B02288D
:102DE00002D21699012008700020049005900690E8
:102DF000079004AA042110A806F044FB0AA90620A3
:102E00000191009008AB04AA1021204606F050FA68
:102E10003D80002610220AA91598FFF7FDF8C6E7A5
:102E200021240000FFFF0000B86300206E6B626B7E
:102E30006964313238010000FFB5694F8FB00E0070
:102E400024D01198002821D0129800281ED0348850
:102E50006448844249D10024782021464143624895
:102E60000D182846403082780F998A4214D15F4865
:102E7000807802280DD00027348029462231102284
:102E80001198FFF7C9F82946323147E0544F0E3FF9
:102E9000A3E0534F7F1DEFE76D21495D002923D04B
:102EA000C0780F9988421FD100200A90284601ADB2
:102EB000123001230AAA1021009506F013FA4B489C
:102EC000807802280DD0002734801022691C1298C7
:102ED000FFF7A2F805A9102201311198FFF79CF81D
:102EE0007BE03F4F7F1DEFE7641C032CB4D372E0FF
:102EF00078203D49604345184220425D0F98824248
:102F00000FD134807820444308462118002710222E
:102F100022311198FFF780F8294632311022129899
:102F2000DCE7304A686F904254D078225043401812
:102F300000906030407B00284CD0E01E2B4D81B2C9
:102F40000DAAA87801F08CFD0098012108AA117241
:102F50002549AA78903909881230022A2FD06B4669
:102F6000DA8E08AB9A72120A5A721973090AD97268
:102F70006A46118F08AA9173090A51736A46518FE4
:102F800008AA1174090AD17301A9009109230AAA98
:102F9000102106F0A7F96A4611790F98814219D1DC
:102FA00001A9102201311298FFF736F805A9102265
:102FB00001311198FFF730F8002734800DE008AA9E
:102FC0009172090A51726A46D18E08AA1173090AD0
:102FD000D172CDE7641C082C8AD3384613B0F0BDFB
:102FE00021240000FFFF0000B8630020A4F9FF1FA8
:102FF000FEB50024234F26463C206043C5192846D1
:1030000018301421FFF72CF8641C6E63A4B2AE6371
:103010000A2CF1D31C4D0F213446AE8089011B4888
:10302000FFF71EF8EC8064211948FFF713F8FF2121
:1030300091311848FFF70EF8144E1821903EB578DC
:103040003046FFF707F83046B57064211830FFF7B7
:1030500001F8304614217C30FEF7FCFF30460C3876
:1030600004600471846000946846019401F0A4FA3D
:103070000548083004804480074805F031FB2046AD
:10308000FEBD000068600020A4F9FF1FB8630020A7
:103090000869002078670020FF030000002802D0A4
:1030A000811E7D2903D8034A0021107000E00249E7
:1030B00008467047A4F9FF1FFFFF000070B501220A
:1030C0008A400F4905464878134600240340012DE5
:1030D0000FD0002B00D0012390434870002B06D066
:1030E000D0B201F0FDFF0120400205F0F9FA2046C0
:1030F00070BD002B02D000231043EEE70123FBE755
:10310000A4F9FF1F70B50026064D0446022802D020
:10311000A878022802D1082001F0E2FFAC70304606
:1031200070BD0000A4F9FF1FF8B50646134C0D460C
:10313000C80918D12079124F002805D12068B04263
:103140001AD22A30B04217D36846FEF78FFFA06824
:10315000002806D00099081A0A49884201DA012D90
:103160000AD00098A0606806400E266020710420F6
:1031700005F0B6FA0020F8BD3846F8BD1C63002003
:10318000FFFF00000070991470B50D4603467821CA
:10319000484302460C490D488E5A0A4C86420FD0CD
:1031A000511860314A7B00242978002A04D018463F
:1031B00005F080F8024602E0032900D004462A7098
:1031C000204670BD21240000B8630020FFFF0000EE
:1031D000F3B50C46C97E504F83B0012901D0A58AB2
:1031E00018E04E4B4E48002528226A431218528C94
:1031F0009A4202D0A68A964202D06D1C0A2DF3D3C1
:103200000A2D02D0012905D102E0032005B0F0BD4E
:103210000A2D76D0684680893C21424E4843801969
:103220002030007C01286CD13B4F20787F1E012884
:1032300007D001AA0021A01C05F062FF002860D180
:103240000AE001AB6A460021201D05F08FFF00282F
:1032500057D1684600886080684680893C21484391
:1032600080192821095C012906D1806901998842C9
:1032700002D0002105F052FB6A4690893C2250435F
:1032800080190199816160886A461080002803D105
:103290001C212046FEF7DEFE684680893C2148431B
:1032A00080198583A17D8177E17DC1770146227EEA
:1032B00020310A70627E8A70A27ECA70406A002441
:1032C000002807D005F0DAFA684680893C21484397
:1032D0008019446268460088002814D068468089B6
:1032E0003C22504383191846012120300172417855
:1032F000007803AA243305F07DFA0027022005F0A8
:10330000EFF9384682E7684680893C2148438019B6
:1033100020300472F1E7000021240000FFFF0000CC
:10332000786700206860002013B50F2901D9124882
:103330001CBD684600883C225043104C21220019D5
:103340001154406A002808D005F098FA68460088B1
:103350003C220021504300194162684600883C210C
:1033600048430019034620304178243300786A46E8
:1033700005F040FA1CBD0000112400006860002028
:10338000F8B50D46044678210D4E4C43315B0D4A8D
:103390000A48914211D001216846FFF757FA684662
:1033A0000078012801D002202870A0192978603007
:1033B0000173042005F094F90020F8BD21240000D9
:1033C000B8630020FFFF0000002805D0010403D4EB
:1033D000034A0021108000E00121084670470000E8
:1033E000286300207CB5044604F006FF04F0E0FEEC
:1033F00014211C48FEF72EFE1A4864216438FEF79B
:1034000029FE194800210180418004F03BF9208BFE
:10341000FFF7DAFFA07C8007C10F80316069FFF7FA
:1034200083FE208A22461149FFF724F80546A07C36
:10343000C00711D00D49208A2246491DFFF71AF80E
:10344000208A01A9FFF72CF9054602216846017080
:1034500001468088FFF798FE054805F041F92846A7
:103460007CBD0000A4630020ACF9FF1F4080000079
:10347000FF03000010B54B07420006485B0F835462
:10348000C9081018417001200024400205F028F9F5
:10349000204610BDACF9FF1FFFB50B4603252A4E91
:1034A0002A4981B017460024282262435218528CC0
:1034B000B2420CD09A420AD1282262438A5A8242EE
:1034C00001D011253CE000250A2C06D138E0641C0F
:1034D0000A2CE9D334D0002D32D1782358431C4B29
:1034E0000122D203C618974208D1204605F04EFAB1
:1034F000304670302146FEF7A7FD1BE028204443EC
:10350000641827462037B879002803D16036707BCD
:10351000012801D00B250DE020461230102204991D
:10352000FEF77AFD224625321021049805F07CFF33
:103530000120B871102005F0D3F8022005F0D0F872
:10354000284605B0F0BD0000FFFF000078670020AE
:10355000B86300200021017008467047F1B584B0BF
:103560000498002858D08088002855D00498006816
:10357000002851D00A2000902820FEF77DFD06008B
:103580004DD004980B250468002020704B4801782A
:1035900061700188090AA1708178E1704188090A87
:1035A0002171017961718188090AA1718179E171C3
:1035B000C188090A2172017A61720089000AA07229
:1035C00000273846062148433D49029040180190A3
:1035D0000079002867D00A2000906A4631463846B4
:1035E00004F0E2FE009800285DD035480299415C65
:1035F00061550299405A6119000A48700199AD1C41
:10360000A8B2897821540199401C80B2C97821540C
:10361000401C85B2002016E02A4805B0F0BD2948BC
:103620000E38FAE7810071583C225143264A8B1824
:103630001B79002B06D1515A6155090A6219AD1C3C
:103640005170ADB2401C00998842EBD3002027E0B6
:10365000810072583C235A431B4B9446D21812796E
:10366000012A1CD162469A5C625572583C235A4327
:10367000154B9A5A6319120A5A709C4672583C2389
:103680005A43114B9A586346120C9A7071583C2257
:1036900051430D4A5158090E2D1DD970ADB2401C31
:1036A00000998842D4D37F1C022F8AD33046FEF77C
:1036B000E9FC049885800020AFE70000C06200208C
:1036C0005C6000201324000068600020064B1A880C
:1036D0009B78904206D3D318834203D9801A08708E
:1036E000002070470120704728630020FFB56A461C
:1036F0000646177A0020104A9C4601463C230D4698
:103700005D43AC1830231B5D012B0CD1237AB342EF
:1037100009D12379BB4206D15359019CA34202D15E
:103720006246118002E0491C0A29E7D30A2900D128
:10373000022004B0F0BD00006860002030B50C4AE3
:10374000904212D00B49551E931ED41E4978A842B0
:1037500002D1C80709D109E0984201D1480702E027
:10376000A04203D18807002800DA0022104630BDAD
:10377000FFFF0000A4F9FF1F30B50D4B002814D047
:10378000010412D40B4A00218D00545B002C08D098
:10379000AD18AD78A04204D36419844201D9002346
:1037A00004E0491C0629EFD300E00123184630BD90
:1037B000212400002863002001B581B06A46012160
:1037C00001A805F07FFC002804D06A46012101A869
:1037D00005F020FD0CBD0000FEB50E461C4615464A
:1037E000074602A904F0FCFD002808D101900094CE
:1037F000684602892B463146384604F097FFFEBDE5
:1038000038B514460D46684604F072FB00280BD10B
:1038100069462B8809780622044D4A43AB52217031
:1038200003498A78521C8A7038BD00005C60002011
:1038300028630020F8B50C4615466946204604F07A
:10384000A7FF010005D01648814200D1002108469B
:10385000F8BD684602883C20124E50438019E36848
:10386000C360A3694361A38A03822369C362237A85
:10387000037248CC48C0083C23790B48002B237ABC
:1038800007D0062463431B18D878401CD8702A80C0
:10389000DDE7062463431B189878401C9870F6E710
:1038A00023240000686000205C600020FFB587B022
:1038B000119C139F149E1546FF2C01D111480478CA
:1038C00005A9079804F08CFD00280BD16846828A70
:1038D000AA4207D0002001903B4600961299079813
:1038E00004F024FF129801210190039600940491A2
:1038F00002972946109B0A9A089800F005F80BB029
:10390000F0BD0000A4F9FF1FFFB5E7B01F46739E8E
:10391000719C679800F022FE012802D021486BB00C
:10392000F0BD2148210EFAD17F2CF8D021020B0ED8
:103930002204120EE1B204AD002B0AD0E3431B02B5
:103940009B0FECD1240C6B461C7499745A740321A0
:103950000CE023041B0E06D02304E0D56B465974FB
:103960001A74022102E06A46117401218C19FF23A6
:10397000221D81339A42D2D8681832467299FEF7D6
:103980004BFB60A8649584827099749864AA029233
:1039900003900097019167A80BC8002201F0BAF9C3
:1039A000BDE700002424000012240000F8B50B46F7
:1039B0003C2148431649154F45182E462036307C89
:1039C000012821D1134A14480024282161430918F1
:1039D000498C0327914214D0994212D128463430A1
:1039E0002146FEF731FB307A012805D1A88BA1B220
:1039F000884201D1002030720027022004F070FEBE
:103A000002E0641C0A2CE0D33846F8BD21240000F3
:103A100068600020FFFF000078670020F7B52B4AA0
:103A200082B0074600294ED029488860FF206B46A7
:103A30001870002627483546012F02D0032F42D1A7
:103A400005E0406800283ED1224C18701AE001239E
:103A5000A0245C4324186468002C04D05B1CDBB2F7
:103A6000022BF5D32FE0A0245C4324186846037092
:103A70000868006803882046803043830B681B6811
:103A80009B780377002C1ED014222046FEF700FB03
:103A90002068002801D085880668BC000E482B46A7
:103AA0000759324601216846B8470B482B46201873
:103AB0004468324601216846A04769460A7804995D
:103AC0000A7005B0F0BD1046FBE70000FFFF0000E4
:103AD0001152011100430020404400201FB50B4A41
:103AE0005468002C0FD000226B4600011A70084366
:103AF000587001921A81102303926A462B210448C0
:103B0000A04704B010BD0348FBE7000000430020BD
:103B100040F9FF1F14200000FFB5074621488FB071
:103B200040681D461646002839D0791C1EA0FEF7B5
:103B3000B5FA26A0FEF7B2FA25480020C0466C462A
:103B400000212170601C10221099FEF765FA68466A
:103B50008674310A41741320002D10D02B68002B7D
:103B60000DD0A98800290AD00AAA184605F08AFCB7
:103B700004A804220AA90330FEF74EFA17201022E7
:103B800069460A764F7607940884064809951346D5
:103B9000446806AA2B210F48A04713B0F0BD0E4879
:103BA000FBE70000004300204265617265722074EB
:103BB000797065203D20256428312D6164762C20A4
:103BC000322D47415454290D0A0000000D0A00000F
:103BD00038F7FF1F40F9FF1F1420000070B50D4695
:103BE000154988B04E681446002E22D0102269462E
:103BF0000A720001487203950C820020134605905A
:103C000002AA2B210D48B04701206946087068467A
:103C10000695848306AA432100F094F8684600784C
:103C2000401CC1B2684601700229F0D3002008B0E0
:103C300070BD0348FBE700000043002040F9FF1F70
:103C400014200000014800787047000041F9FF1F70
:103C50001FB50B4A5468002C0FD00A016946521C4C
:103C60000A704870002001900881102303906A4672
:103C70002B210448A04704B010BD0348FBE7000017
:103C80000043002040F9FF1F14200000052806D241
:103C9000002904D0034A80001150002070470248D8
:103CA000704700004044002011200000002901D08E
:103CB000012801D903487047034A800011500020B1
:103CC000704700001120000054440020F8B50D009A
:103CD000044608D028781749022828D2032C04D09B
:103CE000012C05D009E01448F8BD002802D004E0FA
:103CF000002802D00F48401CF8BDA02250430F4AB4
:103D000080184268002A12D0A021FEF7A9F9A40069
:103D10000B4F00233E591A4619462846B047E01972
:103D2000002344681A4619462846A047F8BD0846AD
:103D3000F8BD000011200000FFFF0000004300203C
:103D400040440020F7B58CB00C98002842D0002ADF
:103D500040D0106803900C9896880078A0225043B9
:103D60003A4A841865683A48002D34D08A09890691
:103D7000890E0192012930D0022930D0032901D0C7
:103D8000042928D100200B90204640300A9016309C
:103D90000790401E254680350590FEF785F9C01E28
:103DA00082B26A83771C0B98BA4227D200281CD0B3
:103DB0000199802008430A994875288B8018401E75
:103DC000288381B20398521E09180798FEF724F938
:103DD0006B8B26E01F480FB0F0BD2A2100E029219F
:103DE0003346039A0C98A847F5E701200B900199F8
:103DF000402008430A9948750020E1E700281DD0BB
:103E00000199C02008430A994875288B8018401EE4
:103E10002883298B0398324609180798FEF7FCF887
:103E2000BBB2F01A401C86B26768059A01990C98DB
:103E3000B8470028CFD1002EAFD1CCE701200B909E
:103E40000A9A0198002150752983E2E70043002077
:103E5000FFFF00001120000008B50020694608702F
:103E6000A021484304494018C168002901D0684690
:103E70008847002008BD000000430020F0B5134F24
:103E8000064678688BB01446002803D0022E04D072
:103E9000012203E00E480BB0F0BD00226D462A70EF
:103EA000681C2246FEF7B8F81021684601753101FA
:103EB000491C4175641C06958483002008901023DA
:103EC0007C6805AA2B210348A047E4E700430020B3
:103ED0001420000040F9FF1F08B5002269460A704F
:103EE000A0214A43044951180A69002A02D0014618
:103EF00068469047002008BD0043002010B588B0F8
:103F000004460A4AFF20107000206B46009018718A
:103F10001C72074A0392074A069204902F229A8243
:103F20000A466946FFF786FC08B010BDA8FAFF1FD5
:103F30008163011110CF011130B51546024687B0DB
:103F4000012000030C4600900020694608710A72A7
:103F500008490391084904910849069103226946DA
:103F60008A822246FFF766FC05494D6022880A8056
:103F700007B030BD256A0111916B01110CD10111FF
:103F800068FBFF1F70B50C460978224D8EB00029E2
:103F90000BD05C2120A0FEF78DF8002825D05C21F5
:103FA0001DA0FEF787F8401C20E061686B460A7888
:103FB0001A750B790122002B05D04B786A46537590
:103FC000097991750322224B002A20D005A9FF24EC
:103FD000019402930492039101890091C38842885D
:103FE0008188FFF763FC0EB070BD0BA0BA21204E94
:103FF0000346009117A231460120FEF761F82378AD
:104000001CA231460120FEF75BF82846EBE70021B1
:10401000DDE70000FFFF00002E2E2F6D6573682F77
:10402000707269766174652F6D6F64656C732F674C
:10403000656E657269632F67656E657269635F6F30
:104040006E6F66665F7365727665722E6300000040
:10405000048200000A5B2A2A20455252202A2A5D47
:104060003A5B25735D3A5B25645D3A2000000000F1
:1040700000080040496E76616C6964205374617475
:104080006520547970653A203078253032580A001E
:10409000FFB5344F344D387889B00E4600280FD123
:1040A000B0212846FDF7DCFF0020FF2158224243C3
:1040B00052194032401C51710228F7D30120387048
:1040C0000024582060434019C06C002802D0641CB2
:1040D000022CF6D3022C1FD3244C5C2124A0FDF724
:1040E000E9FF002805D05C2121A0FDF7E3FF401C7B
:1040F00000E01FA02A49324D0346009129A229461B
:104100000120FDF7DDFF23462EA229460120FDF701
:10411000D7FF20460DB0F0BD022001900020694677
:104120000872099A0A73364904913649059136494D
:1041300007910B2269460A83324601A9FFF77AFBF1
:104140003188798058214C4361190A4633884032BE
:1041500053820B9BD3800C9A8A64129ACA64139A76
:104160004A65D7E7B4FAFF1F4C6B002013800000AC
:104170002E2E2F6D6573682F707269766174652FAE
:104180006D6F64656C732F6865616C74682F68650A
:10419000616C74685F7365727665722E63000000EF
:1041A0003E0200000A5B2A2A20455252202A2A5D3C
:1041B0003A5B25735D3A5B25645D3A2000000000A0
:1041C000000800405B4845414C54485D204E6F203C
:1041D00066726565204865616C7468205365727607
:1041E000657220656E746974792E205265747572DB
:1041F0006E696E673A203078253034580A00000026
:10420000ED6B0111D96F0111CCCF0111F8B5274D1C
:10421000297800292DD100282CD001460822A81C7D
:10422000FDF7FAFEFDF752FF04F056FB04F002FF23
:1042300004F0F0FE05F060FA04F09EF904F0D2FB01
:1042400004F016FF04F058FB194EB06A0402240A69
:10425000FDF742FFB06A0002000A011B15A0FDF73E
:104260001DFF22A0FDF71AFF21480020C0460120B3
:104270002870F8BD5C211FA0FDF71CFF002805D0A9
:104280005C211CA0FDF716FF401C00E019A04F2187
:10429000294C0346009121A221460120FDF710FF81
:1042A00026A221460120FDF70BFFF8BD34F9FF1FC0
:1042B00000F00040636F6E73756D652074696D6505
:1042C000206F662066756E6374696F6E2063727905
:1042D0005F656364685F696E69743A202564205283
:1042E0005443207469636B0D0A0000000D0A00003E
:1042F00038F7FF1F2E2E2F6D6573682F7072697649
:104300006174652F636F72652F636F6D6D6F6E2FB4
:104310004D535F636F6D6D6F6E2E63000A5B2A2ACB
:1043200020455252202A2A5D3A5B25735D3A5B256F
:10433000645D3A20000000000100004044796E6195
:104340006D696320436F6E66696775726174696F2A
:104350006E2063616E206E6F74206265204E554C36
:104360004C2E2052657475726E696E670A000000EB
:1043700070B5064D002430206043401903F0A4FBC3
:10438000641C102CF7D3002070BD0000BC46002038
:10439000014908600020704744F9FF1FFFB591B044
:1043A00007469C461BA82CC80026079608961F9C0B
:1043B0006E46378471841A99F177E904C90C09951E
:1043C0000E9138486146002947D001293FD1324635
:1043D000B1770B2C3DD96105090E0C911E99002671
:1043E000097835460F912FE00F99802001436846E8
:1043F00001730E98C004410E684641730E98810007
:10440000E8080143684681730C98690101436846D6
:10441000C173A01BC7B2082F00D908271E983A46BF
:10442000811904A8FDF7F8FDF019C6B203A80A9097
:1044300068463F1D87850AAA07A8139900F0A4F8CB
:10444000002804D16D1CEDB20C998D42CCD915B069
:10445000F0BD1E980A9094851EE00020B077209849
:10446000012801D00C2C08D90E981E996D4613C551
:1044700007A8139903F07CFCE9E790019906890EDF
:104480000843307303AD2246681C1E99FDF7C4FD36
:104490006946641C0A958C850AAA07A8139900F03E
:1044A00073F8D4E7FFFF000010B50A4C21680160E3
:1044B00021686068814207D3FF30FF3002306060BE
:1044C000FF20013004F00CF92068401C206000201F
:1044D00010BD000074F9FF1F30B58FB005460120F4
:1044E0006946087404AC02A90AA8FEF7C7F903A933
:1044F0002846FEF7EBF96946087B02282BD00021FD
:104500006A46107A400008435074A11C2846FEF702
:104510006FFB6A46117A0A9841180A915177080A86
:104520001077080CD076080E90760BA92846FEF777
:1045300009FB07A808210230019100900BAB0D2266
:10454000611C0020FDF7CEFD162204A90120FFF713
:1045500045FB0FB030BD0121D2E70000002803D099
:10456000800B022800D2012070470000024A06CAD0
:1045700006C000207047000074F9FF1F0149086061
:104580000020704770F9FF1F7FB514460D4607C81D
:1045900001AB07C300216846FEF770F90098694631
:1045A000C007C00F087100232246294601A805F064
:1045B00065FB04B070BD0000024905C805C10020BC
:1045C0007047000074F9FF1FFFB5434881B00F46E4
:1045D000002B11D0002F0FD00199012901D0022901
:1045E0000AD13E4800250068B22807D0B12805D07E
:1045F000B02803D03848401E05B0F0BD184606F07C
:10460000F7F8040020D036482646FF360078613699
:10461000307402281BD0204610223249B030FDF7FA
:10462000FBFC2246FF320020813290602A4901982B
:10463000091D2D4B012811D0022828D02B4D2046D2
:1046400006F09AFA2846D7E72348401CD4E78ECFD5
:104650002046B0308EC003983076E2E71878FF2805
:1046600037D0022093607074307C0228EAD1204653
:10467000FF3004217530FDF73BFD204606F094FD28
:104680000500DCD1B320FF340134E066DAE7012015
:104690001F5CFF2F02D01B18936003E0401CC0B2C8
:1046A0000228F5D3022814D0042070740120FF21C1
:1046B000B0746D310851307C0228C3D1002003460C
:1046C000024600900121204606F06AFA0500B6D1A4
:1046D000B8E70D46B3E700001230000088FAFF1F6C
:1046E0008CFAFF1F3C6B00208DFAFF1FFFFF0000BC
:1046F000002905D0034A106003480160002070477C
:104700000248704780FAFF1F84FAFF1F1230000032
:10471000FFB5334E8BB015460F4600280FD0002D45
:104720000DD006F021F904000BD0022F0CD0042F7D
:104730001FD0072F49D0354628460FB0F0BD304670
:10474000FBE72748801CF8E70822294608A8FDF760
:1047500063FC0820009008AB00220321204606F0ED
:104760001FFA0500E8D100220421204606F0E4FDEE
:10477000E2E7E01DF930C17A022902D0032904D012
:1047800006E0007B042819D002E0007B032815D046
:1047900028686946C870020A8A70020C4A70000EC6
:1047A0000870AC2000990151002003460246052103
:1047B0000090204606F0F4F90546BDE7204629465C
:1047C000A0300E9AFDF728FCEEE71C22294601A82E
:1047D000FDF75EFC1C20002201AB08210090E8E7F9
:1047E0001230000038B515460C4600280DD0002CBC
:1047F0000BD006F0B9F8002809D0C11DF931CA7AEA
:10480000022A07D0032A09D00BE0104838BD0F4810
:10481000801C38BD097B042911D002E0097B0329E3
:104820000DD021686A46D1700B0A93700B0C090EEB
:1048300053701170A0300099C160002038BD21462E
:104840002A46A030FDF7E8FBF7E700001230000031
:10485000F8B507462B480E4601682B481546002937
:104860001AD0022E07D0012E17D128490968002935
:1048700012D0002D11D02748254C0670FDF72CFCD6
:104880002548FDF73BFC3046244E012808D002287D
:1048900024D01D4C641C2046F8BD1B48401CF8BDAC
:1048A0001F4900200870102229461E48FDF7B4FB5E
:1048B000F80706D02A8A294600206B69FFF72CF9F1
:1048C0000446B80706D52A8A294601206B69FFF7F6
:1048D00023F90446002CDED1B12010E0F80704D003
:1048E00001210020FFF7B4F90446B80704D50121DF
:1048F0000846FFF7ADF90446002CCCD1B220306059
:10490000C9E7000084FAFF1F1130000080FAFF1F82
:10491000FFFF00008CFAFF1FFC6A002088FAFF1FCF
:104920008FFAFF1F3C6B002000280AD008498A68D4
:10493000002A08D00978012907D001210170002040
:104940007047044870470021F8E70221F6E70000AD
:1049500088F9FF1FFFFF00000149886000207047B1
:1049600088F9FF1FF0B5074600200226234C85B0CA
:10497000054601291DD0022919D1A078FF2801D0B0
:10498000FDF7C2FB032F33D0E5706846878080882F
:1049900005F03AFB00280AD1184801AB184A19491A
:1049A000801C0096FDF7B6FB21793143217105B0DB
:1049B000F0BD6078144FFF2807D169468D802846E6
:1049C00002A9FEF715F9002801D03846EFE70822C2
:1049D00002A90220FFF752FA084801AB0B4A094925
:1049E000401C0096FDF796FB217901221143DDE77B
:1049F0000120E07068468580C9E7000088F9FF1F44
:104A0000A5A001112C010080FFFF0000A59F01114E
:104A100070B50D4C00252079C00707D00121022078
:104A2000FFF75CF82079400840002071207980076A
:104A300007D501210320FFF751F82079FD21084017
:104A40002071284670BD000088F9FF1F10B50024B2
:104A5000A0B201F079FF641C052CF9D3002010BD31
:104A600010B5134602280AD0FF20800041430548B4
:104A7000091808221846FDF7CFFA002010BD0822B9
:104A80000149F7E7BC490020A85D002007490A88D2
:104A900002808A788270CA78C2700A790271CA88E4
:104AA000C28009890181002070470000C05D00209C
:104AB0000C490A88002A0FD04B88002B0CD00280AA
:104AC0004A884280CA7942710A89C2804A89028131
:104AD0008979017100207047002202804280427172
:104AE000C280F4E7D45D002070B50D460B4C01F098
:104AF00065FF052810D0FF21890048430849401868
:104B00000721C9014018C06E7D21C900401A6421E7
:104B1000FDF706FB00242860204670BDFFFF000063
:104B2000BC490020F0B504460E4800220E4D1F2659
:104B30008C467601FF21890051434B199F19397C1E
:104B400001290AD15B88FF7D9C4206D3D919A14275
:104B500003D9614600200A70F0BD521C052AE9D332
:104B6000F0BD000021240000BC490020F0B504463F
:104B70000A781248052A01D1002202E0521C052AB7
:104B800015D2FF239B000E4D53435D191F235B017C
:104B9000EB181B7C012BF1D100230F26B6015F001F
:104BA000EF19BF19BF8BA74202D100200A70F0BDD8
:104BB0005B1C082BF3D30028E0D1F0BD21240000BA
:104BC000BC49002070B50546FF20800041430B48DA
:104BD000094C0E187288294609A0FDF75FFA12A049
:104BE000FDF75CFA11480020C0467088A84200D149
:104BF0000024204670BD000021240000BC49002094
:104C00005B46524E445D2073616464723A20307892
:104C1000253032582C2075616464723A2030782532
:104C20003032580A000000000D0A000038F7FF1F5C
:104C30007CB5144CE089002822D0207D0025FF2877
:104C400006D0FDF761FA0320FFF746F90E4805701C
:104C500001A8FDF743FF0D4869468089C88000958B
:104C6000E08901AB0522002107F02EF91821054843
:104C7000FDF7F6F9FF202075E5810020FEF742FAE6
:104C800000207CBDA85D00206CF9FF1FE45D0020C2
:104C9000F7B50546002086B069460882144E1F27E6
:104CA000488204467F01FF20800060438019C119BB
:104CB000097C012915D10088A84212D169460798BC
:104CC000087108980872020ACA71020C8A71000EF3
:104CD00048710520009001AB03AA0021204606F090
:104CE00089FF641CE4B2052CDDD3002009B0F0BDBF
:104CF000BC490020012902D0002902D003E0034969
:104D000000E00349086000207047000058F9FF1FC9
:104D10005CF9FF1FFFB5EBB074980F2802D31F4852
:104D20006FB0F0BD04260A280AD30A38C0B208A919
:104D3000FDF762FD0225002069460877044607E07A
:104D400007AA08A9FDF7C6FC0028E9D101252C46D1
:104D500009A8FFF7A9FB08980AAF01A9E1C10998C2
:104D600000906BA807C8769B07F048F87698099AD8
:104D700080887799001D80B2059004970392069170
:104D80006846017F759802910090002301946E9A05
:104D90006C996B98FFF702FBC2E70000122300003A
:104DA000FFB5C9B00026529A539835460A2A02D94F
:104DB0005C484DB0F0BD69460A770124022113001A
:104DC000FDF7B4F90B87070C224657576767077E34
:104DD000870000786946487702247AE002786946BD
:104DE0004A77027908A94A7081880A0A08A90A70D4
:104DF00041680A0C6946CA7741680A0E69468A7793
:104E0000007A08A9887032E003786A4653774378BD
:104E10009377037908AA53708288130A08AA13703B
:104E20004268130C6A46D377037A08AAD3700289C2
:104E3000130A08AA9370837A1371037B9371808994
:104E4000000A507138484A9038480B24017040E0FD
:104E5000027869464A7742788A778278CA77C27838
:104E600008A90A7002798A708088000A48700724AD
:104E70002FE0027869468A7701880A0A69464A77EC
:104E8000827808A90A7040886946000AC877052414
:104E90001FE001786B465977022407AA00210BE036
:104EA00043684F00DB191B8817197B701B0A1355C9
:104EB000A41C491CE4B2C9B203898B42F0D808E0B3
:104EC000027869464A778278CA774088000A8877EC
:104ED000042447A8FFF7E8FA1548806A479A0702B2
:104EE000002107A8069104904C9805940090039225
:104EF0000196029549A807C83F0A0123FFF74EFA19
:104F000004460B48806A0102090AC91B09A0FDF783
:104F1000C5F811A0FDF7C2F810480020C046204691
:104F200047E7000012230000FDFF000050F9FF1FBB
:104F300000F00040636F6E73756D652074696D6578
:104F4000204D535F6C74726E5F73656E645F706446
:104F5000753A2025640D0A000D0A000038F7FF1F7E
:104F6000F8B5044600260088274D374600280DD0A6
:104F7000264868812089294628810A31FDF790FB5F
:104F800006000BD0042607F00DFE13E014211E4886
:104F9000FDF766F82F80AF70EF700BE02088288057
:104FA000A078A870E078E87020792871A0790007CF
:104FB000000FE88028882080A878A070E888E0802A
:104FC00028892081E878E07028792071002E17D197
:104FD000E978002914D0A878002811D001242746A8
:104FE000491E8F40FF2803D0401E84402C6101E001
:104FF0000648286107F0D6FD384607F0BFFD00E0FF
:105000002F613046F8BD0000C05D0020FFFF0000AA
:10501000F0B5044689B000200190208800262E4D6E
:10502000002813D06088002810D0617900290DD0A5
:10503000FFF794FA07462088FFF790FA009002A83D
:10504000FDF74CFD0098012816D103E02E806E80FC
:10505000EE7132E0012F0AD0032F0DD1684606739E
:105060006188C18103A90020FDF7CEF908E06946F7
:1050700060880989884203D0EE71012001901CE00C
:1050800020882880608868806079E8717F21298184
:105090006E81AE710127401EAE808740287BFF28BD
:1050A00003D0FDF731F8FF2028730B483946002361
:1050B0000A4A0C300096FDF72DF828882080688871
:1050C0006080A8792071E87960712889E08068891A
:1050D0002081019809B0F0BDD45D0020BDCB011145
:1050E00010B5164C88B0E188884302D0144808B047
:1050F00010BD02A8FDF7F2FC7F216846017405A8E7
:10510000FDF79CFB06A8FDF7B1FB6846007E022870
:1051100005D06846007D4107490F6846017568461D
:10512000017D41820A2004A9009001916846037C18
:10513000628921880089FFF733FED8E7C05D00202F
:10514000FFFF00007CB51C461B78069EDD0915D0CC
:105150009D09022D14D0DD432D06AD0F0DD11D028A
:1051600063782B431D02A3782B4303256419751B19
:10517000ADB20195009403F049F97CBD0125F5E736
:105180001D0263782B430225F0E7000010B51C4890
:10519000002141601821816081611A49C16119496A
:1051A0001831C1623D210901016317490164682179
:1051B0004164154968314165FF2193318165134987
:1051C00081661A21C16611491A31C1676621803092
:1051D00001600E49024680310161162141610B498F
:1051E000843A963141620421816208499A3181638F
:1051F0000721C16305490020A131FCF79DFF10BDC7
:10520000B4F9FF1F5A020000420600003C080000EB
:10521000FFB581B001980E46007802285CD2A0212B
:10522000504C41430C196168002955D0551E002887
:10523000307826D081098006800E009003284BD854
:10524000AFB200294AD0012951D002295BD00329ED
:1052500042D127468037F98A204614300818711C3D
:10526000521EFCF7D9FEF88A4019F88200980028EF
:1052700064D0012854D0022870D003282CD10420F7
:105280005DE0394C002B04D01968002901D0097861
:105290002170292810D02A2810D02B281AD17078F4
:1052A000012817D8810031484358002B12D0921E94
:1052B00091B2B01C98470DE0022000E0012081006F
:1052C0002A4814384758002F04D0721CABB2022170
:1052D0000198B8470020207005B0F0BD2046711C31
:1052E0001430521EFCF798FE96200753BEE7254661
:1052F00000208035E8822046711C1430521EFCF7D5
:105300008BFEEF82E8E727468037F88A14340019CD
:10531000711C521EFCF780FEF88A4019F882DBE708
:10532000207D810011484258002AD5D09620005B8C
:10533000401E81B2204615309047CDE70320022160
:1053400082000A4814388558002DC5D09620035B8A
:10535000224614320198A847BEE7FFE70320014622
:10536000EEE700000043002041F9FF1F54440020F5
:10537000FFB585B00127FF030E9D0C460646132A94
:1053800006D0BE4201D1032A02D02A4809B0F0BD9E
:10539000A0786B4601026078084301022078084338
:1053A000E11C02910105090F0A02C1B20A43010280
:1053B000090F00030902000E01439A81198001A917
:1053C0001046FDF76DF9002803D00420BE4222D01C
:1053D00022E0002E0DD06846018832468088029B6C
:1053E000FEF75AF8BE4217D1042814D0032812D071
:1053F00012E06846018803AB8088029AFDF78AF9BB
:10540000002809D0062807D0684601888088029ABB
:10541000FCF728FF00E000200899074A0A6028707E
:10542000681C03222146FCF7F7FD0F990420088031
:105430000020ABE7FFFF000003800000F0B58DB057
:10544000139F129C1E46022A02D01A480DB0F0BDCE
:1054500048780D78000205430CA92846FDF720F98D
:10546000002809D0042020706570290AA17001224B
:10547000032100280DD018E068461421018502465A
:105480000AA9008EFDF776F90B498842EBD103207B
:10549000E9E7684682850146E21C0BAB008D00F00F
:1054A0003FFF6846808DC01C81B20448306039805F
:1054B0000020CBE7FFFF0000212400000280000055
:1054C000F8B504461848069F089E81421BD1107803
:1054D00069460870022801D30020F8BD0421FDF7B9
:1054E000EDFD054668460078012808D00F4C20786D
:1054F000FF280DD0FCF708FEFF20207008E02046B2
:1055000001F0E0F904E004216846FDF79FF9054643
:105510000548401C386068460178079801700120F2
:1055200030802846F8BD00000A800000A8FAFF1F5E
:10553000FEB51D4A089E099D1C46904225D108785B
:1055400069460870022801D30020FEBD0121FDF745
:10555000B5FD074601A8FFF7E7F969460979012972
:1055600007D0002901D0002814D00E206946087009
:1055700010E068460078012802D0FFF749FAF2E708
:1055800001210320FFF7EEF9EDE701216846FDF761
:105590005DF907460448401C20606846007830707A
:1055A000012028803846FEBD13800000FEB5244A45
:1055B000099E089C1D46904203D16846FFF766FA93
:1055C0001FE0487802026846028008780243684675
:1055D00002808A788270CA78C2700A7902718879EA
:1055E00002026846C280487902436846C280087A4F
:1055F000020268460281C879024368460281FFF7C9
:10560000AFFC062129602070684600886070000A9F
:10561000A07068468078E0706846C078207168465F
:10562000007960716846C088A071000AE071684620
:1056300000892072000A60720A2030800020FEBDBE
:1056400038800000FEB51F4A099D089C1E46904206
:1056500003D16846FFF72CFA13E048786A46000247
:1056600010800A7810436A461080C8780002508083
:105670008A7810436A465080087950716846FFF76F
:10568000C7FC00281CD10F49891C31600021217002
:10569000694609886170090AA17069464988E17004
:1056A000090A217169464979617169460979A171CF
:1056B0006946C988E17169460989217209212980F1
:1056C000FEBD00003A800000FEB5099F089C1E4602
:1056D000022A01D01248FEBD48780D780002054329
:1056E00001A92846FCF7DCFF002803D0002069460A
:1056F000087006E069468888FDF7E8F8094988429D
:1057000000D104200849316020706570280AA0701B
:1057100068460078E070042038800020FEBD00005C
:10572000FFFF00002124000017800000FEB5194C87
:10573000089D1F46032A01D02046FEBD48780E78FA
:1057400000020643887869460870022803D00328BF
:1057500001D00020FEBD01A93046FCF7A1FF0028C2
:1057600006D169468888FDF70FFD0B49884201D1B3
:10577000042001E0A042EDD00849396028706E7025
:10578000300AA87068460078E870099904200880FB
:10579000DFE70000FFFF0000212400001780000069
:1057A000F8B5144E069C1F46022A08D148780D7899
:1057B000000205432846FEF7D1FE012801D03046FD
:1057C000F8BD0020009069462846FFF78DF90A4988
:1057D00039602570290A61700099A1700099002034
:1057E0000A0AE270009A120C2271079A05211180B0
:1057F000F8BD0000FFFF00002E800000FFB587B05D
:10580000109E15460C46062A04D0082D02D02648C4
:105810000BB0F0BD6078A778010220780122084320
:10582000E17809020F43062D12D0E179A37909022C
:105830001943637909021943237909021943019134
:1058400069460A7204A9FDF741FF002809D01CE04F
:1058500061790A0221791143019100216A4611728E
:10586000F0E76B46187C029A0199FDF73FFF00288C
:105870000BD10E490798884268460088394602D104
:10588000FCF7BAFC01E0FEF791F8084A0A99521CAD
:105890000A603070701C2A462146FCF7BDFB119847
:1058A0006D1C05800020B3E7FFFF00003D80000075
:1058B000FFB593B01C9E17460D46042A04D0062F50
:1058C00002D0314817B0F0BD687801220102287873
:1058D0000843042F12D069792B7909021943EB7818
:1058E00009021943AB7809021943039169460A7406
:1058F00001A9FDF7EBFE040009D01FE0E9780A02D8
:10590000A9781143039100216A461174F0E76846B3
:1059100007AB0079049A0399FDF7E8FE04000DD166
:1059200014216846018309AA06A9808BFCF7E4FFCD
:10593000040003D01548844200D100241449139870
:10594000884201D1411C01E01149C91C16983A4610
:1059500001603470701C2946FCF75EFB7F1CBDB2F1
:10596000002C0DD10420411B68468182721905ABC1
:1059700009A9008B00F0D4FC6846808A281885B2FB
:105980001D98058000209DE7FFFF000021240000F6
:105990004B800000F0B58BB0119F109C1E46042A6E
:1059A00004D0062A02D03E480BB0F0BD48780D78EE
:1059B000000205430123042A54D048790A790002E1
:1059C0001043CA780002104389780002084300900F
:1059D000684603711C2103A8FCF742FB02A9284674
:1059E000FDF774FE002846D001202E49316020705A
:1059F0006570290AA1706846C089E0706846C08950
:105A0000010A21716846008C60716846008C0005AF
:105A1000010FA17108A8807800010143A17108A8B5
:105A2000C178E1710179217240794107490F6172B2
:105A300008A88079C0000143617268460179204658
:105A40000A30002926D00099A1720099090AE17252
:105A50000099090C81700099090EC1700E203880E0
:105A60000020A1E7C8788978000201430091002056
:105A700069460871AEE768460AAB007A019A009958
:105A8000FDF734FE0028B0D1684603A9008DFCF76D
:105A900063FFAAE70098A072000AE0720C20DEE71C
:105AA000FFFF000019800000FFB58BB00D46149C6D
:105AB000164601460B2A08D00D2E06D0192E04D00A
:105AC0001B2E02D05F480FB0F0BD68782F7800021F
:105AD000074303297ED0012069460873A91C1022C0
:105AE00004A8FCF799FA1220291849780A02694695
:105AF0000A84295C801C0A43D104CB0F08A98B704F
:105B00001205120D69460A842A5C08A9CA70401C55
:105B10002A5C0A71401C295C4A07520F08A94A7185
:105B2000295C401CCA0808A98A71C0B2311A02292E
:105B300066D02918CA788B7812021A434978120263
:105B40000A43285C11020143012000916946087153
:105B500002A93846FDF7BAFD002859D001251C21BD
:105B600003A8FCF77DFA0E9837490160257067702D
:105B7000390AA1706846C089E0706846C089010A88
:105B800021716846008C60716846008C0005010F29
:105B9000A17108A8807800010143A17108A8C1780B
:105BA000E1710179217240794107490F617208A8BA
:105BB0008079C000014361726846017920460A304D
:105BC000002939D00099A1720099090AE17200995F
:105BD000090C00E008E081700099090EC1700E20E8
:105BE0001599088000206EE7002069460873E87860
:105BF0000002C881A97808436946C881042073E778
:105C000029184978285C09020843009000209DE784
:105C100068460AAB007A019A0099FDF767FD050016
:105C20009DD1012008AAD0716A4603A9108DFDF705
:105C3000CFFA050093D196E70098A072000AE072AF
:105C40000C20CDE7FFFF000019800000FFB58DB0EC
:105C50000D46169C16460146062A08D0082E06D088
:105C6000142E04D0162E02D0474811B0F0BD68782B
:105C70002F7800020743454881420BD10020694636
:105C80000873E8780002C881A97808436946C8818A
:105C900004200BE001206A461073A91C102204A8FE
:105CA000FCF7BAF9122000216A46D181311A022983
:105CB00015D02918CA788B7812021A434978120233
:105CC0000A43285C110201430120009169460871D2
:105CD00002A93846FDF7FAFC050008D02AE0291889
:105CE0004978285C0902084300900020EEE76846E6
:105CF0000AAB007A019A0099FDF7F8FC050019D16A
:105D0000FCF790F92248806A03A906026846360A21
:105D1000008DFCF779FB05461D48806A0002000AE9
:105D2000811B1C48FCF7BAF91BA0FCF7B7F91B480C
:105D30000020C04615491098091D01602570677044
:105D4000390AA1706846C089E0706846C089010AB6
:105D5000217168460179601D00290FD00099617199
:105D60000099090AA1710099090C81700099090E26
:105D7000C170092017990880002076E700986071AB
:105D8000000AA0710720F5E7FFFF00001B8000005C
:105D900000F000406CD501110D0A000038F7FF1F1C
:105DA000FFB585B00E9C042A04D0062A02D02C48E8
:105DB00009B0F0BD48780D780002054300260127A0
:105DC000881C042A13D04A79837812021A43407837
:105DD0001202024389781002084300906846077156
:105DE00003A92846FDF772FC002808D014E0C87803
:105DF000020288781043009068460671F0E7684612
:105E000002AB007B019A0099FDF770FC002803D1DA
:105E100068460089FCF79AFB0899124A0A602070CC
:105E200065702A0AA270E670267169460A79611DBA
:105E3000002A0ED0009A6271009A120AA271009A8A
:105E4000120C8A70009A120ECA7009210F9A1180E2
:105E5000AEE700996171090AA1710721F6E7000018
:105E6000FFFF00001F800000FFB58DB00D46169C9F
:105E700016460146062A08D0082E06D0142E04D055
:105E8000162E02D03D4811B0F0BD68782F78000280
:105E900007433B4881420BD1002069460873E878EC
:105EA0000002C881A97808436946C88104200BE034
:105EB00001206A461073A91C102204A8FCF7ACF854
:105EC000122000216A46D181311A022915D02918E1
:105ED000CA788B7812021A43497812020A43285C66
:105EE00011020143012000916946087102A9384658
:105EF000FDF7ECFB002808D015E029184978285C4C
:105F00000902084300900020EEE768460AAB007AD9
:105F1000019A0099FDF7EAFB002804D1684603A91D
:105F2000008DFCF753FB164A1099D21C0A602070B2
:105F30006770390AA1706846C089E0706846C089F8
:105F4000010A217168460179601D00290FD000996E
:105F500061710099090AA1710099090C8170009979
:105F6000090EC17009201799088000208BE700985E
:105F70006071000AA0710720F5E70000FFFF000034
:105F80001C800000FFB58FB01E4600236846189C99
:105F90000381042A04D0062A02D03B4813B0F0BD86
:105FA00048780D78000205430127881C042A13D085
:105FB0004A79837812021A434078120202438978A0
:105FC0001002084300906846077104A92846FDF7AF
:105FD0007DFB002808D01EE0C878897800020143C4
:105FE000684600910371F0E7684603AB007C019AB4
:105FF0000099FDF77BFB00280DD10A21684601813D
:1060000005AA02A98089FCF7DBFC002803D01F4900
:10601000884200D100201E4A0F99914201D1491CAB
:1060200001E01B49C91C316020706570290AA1700C
:1060300068460179E01C00290ED00099E1700099B2
:10604000090A21710099090C81700099090EC1702B
:106050000720002105AA0FE00098E070000A2071D7
:106060000520F6E74B00D55C2554D35A25181B0AAA
:10607000801C6B70C0B2491C6B461B899942F1D3DE
:1060800019990880002089E7FFFF00002124000003
:1060900029800000FFB58DB00D46169C16460146BE
:1060A000062A08D0082E06D0142E04D0162E02D0B0
:1060B000404811B0F0BD68782F78000207433E4891
:1060C00081420BD1002069460873E8780002C8813C
:1060D000A97808436946C88104200BE001206A467C
:1060E0001073A91C102204A8FBF796FF12200021B0
:1060F0006A46D181311A022915D02A18D1789378AD
:1061000009021943527809021143285C090201432C
:10611000012000916946087102A93846FDF7D6FAB8
:10612000002808D01BE029184978285C0902084398
:1061300000900020EEE768460AAB007A019A0099C9
:10614000FDF7D4FA00280AD16846008DFCF7FEF965
:10615000002804D1684603A9008DFCF755F9164ABA
:106160001099521C0A6020706770390AA170684645
:10617000C089E0706846C089010A217168460179CA
:10618000601D00290FD0009961710099090AA17161
:106190000099090C81700099090EC17009201799A6
:1061A0000880002085E700986071000AA071072030
:1061B000F5E70000FFFF00001E800000FEB5099F0C
:1061C000089C1E46022A01D01248FEBD48780D7870
:1061D0000002054301A92846FCF762FA002803D013
:1061E00000206946087006E069468888FCF752FC82
:1061F0000949884200D10420084931602070657047
:10620000280AA07068460078E070042038800020DA
:10621000FEBD0000FFFF00002124000048800000B8
:10622000FEB52448099F089C1E46032A09D14878D8
:106230000D7800020543887869460870022801D36A
:106240000020FEBD01A92846FCF72AFA002823D128
:1062500069468888FDF794F8174988421CD002A83F
:10626000FEF762FB6946097A012908D0002901D0AE
:10627000002812D00E2000216A4611700DE06846F9
:106280000078012802D0FEF7C3FBF1E7684602213F
:106290008088FEF767FBEBE7042008493160207037
:1062A0006570280AA07068460078E0700420388085
:1062B000C6E70000FFFF0000212400004880000026
:1062C000F0B59E46002503462C46400816E06700C0
:1062D000CE5D56557E18B446B6786D1CADB236010B
:1062E0005655CF5B3F0A3E435655664676886D1C31
:1062F000ADB2360956556D1CADB2A41CA042E6D80D
:10630000D80709D06300C85C5055C95A6D1CA8B2A3
:10631000090A1154401C85B2704605800020F0BD6A
:10632000F0B59E46002503462C46400816E067005F
:10633000CE5D56557E18B446B6786D1CADB23601AA
:106340005655CF5B3F0A3E435655664676886D1CD0
:10635000ADB2360956556D1CADB2A41CA042E6D8AC
:10636000D80709D06300C85C5055C95A6D1CA8B243
:10637000090A1154401C85B2704605800020F0BD0A
:10638000FFB595B0202010A91F9F209E08800024F3
:106390003946EFA0FBF782FEF8A0FBF77FFEF84836
:1063A0000020C0461E980A2802D2F64819B0F0BD57
:1063B000F54908AD781A8F427ED02DDCF348391AA2
:1063C00087427AD01BDCF24AB91A97425ED00EDCC3
:1063D000032F46D004DC002F39D0012F4BD136E0FB
:1063E0000120C003381A32D00128F7D144E00B0055
:1063F000FBF79CFE08417A7A418686419841891EC6
:106400000B00FBF793FE0FA7A738B1BB38C5382E9A
:10641000CFD9E3FD38CF38000300FBF787FE2D2CE2
:10642000F1FCFC2CEFEF2CEE2CEE2CED2C2C2C2C7C
:106430002C2C2C2C2C2CECECEBEB2CEA2CE9E8E7AC
:10644000E62C2CE8E5E42CE32CE22CE22C0010A84E
:10645000019011AB009531463846219AFEF788FF2E
:1064600008E010A8019011AB009531463846219AFA
:10647000FFF71AFB0446B4E110A8019011AB009598
:1064800031463846219AFEF7D9FFF3E71598149064
:1064900016981390FF2001306946179F189E1E9D85
:1064A0000883FBF7E9FD0590002807D005A8FDF754
:1064B00055F8040004D013E07EE033E0B54875E7FA
:1064C00069460A8BFF23059901930220009502ACCF
:1064D00007C433463946139A1498FDF7E7F9044682
:1064E0000598FBF7CFFDE4E110A811A900910290F7
:1064F000019532463946219B1898FEF7E1FFB9E72E
:10650000A248001F874203D16846FCF767F906E0FE
:10651000307869460870FCF7C1FD0028AAD19B4974
:10652000891E10E0874208D1307869460870022839
:1065300070D20221FCF7C2FD03E002216846FCF79D
:1065400085F99249491C119169460A7808A90A708F
:1065500001229CE010A8019011AB0095314638460D
:10656000219AFEF7E5FF85E710A8019011AB009591
:1065700031463846219AFFF7A7F87BE710A801902B
:1065800011AB009531463846219AFFF7CFF871E7F5
:1065900010A8019011AB009531463846219AFFF7BB
:1065A000F9F967E710A8019011AB0095314638461C
:1065B000219AFFF74BFB5DE710A8019011AB009506
:1065C00031463846219AFFF74FFC53E710A8019057
:1065D00011AB009531463846219AFFF7E1FB49E7B8
:1065E0000EE04CE12AE11FE114E1DCE095E086E0F9
:1065F0007BE077E06CE061E056E04BE01DE00AE014
:1066000010A8019011AB009531463846219AFFF74A
:1066100041FD2FE725E05C48801C874204D1694694
:106620000020FCF73FFB05E0317868460170002050
:10663000FCF720FF5449091D85E75348401D874258
:1066400008D1002101A8FCF701F969460120FCF7F7
:1066500029FB10E030786946087172780A700228C8
:1066600001D3002006E70021FCF728FD68460178E9
:106670000120FCF7FFFE69460A7908A90A706946FD
:106680000A7808A94A704049C91D0222119110A92F
:106690000A80EFE610A8019011AB0095314638460C
:1066A000219AFFF76FFCE5E610A8019011AB009569
:1066B00031463846219AFFF773F8DBE610A80190BF
:1066C00011AB009531463846219AFEF76FFFD1E6AF
:1066D00010A8019011AB009531463846219AFEF77B
:1066E000B1FFC7E62C490120486010A8019011AB0A
:1066F000009531463846219AFFF780F8BAE621988E
:106700003946324612286BD150781478000204437F
:10671000B21C2046FBF7AEFE0DE0219802285FD1A7
:10672000707834780002044302A92046FBF7B8FFD2
:10673000002833D0002014492331119108A9087092
:106740004C70200A8870032010A90880002448E0BB
:106750005B636F6E6669675F7365727665725F63B0
:10676000625D2043616C6C6261636B2E204F7063CD
:106770006F6465203078253034580A000D0A000017
:1067800038F7FF1FFFFF000021800000108000008D
:106790000880000005240000A8FAFF1F6846008951
:1067A000FBF74AFFC7E721980795002818D10A2070
:1067B0006946088002A96846FCF74AF9040010D12E
:1067C00004216846818001AB02A90088079AFFF77F
:1067D000A7FD394811906846818810A8018000E023
:1067E000364C374880688446002810D010A80088AE
:1067F000119907900591219806951E99029603908C
:1068000004940197009115A80FC86646B047002C64
:106810003FD04EE010A8019011AB009531463846AC
:10682000219AFFF7CBFC25E610A8019011AB00954B
:1068300031463846219AFFF7F3FC1BE61598129073
:106840001698079017980690189805901E9CFEF7CA
:10685000FDF8FEF7EDF9FDF78BFD17490020C91D86
:10686000FF2201920291039000940490059B079AE5
:1068700006991298FDF71AF8FCF7BAFBB0E710A8D2
:10688000019011AB009531463846219AFFF710F878
:10689000F0E510A80288FF20119901AB049223C3F0
:1068A0001E980090189B169A17991598FCF7FEFFF2
:1068B000044620467AE5000043800000FFFF000008
:1068C000A8FAFF1F01B5074882B00078FF2807D15A
:1068D0000220009002AB044A04490248FBF71AFC6C
:1068E0000EBD0000A8FAFF1FD5BB011110270080C4
:1068F00070B5054600F062F812490446052809D033
:10690000FF20800060434618204600F01DF8758087
:10691000204670BD00201F225201FF239B004343ED
:106920005B189B181B7C002B05D0401CC0B20528AF
:10693000F3D3052070BDFF229200424351184D80D1
:1069400070BD0000BC490020F8B50446FF2080005F
:106950001949604345181F2040012F18B87EFF28B1
:1069600001D0FBF7D1FB287CFF2801D0FBF7CCFB43
:1069700028882146FBF712FE00242646FF20E5303A
:10698000604340190146FF31C131CE868E86FF211A
:10699000E1311430FBF764FB641CE4B2022CEDD34C
:1069A0000720C0012818C6650666466686663E74DE
:1069B000FF20B8762874F8BDBC49002030B50246E7
:1069C00000201F2409496401FF239B0043435B18F7
:1069D0001D192D7C002D02D05B88934204D0401CF1
:1069E000C0B20528F0D3052030BD0000BC4900200E
:1069F000F8B504460AA00068009060060F46800FB4
:106A00006D461646285C0A21FBF78AFB3870E006C3
:106A1000800F285C0A21FBF783FB30700020F8BD53
:106A20000A0F1419F0B58FB00026159C06969C46E7
:106A30000788179D169B68468783C1830284614639
:106A40004184149981840A940B9305862C48012172
:106A500022180020002A43D0012A01D0022A43D163
:106A60006A461173274A944202D16A46517301E083
:106A70006946487319786A4611715C78D4710229A5
:106A800020D35C2120A0FBF715FB002805D05C215A
:106A90001DA0FBF70FFB401C00E01BA0FF214531B0
:106AA0002E4C0346009126A221460120FBF708FB4D
:106AB000684603792AA221460120FBF701FB00204A
:106AC0000FB0F0BD042D05D011461072087401A856
:106AD000059009E09A7869460A72DA784A72F5E711
:106AE0006A4610735173107428484468002C05D00E
:106AF00004AB03AA0AA907A80096A0470698DFE7F7
:106B0000FF7DFFFF028200002E2E2F6D6573682F20
:106B1000707269766174652F6D6F64656C732F6731
:106B2000656E657269632F67656E657269635F6F15
:106B30006E6F66665F7365727665722E6300000025
:106B40000A5B2A2A20455252202A2A5D3A5B257385
:106B50005D3A5B25645D3A200000000000080040BB
:106B6000496E76616C69642076616C7565206F662C
:106B7000204F6E4F66663A3078253032582E2044CA
:106B8000726F7070696E672E2E2E0A0068FBFF1FF1
:106B900000487047FFFF00001CB5006858210190B5
:106BA00048431049441820464030017900290DD04F
:106BB000491E0906090E017109D0042000902046E3
:106BC000453001AB084A0121FBF7A4FA1CBDFF21A7
:106BD0004171204600235230646D1A460321A047BC
:106BE0001CBD00004C6B0020996B0111FFB5B7B0C4
:106BF000429C379800F042FA0646022820D3724C95
:106C00005C2172A0FBF756FA002805D05C216FA02A
:106C1000FBF750FA401C00E06CA0C32189007E4DB8
:106C20000346009175A229460120FBF749FA234645
:106C30007AA229460120FBF743FA20463BB0F0BD7B
:106C4000002769468F83781E08905F4A41981D325D
:106C5000811A09AD904218D00FDC804A811A904207
:106C600077D005DC7E49401875D0012822D185E017
:106C7000292920D02A291DD115E001200B00FBF77E
:106C800055FA068E2F234B5A538E607822780002D5
:106C90000243B3206946888308A907A801910090A0
:106CA0002B46419934E06078217800020143304658
:106CB00000F0D8F873E0607824780002044321469D
:106CC000304600F0CFF818E021786A469083A0782B
:106CD000627800020243304600F0AEF907465EE0FB
:106CE00021786A469083A0786478000204432246A3
:106CF000304600F0A1F9070051D1B32069468883DE
:106D000008A90191304907A809AB224600901D311E
:106D1000304600F0C3F842E008AA05A9304600F06A
:106D20004DF969460A7D1DE02178684601753046B7
:106D300000F012FA33E021786A461175304600F00F
:106D40000BFA08AA05A9304600F038F96A46117D09
:106D500021E00CE0FFE708AA06A9304600F090F811
:106D600069460A7E888B2A54401C888317E0217864
:106D700068460176304600F097F910E021786A46BF
:106D80001176304600F090F908AA06A9304600F0C6
:106D900077F86A46117E908B2954401C908308989E
:106DA000411C0FD06946898B04910290FF224098C4
:106DB0000395019200903A9B389A39993798FCF7DD
:106DC00075FD0746384639E7148000002E2E2F6DDA
:106DD0006573682F707269766174652F6D6F646575
:106DE0006C732F6865616C74682F6865616C74687A
:106DF0005F7365727665722E630000000A5B2A2A53
:106E000020455252202A2A5D3A5B25735D3A5B2564
:106E1000645D3A2000000000000800405B484541E6
:106E20004C54485D204E6F206D61746368696E67D5
:106E3000204865616C7468205365727665722065C0
:106E40006E746974792E2052657475726E696E67FE
:106E50003A203078253034580A00000006800000BF
:106E6000FC7FFFFF58214843044910B54018FF211B
:106E700001312030FBF7DCF810BD00004C6B002026
:106E800058235843034BC01840300079087002481B
:106E9000106070474C6B002007800000F8B5582444
:106EA0006043244C1E46041920464030C588069F86
:106EB000079B95421DD05C211FA0FBF7FBF8002823
:106EC00005D05C211CA0FBF7F5F8401C00E01AA0DF
:106ED000FF2191312B4C0346009123A22146012032
:106EE000FBF7EEF828A221460120FBF7E9F831482C
:106EF000F8BD027C327082797270C0880325000A66
:106F0000B0702D48814203D105202034186001E083
:106F1000042018600022FF2101312046FBF78EF883
:106F2000411C04D070556D1CEDB2421CF3E73D804E
:106F30000020F8BD4C6B00202E2E2F6D6573682F3E
:106F4000707269766174652F6D6F64656C732F68FC
:106F500065616C74682F6865616C74685F736572D5
:106F60007665722E630000000A5B2A2A2045525281
:106F7000202A2A5D3A5B25735D3A5B25645D3A20E1
:106F800000000000000800405B4845414C54485D4B
:106F900020436F6D70616E79204944206D69736D77
:106FA000617463682E2052657475726E696E670A2B
:106FB00000000000FFFF000031800000582358430C
:106FC000034BC018403000780870024810607047CA
:106FD0004C6B00203780000030B5B1B0B32069465B
:106FE000088130A902A801910090114C0025284683
:106FF000E28803AB0421FFF751FF60880121401CA8
:1070000080B2608022789140884201DB658003E095
:1070100068460089032809D068460095038903AAB9
:1070200004210448FCF7D8FB31B030BD0020FBE759
:107030008C6B0020B6FAFF1FF8B5582568430B4645
:107040000D4D002140190B4CC56C0EE0866CCF0035
:10705000F65D9E4208D1846CC800001D245811467C
:107060001846A047002402E0491C8D42EED8204675
:10707000F8BD0000FFFF00004C6B002010B5024679
:1070800008490020582343435B18DC6C002C04D0D3
:10709000403314885B8A9C4202D0401C0228F1D302
:1070A00010BD00004C6B002073B582B06846027BB7
:1070B00002985821264C48430019014640310A7174
:1070C000FF254979002A1ED00426FF292DD0084625
:1070D000FBF71AF8029858214843001945210D542E
:1070E00002AB1C4A012145300096FBF713F80298C9
:1070F0005821484301190846523001234C6D03AA18
:107100000221A0477FBDFF29FCD00846FAF7FCFF0B
:107110000298582148430119452045540846002348
:1071200052304C6D1A460321EBE702AB094A0121AC
:1071300045300096FAF7EEFF0298582148430119AE
:107140000846523001234C6D03AA1946D9E70000C6
:107150004C6B0020996B011158225043054A10B521
:107160008018403001700022428003484088FCF7BC
:10717000DBF810BD4C6B0020B4FAFF1F0246400B39
:1071800040030843904202D90121490388437047D4
:107190007FB50468A07B00281BD026462036F07AF5
:1071A000800704D5012503A8FBF798FC03E060885D
:1071B000694600258881FF207072206A7F21029035
:1071C000019500916846E38AA2882188808900F0B1
:1071D00087FD7FBDF0B5124D9C46AF882B465C887D
:1071E0001E2F14D0E3199CB21E2C01D31E3CA4B256
:1071F0000C235C430B4BE618B17018536046726069
:1072000030721E2F01D07F1CAF800020F0BD661CA5
:10721000B6B26E801E2EEBD100266E80E8E700002D
:1072200048F9FF1F5445002010B5F0210448FAF733
:1072300017FF0348FF216931F030FAF711FF10BD45
:1072400064440020F0B50F490978012912D00E4B93
:1072500085880E4A0021CE00B418A788AF420BD112
:107260000778A479A74207D196598468B44203D815
:10727000002304E00020F0BD491C1E29EBD3184672
:10728000F0BD000048F9FF1FFFFF0000644400202C
:10729000F0B50646944600200C4C0A4603463021C1
:1072A0001D464D432F19B97BB1420AD1615B914212
:1072B00007D13D7C654504D13020434318198673BE
:1072C000F0BD5B1C9BB2102BE9D3F0BDBC46002087
:1072D000FFB5054610788FB08007C00F0B9012984D
:1072E00017464278D0090990129893078078520681
:1072F00081081B0ED20E19431202114306911299F6
:10730000C000C9784A090243D006C00ECE060290DA
:10731000F60EE888FDF722F90D902A78A988012059
:10732000FFF7B6FF040011D0E08A0699884202D91F
:10733000A44813B0F0BD884208D2217C20880123E4
:10734000A269FFF747FF204600F0BEFBA868069938
:10735000FFF714FF02462978A88804AB00F0BAF9B9
:107360000C9000280BD0A87801281FD00C200A9080
:10737000387880071CD503A8FBF7B0FB1BE06846F4
:10738000007C00287ED10120761CB0400D99401E63
:10739000012977D1EA780B99019100920290A9888E
:1073A000E888069B109A00F09BFC6BE00820DEE763
:1073B000E88869468881701C0A990E9048430B99A9
:1073C000401C0190009168468289A9880120069B93
:1073D00000F0B0FB040003D0A07B002812D03DE0F9
:1073E0000D9A79480021012AA3D1E8780B9A0192DD
:1073F000009002916846A9888089069B109A00F047
:107400006FFC96E7002001230C90A3731098A080D6
:1074100028782074A878E073E8786077A8882080BE
:10742000E888608000206074A0740999E17406996E
:10743000E1822822105526772062204623303A78B0
:1074400002727A7842721F2E0CD00E9A1846904023
:10745000401E6062A868FFF791FEA0610D980128A8
:1074600003D008E00020C043F3E7204600F0A0FB73
:10747000204600F043FB029A0120216A904001421D
:10748000009001D0002054E7964206D10A98314678
:1074900041431898C01E0818A0810A990298A26852
:1074A000484310181299189A401C091D121FFAF728
:1074B000B3FD206A0099084320621899626AC9B234
:1074C000089190425ED1204600F088FB0D9801287B
:1074D0000BD1226A7F206B460B9907C36846E38A6B
:1074E000A9888089109A00F0FBFB1298A1680078A7
:1074F0004006400E087035480068002813D03878E0
:10750000C10701D140070ED5E18AA868FFF736FE12
:10751000A860A08900902D4EA36836682846099A75
:107520001099B04724E0002E00D003263878810758
:1075300008D50898009078782A463146129B04F0C6
:1075400059FB10E000070ED50898009078782A467D
:107550003146129B04F04EFBE888791CFDF706FBD0
:107560000C900028F0D0E18AA868FFF707FEA86019
:107570002978A8880023AA68FFF72CFE204600F08F
:10758000A3FA1CE03878810708D50898009078782D
:107590002A460121129B04F02DFB10E000070ED5B6
:1075A0000898009078782A460121129B04F022FB6B
:1075B000E888791CFDF7DAFA0C900028F0D00C98D6
:1075C000B7E60000FFFF00001422000044F9FF1F8F
:1075D000FFB583B00C9E04460D9D029201461F46E6
:1075E000009601951C48049AFAF758FD1BA0FAF77B
:1075F00055FD1B480020C04600200190334622461E
:1076000000970220049900F095FA04001DD0002D87
:1076100003D0606AA84203D1204600F055FA14E076
:10762000207F1F2814D00121401C8140491E226A5E
:1076300029400A43226225462035687AFAF764FD1C
:10764000FF206872204600F01DFB002007B0F0BD4F
:10765000206A28432062EEE7DCD201110D0A000007
:1076600038F7FF1F10B50468A07B002808D0217CE4
:1076700020880123A269FFF7ADFD204600F024FA1F
:1076800010BD000010B50448002181804180F02128
:107690000248FAF7E5FC10BD48F9FF1F64440020DA
:1076A00010B50324240221460948FAF7D9FC2146E3
:1076B0000748FAF7D5FC0020054BFF213022424352
:1076C000D21820325172401C91721028F6D310BD8E
:1076D000BC460020FFB5174A0646518897889C464D
:1076E00013480024144A20E00C230D465D43535BED
:1076F000B34213D1AB189E469B78019DAB420DD18E
:1077000073465B68029DAB4208D10C204143881848
:10771000017A60460170002004B0F0BD491C89B2B6
:107720001E2900D10021641CA4B2BC42DCD3F3E7C3
:10773000FFFF000048F9FF1F54450020FEB5044636
:107740000F462A4D2A4EC088FCF708FF0190A088FA
:10775000FCF712F800281CD001980128E08826D0F8
:10776000010AFF292FD0FCF727F8002806D0E0886F
:107770006946FDF7FBF9002800D000252046FFF7F9
:1077800061FD002825D0204600F040FB30463D60DA
:10779000FEBD18A0FAF782FC24A0FAF77FFC24486B
:1077A0000020C046002038601148401EFEBDFBF797
:1077B000E3FF002805D0E0886946FDF7B3F900280B
:1077C000DBD10026DAE70949C91E8842D6D201205A
:1077D000FEBD18A0FAF762FC14A0FAF75FFC14488B
:1077E0000020C046002038600048FEBDFFFF0000BA
:1077F000182100005B4C54524E2052785D20506B93
:1078000074206F726967696E617465642066726F57
:107810006D204C6F63616C205352432E2044726F75
:107820007070696E672E2E2E0A0000000D0A00008F
:1078300038F7FF1F5B4C54524E2052785D20526542
:10784000706C6179656420506B742E2044726F7087
:1078500070696E672E2E2E0A00000000FFB50446E8
:1078600089B0E1780A980290019300911F4616466C
:10787000A378E288A1887648FAF710FC75A0FAF799
:107880000DFC75480020C046E088FCF767FE054601
:10789000A078012801D1022D18D0002001460290C5
:1078A0006846017305214173A088FBF765FF002836
:1078B0000FD06A480590E088012D0DD0010AFF29FC
:1078C0001ED0FBF779FF002824D026E064480DB0D5
:1078D000F0BD6348401CFAE7FBF74EFF050007D0F8
:1078E00003A9E0880131FDF71DF9050004D021E06E
:1078F00001206946087321E00221684601731DE0FA
:107900005649C91E884203D3FBF718FF0546EFE727
:107910000120DCE704206946087303A9E0880131EF
:10792000FDF724F9050005D16946087B08210843C5
:10793000694608736846007B00280DD03178C80975
:107940000DD0002807D00097334603AA20460A9995
:10795000FFF7BEFC054678E04148801CB7E7A278F7
:10796000F8B2012A02D14906490E0DD069460196A6
:10797000097B8A072FD500906846407B3346224614
:10798000002104F037F93FE06946097B890708D5F3
:1079900000906846407B33462246042104F02AF9D1
:1079A00043E070780102B0780843C30B4004C10C77
:1079B000F07802023079104302027079104302021B
:1079C000B079009110430190E188A0880A9AFFF7EE
:1079D000FFFD002028E0080716D5FEB26846417B6F
:1079E000A088FDF7EFF8002807D068460096407B96
:1079F00022460021019B04F0FDF803A9E088013133
:107A0000FDF7B4F80500E9D016480668002E0CD042
:107A10006846007BC10701D1400706D50097204684
:107A2000019B029A0A99B0470590059800280CD14D
:107A30000A98032809D16846FAF718FF68460078C3
:107A4000022802D10A9804F01DFA28463FE70000F8
:107A500078D201110D0A000038F7FF1FFFFF000068
:107A60001621000044F9FF1F10B50068817B002932
:107A700004D0FF2229210A5400F004F910BD0000AF
:107A800070B50D46014600240E4A2046302343437C
:107A90009B189B7B002B03D0401C1028F6D30BE0D7
:107AA000302358438418A17306D02846FAF7E4FA25
:107AB000A060002802D0A581204670BD0020A073E0
:107AC0000446F9E7BC460020F8B504468068254620
:107AD0000026FF272035002807D0FAF7D3FAA66042
