:020000041101E8
:1020000003B40148019001BD01A3FF1F03B40148BF
:10201000019001BDED54FF1F03B40148019001BDC3
:102020008954FF1F03B40148019001BD05B3FF1F90
:1020300003B40148019001BDD9A2FF1F03B40148B8
:10204000019001BDE9A2FF1F03B40148019001BD49
:1020500055A2FF1F03B40148019001BDFD62FF1F9F
:1020600003B40148019001BDBB54FF1F03B40148F4
:10207000019001BD8954FF1F03B40148019001BDC7
:102080005181FF1F03B40148019001BDBB54FF1FE4
:1020900003B40148019001BD4108000003B40148A8
:1020A000019001BD7181000003B40148019001BDA0
:1020B00095DFFF1F03B40148019001BDB5B9FF1FB3
:1020C00003B40148019001BD0755FF1F03B4014847
:1020D000019001BDB562FF1F03B40148019001BD2D
:1020E000F1B8FF1F03B40148019001BDC9B9FF1F3A
:1020F00003B40148019001BDADB9FF1F03B401480D
:10210000019001BDA1E1FF1F03B40148019001BD91
:102110009163FF1F03B40148019001BD69020000F3
:1021200003B40148019001BD3962FF1F03B40148A7
:10213000019001BDF562FF1F03B40148019001BD8C
:102140001563FF1F03B40148019001BDCD63FF1F5C
:1021500003B40148019001BD3BA2FF1F03B4014835
:10216000019001BD55E1FF1F03B40148019001BD7D
:10217000FDE1FF1F03B40148019001BD25E1FF1FF0
:1021800003B40148019001BD75E1FF1F03B401488C
:10219000019001BD25E2FF1F03B40148019001BD7C
:1021A00075B8FF1F03B40148019001BD95B9FF1F29
:1021B00003B40148019001BDADB8FF1F03B401484D
:1021C000019001BD19B2FF1F03B40148019001BD88
:1021D000AD54FF1F03B40148019001BDA5B9FF1F15
:1021E00003B40148019001BDBDE4FF1F03B40148E1
:1021F000019001BDCDE4FF1F0A4670B501463C20A9
:10220000154B4143C8180579124C002D02D159587D
:10221000002904D03021095C012902D018E00D24E6
:1022200016E003240D4E0E4B002128254D43ED18DA
:102230006D8CB54209D0954207D13430FFF7E0FEEE
:102240000024022003F0D0FF02E0491C0A29ECD34D
:10225000204670BD2124000080600020FFFF0000A8
:1022600090670020F7B50746274E0A2527488C4679
:1022700000242146282251430A18528C244B9A42AA
:1022800014D0624515D128225443025BBA4201D0D2
:10229000042636E008181022801C0299FFF7B6FECB
:1022A000002801D006262CE000262AE00A2D00D1C5
:1022B0002546641C0A2CDCD30A2D22D02C46282269
:1022C00054431248614626187184B01C10220299AA
:1022D000FFF7A2FE0D4829460753782047430D48D3
:1022E00038187030FFF78CFE3246243210210298E5
:1022F00004F0F2FD00202036B0710646102003F0F5
:1023000073FF3046FEBD00002024000090670020CF
:10231000FFFF0000D0630020F8B50F460C4D0146CA
:10232000E8881646052801D30A48F8BD1422504310
:10233000094A841810222046FFF76EFE2782A674F1
:10234000E888401CE880082003F04EFF0020F8BD1C
:10235000B4F9FF1F2524000020690020FFB593B0C9
:102360001C4615460EA91C9F139800F0BFF90D904E
:10237000002843D1FFF756FE14980121C01C86B2F5
:1023800008A801728572290A41720473210AC17278
:102390008773390A41731D990174090AC17301A831
:1023A000009009230AAA10210EA804F0F3FC684645
:1023B00001797820134C464335194222515528465D
:1023C0002F4601A93230223710220131FFF724FEB7
:1023D00005A9102201313846FFF71EFE0120000337
:1023E000A053139878214843001974301499FFF7CB
:1023F00007FE13986867042003F0F6FE0D9817B0E7
:10240000F0BD0000D0630020F8B5944606460B46A8
:10241000032405202E4A2F4D002178274F43EF5BE0
:10242000974201D1032C11D0B74210D10C462A4952
:102430008B4215D178204443601910226146801CDC
:10244000FFF7E4FD002800D00620F8BD0C46491C2B
:102450000329E2D32049491D8B4201D10420F8BD54
:10246000032CFCD01C4883421BD1A0B2002362463F
:10247000314603F0A9FCA0B2002103F0BBFC782098
:1024800044436419204670300A21FFF7D1FD2046ED
:1024900074300521FFF7CCFD10498888401C8880E6
:1024A00013E0A0B27821484340196030407B0028F7
:1024B00001D00B20F8BDA0B201236246314603F0E3
:1024C00083FCA0B2012103F095FC0020F8BD0000C0
:1024D000FFFF0000D063002040800000B4F9FF1F20
:1024E00070B5CA1C154694B27822074E5043801925
:1024F0007430FFF7A3FD78214C430448A1194867C5
:10250000A8B200F005F870BDD0630020FFFF000006
:1025100070B5104B0C269A88012A19D978214843A6
:102520000D490E4C0D5AA54212D0521E0C520026D7
:102530009A8045183246703528460A21FFF784FDF7
:102540000446401C04D0204603F0A4FF621CF3E7BD
:10255000304670BDB4F9FF1FD0630020FFFF0000BC
:1025600078235843034B0022C018406F0880104660
:1025700070470000D063002070B504460848094E3B
:10258000094B0022782555435D5BB54204D0A54236
:1025900002D10A80002070BD521C032AF2D370BD04
:1025A00021240000FFFF0000D063002030B5034667
:1025B0000B48002910D0002A0ED028246343094C70
:1025C000094D1B195C8CAC4205D0981C2033086067
:1025D00018791070002030BD01480F3830BD000060
:1025E0002224000090670020FFFF0000052807D28A
:1025F000002905D0074AD288904204D30648704784
:102600000548401E704714225043044A8018086051
:1026100000207047B4F9FF1F122400002069002039
:102620000249897801700020704700004063002053
:10263000024A0146527800200A707047B4F9FF1F21
:1026400001228A4005490346497800200A4201D008
:10265000012100E00021197070470000B4F9FF1F4C
:10266000024A0146927800200A707047B4F9FF1FB1
:1026700010B500280AD0064A147913681B1B0360A2
:10268000002901D010790870002010BD014810BD4C
:10269000346300201324000000290BD0064AC00731
:1026A0001268C00FD307DB0F834200D0521E0020F8
:1026B0000A6070470148704734630020132400000B
:1026C00030B578235843074B074D1C5A044AAC4297
:1026D00004D0C0186030407B08700022104630BD26
:1026E00021240000D0630020FFFF000070B5782295
:1026F0005043094A0B46145A084D0649AC4206D0CD
:10270000811810221846891CFFF786FC0021084614
:1027100070BD000021240000D0630020FFFF0000F6
:10272000002804D00349098801800020704702482E
:10273000704700004063002013240000F0B500281B
:102740000AD0002908D00D4A0B88D288934200D9BC
:10275000134600220A4F0CE00A48F0BD14245443EB
:10276000E419268A950046532D18A47C521CAC709F
:1027700092B29A42F2D30B800020F0BDB4F9FF1F51
:10278000206900201324000010B50B46082801D34F
:10279000084810BD002B0AD0782148430649102272
:1027A000411818464431FFF737FC002010BD01489E
:1027B0000F3810BD22240000D063002010B50B4656
:1027C000082801D3084810BD002B0AD078214843BF
:1027D00006491022411818463231FFF71DFC00202F
:1027E00010BD01480F3810BD22240000D063002026
:1027F00010B50B46082801D30B4810BD002B0ED096
:102800007821484309490A4C0A5AA2420AD0411881
:10281000082218465431FFF7FFFB002010BD024884
:102820000F3810BD042010BD22240000D06300200A
:10283000FFFF000010B5082806D278225043094A4D
:10284000094C135AA34201D1084810BD002905D0F4
:102850008018403080780870002010BD03480F3881
:1028600010BD0000D0630020FFFF00002224000004
:1028700010B50B46082801D3084810BD002B0AD01C
:102880007821484306491022411818462231FFF7A3
:10289000C3FB002010BD01480F3810BD22240000EA
:1028A000D063002010B50246054B54001A5D0A7033
:1028B000E3185B780020DB001A430A7010BD0000AB
:1028C000BCF9FF1FF8B5184C15460B00064615D08D
:1028D000002D13D018881549884221D100202821C5
:1028E000134A414389180A4620321779B74208D162
:1028F0000024188010222846891C0DE00A4C0E3C4A
:1029000010E09779002F0AD05279B24207D118808F
:102910000024102228461231FFF77EFB02E0401C03
:102920000A28DCD32046F8BD21240000FFFF000068
:1029300090670020FFB593B00F46169900200870ED
:102940001398374E002835D0002F33D01598002823
:1029500030D03D883348854227D100257820324940
:10296000684344182146543108221398FFF74EFB60
:10297000002822D0204660301190407B002813D0E0
:102980002AA000682AA1109003C909910890123466
:102990000EAA1021204604F06DFA08220EA9139801
:1029A000FFF734FB002818D06D1C032DD6D330461A
:1029B00017B0F0BD1A4E0E3EF9E73D8021460026C5
:1029C000443110221598FFF727FB6034607B022802
:1029D000EDD3169901200870E9E71198407B022891
:1029E00002D21699012008700020049005900690EC
:1029F000079004AA042110A804F09CFA0AA9062052
:102A00000191009008AB04AA1021204604F0A8F917
:102A10003D80002610220AA91598FFF7FDFAC6E7A7
:102A200021240000FFFF0000D06300206E6B626B6A
:102A30006964313238010000FFB5694F8FB00E0074
:102A400024D01198002821D0129800281ED0348854
:102A50006448844249D10024782021464143624899
:102A60000D182846403082780F998A4214D15F4869
:102A7000807802280DD00027348029462231102288
:102A80001198FFF7C9FA2946323147E0544F0E3FFB
:102A9000A3E0534F7F1DEFE76D21495D002923D04F
:102AA000C0780F9988421FD100200A90284601ADB6
:102AB000123001230AAA1021009504F06BF94B484B
:102AC000807802280DD0002734801022691C1298CB
:102AD000FFF7A2FA05A9102201311198FFF79CFA1D
:102AE0007BE03F4F7F1DEFE7641C032CB4D372E003
:102AF00078203D49604345184220425D0F9882424C
:102B00000FD1348078204443084621180027102232
:102B100022311198FFF780FA29463231102212989B
:102B2000DCE7304A686F904254D078225043401816
:102B300000906030407B00284CD0E01E2B4D81B2CD
:102B40000DAAA87801F048FC0098012108AA11728A
:102B50002549AA78903909881230022A2FD06B466D
:102B6000DA8E08AB9A72120A5A721973090AD9726C
:102B70006A46118F08AA9173090A51736A46518FE8
:102B800008AA1174090AD17301A9009109230AAA9C
:102B9000102104F0FFF86A4611790F98814219D18B
:102BA00001A9102201311298FFF736FA05A9102267
:102BB00001311198FFF730FA002734800DE008AAA0
:102BC0009172090A51726A46D18E08AA1173090AD4
:102BD000D172CDE7641C082C8AD3384613B0F0BDFF
:102BE00021240000FFFF0000D0630020B4F9FF1F84
:102BF00070B50026064D0446022802D0A8780228A7
:102C000002D1082001F0ECFDAC70304670BD000030
:102C1000B4F9FF1FF8B50646134C0D46C80918D184
:102C20002079124F002805D12068B0421AD22A30EC
:102C3000B04217D36846FFF70DFAA068002806D007
:102C40000099081A0A49884201DA012D0AD0009831
:102C5000A0606806400E26602071042003F0C4FACC
:102C60000020F8BD3846F8BD34630020FFFF0000A7
:102C70000070991470B50D4603467821484302460A
:102C80000C490D488E5A0A4C86420FD051186031BB
:102C90004A7B00242978002A04D0184603F0AAF8B9
:102CA000024602E0032900D004462A70204670BD87
:102CB00021240000D0630020FFFF0000F3B50C4684
:102CC000C97E504F83B0012901D0A58A18E04E4B30
:102CD0004E48002528226A431218528C9A4202D08C
:102CE000A68A964202D06D1C0A2DF3D30A2D02D07B
:102CF000012905D102E0032005B0F0BD0A2D76D0F0
:102D0000684680893C21424E484380192030007C2F
:102D100001286CD13B4F20787F1E012807D001AAE3
:102D20000021A01C03F070FF002860D10AE001AB75
:102D30006A460021201D03F09DFF002857D16846F8
:102D400000886080684680893C214843801928219A
:102D5000095C012906D180690199884202D00021CD
:102D600003F060FB6A4690893C2250438019019928
:102D7000816160886A461080002803D11C212046AA
:102D8000FFF76EF9684680893C21484380198583A6
:102D9000A17D8177E17DC1770146227E20310A70D5
:102DA000627E8A70A27ECA70406A0024002807D022
:102DB00003F0E8FA684680893C2148438019446260
:102DC00068460088002814D0684680893C22504319
:102DD000831918460121203001724178007803AA36
:102DE000243303F08BFA0027022003F0FDF9384664
:102DF00082E7684680893C2148438019203004726C
:102E0000F1E7000021240000FFFF00009067002090
:102E100080600020002805D0010403D4034A00216B
:102E2000108000E001210846704700004063002048
:102E30007CB5044602F080FF02F05AFF14211C48C2
:102E4000FFF70EF91A4864216438FFF709F91948A9
:102E500000210180418002F0B5F9208BFFF7DAFFF5
:102E6000A07C8007C10F80316069FFF7D3FE208A04
:102E700022461149FFF7C8FA0546A07CC00711D0C9
:102E80000D49208A2246491DFFF7BEFA208A01A972
:102E9000FFF772FB054602216846017001468088F3
:102EA000FFF7E8FE054803F09FF928467CBD0000C7
:102EB000BC630020BCF9FF1F40800000FF0300003E
:102EC000FFB50B4603252A4E2A4981B01746002438
:102ED000282262435218528CB2420CD09A420AD134
:102EE000282262438A5A824201D011253CE0002503
:102EF0000A2C06D138E0641C0A2CE9D334D0002D0A
:102F000032D1782358431C4B0122D203C618974272
:102F100008D1204603F0BEFA304670302146FFF754
:102F20008DF81BE028204443641827462037B879E1
:102F3000002803D16036707B012801D00B250DE0FD
:102F40002046123010220499FFF766F822462532F7
:102F50001021049803F0C0FF0120B871102003F085
:102F600043F9022003F040F9284605B0F0BD000007
:102F7000FFFF000090670020D06300200021017057
:102F800008467047FFB56A460646177A0020104A81
:102F90009C4601463C230D465D43AC1830231B5D27
:102FA000012B0CD1237AB34209D12379BB4206D13C
:102FB0005359019CA34202D16246118002E0491C90
:102FC0000A29E7D30A2900D1022004B0F0BD00008D
:102FD0008060002030B50C4A904212D00B49551E3B
:102FE000931ED41E4978A84202D1C80709D109E02E
:102FF000984201D1480702E0A04203D18807002887
:1030000000DA0022104630BDFFFF0000B4F9FF1FB8
:1030100030B50D4B002814D0010412D40B4A002106
:103020008D00545B002C08D0AD18AD78A04204D3BD
:103030006419844201D9002304E0491C0629EFD316
:1030400000E00123184630BD212400004063002029
:1030500001B581B06A46012101A803F0B7FD00283F
:1030600004D06A46012101A803F058FE0CBD0000FF
:1030700038B514460D46684602F0DAFC00280BD13C
:1030800069462B8809780622044D4A43AB522170C9
:1030900003498A78521C8A7038BD00007460002091
:1030A00040630020F8B50C4615466946204603F0FB
:1030B000F3F8010005D01648814200D100210846EE
:1030C000F8BD684602883C20124E50438019E368E0
:1030D000C360A3694361A38A03822369C362237A1D
:1030E000037248CC48C0083C23790B48002B237A54
:1030F00007D0062463431B18D878401CD8702A8058
:10310000DDE7062463431B189878401C9870F6E7A7
:10311000232400008060002074600020FEB50E466D
:103120001C461546074602A902F0DEFE002809D11A
:10313000012001900094684602892B4631463846AA
:1031400003F078F8FEBD0000FFB5E7B01F46739EA0
:10315000719C679800F03CFF012802D021486BB0B9
:10316000F0BD2148210EFAD17F2CF8D021020B0EA0
:103170002204120EE1B204AD002B0AD0E3431B027D
:103180009B0FECD1240C6B461C7499745A74032168
:103190000CE023041B0E06D02304E0D56B465974C3
:1031A0001A74022102E06A46117401218C19FF236E
:1031B000221D81339A42D2D8681832467299FEF79E
:1031C0002BFF60A8649584827099749864AA029217
:1031D00003900097019167A80BC8002201F0DAF96B
:1031E000BDE700002424000012240000F8B50B46BF
:1031F0003C2148431649154F45182E462036307C51
:10320000012821D1134A14480024282161430918B8
:10321000498C0327914214D0994212D12846343068
:103220002146FEF70BFF307A012805D1A88BA1B209
:10323000884201D1002030720027022002F0D4FF22
:1032400002E0641C0A2CE0D33846F8BD21240000BB
:1032500080600020FFFF000090670020F7B52B4A38
:1032600082B0074600294ED029488860FF206B466F
:103270001870002627483546012F02D0032F42D16F
:1032800005E0406800283ED1224C18701AE0012366
:10329000A0245C4324186468002C04D05B1CDBB2BF
:1032A000022BF5D32FE0A0245C432418684603705A
:1032B0000868006803882046803043830B681B68D9
:1032C0009B780377002C1ED014222046FEF7CEFEFA
:1032D0002068002801D085880668BC000E482B466F
:1032E0000759324601216846B8470B482B4620183B
:1032F0004468324601216846A04769460A78049925
:103300000A7005B0F0BD1046FBE70000FFFF0000AB
:103310001149011118430020584400201FB50B4AE1
:103320005468002C0FD000226B4600011A7008432D
:10333000587001921A81102303926A462B21044887
:10334000A04704B010BD0348FBE70000184300206D
:1033500050F9FF1F14200000FFB5074621488FB029
:1033600040681D461646002839D0791C1EA0FEF77D
:1033700083FE26A0FEF780FE25480020C0466C464E
:1033800000212170601C10221099FEF745FE68464E
:103390008674310A41741320002D10D02B68002B45
:1033A0000DD0A98800290AD00AAA184603F0C2FD48
:1033B00004A804220AA90330FEF72EFE17201022CB
:1033C00069460A764F76079408840648099513469D
:1033D000446806AA2B210F48A04713B0F0BD0E4841
:1033E000FBE700001843002042656172657220749B
:1033F000797065203D20256428312D6164762C206C
:10340000322D47415454290D0A0000000D0A0000D6
:1034100048F7FF1F50F9FF1F1420000070B50D463C
:10342000154988B04E681446002E22D010226946F5
:103430000A720001487203950C8200201346059021
:1034400002AA2B210D48B047012069460870684642
:103450000695848306AA432100F094F86846007814
:10346000401CC1B2684601700229F0D3002008B0A8
:1034700070BD0348FBE700001843002050F9FF1F10
:1034800014200000014800787047000051F9FF1F28
:103490001FB50B4A5468002C0FD00A016946521C14
:1034A0000A704870002001900881102303906A463A
:1034B0002B210448A04704B010BD0348FBE70000DF
:1034C0001843002050F9FF1F14200000052806D2E1
:1034D000002904D0034A80001150002070470248A0
:1034E000704700005844002011200000002901D03E
:1034F000012801D903487047034A80001150002079
:1035000070470000112000006C440020F8B50D0049
:10351000044608D028781749022828D2032C04D062
:10352000012C05D009E01448F8BD002802D004E0C1
:10353000002802D00F48401CF8BDA02250430F4A7B
:1035400080184268002A12D0A021FEF79BFDA4003B
:103550000B4F00233E591A4619462846B047E0193A
:10356000002344681A4619462846A047F8BD084675
:10357000F8BD000011200000FFFF000018430020EC
:1035800058440020F7B58CB00C98002842D0002A8F
:1035900040D0106803900C9896880078A022504381
:1035A0003A4A841865683A48002D34D08A09890659
:1035B000890E0192012930D0022930D0032901D08F
:1035C000042928D100200B90204640300A90163064
:1035D0000790401E254680350590FEF759FDC01E18
:1035E00082B26A83771C0B98BA4227D200281CD07B
:1035F0000199802008430A994875288B8018401E3D
:10360000288381B20398521E09180798FEF704FD1B
:103610006B8B26E01F480FB0F0BD2A2100E0292166
:103620003346039A0C98A847F5E701200B900199BF
:10363000402008430A9948750020E1E700281DD082
:103640000199C02008430A994875288B8018401EAC
:103650002883298B0398324609180798FEF7DCFC6B
:10366000BBB2F01A401C86B26768059A01990C98A3
:10367000B8470028CFD1002EAFD1CCE701200B9066
:103680000A9A0198002150752983E2E71843002027
:10369000FFFF00001120000008B5002069460870F7
:1036A000A021484304494018C168002901D0684658
:1036B0008847002008BD00001843002008B50022FC
:1036C00069460A70A0214A43044951180A69002A30
:1036D00002D0014668469047002008BD18430020EC
:1036E00030B5154687B0024601200C4600900020F8
:1036F000694608710A7208490391084906910490C5
:10370000182269468A822246FFF7CCFC04494D60A4
:1037100022880A8007B030BD714A011154A70111F7
:10372000A8FAFF1FF7B58CB0FB4B0C980024C21A07
:10373000032601AD98427DD02DDCF84B0027C21A3C
:10374000984243D01ADCF64BC21A98423ED00EDCA7
:10375000032853D004DC00286DD001286CD17DE112
:103760000122D203801A68D00128F7D158E2130051
:10377000FEF794FC0662622C62622C62921E1300B9
:10378000FEF78CFC0F5A245AF8F75AF65A84F5F5CE
:10379000F6F55A585A001300FEF780FC2D4E4C4E99
:1037A000F44E4E1C4EF34EF24EEC4E4E4E4E4E4EDE
:1037B0004E4E4E4E4EF14EF04EEF4EEEEDEC4E4E66
:1037C0004EEDECEB4E4E4EF34EF24E00087869464D
:1037D000087132E208786A46107148785071897829
:1037E000C900084319E188889071000AD071042447
:1037F00024E20128FCD10A796846F4E00A78684698
:1038000002710888020A684642718A788271488883
:10381000020A6846C2710A79027247728888020AEF
:103820006846427288790001024368464272CA794A
:10383000827203E0B9E0F3E0BCE12DE10A7AC272E2
:103840004A7A0273887A0924C000024368460273E8
:10385000087C002802D0012807D0EFE1888969465A
:103860004873000A88730B24E8E10A7B68464273B8
:103870008889020A68468273C868020C6846C27367
:10388000C868010E684601740D24D7E10E460A7817
:1038900069460A713188A81C0A0A69464A711022D1
:1038A000B11CFEF7B9FBB07C69468875CF75708A8C
:1038B0001724000AC875317D090108436946C87597
:1038C000707D0876B07D4876F07D8876317EC900BF
:1038D0000843694688762021885D002802D00128A7
:1038E00007D0ABE1B08B6946C876000A0877192487
:1038F000A4E1317F6846C176B08B010A6846017742
:10390000F069010C68464177F069010E68468177DD
:103910001B2493E188882DE106248FE101289CD1A6
:103920000A79684602728888020A684642724868C4
:10393000020C684682724868F7E0888A6946887592
:10394000000AC875142479E1012886D1317D6846C2
:103950008175B08A010A6846C1757069010C6846B4
:1039600001767069010E68464176162466E10AE028
:103970002DE0A8E054E144E0DCE0AFE03FE123E1EA
:1039800019E109E152E10A786846027108880424C5
:10399000020A684642718A7882714888020A68463B
:1039A000C271087A0028B9D1B4E70E4609786A4690
:1039B00011713188A81C090A51711022B11CFEF73F
:1039C0002BFB307E122431460028BDD1B5E70878A4
:1039D0006A46107108880224000A5071087A00288B
:1039E00000D006E7FFE682718888020A6846C27145
:1039F0004868020C684602724868010E68464172C7
:103A00008AE7087C6A461071088A000A5071A81C6F
:103A10001022FEF701FB122410E1507102240DE187
:103A20000C46098A68460185618A4185618A224679
:103A30000020FEF717FC684686852E462A460BAB0B
:103A40000AA9022001F032F86846858D102270190B
:103A50002146FEF7E1FA1035ACB231E00C46098A96
:103A600068460185618A4185618A234601220020DA
:103A7000FFF726FA684686852A460BAB0AA902207C
:103A800001F014F86846868D1022A8192146FEF729
:103A9000C3FA1036B4B213E00B88684603854B882E
:103AA0004385002349881846FFF70AFA68460680CE
:103AB0002A466B460AA9022000F0F8FF68460488EF
:103AC000002C77D0BAE00A78684602710888020AAA
:103AD00068464271897881710324AFE00D46097808
:103AE0006846017128880424010A68464171A97852
:103AF000817168880BAB010A6846C17100202A6990
:103B0000E968FFF73FFA002830D168466988808D60
:103B1000FEF772FB2AE00000218000001080000008
:103B20000880000001282AD088E0010E6846C17292
:103B3000082483E00D46097868460171288804242A
:103B4000010A68464171A978817168880BAB010A46
:103B50006846C17100202A69E968FFF713FA002856
:103B600004D168466988808DFFF740FB287A0028D9
:103B7000D8D1A88869460872000A4872CCE629792B
:103B800068460172A888010A684641726868010C9B
:103B9000684681726868C8E70A78684602710888D2
:103BA000020A684642718A7882714888010A68462A
:103BB000C1711CE64CE00A78684602710888020A66
:103BC000684642710A790EE70A78684602710888E9
:103BD000020A684642718A788271CA78C2710A798B
:103BE00002728A794272C888020A684682720A7A28
:103BF000C2720889010A6846017309241EE00A7826
:103C0000684602710888020A684642718A788271A1
:103C10004888020A6846C2710979017205240DE0DC
:103C200008786A4610710888000AF6E608786A463D
:103C300010714978C90008431071012401AA0E9837
:103C40000090234603480C99FFF768FA0FB0F0BDC7
:103C50000022F4E7A8FAFF1F30B5154687B00246E8
:103C60000B480C4600900020694608710A72094909
:103C70000391094906910490012269468A822246ED
:103C8000FFF710FA05494D6022880A8007B030BD61
:103C900001100000A14C0111C0A80111E8FAFF1F9A
:103CA000F8B5274D297800292DD100282CD00146C0
:103CB0000822A81CFEF7B0F9FEF7F6F902F090FB17
:103CC00002F03CFF02F02AFF03F06EFA02F0D8F98E
:103CD00002F00CFC02F050FF02F092FB194EB06AA9
:103CE0000402240AFEF7E6F9B06A0002000A011B8A
:103CF00015A0FEF7C1F922A0FEF7BEF92148002069
:103D0000C04601202870F8BD5C211FA0FEF7D8F93D
:103D1000002805D05C211CA0FEF7D2F9401C00E071
:103D200019A04F21294C0346009121A221460120D0
:103D3000FEF7CCF926A221460120FEF7C7F9F8BD0F
:103D400044F9FF1F00F00040636F6E73756D6520CE
:103D500074696D65206F662066756E6374696F6E39
:103D6000206372795F656364685F696E69743A2085
:103D7000256420525443207469636B0D0A000000CF
:103D80000D0A000048F7FF1F2E2E2F6D6573682F58
:103D9000707269766174652F636F72652F636F6DE2
:103DA0006D6F6E2F4D535F636F6D6D6F6E2E630081
:103DB0000A5B2A2A20455252202A2A5D3A5B257343
:103DC0005D3A5B25645D3A20000000000100004080
:103DD00044796E616D696320436F6E6669677572C1
:103DE0006174696F6E2063616E206E6F742062650E
:103DF000204E554C4C2E2052657475726E696E675C
:103E00000A000000014908600020704754F9FF1FB4
:103E1000FFB591B007469C461BA82CC80026079604
:103E200008961F9C6E46378471841A99F177E904CD
:103E3000C90C09950E9138486146002947D00129DF
:103E40003FD13246B1770B2C3DD96105090E0C915B
:103E50001E990026097835460F912FE00F99802092
:103E60000143684601730E98C004410E68464173D1
:103E70000E988100E8080143684681730C98690137
:103E800001436846C173A01BC7B2082F00D9082799
:103E90001E983A46811904A8FEF7BEF8F019C6B27A
:103EA00003A80A9068463F1D87850AAA07A81399A8
:103EB00000F0A4F8002804D16D1CEDB20C998D42DD
:103EC000CCD915B0F0BD1E980A9094851EE0002054
:103ED000B0772098012801D00C2C08D90E981E9993
:103EE0006D4613C507A8139901F0E2FCE9E79001BC
:103EF0009906890E0843307303AD2246681C1E994B
:103F0000FEF78AF86946641C0A958C850AAA07A8F8
:103F1000139900F073F8D4E7FFFF000010B50A4CC6
:103F20002168016021686068814207D3FF30FF305B
:103F300002306060FF20013002F056F92068401C1A
:103F40002060002010BD000084F9FF1F30B58FB045
:103F5000054601206946087404AC02A90AA8FEF7C8
:103F600087FB03A92846FEF7ABFB6946087B0228BE
:103F70002BD000216A46107A400008435074A11CDF
:103F80002846FEF735FC6A46117A0A9841180A91CC
:103F90005177080A1077080CD076080E90760BA996
:103FA0002846FEF7F1FB07A8082102300191009096
:103FB0000BAB0D22611C0020FEF78EF8162204A91F
:103FC0000120FFF72BFA0FB030BD0121D2E700002E
:103FD000002803D0800B022800D201207047000087
:103FE000024A06CA06C000207047000084F9FF1F7D
:103FF000014908600020704780F9FF1F7FB5144613
:104000000D4607C801AB07C300216846FEF730FB29
:1040100000986946C007C00F087100232246294650
:1040200001A803F083FB04B070BD0000024905C87D
:1040300005C100207047000084F9FF1FFFB5434809
:1040400081B00F46002B11D0002F0FD0019901290C
:1040500001D002290AD13E4800250068B22807D0C5
:10406000B12805D0B02803D03848401E05B0F0BDB7
:10407000184604F06DF8040020D036482646FF3676
:1040800000786136307402281BD020461022324955
:10409000B030FDF7C1FF2246FF3200208132906030
:1040A0002A490198091D2D4B012811D0022828D03A
:1040B0002B4D204604F010FA2846D7E72348401C31
:1040C000D4E78ECF2046B0308EC003983076E2E73A
:1040D0001878FF2837D0022093607074307C022853
:1040E000EAD12046FF3004217530FDF7FBFF204662
:1040F00004F00AFD0500DCD1B320FF340134E06692
:10410000DAE701201F5CFF2F02D01B18936003E049
:10411000401CC0B20228F5D3022814D004207074C9
:104120000120FF21B0746D310851307C0228C3D1C9
:1041300000200346024600900121204604F0E0F9E9
:104140000500B6D1B8E70D46B3E700001230000015
:1041500098FAFF1F9CFAFF1F546B00209DFAFF1F67
:10416000FFFF0000002905D0034A106003480160EA
:10417000002070470248704790FAFF1F94FAFF1F13
:1041800012300000FFB5334E8BB015460F460028A5
:104190000FD0002D0DD004F097F804000BD0022FA3
:1041A0000CD0042F1FD0072F49D0354628460FB01A
:1041B000F0BD3046FBE72748801CF8E70822294677
:1041C00008A8FDF729FF0820009008AB0022032172
:1041D000204604F095F90500E8D10022042120468C
:1041E00004F05AFDE2E7E01DF930C17A022902D05D
:1041F000032904D006E0007B042819D002E0007BEC
:10420000032815D028686946C870020A8A70020C13
:104210004A70000E0870AC2000990151002003463E
:10422000024605210090204604F06AF90546BDE7E4
:1042300020462946A0300E9AFDF7EEFEEEE71C223E
:10424000294601A8FDF712FF1C20002201AB08211E
:104250000090E8E71230000038B515460C460028FB
:104260000DD0002C0BD004F02FF8002809D0C11D70
:10427000F931CA7A022A07D0032A09D00BE0104884
:1042800038BD0F48801C38BD097B042911D002E0DD
:10429000097B03290DD021686A46D1700B0A9370FF
:1042A0000B0C090E53701170A0300099C1600020F2
:1042B00038BD21462A46A030FDF7AEFEF7E70000E4
:1042C00012300000F8B507462B480E4601682B480F
:1042D000154600291AD0022E07D0012E17D12849E1
:1042E0000968002912D0002D11D02748254C0670EE
:1042F000FDF7E0FE2548FDF7FBFE3046244E012881
:1043000008D0022824D01D4C641C2046F8BD1B4850
:10431000401CF8BD1F4900200870102229461E4885
:10432000FDF77AFEF80706D02A8A294600206B6935
:10433000FFF712F80446B80706D52A8A2946012055
:104340006B69FFF709F80446002CDED1B12010E0BC
:10435000F80704D001210020FFF79AF80446B807B7
:1043600004D501210846FFF793F80446002CCCD170
:10437000B2203060C9E7000094FAFF1F113000003E
:1043800090FAFF1FFFFF00009CFAFF1F146B002034
:1043900098FAFF1F9FFAFF1F546B002070B50D4C59
:1043A00000252079C00707D001210220FEF7B6FFC3
:1043B00020794008400020712079800707D501212D
:1043C0000320FEF7ABFF2079FD210840207128462D
:1043D00070BD000098F9FF1F10B5134602280AD0DF
:1043E000FF20800041430548091808221846FDF7C0
:1043F00013FE002010BD08220149F7E7D449002030
:10440000C05D0020F0B504460E4800220E4D1F2668
:104410008C467601FF21890051434B199F19397C45
:1044200001290AD15B88FF7D9C4206D3D919A1429C
:1044300003D9614600200A70F0BD521C052AE9D359
:10444000F0BD000021240000D4490020F0B504464E
:104450000A781248052A01D1002202E0521C052ADE
:1044600015D2FF239B000E4D53435D191F235B01A3
:10447000EB181B7C012BF1D100230F26B6015F0046
:10448000EF19BF19BF8BA74202D100200A70F0BDFF
:104490005B1C082BF3D30028E0D1F0BD21240000E1
:1044A000D449002070B50546FF20800041430B48E9
:1044B000094C0E187288294609A0FDF7DDFD12A0EF
:1044C000FDF7DAFD11480020C0467088A84200D1EF
:1044D0000024204670BD000021240000D4490020A3
:1044E0005B46524E445D2073616464723A203078BA
:1044F000253032582C2075616464723A203078255A
:104500003032580A000000000D0A000048F7FF1F73
:10451000F7B50546002086B069460882144E1F276D
:10452000488204467F01FF20800060438019C11942
:10453000097C012915D10088A84212D16946079843
:10454000087108980872020ACA71020C8A71000E7A
:1045500048710520009001AB03AA0021204604F019
:10456000E9FF641CE4B2052CDDD3002009B0F0BDE6
:10457000D4490020012902D0002902D003E00349D8
:1045800000E00349086000207047000068F9FF1F41
:104590006CF9FF1FFFB5EBB074980F2802D31F48CA
:1045A0006FB0F0BD04260A280AD30A38C0B208A9A1
:1045B000FEF71CF80225002069460877044607E04C
:1045C00007AA08A9FDF7F2FF0028E9D101252C462A
:1045D00009A8FFF7A3FC08980AAF01A9E1C109984F
:1045E00000906BA807C8769B05F0A8F87698099A02
:1045F00080887799001D80B20590049703920691F8
:104600006846017F759802910090002301946E9A8C
:104610006C996B98FFF7FCFBC2E7000012230000C7
:10462000FFB5C9B00026529A539835460A2A02D9D6
:104630005C484DB0F0BD69460A77012402211300A1
:10464000FDF72CFD0B87070C224657576767077E3F
:10465000870000786946487702247AE00278694644
:104660004A77027908A94A7081880A0A08A90A705B
:1046700041680A0C6946CA7741680A0E69468A771A
:10468000007A08A9887032E003786A465377437845
:104690009377037908AA53708288130A08AA1370C3
:1046A0004268130C6A46D377037A08AAD37002894A
:1046B000130A08AA9370837A1371037B937180891C
:1046C000000A507138484A9038480B24017040E085
:1046D000027869464A7742788A778278CA77C278C0
:1046E00008A90A7002798A708088000A4870072435
:1046F0002FE0027869468A7701880A0A69464A7774
:10470000827808A90A7040886946000AC87705249B
:104710001FE001786B465977022407AA00210BE0BD
:1047200043684F00DB191B8817197B701B0A135550
:10473000A41C491CE4B2C9B203898B42F0D808E03A
:10474000027869464A778278CA774088000A887773
:10475000042447A8FFF7E2FB1548806A479A07023E
:10476000002107A8069104904C98059400900392AC
:104770000196029549A807C83F0A0123FFF748FBA5
:1047800004460B48806A0102090AC91B09A0FDF70B
:1047900073FC11A0FDF770FC10480020C0462046B5
:1047A00047E7000012230000FDFF000060F9FF1F33
:1047B00000F00040636F6E73756D652074696D6500
:1047C000204D535F6C74726E5F73656E645F7064CE
:1047D000753A2025640D0A000D0A000048F7FF1FF6
:1047E00010B5164C88B0E188884302D0144808B050
:1047F00010BD02A8FDF794FF7F216846017405A84B
:10480000FDF716FF06A8FDF72BFF6846007E02287D
:1048100005D06846007D4107490F68460175684626
:10482000017D41820A2004A9009001916846037C21
:10483000628921880089FFF7F3FED8E7D85D002060
:10484000FFFF00007CB51C461B78069EDD0915D0D5
:104850009D09022D14D0DD432D06AD0F0DD11D0293
:1048600063782B431D02A3782B4303256419751B22
:10487000ADB20195009401F04DFB7CBD0125F5E73B
:104880001D0263782B430225F0E7000010B51C4899
:10489000002141601821816081611A49C161194973
:1048A0001831C1623D210901016317490164682182
:1048B0004164154968314165FF2193318165134990
:1048C00081661A21C16611491A31C167662180309B
:1048D00001600E49024680310161162141610B4998
:1048E000843A963141620421816208499A31816398
:1048F0000721C16305490020A131FDF7FFFB10BD71
:10490000C4F9FF1F5A020000420600003C080000E4
:10491000FFB581B001980E46007802285CD2A02134
:10492000504C41430C196168002955D0551E002890
:10493000307826D081098006800E009003284BD85D
:10494000AFB200294AD0012951D002295BD00329F6
:1049500042D127468037F98A204614300818711C46
:10496000521EFDF759FBF88A4019F882009800287A
:1049700064D0012854D0022870D003282CD1042000
:104980005DE0394C002B04D01968002901D009786A
:104990002170292810D02A2810D02B281AD17078FD
:1049A000012817D8810031484358002B12D0921E9D
:1049B00091B2B01C98470DE0022000E00120810078
:1049C0002A4814384758002F04D0721CABB2022179
:1049D0000198B8470020207005B0F0BD2046711C3A
:1049E0001430521EFDF718FB96200753BEE72546EC
:1049F00000208035E8822046711C1430521EFDF7DD
:104A00000BFBEF82E8E727468037F88A1434001959
:104A1000711C521EFDF700FBF88A4019F882DBE793
:104A2000207D810011484258002AD5D09620005B95
:104A3000401E81B2204615309047CDE70320022169
:104A400082000A4814388558002DC5D09620035B93
:104A5000224614320198A847BEE7FFE7032001462B
:104A6000EEE700001843002051F9FF1F6C440020BE
:104A700070B505AC0ECC049D00240A2D01D2074868
:104A800070BD074E8D1BB14201DA064EB142064D94
:104A90006D68002D00D0A847204670BDFFFF0000C4
:104AA0002880000011800000A8FAFF1FF0B59E4684
:104AB000002503462C46400816E06700CE5D56559B
:104AC0007E18B446B6786D1CADB236015655CF5B34
:104AD0003F0A3E435655664676886D1CADB2360990
:104AE00056556D1CADB2A41CA042E6D8D80709D01B
:104AF0006300C85C5055C95A6D1CA8B2090A11540C
:104B0000401C85B2704605800020F0BDF0B59E4681
:104B1000002503462C46400816E06700CE5D56553A
:104B20007E18B446B6786D1CADB236015655CF5BD3
:104B30003F0A3E435655664676886D1CADB236092F
:104B400056556D1CADB2A41CA042E6D8D80709D0BA
:104B50006300C85C5055C95A6D1CA8B2090A1154AB
:104B6000401C85B2704605800020F0BD70B505463A
:104B700000F062F812490446052809D0FF208000A1
:104B800060434618204600F01DF87580204670BD31
:104B900000201F225201FF239B0043435B189B18F8
:104BA0001B7C002B05D0401CC0B20528F3D3052088
:104BB00070BDFF229200424351184D8070BD00002D
:104BC000D4490020F8B50446FF208000194960430D
:104BD00045181F2040012F18B87EFF2801D0FDF78F
:104BE00093FA287CFF2801D0FDF78EFA2888214609
:104BF000FDF776FC00242646FF20E530604340198F
:104C00000146FF31C131CE868E86FF21E13114305D
:104C1000FDF738FA641CE4B2022CEDD30720C00182
:104C20002818C6650666466686663E74FF20B87616
:104C30002874F8BDD449002030B5024600201F2456
:104C400009496401FF239B0043435B181D192D7C18
:104C5000002D02D05B88934204D0401CC0B20528CE
:104C6000F0D3052030BD0000D4490020F8B504463B
:104C70000AA00068009060060F46800F6D46164639
:104C8000285C0A21FDF746FA3870E006800F285CA0
:104C90000A21FDF73FFA30700020F8BD0A0F141901
:104CA00070B505AC0ECC044D00246D68002D00D00D
:104CB000A847204670BD0000E8FAFF1F0246400BDF
:104CC00040030843904202D90121490388437047B9
:104CD0007FB50468A07B00281BD026462036F07ADA
:104CE000800704D5012503A8FDF71AFD03E06088BD
:104CF000694600258881FF207072206A7F2102901A
:104D0000019500916846E38AA2882188808900F095
:104D100087FD7FBDF0B5124D9C46AF882B465C8861
:104D20001E2F14D0E3199CB21E2C01D31E3CA4B23A
:104D30000C235C430B4BE618B1701853604672604D
:104D400030721E2F01D07F1CAF800020F0BD661C8A
:104D5000B6B26E801E2EEBD100266E80E8E7000012
:104D600058F9FF1F6C45002010B5F0210448FDF7ED
:104D700089F90348FF216931F030FDF783F910BD4F
:104D80007C440020F0B50F490978012912D00E4B60
:104D900085880E4A0021CE00B418A788AF420BD1F7
:104DA0000778A479A74207D196598468B44203D8FA
:104DB000002304E00020F0BD491C1E29EBD3184657
:104DC000F0BD000058F9FF1FFFFF00007C440020E9
:104DD000F0B50646944600200C4C0A4603463021A6
:104DE0001D464D432F19B97BB1420AD1615B9142F7
:104DF00007D13D7C654504D13020434318198673A3
:104E0000F0BD5B1C9BB2102BE9D3F0BDD446002053
:104E1000FFB5054610788FB08007C00F0B90129831
:104E200017464278D0090990129893078078520665
:104E300081081B0ED20E19431202114306911299DA
:104E4000C000C9784A090243D006C00ECE060290BF
:104E5000F60EE888FFF7BCF80D902A78A9880120A3
:104E6000FFF7B6FF040011D0E08A0699884202D904
:104E7000A44813B0F0BD884208D2217C20880123C9
:104E8000A269FFF747FF204600F0BEFBA86806991D
:104E9000FFF714FF02462978A88804AB00F0BAF99E
:104EA0000C9000280BD0A87801281FD00C200A9065
:104EB000387880071CD503A8FDF732FC1BE0684654
:104EC000007C00287ED10120761CB0400D99401E48
:104ED000012977D1EA780B99019100920290A98873
:104EE000E888069B109A00F09BFC6BE00820DEE748
:104EF000E88869468881701C0A990E9048430B998E
:104F0000401C0190009168468289A9880120069B77
:104F100000F0B0FB040003D0A07B002812D03DE0DD
:104F20000D9A79480021012AA3D1E8780B9A0192C1
:104F3000009002916846A9888089069B109A00F02B
:104F40006FFC96E7002001230C90A3731098A080BB
:104F500028782074A878E073E8786077A8882080A3
:104F6000E888608000206074A0740999E174069953
:104F7000E1822822105526772062204623303A7895
:104F800002727A7842721F2E0CD00E9A1846904008
:104F9000401E6062A868FFF791FEA0610D9801288D
:104FA00003D008E00020C043F3E7204600F0A0FB58
:104FB000204600F043FB029A0120216A9040014202
:104FC000009001D0002054E7964206D10A9831465D
:104FD00041431898C01E0818A0810A990298A26837
:104FE000484310181299189A401C091D121FFDF70A
:104FF00013F8206A0099084320621899626AC9B2BE
:10500000089190425ED1204600F088FB0D9801285F
:105010000BD1226A7F206B460B9907C36846E38A4F
:10502000A9888089109A00F0FBFB1298A16800788B
:105030004006400E087035480068002813D03878C4
:10504000C10701D140070ED5E18AA868FFF736FEF7
:10505000A860A08900902D4EA36836682846099A5A
:105060001099B04724E0002E00D00326387881073D
:1050700008D50898009078782A463146129B04F0AB
:1050800059FA10E000070ED50898009078782A4663
:105090003146129B04F04EFAE888791CFFF7D6F9E6
:1050A0000C900028F0D0E18AA868FFF707FEA860FE
:1050B0002978A8880023AA68FFF72CFE204600F074
:1050C000A3FA1CE03878810708D508980090787812
:1050D0002A460121129B04F02DFA10E000070ED59C
:1050E0000898009078782A460121129B04F022FA51
:1050F000E888791CFFF7AAF90C900028F0D00C98EA
:10510000B7E60000FFFF00001422000054F9FF1F63
:10511000FFB583B00C9E04460D9D029201461F46CA
:10512000009601951C48049AFCF7A6FF1BA0FCF70B
:10513000A3FF1B480020C0460020019033462246B2
:1051400000970220049900F095FA04001DD0002D6C
:1051500003D0606AA84203D1204600F055FA14E05B
:10516000207F1F2814D00121401C8140491E226A43
:1051700029400A43226225462035687AFCF7C4FF9D
:10518000FF206872204600F01DFB002007B0F0BD34
:10519000206A28432062EEE790AB01110D0A00005F
:1051A00048F7FF1F10B50468A07B002808D0217CB9
:1051B00020880123A269FFF7ADFD204600F024FA04
:1051C00010BD000010B50448002181804180F0210D
:1051D0000248FCF757FF10BD58F9FF1F7C44002020
:1051E00010B50324240221460948FCF74BFF214651
:1051F0000748FCF747FF0020054BFF2130224243C0
:10520000D21820325172401C91721028F6D310BD72
:10521000D4460020FFB5174A0646518897889C4619
:1052200013480024144A20E00C230D465D43535BD1
:10523000B34213D1AB189E469B78019DAB420DD172
:1052400073465B68029DAB4208D10C20414388182D
:10525000017A60460170002004B0F0BD491C89B29B
:105260001E2900D10021641CA4B2BC42DCD3F3E7A8
:10527000FFFF000058F9FF1F6C450020FEB50446F3
:105280000F462A4D2A4EC088FEF7A2FE0190A08844
:10529000FDF7BEFE00281CD001980128E08826D02A
:1052A000010AFF292FD0FDF7D3FE002806D0E088A1
:1052B0006946FFF7CBF8002800D000252046FFF70D
:1052C00061FD002825D0204600F040FB30463D60BF
:1052D000FEBD18A0FCF7D0FE24A0FCF7CDFE2448AC
:1052E0000020C046002038601148401EFEBDFDF77A
:1052F0008FFE002805D0E0886946FFF783F8002874
:10530000DBD10026DAE70949C91E8842D6D201203E
:10531000FEBD18A0FCF7B0FE14A0FCF7ADFE1448CB
:105320000020C046002038600048FEBDFFFF00009E
:10533000182100005B4C54524E2052785D20506B77
:1053400074206F726967696E617465642066726F3C
:105350006D204C6F63616C205352432E2044726F5A
:105360007070696E672E2E2E0A0000000D0A000074
:1053700048F7FF1F5B4C54524E2052785D20526517
:10538000706C6179656420506B742E2044726F706C
:1053900070696E672E2E2E0A00000000FFB50446CD
:1053A00089B0E1780A980290019300911F46164651
:1053B000A378E288A1887648FCF75EFE75A0FCF72A
:1053C0005BFE75480020C046E088FEF701FE0546FA
:1053D000A078012801D1022D18D0002001460290AA
:1053E0006846017305214173A088FDF711FE00286E
:1053F0000FD06A480590E088012D0DD0010AFF29E1
:105400001ED0FDF725FE002824D026E064480DB00C
:10541000F0BD6348401CFAE7FDF7FAFD050007D030
:1054200003A9E0880131FEF7EDFF050004D021E07B
:1054300001206946087321E00221684601731DE0DE
:105440005649C91E884203D3FDF7C4FD0546EFE760
:105450000120DCE704206946087303A9E0880131D4
:10546000FEF7F4FF050005D16946087B08210843D3
:10547000694608736846007B00280DD03178C8095A
:105480000DD0002807D00097334603AA20460A997A
:10549000FFF7BEFC054678E04148801CB7E7A278DC
:1054A000F8B2012A02D14906490E0DD0694601968B
:1054B000097B8A072FD500906846407B33462246F9
:1054C000002104F037F83FE06946097B890708D5D9
:1054D00000906846407B33462246042104F02AF8B7
:1054E00043E070780102B0780843C30B4004C10C5C
:1054F000F078020230791043020270791043020200
:10550000B079009110430190E188A0880A9AFFF7D2
:10551000FFFD002028E0080716D5FEB26846417B53
:10552000A088FEF7BFFF002807D068460096407BA2
:1055300022460021019B03F0FDFF03A9E088013111
:10554000FEF784FF0500E9D016480668002E0CD04F
:105550006846007BC10701D1400706D50097204669
:10556000019B029A0A99B0470590059800280CD132
:105570000A98032809D16846FDF772F86846007852
:10558000022802D10A9804F01DF928463FE70000DE
:105590002CAB01110D0A000048F7FF1FFFFF0000B0
:1055A0001621000054F9FF1F10B50068817B002907
:1055B00004D0FF2229210A5400F004F910BD000094
:1055C00070B50D46014600240E4A20463023434361
:1055D0009B189B7B002B03D0401C1028F6D30BE0BC
:1055E000302358438418A17306D02846FCF798FD51
:1055F000A060002802D0A581204670BD0020A073C5
:105600000446F9E7D4460020F8B5044680682546EC
:105610000026FF272035002807D0FCF787FDA6606D
:10562000A681687AFCF770FD6F72A87AFF2802D015
:10563000FCF76AFDAF72A673F8BD000001B582B039
:1056400002982030807AFF2805D0FCF75DFD029893
:10565000FF212030817204200090029802AB034A9F
:1056600003492A30FCF768FD0EBD0000A551011169
:10567000204E0080FFB5844600251C4881B08E4630
:105680002C462A46302116464E433318997B6145F5
:1056900012D1875B77450FD1DF8A049EB7420BD1C9
:1056A0000A9F012F03D05F88039EB74204D13021A7
:1056B0004A43151815D107E0002902D1002C00D16A
:1056C0001C46521C102ADDD30B98002809D0002C50
:1056D00007D02546FCF724FDA860002804D00B98CD
:1056E000A881284605B0F0BD0025FAE7D446002081
:1056F00011B581B0019C2921095D0020FF2908D145
:1057000004200090204601AB024A03492930FCF7EF
:1057100013FD1CBDD14C01113200008010B50446B0
:105720002034617A0020FF2904D00846FCF7ECFC05
:10573000FF21617210BD000070B504460C200A46BE
:105740004243207F8AB0884203D1A089801A85B263
:1057500000E00C25607C03AE8301A07C8006800EF7
:1057600003438020034368460373E08AC004430E6A
:1057700068464373A07D8300C8080343684683736B
:10578000207F490101436846C173A06881182A46F9
:1057900004A8FCF741FC68462D1D07960584218866
:1057A00081806188C180617FC170E17B817002A8C6
:1057B000FEF7B4FBA18807AA6846FEF71FFC0AB0F3
:1057C00070BD000071B581B001982821095C057F8A
:1057D00000291ED0002401260AE001983246016A01
:1057E000A240114202D12146FFF7A6FF641CE4B299
:1057F000AC42F2D9019C01AB20462034217A064A02
:10580000491E21720421009104492930FCF794FCBF
:105810007CBDFFF7F9FE7CBDA9550111F4010080A4
:10582000FFB58BB00D98149F169C1E46032806D119
:105830006846FCF715FF68460078022807D00C98E8
:10584000FEF7C6FB012807D018480FB0F0BD0D9831
:1058500003F0B8FF0020F8E70025684605771598A3
:10586000C101F004400E014368464177B1008177E1
:10587000210EC177210C08A80170210A41708470A3
:10588000002F00D07F2709A8FEF748FB099A0720C0
:1058900007A90695009701950BAC02950392049118
:1058A000059007CC0123FEF7B3FACEE7FFFF000017
:1058B000FFB581B00C9D074629460220FFF780FE08
:1058C000040038D000262A46A0680B99FCF7A4FBF8
:1058D0000298A080B878E073F8786077B888208064
:1058E000F8886080039860740498A0740A98E08235
:1058F000F888FEF76DFB01281FD0022128200155F2
:105900000C212846FCF706FCC0B20C214143A942F9
:1059100001D1401EC0B20021207721621F280ED085
:105920000121401C8140491E61622046FFF74AFF69
:10593000304605B0F0BD044EFAE70321DEE7002053
:10594000C0436062F1E7000014220000F0B51E229F
:105950008388114D0021CC006619B4889C4206D181
:10596000B6790778BE4202D100240A460BE0002C2B
:1059700002D11E2A00D10A46491C1E29EBD31E2A39
:1059800000D100220024D1004A19938083686B5013
:10599000007890712046F0BD7C440020FEB5224E78
:1059A0000546706800282AD001A93078FCF7CAFBA8
:1059B000002801D000200190019F642138467468BE
:1059C0006330FCF7A7FBA1686422091A286809184C
:1059D0005043A960B8421AD83078FCF795FBFF20F5
:1059E00030700420EC600090296864204143400737
:1059F00001432B460D4A0C48FCF79EFBFEBD75602B
:105A00002968B0680818A86004200090EDE72246D5
:105A100003E0A3688B4203D80446E0680028F8D16D
:105A2000D560E068E860FEBDA8F9FF1F556101116F
:105A300030B5034600200B4A014606244C43A41807
:105A40002479002C06D0491C0229F6D3022900D162
:105A5000054830BD062401254C43A2181571197064
:105A6000F4E7000074600020FFFF0000F0B50F466F
:105A700028211E4A41438C1825462035A97989B032
:105A8000012902D002292DD128E0282148431749B5
:105A900046181236022F02D0032F17D022E02879A1
:105AA0000190A11C102203A8FCF7B6FA68792871AE
:105AB000A01C10223146FCF7AFFA019868713046FD
:105AC000102203A9FCF7A8FAAF710BE068792871DE
:105AD0003146A01C1022FCF79FFA01E0032F01D1F0
:105AE0000020A871A87909B0F0BD000090670020DF
:105AF000F0B595B000252EA11295096813912DA13E
:105B000009682DA2149106CA1091782148432C49A6
:105B100011924418A01C2246543210210B9001F01F
:105B2000A9F902A80090012312AA10210B9801F0F4
:105B300031F96846067A2046274602A932302237D4
:105B400010220131FCF768FA06A91022013138460B
:105B5000FCF762FA22370C950D950E950CAA0421DC
:105B600014A80F9501F0E6F906200197009010ABFC
:105B70000CAA10210B9801F0F3F818370C950D952D
:105B80000E950CAA042113A80F9501F0D3F9062055
:105B90000197009010AB0CAA10210B9801F0E0F8CF
:105BA0004034A670042000F01FFB15B0F0BD0000CB
:105BB0006E6B696B6E6B626B696431323801000029
:105BC000D063002070B505460E46C01E294C94B027
:105BD00081B20DAAA078FEF7FFFB0FA93046FCF7B3
:105BE00085FD00283CD1012008A908722248A1782F
:105BF0000088022936D06946CA8E08A98A72120A1C
:105C00004A720873000AC8726946088F08A9887327
:105C1000000A48736946488F08A90874000AC873C7
:105C200001AC09230AAA10210FA8009401F0B2F8D0
:105C300078204543104869469030281803460546A9
:105C4000097940308170323322351022611C1846A8
:105C5000FCF7E2F905A9102201312846FCF7DCF92E
:105C600014B070BD08A98872000A48726946C88ECF
:105C700008A9C6E7B4F9FF1F4063002010B5184813
:105C800005210170002444700F2189011548FCF79B
:105C9000F9F900F051F8FF2191311348FCF7E0F9D0
:105CA00000F026F864211148FCF7DAF900F030F82A
:105CB0000C4818219038FCF7D3F90A4814211438FD
:105CC000FCF7CEF9074864217838FCF7C9F9044895
:105CD000083004804480FEF7D9FD002010BD00008C
:105CE000B4F9FF1FD06300209067002020690020D6
:105CF000054A06490020282343435B18401C5A8468
:105D00000A28F8D370470000FFFF000090670020CA
:105D100070B5074D00241420604340191421FCF78E
:105D20009FF9641C052CF6D302490020C88070BD81
:105D300020690020B4F9FF1F064A07490020782394
:105D40004343401CCA520828F9D3044900208880E4
:105D500070470000FFFF0000D0630020B4F9FF1F70
:105D600070B50E4678214843084900224518703521
:105D700028460A21FCF768F90446401C05D0A0B269
:105D80003146FFF773FE621CF2E770BDD06300205E
:105D9000F8B50F460646782148430A4900224518BF
:105DA000743528460321FCF74FF90446401C07D000
:105DB000E01C80B23A463146FFF704FF621CF0E770
:105DC000F8BD0000D063002070B51646084D78225B
:105DD00050434419002B03D1295200216C20015556
:105DE0001801201810223146801CFCF715F970BDEF
:105DF000D0630020F3B58FB00E460F987821394A52
:105E0000484381180D4660350990002E0FD00F9A37
:105E100078235A43334B687BD7183C4612344037BB
:105E2000002808D0012816D0022858D14FE00F983A
:105E3000FFF75EFE35E0012E51D10020029005A84B
:105E400000902046012302AA102100F0A3FF68461B
:105E5000007DF87025E0022E02D0032E23D03EE014
:105E6000B8780390102205A8891CFCF7D5F81D49C5
:105E700009982246095A00230F98FFF7A5FF0F98AB
:105E8000FFF736FE0398F8702046102205A9FCF7AC
:105E9000C3F831460F98FFF763FF31460F98FFF7BD
:105EA00077FF6E731BE00F4809992246415A002381
:105EB0000F98FFF789FF0F98FFF71AFE31460F98EA
:105EC000FFF74EFF31460F98FFF762FF05E0032E04
:105ED00005D131460F98FFF743FF00206873687BB8
:105EE00011B0F0BDD063002010B500883C225043B3
:105EF000064A80182822125C012A01D0044810BDED
:105F00000A468069002100F051FC10BD806000202D
:105F100027240000FFB58BB015460446134645A064
:105F20000C9A0E99FCF7A8F851A0FCF7A5F8514877
:105F30000020C046002069464F4E8883888B3C2154
:105F4000484380193021095C00296AD00A2D05D206
:105F500029463430FCF7FCF8002862D06846818B73
:105F60000E9800F0DDF800285BD108A8FCF7D8FBFC
:105F70006A46908B3C2148438019017AE088128C54
:105F8000821A91420BD03D4A904201D3002906D09B
:105F9000FEF71EF8022818D003281CD041E06946FD
:105FA000898B3C2251438919CE68002E0BD0149A5C
:105FB000159902920E9B0193009503910246A188C8
:105FC00007A80C9BB0470FB0F0BD04AA0121A01D8B
:105FD00000F0A4FE04E004AA0121A01D00F0F6FDDB
:105FE00000281ED16846808B3C21484380193830F8
:105FF0000499FCF7ADF8002813D06846808B3C214B
:1060000048438019C768002F0BD0149915980E9A31
:106010000291039000950192E288A18807A80C9B49
:10602000B8476946888B401C80B288830A2885D38C
:10603000C9E700005B4143434553535D3A20486143
:106040006E646C65205278204F70636F64653A30DF
:1060500078253038582C20534E483A307825303443
:10606000582C20414B483A3078253034582E0A00BD
:106070000D0A000048F7FF1F80600020FCFF0000B1
:1060800010B50C211448FBF7EBFF13484B21C90056
:106090000C30FBF7F7FF124810490180114941808D
:1060A000002484801E21C18000F034F8FFF7E6FD53
:1060B00000F01EF800210C48FEF75CFA0B4800F0D7
:1060C0006DF8054900200C313C2242435218401C17
:1060D00054620A28F8D310BD746000200405000043
:1060E000D86200201262000045480111FF03000041
:1060F00010B550210548FBF7C5FF00210448FF22D9
:10610000416002708160084610BD0000E46200201A
:10611000A8F9FF1F01480F2101817047D8620020B4
:106120003C22514330B50A4A034689180C8A4A6911
:106130000648002106E08D0055599D4201D10020FE
:1061400030BD491CA142F6D330BD0000FFFF000066
:1061500080600020F8B50F4D0068A9680E4F081840
:10616000A86000266C6812E0A068A968884210D870
:10617000A0883C214843C0190021C26A201D9047D5
:10618000E06868602046E660FFF708FCE468002CE1
:10619000EAD1F8BDA8F9FF1F80600020F8B5114DC5
:1061A0000646012229780020FBF7D8FF002818DBDB
:1061B00000240120A04030420CD01420214641434D
:1061C0000848001D0F18297800207A68FBF7CCFFDB
:1061D00038698047641C0A2CEBD329780020FBF730
:1061E000C9FFF8BDC0F9FF1FF8B5114D06460022E2
:1061F00029781046FBF7B2FF002818DB00240120A5
:10620000A04030420CD01420214641430848001DD4
:106210000F18297800207A68FBF7A6FFF8688047F6
:10622000641C0A2CEBD329780020FBF7A3FFF8BDF0
:10623000C0F9FF1FF0B59446134A1C461388028824
:106240003C204243114885B01218107A0A9E181853
:10625000938B927F0B9D80B2012A03D00A2B03D32C
:10626000002206E0032204E01A4628277A43084F5A
:10627000BA5A084F3F78009701AF52C7049561465C
:10628000FCF762FF05B0F0BD406300208060002095
:1062900090670020B4F9FF1FF0B50A23144C0022C8
:1062A0003C2555432E193027BF5D002F0DD0655971
:1062B0000768BD420CD135790779BD4208D1357ADE
:1062C000067AB54204D10B48F0BD0A2B00D1134623
:1062D000521C0A2AE4D30A2B08D03C205843001948
:1062E0000122203002740B800020F0BD0248F0BD76
:1062F0008060002023240000FFFF0000F8B51E4648
:106300001D4B002810D0002A0ED0002E0CD00023E8
:106310001D463360194B2F01DF59002F06D06D1C2D
:10632000ADB2052DF7D31EE01846F8BD87098006EB
:10633000800E002F06D0012F17D0022F17D0032F69
:1063400001D116E00446CC402801C5182C60108805
:10635000A8800020E860002D05D0002C03D028463E
:10636000FFF71CFB35600020F8BD0A2402E064241E
:1063700000E0034C6043E5E7FFFF0000E46200201B
:1063800070170000F8B5144F002808D0134E0025F0
:10639000746884421AD1E068002802D007E03846C9
:1063A000F8BD3078FBF7B0FEFF203070B560256097
:1063B000A780A560E0687060E5600AE0814205D1D1
:1063C000C168E160056087808560C560E16800297B
:1063D000F4D10020F8BD0000FFFF0000A8F9FF1F66
:1063E00010B500F005FA044900200870FF21413182
:1063F0000248FBF747FE10BD51F9FF1F184300206C
:1064000010B550210648FBF73DFE00200449FF224D
:106410000301401CCA540528FAD3002010BD000017
:10642000C842002070B500242246052811D28500FC
:1064300016482B185E18B178002901D0491EB1709A
:106440009978002903D1D978002900D142538020BE
:1064500015E00A2816D21423401F58430B4B643B07
:10646000C0184318997C002901D0491E9974817C79
:10647000002903D1C17C002900D102824020FFF70E
:10648000B3FE00E0024C204670BD0000BC6300205B
:1064900022240000F8B507462820124A002178433C
:1064A000C94380184184B8B2002500903C20294699
:1064B00041430D480C1826462036307C01280DD16A
:1064C000204634303946FBF7B9FD307A012805D132
:1064D000A18B0098814201D1002030726D1C0A2DE1
:1064E000E4D3F8BD906700208060002000200449BC
:1064F00002468300401CC0B2CA500228F9D370473C
:10650000A0FAFF1FF7B582B00024029A3F49960017
:106510008A5925462046137C10E00C27D168474352
:10652000CF5D03998F4208D10C2141430C460834BA
:10653000D568091D2C596D5802E0401C8342ECD8E7
:1065400083421ED15C2132A0FBF7BAFD002805D0A2
:106550005C212FA0FBF7B4FD401C00E02CA08B2198
:106560003C4C0346009134A221460120FBF7AEFDCE
:1065700039A221460120039BFBF7A8FD444805B042
:10658000F0BD126801A90498904707461F49019A77
:1065900038E08859E3008068C058104231D08859EB
:1065A0000D468168E000001D095800290AD00498B2
:1065B00088470746A8594268002A25D039460498DA
:1065C000904721E05C2112A0FBF77AFD002805D05E
:1065D0005C210FA0FBF774FD401C00E00CA0BE2165
:1065E0001C4C0346009114A221460120FBF76EFDCE
:1065F0000398009027A221460120029BFBF766FD2D
:1066000002E0641CAC42C4D93846B8E7A0FAFF1FC8
:106610002E2E2F6D6573682F707269766174652FE9
:10662000636F72652F66736D2F66736D5F656E673E
:10663000696E652E630000000A5B2A2A20455252CB
:10664000202A2A5D3A5B25735D3A5B25645D3A201A
:1066500000000000000200405B46534D5D3A2055AB
:106660006E6B6E6F776E204576656E742030782580
:10667000303258205265636569766564202D206448
:10668000726F7070696E67206576656E740A0000BF
:10669000FFFF00005B46534D5D3A5B253032585D8D
:1066A00020526563656976656420556E6B6E6F7701
:1066B0006E204576656E7420253032580A00000041
:1066C00038B50024174B224695005D59002D07D0A0
:1066D000521CD2B2022AF7D30A70022A03D01EE05B
:1066E00095005851F8E75C210FA0FBF7E9FC002862
:1066F00005D05C210CA0FBF7E3FC401C00E00AA0E5
:1067000044211A4C0346009111A221460120FBF7B7
:10671000DDFC17A221460120FBF7D8FC224C2046C5
:1067200038BD0000A0FAFF1F2E2E2F6D6573682F55
:10673000707269766174652F636F72652F66736D11
:106740002F66736D5F656E67696E652E630000006E
:106750000A5B2A2A20455252202A2A5D3A5B257379
:106760005D3A5B25645D3A200000000000020040B5
:106770005B46534D5D3A2046534D20526567697321
:10678000746572204661696C65642E204E6F2066C8
:1067900072656520696E64657820617661696C61F7
:1067A000626C65210A000000FFFF000030B50E4B4F
:1067B000052808D284000D48251869188978002911
:1067C00010D0005B0CE00A280CD21424401F604358
:1067D000064C643C00194118897C002902D0008ACB
:1067E00010800023184630BD22240000BC63002026
:1067F00010B51348806981061248890E006801D1DE
:10680000401C1BD010A0FBF737FC18A0FBF734FC92
:1068100017480020C04617A0FBF72EFC13A0FBF77B
:106820002BFC13480020C04607A0FBF725FC0FA057
:10683000FBF722FC0E480020C046FEE710BD00001A
:1068400040F00040000A00113D3D3D3D3D3D3D3DD5
:106850003D3D3D3D3D3D3D3D3D3D3D3D3D3D3D3D68
:106860003D3D3D3D3D3D3D3D3D0A00000D0A0000E2
:1068700048F7FF1F3D3D3D3D20205B444F204E4FDC
:106880005420535550504F5254204D4553485D208D
:10689000203D3D3D3D0A000038B50021684601809D
:1068A000094C02236A4621780020FBF769FC684600
:1068B00000880A2806D1FF239133044A217800205A
:1068C000FBF75EFC38BD0000C0F9FF1F9067002099
:1068D00038B50021684601800B4C02236A462178B6
:1068E0000020FBF74DFC6846008805280BD10223E9
:1068F000064A21780020FBF743FC6423044A2178F0
:106900000020FBF73DFC38BDC0F9FF1FBAF9FF1F9F
:106910002069002038B5002468460480094D022310
:106920006A4629782046FBF72BFC68460088062833
:1069300007D11823044A29780020FBF721FC0248DC
:10694000847038BDC0F9FF1F4063002038B50024B3
:1069500068460480114D02236A4629782046FBF7D9
:106960000FFC68460088022816D10C230C4A2978AF
:106970000020FBF705FC0A230A4A29780020FBF7D0
:10698000FFFB074A00200621414389180C718C70D7
:10699000401CCC700228F6D338BD0000C0F9FF1FA0
:1069A00074600020D862002038B500246846048056
:1069B0000E4D02236A4629782046FBF7E1FB684624
:1069C00000880A2810D14B23DB00094A29780020CF
:1069D000FBF7D6FB064900203C22424352182032E6
:1069E000401C14740A28F7D338BD0000C0F9FF1FFB
:1069F0008060002038B5002168460180084C0223E1
:106A00006A4621780020FBF7BBFB68460088052812
:106A100005D11423034A21780020FBF7B1FB38BDD0
:106A2000C0F9FF1FBC6300201CB507480423017890
:106A3000002001AAFBF7A4FB401C04D001980090A1
:106A40006846FDF7F3FA1CBDC0F9FF1F38B50021F9
:106A5000684601800F4C02236A4621780020FBF72C
:106A60008FFB68460088082812D10C230A4A217837
:106A70000020FBF785FB0223084A21780020FBF762
:106A80007FFB0F239B01064A21780020FBF778FB50
:106A900038BD0000C0F9FF1F34630020B8F9FF1FA4
:106AA000D063002038B50021684601800B4C0223DA
:106AB0006A4621780020FBF763FB684600880228BD
:106AC0000BD10423064A21780020FBF759FB012350
:106AD000044A21780020FBF753FB38BDC0F9FF1FA3
:106AE000BCF9FF1FB5F9FF1F38B5002168460180CA
:106AF000084C02236A4621780020FBF741FB6846D8
:106B00000088052805D16423034A21780020FBF77B
:106B100037FB38BDC0F9FF1F5863002010B5FFF7E1
:106B200067FEFEF721F9FEF74DFBFEF759FB024821
:106B3000FDF75EFA10BD00009D53011110B5FFF77F
:106B400057FE0A48002101604160F0210848FBF728
:106B500099FA00F0C9FC01F0A1F900F05FFF01F023
:106B60007BFA04490120FCF7C1FC10BD84F9FF1F2A
:106B70000C5E00203D74011110B5FFF739FE0E497F
:106B80000220FCF7A3FC0D490420FCF79FFC0C49F4
:106B90000020FCF7ABFC01F0C3FC0A4801F09CFCB0
:106BA0000949002008704870FF220A54401CC0B2F6
:106BB0000228FAD310BD00000581011135850111AD
:106BC000B9890111846900209DFAFF1FF0B50546BF
:106BD0000B480C4C00239E00A65B002E0BD02F8888
:106BE000B74208D19D002C1961188978002901D07D
:106BF00000201360F0BD5B1C052BECD3F0BD000042
:106C000021240000BC630020F8B50524174E184D60
:106C10008C46002399006F5A002F09D00188B94291
:106C200009D19900491961448F787F1C8F7005E064
:106C3000052C00D11C465B1C052BEBD3052B01D08A
:106C400013600BE0052C0ED00188A00029524119D9
:106C5000604608188178491C8170146000268020E5
:106C6000FFF7C2FA00E014603046F8BD20240000AF
:106C7000BC630020FFB50525264F274E81B00024B8
:106C8000142060438119088A002806D01022019838
:106C9000FBF7BCF9002812D002E0052D00D12546F3
:106CA000641C052CECD3052C12D00499601D0860DF
:106CB00014204443A019018A0398018022E0142083
:106CC0006043811902980918887C401C8874EAE79F
:106CD000052D1BD01021039A019800F03DF91420D6
:106CE00068438419102220460199FBF795F903980F
:106CF0000088208202982118887C401C887404989F
:106D00006D1D056000274020FFF76EFA384605B07C
:106D1000F0BD00002024000058630020F0B50546B7
:106D20000D480E4C002314265E433619368A002E79
:106D30000DD02F88B7420AD114255D432C19611854
:106D4000897C002902D05B1D00201360F0BD5B1C14
:106D5000052BE8D3F0BD000021240000586300207B
:106D6000F0B587B01F4602AB009313460A461026C3
:106D700001460C9D0D9C01960020FBF7ADF902AB7E
:106D80002A463946002001960094FBF7A5F907B082
:106D9000F0BD0000FFB5B9B035A01F46429D0068A8
:106DA00011371C462C90802F5FD831AA04212CA8C3
:106DB00000F0C0F82DA81026009031AB01960020FD
:106DC0003A9A3999FBF788F922460BA83B99FBF7C9
:106DD00023F901210BA8015502A80090601C82B282
:106DE00001962DAB0BA90020FBF776F902A80FC87E
:106DF0000E930BAB07C30FA822463B992B90FBF7D2
:106E00000BF90BA8001902210A90017406A8009042
:106E1000BAB22DAB0BA901960020FBF75DF906A8CD
:106E20000FC80E930BAB07C322463B992B98FBF779
:106E3000F3F80A980321017435A80090BAB22DAB7B
:106E40000BA901960020FBF747F96846C07D102288
:106E50004006400E287006A9681CFBF7DDF828469E
:106E6000102235A91130FBF7D7F83DB0F0BD000076
:106E7000736D6B32F0B5064691B014A00D460068F4
:106E800013A1109003C917460F910E9002AA042176
:106E900010A800F04FF806A81024009002AB2A4674
:106EA000314601940020FBF717F90AA8009006ABC1
:106EB00005220EA901940020FBF70EF908220CA967
:106EC0003846FBF7A9F811B0F0BD0000736D6B33C5
:106ED0006964363401000000F0B5074691B013A094
:106EE0000068069012A0006815460E46079008AA92
:106EF000042106A800F01EF80CA81024009008AB8E
:106F00003246394601940020FBF7E6F802A80090CB
:106F10000CAB042207A901940020FBF7DDF86846BA
:106F2000C07D8006800E287011B0F0BD736D6B348B
:106F30006964360100B587B000230593029303937B
:106F40000493009210230A460193014602AB0020ED
:106F5000FBF7C2F807B000BD70B506468CB010A0B4
:106F6000006814460D46069007AA042106A8FFF7FC
:106F7000E1FF102102A80191009007AB2A4631469B
:106F80000020FBF7A9F86846807D8006800E8030DF
:106F900001026846C07D084320800CB070BD00002F
:106FA0007674616438B50A2069460880074C02236C
:106FB0006A4621780020FBF7E9F8FF239133044A61
:106FC00021780020FBF7E2F838BD0000C0F9FF1F70
:106FD0009067002038B5052069460880094C0223D7
:106FE0006A4621780020FBF7D1F80223064A21786F
:106FF0000020FBF7CBF86423044A21780020FBF73C
:10700000C5F838BDC0F9FF1FBAF9FF1F206900207D
:1070100038B5062069460880064C02236A46217866
:107020000020FBF7B3F81823034A21780020FBF770
:10703000ADF838BDC0F9FF1F4063002038B502200D
:1070400069460880094C03466A4621780020FBF710
:107050009DF80C23064A21780020FBF797F80A23B5
:10706000044A21780020FBF791F838BDC0F9FF1FD2
:1070700074600020D862002038B50A206946088074
:10708000074C02236A4621780020FBF77FF84B2348
:10709000DB00044A21780020FBF778F838BD0000B7
:1070A000C0F9FF1F8060002038B5052069460880C0
:1070B000064C02236A4621780020FBF767F8142368
:1070C000034A21780020FBF761F838BDC0F9FF1FA3
:1070D000BC6300201CB56846FCF782FF034804230C
:1070E0000178002001AAFBF751F81CBDC0F9FF1F71
:1070F00038B50820694608800D4C02236A4621787D
:107100000020FBF743F80C230A4A21780020FBF704
:107110003DF80223084A21780020FBF737F80F23B7
:107120009B01064A21780020FBF730F838BD0000AB
:10713000C0F9FF1F34630020B8F9FF1FD06300209F
:1071400038B5022069460880094C03466A46217812
:107150000020FBF71BF80423064A21780020FBF7E8
:1071600015F80123044A21780020FBF70FF838BDF9
:10717000C0F9FF1FBCF9FF1FB5F9FF1F38B5052087
:1071800069460880064C02236A4621780020FAF7F7
:10719000FDFF6423034A21780020FAF7F7FF38BD8A
:1071A000C0F9FF1F58630020F8B52D48FCF72AFEF0
:1071B0002C48002505702C492C48FAF763FF00265F
:1071C000FF27E137FF2080003146414327480C1854
:1071D000FF2189002046FAF755FF0720C00120183B
:1071E000C565056645668566204614303946FAF75A
:1071F00049FF2046FF30F9303946FAF743FF204671
:10720000FF30C130C58685860F2080012018458358
:107210001F2105834901FF2061188876761C2074A0
:10722000052ECFD30F481421458085801048FAF7EA
:1072300029FF0F48FF2404730E211430FAF710FFC2
:107240000B481821143004732C38FAF71BFF084838
:107250000E21183804752C30FAF702FFF8BD000033
:1072600055A1011160F9FF1FEC130000D449002063
:10727000D85D002030B5124C124B227819781E2AA6
:1072800015D089181E2901D31E3989B20E4B0578F5
:10729000C9005D54C91845784D7083884B8080685B
:1072A00048601E2A01D0521C2270002030BD4D1CA7
:1072B000EDB21D701E2DE9D100251D70E6E700001E
:1072C0008EF9FF1F8CF9FF1F0C5E002070B50E4673
:1072D0000546144605211046FAF7C2FE2572280A13
:1072E000E071280CA071280E607120460722F11D64
:1072F0000930FAF791FE70BDFFB5A7B00878309C51
:10730000C0090D46207009784906490E617017A919
:10731000FBF7C2F919AA29461798FFF7D7FF464885
:107320002A997CE012AB19AA1DA9284600F01CF985
:1073300010A8007AC009A07010A8007A4006400E7C
:10734000E07010A8407A010210A8807A0843010278
:1073500010A8C27A007B0A430102A18010A8407BDA
:107360000143A1802046A26000F0C8F800284CD05C
:107370000EA8062212A90130FAF74EFE279800281F
:1073800045D0032008A9087600204876002010AADE
:107390001070C87717981071010AD170010C9170A4
:1073A000000E5070A17804208840C6B22998324659
:1073B0002818811B25A8FAF72FFE002125AA06A868
:1073C00003AB029145C3084629990190891BC91F47
:1073D00089B20091EB1D0D220EA921A8FAF7DCFE5F
:1073E000002818DB6946087E0002E080497E0843D9
:1073F000E080299806A9801B093882B232980231B0
:1074000002803198FAF708FE13E00B4F11E00020DC
:1074100008A90876BAE72A982A990088401C0880AB
:10742000607821AB1DAA2A99FBF706FB070000D163
:1074300078E738462BB0F0BDFFFF0000F0B50446FA
:1074400006788FB0401C0D90607A27460202A07A21
:107450000D3710430202E07A0D4610430202207BF2
:10746000104302901F486A461082083D06AB07AAE7
:1074700004A90D98FBF75EFA00282CD10820019092
:10748000AAB207AB214600970120FAF725FE002893
:1074900023DB6846008A00281DD1F10701D00222B3
:1074A00000E0032269460A75097E012904D105A975
:1074B000FBF7E0FB00280ED1B007C10F684601754D
:1074C0000298FBF7A7FB002805D168463146008AE1
:1074D000029AFDF71DF80FB0F0BD6946088A401CFE
:1074E0000882C3E7FFFF000002490020087002493C
:1074F000087070478EF9FF1F8CF9FF1FF0B5174910
:10750000184D154C09780023154A2D781FE0CE0040
:10751000B446B618B64676784778BE4210D166466D
:10752000965D0778BE420BD1764676888788BE4244
:1075300006D1764676688768BE4201D1002408E00D
:10754000491C89B21E2900D100215B1C9BB2AB42B1
:10755000DDD32046F0BD0000FFFF00008CF9FF1FC7
:107560000C5E00208EF9FF1F70B51C4613460546C1
:1075700022461846FAF716FE002029184978225CA0
:1075800051402154401C0628F7D370BDFFB593B07D
:107590001D4614460E460D2B77D307A804A90AAF43
:1075A0000091029008AB2A46019721461398FFF7F5
:1075B000A3FE002869D16846C47C417C807C069A81
:1075C00001900294009203916846037CC28A818AEA
:1075D0004248FAF751FD42A0FAF74EFD414800201B
:1075E000C0466846828B29463FA0FAF745FD3CA07D
:1075F000FAF742FD3B480020C0466846808AFCF707
:10760000E7FC012841D10125002E05D06846818A7A
:107610000025304600F01EFA6846C08A00281FD0B8
:1076200004A8FFF727FE10A904A8FDF727FE3C4990
:1076300080B2884242D16846C07C01283ED90021F0
:107640006846FAF7FDFF012109A8FAF7F9FF684635
:10765000007801281BD008A80079012817D02DE058
:107660001398022811D16846807C01280DD1684604
:10767000C07C002809D16846808B00906846028C47
:107680000AAB314604A800F003FA17B0F0BD684613
:10769000C17C491EC1740197818B0181008C032834
:1076A00003D303A9FAF75CFF01E0694688816846C5
:1076B00081892B4601AA04A800F038F8194805680A
:1076C000002DE2D0184910988842DED16846C47473
:1076D000838B018C0AAA04A8A847D6E7C0AC011185
:1076E0000D0A000048F7FF1F5B4E45542052785D9D
:1076F0006E65745F70646174615F6C656E203D20BF
:107700003078253034582C2074726E5F7064755F49
:107710006C656E203D203078253034580D0A00000D
:107720001821000080F9FF1FFFFF0000FFB50400D3
:107730007048B3B0154605D0002D03D0A988102994
:1077400002D9401E37B0F0BDA0780422E378824011
:10775000D7B2369A0293049203910190A0680090E8
:107760002378E288A1886448FAF786FC63A0FAF7D8
:1077700083FC63480020C0461EA93498FBF75AF8E2
:1077800006000CD002465FA03499FAF775FC5BA0A6
:10779000FAF772FC5A480020C0463046D2E728A9C2
:1077A0003498FBF765F82CA93498FBF707F8207894
:1077B0000FAEC10118A8007E4006400E014308A884
:1077C0000177A078C101E0784006400E014308A887
:1077D0004177217A10A801702089010A08A8C17791
:1077E000A068010C08A88177217910A88170A08871
:1077F000010A10A84170A1790171E088010A10A85E
:10780000C1703046AA8809302968FAF705FCA888B3
:10781000093085B208A8017F684601761FA8FAF7EB
:107820007FFF16A80622711C0130FAF7F5FB10A89D
:10783000A188808F814202D1E08800284BD00020AF
:1078400010A90876369801284CD00026002118A8E7
:10785000017010A8C1771DA8FAF70AFF1D9918A892
:1078600001710A0AC2700A0C8270090E417000216F
:1078700030AA413803AB029185C30846E91F89B29B
:10788000009101902B330D2216A92CA8FAF790FC39
:1078900006A840193A4630A9FAF7BEFB24AA06A961
:1078A0001D98FFF713FD20AB24AA28A90FA8FFF706
:1078B0005BFE002006A920AA125C0B18401CC0B277
:1078C0005A700628F7D3E81983B2E18806AA304631
:1078D00000F05AFA36E7032010A90876002048760F
:1078E0000226B3E70126FAF769FC16498842ADD1B2
:1078F000002027E71321000024AD01110D0A00002C
:1079000048F7FF1F5B4E45542054785D20496E7642
:10791000616C6964205375626E65742048616E64A1
:107920006C653A3078253034582E20526574757263
:107930006E696E67205374617475732030782530DA
:1079400034580A00FFFF000030B500780E2148438C
:1079500010490F4C41180B46203BD87F002814D00B
:10796000002A13D0002045004D19403D6D8E9542F0
:1079700002D0401C0528F6D3997F002902D00528A3
:1079800002D303E0052801D3204630BD002030BDDE
:10799000FFFF00006460002030B403780E225343E0
:1079A0000F4A00219B18403B998703780E246343BC
:1079B0009B18203B997703780E256B439A18FF2478
:1079C000203AD477074A9468002C06D0117000231F
:1079D000A44630BC1A460121604730BC7047000005
:1079E0006460002098F9FF1F13B569460A79017891
:1079F0000E235943074BC9182039CA7706498C68AA
:107A0000002C05D001220A70134601AA0021A047CC
:107A10001CBD00006460002098F9FF1F70B50E21A6
:107A20000A48FAF71DFB094D002428460A21FAF7F7
:107A300017FBFF200649687348708870CC70CC60D3
:107A40000C718C600C70204670BD000064600020DA
:107A500098F9FF1F18B500221446009202780E23F1
:107A60005A430A4BD2181346203BDB7F012B0BD124
:107A7000403A928F002A07D16A465170090A117064
:107A80000223012100F07AF8204618BD646000202E
:107A900070B50D46187804991C461646002810D07B
:107AA000491E012816D0022818D0032808D11148F1
:107AB0008668002E04D00323621C02212846B047AA
:107AC00070BD0229FCD859780129F9D8284600F060
:107AD000C9F809E08BB2621C012102E08BB2621C82
